{
  "_format": "hh-sol-artifact-1",
  "contractName": "Migratable",
  "sourceName": "contracts/base/lib/upgrades/Migratable.sol",
  "abi": [
    {
      "anonymous": false,
      "inputs": [
        {
          "indexed": false,
          "internalType": "string",
          "name": "contractName",
          "type": "string"
        },
        {
          "indexed": false,
          "internalType": "string",
          "name": "migrationId",
          "type": "string"
        }
      ],
      "name": "Migrated",
      "type": "event"
    },
    {
      "inputs": [],
      "name": "initialize",
      "outputs": [],
      "stateMutability": "nonpayable",
      "type": "function"
    },
    {
      "inputs": [
        {
          "internalType": "string",
          "name": "contractName",
          "type": "string"
        },
        {
          "internalType": "string",
          "name": "migrationId",
          "type": "string"
        }
      ],
      "name": "isMigrated",
      "outputs": [
        {
          "internalType": "bool",
          "name": "",
          "type": "bool"
        }
      ],
      "stateMutability": "view",
      "type": "function"
    }
  ],
  "bytecode": "0x608060405234801561001057600080fd5b506106c3806100206000396000f3fe608060405234801561001057600080fd5b50600436106100365760003560e01c80638129fc1c1461003b578063c0bac1a814610045575b600080fd5b610043610075565b005b61005f600480360381019061005a919061043b565b610242565b60405161006c91906104ce565b60405180910390f35b6040518060400160405280600a81526020017f4d696772617461626c65000000000000000000000000000000000000000000008152506040518060400160405280600581526020017f312e322e31000000000000000000000000000000000000000000000000000000815250610120826040518060400160405280600b81526020017f696e697469616c697a6564000000000000000000000000000000000000000000815250610293565b61012a8282610293565b7fdd117a11c22118c9dee4b5a67ce578bc44529dce21ee0ccc439588fbb9fb4ea3828260405161015b929190610571565b60405180910390a1600160008360405161017591906105e4565b90815260200160405180910390208260405161019191906105e4565b908152602001604051809103902060006101000a81548160ff02191690831515021790555060016000836040516101c891906105e4565b90815260200160405180910390206040518060400160405280600b81526020017f696e697469616c697a656400000000000000000000000000000000000000000081525060405161021991906105e4565b908152602001604051809103902060006101000a81548160ff0219169083151502179055505050565b6000808360405161025391906105e4565b90815260200160405180910390208260405161026f91906105e4565b908152602001604051809103902060009054906101000a900460ff16905092915050565b61029d8282610242565b156102dd576040517f08c379a00000000000000000000000000000000000000000000000000000000081526004016102d49061066d565b60405180910390fd5b5050565b6000604051905090565b600080fd5b600080fd5b600080fd5b600080fd5b6000601f19601f8301169050919050565b7f4e487b7100000000000000000000000000000000000000000000000000000000600052604160045260246000fd5b610348826102ff565b810181811067ffffffffffffffff8211171561036757610366610310565b5b80604052505050565b600061037a6102e1565b9050610386828261033f565b919050565b600067ffffffffffffffff8211156103a6576103a5610310565b5b6103af826102ff565b9050602081019050919050565b82818337600083830152505050565b60006103de6103d98461038b565b610370565b9050828152602081018484840111156103fa576103f96102fa565b5b6104058482856103bc565b509392505050565b600082601f830112610422576104216102f5565b5b81356104328482602086016103cb565b91505092915050565b60008060408385031215610452576104516102eb565b5b600083013567ffffffffffffffff8111156104705761046f6102f0565b5b61047c8582860161040d565b925050602083013567ffffffffffffffff81111561049d5761049c6102f0565b5b6104a98582860161040d565b9150509250929050565b60008115159050919050565b6104c8816104b3565b82525050565b60006020820190506104e360008301846104bf565b92915050565b600081519050919050565b600082825260208201905092915050565b60005b83811015610523578082015181840152602081019050610508565b83811115610532576000848401525b50505050565b6000610543826104e9565b61054d81856104f4565b935061055d818560208601610505565b610566816102ff565b840191505092915050565b6000604082019050818103600083015261058b8185610538565b9050818103602083015261059f8184610538565b90509392505050565b600081905092915050565b60006105be826104e9565b6105c881856105a8565b93506105d8818560208601610505565b80840191505092915050565b60006105f082846105b3565b915081905092915050565b7f52657175657374656420746172676574206d6967726174696f6e20494420686160008201527f7320616c7265616479206265656e2072756e0000000000000000000000000000602082015250565b60006106576032836104f4565b9150610662826105fb565b604082019050919050565b600060208201905081810360008301526106868161064a565b905091905056fea26469706673582212205932cf1afa0f5313507086b2b94045a98d8fce128b4e639ea8a86e751aca6c1564736f6c63430008090033",
  "linkReferences": {},
  "deployedLinkReferences": {}
}