{
  "_format": "hh-sol-artifact-1",
  "contractName": "TeamPool",
  "sourceName": "contracts/pools/team/TeamPool.sol",
  "abi": [
    {
      "anonymous": false,
      "inputs": [
        {
          "indexed": true,
          "internalType": "address",
          "name": "previousOwner",
          "type": "address"
        },
        {
          "indexed": true,
          "internalType": "address",
          "name": "newOwner",
          "type": "address"
        }
      ],
      "name": "OwnershipTransferred",
      "type": "event"
    },
    {
      "inputs": [
        {
          "internalType": "address",
          "name": "_beneficiary",
          "type": "address"
        },
        {
          "internalType": "uint256",
          "name": "_start",
          "type": "uint256"
        },
        {
          "internalType": "uint256",
          "name": "_cliff",
          "type": "uint256"
        },
        {
          "internalType": "uint256",
          "name": "_duration",
          "type": "uint256"
        },
        {
          "internalType": "uint256",
          "name": "totalTokens",
          "type": "uint256"
        },
        {
          "internalType": "bool",
          "name": "revokable",
          "type": "bool"
        }
      ],
      "name": "addVestor",
      "outputs": [
        {
          "internalType": "contract TokenVesting",
          "name": "",
          "type": "address"
        }
      ],
      "stateMutability": "nonpayable",
      "type": "function"
    },
    {
      "inputs": [],
      "name": "balance",
      "outputs": [
        {
          "internalType": "uint256",
          "name": "",
          "type": "uint256"
        }
      ],
      "stateMutability": "view",
      "type": "function"
    },
    {
      "inputs": [],
      "name": "getFrom",
      "outputs": [
        {
          "internalType": "address",
          "name": "",
          "type": "address"
        }
      ],
      "stateMutability": "view",
      "type": "function"
    },
    {
      "inputs": [],
      "name": "owner",
      "outputs": [
        {
          "internalType": "address",
          "name": "",
          "type": "address"
        }
      ],
      "stateMutability": "view",
      "type": "function"
    },
    {
      "inputs": [],
      "name": "renounceOwnership",
      "outputs": [],
      "stateMutability": "nonpayable",
      "type": "function"
    },
    {
      "inputs": [
        {
          "internalType": "address",
          "name": "_beneficiary",
          "type": "address"
        },
        {
          "internalType": "uint256",
          "name": "index",
          "type": "uint256"
        }
      ],
      "name": "revoke",
      "outputs": [],
      "stateMutability": "nonpayable",
      "type": "function"
    },
    {
      "inputs": [
        {
          "internalType": "contract IERC20",
          "name": "newToken",
          "type": "address"
        }
      ],
      "name": "setToken",
      "outputs": [],
      "stateMutability": "nonpayable",
      "type": "function"
    },
    {
      "inputs": [],
      "name": "token",
      "outputs": [
        {
          "internalType": "contract IERC20",
          "name": "",
          "type": "address"
        }
      ],
      "stateMutability": "view",
      "type": "function"
    },
    {
      "inputs": [
        {
          "internalType": "address",
          "name": "newOwner",
          "type": "address"
        }
      ],
      "name": "transferOwnership",
      "outputs": [],
      "stateMutability": "nonpayable",
      "type": "function"
    },
    {
      "inputs": [
        {
          "internalType": "address",
          "name": "_beneficiary",
          "type": "address"
        }
      ],
      "name": "vestingCount",
      "outputs": [
        {
          "internalType": "uint256",
          "name": "",
          "type": "uint256"
        }
      ],
      "stateMutability": "view",
      "type": "function"
    }
  ],
  "bytecode": "0x608060405234801561001057600080fd5b5061002d61002261003260201b60201c565b61003a60201b60201c565b610100565b600033905090565b6000600160009054906101000a900473ffffffffffffffffffffffffffffffffffffffff16905081600160006101000a81548173ffffffffffffffffffffffffffffffffffffffff021916908373ffffffffffffffffffffffffffffffffffffffff1602179055508173ffffffffffffffffffffffffffffffffffffffff168173ffffffffffffffffffffffffffffffffffffffff167f8be0079c531659141344cd1fd0a4f28419497f9722a3daafe3b4186f6b6457e060405160405180910390a35050565b6129808061010f6000396000f3fe60806040523480156200001157600080fd5b5060043610620000ac5760003560e01c8063b69ef8a8116200006f578063b69ef8a81462000157578063bc502f1a1462000179578063eac449d914620001af578063f2fde38b14620001cf578063fc0c546a14620001ef57620000ac565b8063144fa6d714620000b15780633d4ef00714620000d1578063715018a61462000107578063798fd17814620001135780638da5cb5b1462000135575b600080fd5b620000cf6004803603810190620000c9919062000df9565b62000211565b005b620000ef6004803603810190620000e9919062000e5c565b620002ae565b604051620000fe919062000ea9565b60405180910390f35b6200011162000354565b005b6200011d620003e5565b6040516200012c919062000ed7565b60405180910390f35b6200013f620003ed565b6040516200014e919062000ed7565b60405180910390f35b6200016162000417565b60405162000170919062000ea9565b60405180910390f35b62000197600480360381019062000191919062000f62565b620004ce565b604051620001a6919062001069565b60405180910390f35b620001cd6004803603810190620001c7919062001086565b620007fa565b005b620001ed6004803603810190620001e7919062000e5c565b62000ab9565b005b620001f962000bbd565b604051620002089190620010f2565b60405180910390f35b600073ffffffffffffffffffffffffffffffffffffffff1660008054906101000a900473ffffffffffffffffffffffffffffffffffffffff1673ffffffffffffffffffffffffffffffffffffffff16146200026b57600080fd5b806000806101000a81548173ffffffffffffffffffffffffffffffffffffffff021916908373ffffffffffffffffffffffffffffffffffffffff16021790555050565b60008073ffffffffffffffffffffffffffffffffffffffff1660008054906101000a900473ffffffffffffffffffffffffffffffffffffffff1673ffffffffffffffffffffffffffffffffffffffff1614156200030a57600080fd5b600260008373ffffffffffffffffffffffffffffffffffffffff1673ffffffffffffffffffffffffffffffffffffffff168152602001908152602001600020805490509050919050565b6200035e62000be1565b73ffffffffffffffffffffffffffffffffffffffff166200037e620003ed565b73ffffffffffffffffffffffffffffffffffffffff1614620003d7576040517f08c379a0000000000000000000000000000000000000000000000000000000008152600401620003ce9062001170565b60405180910390fd5b620003e3600062000be9565b565b600030905090565b6000600160009054906101000a900473ffffffffffffffffffffffffffffffffffffffff16905090565b60008060009054906101000a900473ffffffffffffffffffffffffffffffffffffffff1673ffffffffffffffffffffffffffffffffffffffff166370a08231306040518263ffffffff1660e01b815260040162000475919062000ed7565b60206040518083038186803b1580156200048e57600080fd5b505afa158015620004a3573d6000803e3d6000fd5b505050506040513d601f19601f82011682018060405250810190620004c99190620011a9565b905090565b6000620004da62000be1565b73ffffffffffffffffffffffffffffffffffffffff16620004fa620003ed565b73ffffffffffffffffffffffffffffffffffffffff161462000553576040517f08c379a00000000000000000000000000000000000000000000000000000000081526004016200054a9062001170565b60405180910390fd5b600073ffffffffffffffffffffffffffffffffffffffff1660008054906101000a900473ffffffffffffffffffffffffffffffffffffffff1673ffffffffffffffffffffffffffffffffffffffff161415620005ae57600080fd5b600260008873ffffffffffffffffffffffffffffffffffffffff1673ffffffffffffffffffffffffffffffffffffffff1681526020019081526020016000208787878786604051620006009062000d6d565b62000610959493929190620011ec565b604051809103906000f0801580156200062d573d6000803e3d6000fd5b509080600181540180825580915050600190039060005260206000200160009091909190916101000a81548173ffffffffffffffffffffffffffffffffffffffff021916908373ffffffffffffffffffffffffffffffffffffffff16021790555060006001600260008a73ffffffffffffffffffffffffffffffffffffffff1673ffffffffffffffffffffffffffffffffffffffff16815260200190815260200160002080549050620006e1919062001278565b90506200076d600260008a73ffffffffffffffffffffffffffffffffffffffff1673ffffffffffffffffffffffffffffffffffffffff16815260200190815260200160002082815481106200073b576200073a620012b3565b5b9060005260206000200160009054906101000a900473ffffffffffffffffffffffffffffffffffffffff168562000caf565b50600260008973ffffffffffffffffffffffffffffffffffffffff1673ffffffffffffffffffffffffffffffffffffffff1681526020019081526020016000208181548110620007c257620007c1620012b3565b5b9060005260206000200160009054906101000a900473ffffffffffffffffffffffffffffffffffffffff169150509695505050505050565b6200080462000be1565b73ffffffffffffffffffffffffffffffffffffffff1662000824620003ed565b73ffffffffffffffffffffffffffffffffffffffff16146200087d576040517f08c379a0000000000000000000000000000000000000000000000000000000008152600401620008749062001170565b60405180910390fd5b600073ffffffffffffffffffffffffffffffffffffffff1660008054906101000a900473ffffffffffffffffffffffffffffffffffffffff1673ffffffffffffffffffffffffffffffffffffffff161415620008d857600080fd5b620008e382620002ae565b8110620008ef57600080fd5b600073ffffffffffffffffffffffffffffffffffffffff16600260008473ffffffffffffffffffffffffffffffffffffffff1673ffffffffffffffffffffffffffffffffffffffff16815260200190815260200160002082815481106200095b576200095a620012b3565b5b9060005260206000200160009054906101000a900473ffffffffffffffffffffffffffffffffffffffff1673ffffffffffffffffffffffffffffffffffffffff161415620009a857600080fd5b600260008373ffffffffffffffffffffffffffffffffffffffff1673ffffffffffffffffffffffffffffffffffffffff1681526020019081526020016000208181548110620009fc57620009fb620012b3565b5b9060005260206000200160009054906101000a900473ffffffffffffffffffffffffffffffffffffffff1673ffffffffffffffffffffffffffffffffffffffff166374a8f10360008054906101000a900473ffffffffffffffffffffffffffffffffffffffff166040518263ffffffff1660e01b815260040162000a81919062000ed7565b600060405180830381600087803b15801562000a9c57600080fd5b505af115801562000ab1573d6000803e3d6000fd5b505050505050565b62000ac362000be1565b73ffffffffffffffffffffffffffffffffffffffff1662000ae3620003ed565b73ffffffffffffffffffffffffffffffffffffffff161462000b3c576040517f08c379a000000000000000000000000000000000000000000000000000000000815260040162000b339062001170565b60405180910390fd5b600073ffffffffffffffffffffffffffffffffffffffff168173ffffffffffffffffffffffffffffffffffffffff16141562000baf576040517f08c379a000000000000000000000000000000000000000000000000000000000815260040162000ba69062001358565b60405180910390fd5b62000bba8162000be9565b50565b60008054906101000a900473ffffffffffffffffffffffffffffffffffffffff1681565b600033905090565b6000600160009054906101000a900473ffffffffffffffffffffffffffffffffffffffff16905081600160006101000a81548173ffffffffffffffffffffffffffffffffffffffff021916908373ffffffffffffffffffffffffffffffffffffffff1602179055508173ffffffffffffffffffffffffffffffffffffffff168173ffffffffffffffffffffffffffffffffffffffff167f8be0079c531659141344cd1fd0a4f28419497f9722a3daafe3b4186f6b6457e060405160405180910390a35050565b60008060009054906101000a900473ffffffffffffffffffffffffffffffffffffffff1673ffffffffffffffffffffffffffffffffffffffff1663a9059cbb84846040518363ffffffff1660e01b815260040162000d0f9291906200137a565b602060405180830381600087803b15801562000d2a57600080fd5b505af115801562000d3f573d6000803e3d6000fd5b505050506040513d601f19601f8201168201806040525081019062000d659190620013be565b905092915050565b61155a80620013f183390190565b600080fd5b600073ffffffffffffffffffffffffffffffffffffffff82169050919050565b600062000dad8262000d80565b9050919050565b600062000dc18262000da0565b9050919050565b62000dd38162000db4565b811462000ddf57600080fd5b50565b60008135905062000df38162000dc8565b92915050565b60006020828403121562000e125762000e1162000d7b565b5b600062000e228482850162000de2565b91505092915050565b62000e368162000da0565b811462000e4257600080fd5b50565b60008135905062000e568162000e2b565b92915050565b60006020828403121562000e755762000e7462000d7b565b5b600062000e858482850162000e45565b91505092915050565b6000819050919050565b62000ea38162000e8e565b82525050565b600060208201905062000ec0600083018462000e98565b92915050565b62000ed18162000da0565b82525050565b600060208201905062000eee600083018462000ec6565b92915050565b62000eff8162000e8e565b811462000f0b57600080fd5b50565b60008135905062000f1f8162000ef4565b92915050565b60008115159050919050565b62000f3c8162000f25565b811462000f4857600080fd5b50565b60008135905062000f5c8162000f31565b92915050565b60008060008060008060c0878903121562000f825762000f8162000d7b565b5b600062000f9289828a0162000e45565b965050602062000fa589828a0162000f0e565b955050604062000fb889828a0162000f0e565b945050606062000fcb89828a0162000f0e565b935050608062000fde89828a0162000f0e565b92505060a062000ff189828a0162000f4b565b9150509295509295509295565b6000819050919050565b600062001029620010236200101d8462000d80565b62000ffe565b62000d80565b9050919050565b60006200103d8262001008565b9050919050565b6000620010518262001030565b9050919050565b620010638162001044565b82525050565b600060208201905062001080600083018462001058565b92915050565b60008060408385031215620010a0576200109f62000d7b565b5b6000620010b08582860162000e45565b9250506020620010c38582860162000f0e565b9150509250929050565b6000620010da8262001030565b9050919050565b620010ec81620010cd565b82525050565b6000602082019050620011096000830184620010e1565b92915050565b600082825260208201905092915050565b7f4f776e61626c653a2063616c6c6572206973206e6f7420746865206f776e6572600082015250565b6000620011586020836200110f565b9150620011658262001120565b602082019050919050565b600060208201905081810360008301526200118b8162001149565b9050919050565b600081519050620011a38162000ef4565b92915050565b600060208284031215620011c257620011c162000d7b565b5b6000620011d28482850162001192565b91505092915050565b620011e68162000f25565b82525050565b600060a08201905062001203600083018862000ec6565b62001212602083018762000e98565b62001221604083018662000e98565b62001230606083018562000e98565b6200123f6080830184620011db565b9695505050505050565b7f4e487b7100000000000000000000000000000000000000000000000000000000600052601160045260246000fd5b6000620012858262000e8e565b9150620012928362000e8e565b925082821015620012a857620012a762001249565b5b828203905092915050565b7f4e487b7100000000000000000000000000000000000000000000000000000000600052603260045260246000fd5b7f4f776e61626c653a206e6577206f776e657220697320746865207a65726f206160008201527f6464726573730000000000000000000000000000000000000000000000000000602082015250565b6000620013406026836200110f565b91506200134d82620012e2565b604082019050919050565b60006020820190508181036000830152620013738162001331565b9050919050565b600060408201905062001391600083018562000ec6565b620013a0602083018462000e98565b9392505050565b600081519050620013b88162000f31565b92915050565b600060208284031215620013d757620013d662000d7b565b5b6000620013e784828501620013a7565b9150509291505056fe60806040523480156200001157600080fd5b506040516200155a3803806200155a8339818101604052810190620000379190620002fa565b620000576200004b6200013460201b60201c565b6200013c60201b60201c565b600073ffffffffffffffffffffffffffffffffffffffff168573ffffffffffffffffffffffffffffffffffffffff1614156200009257600080fd5b81831115620000a057600080fd5b84600160006101000a81548173ffffffffffffffffffffffffffffffffffffffff021916908373ffffffffffffffffffffffffffffffffffffffff16021790555080600560006101000a81548160ff021916908315150217905550816004819055506200011c83856200020060201b62000b611790919060201c565b6002819055508360038190555050505050506200040e565b600033905090565b60008060009054906101000a900473ffffffffffffffffffffffffffffffffffffffff169050816000806101000a81548173ffffffffffffffffffffffffffffffffffffffff021916908373ffffffffffffffffffffffffffffffffffffffff1602179055508173ffffffffffffffffffffffffffffffffffffffff168173ffffffffffffffffffffffffffffffffffffffff167f8be0079c531659141344cd1fd0a4f28419497f9722a3daafe3b4186f6b6457e060405160405180910390a35050565b60008183620002109190620003b1565b905092915050565b600080fd5b600073ffffffffffffffffffffffffffffffffffffffff82169050919050565b60006200024a826200021d565b9050919050565b6200025c816200023d565b81146200026857600080fd5b50565b6000815190506200027c8162000251565b92915050565b6000819050919050565b620002978162000282565b8114620002a357600080fd5b50565b600081519050620002b7816200028c565b92915050565b60008115159050919050565b620002d481620002bd565b8114620002e057600080fd5b50565b600081519050620002f481620002c9565b92915050565b600080600080600060a0868803121562000319576200031862000218565b5b600062000329888289016200026b565b95505060206200033c88828901620002a6565b94505060406200034f88828901620002a6565b93505060606200036288828901620002a6565b92505060806200037588828901620002e3565b9150509295509295909350565b7f4e487b7100000000000000000000000000000000000000000000000000000000600052601160045260246000fd5b6000620003be8262000282565b9150620003cb8362000282565b9250827fffffffffffffffffffffffffffffffffffffffffffffffffffffffffffffffff0382111562000403576200040262000382565b5b828201905092915050565b61113c806200041e6000396000f3fe608060405234801561001057600080fd5b50600436106100ea5760003560e01c806374a8f1031161008c5780639852595c116100665780639852595c14610227578063be9a655514610257578063f2fde38b14610275578063fa01dc0614610291576100ea565b806374a8f103146101cf578063872a7810146101eb5780638da5cb5b14610209576100ea565b806319165587116100c8578063191655871461015b578063384711cc1461017757806338af3eed146101a7578063715018a6146101c5576100ea565b80630fb5a6b4146100ef57806313d033c01461010d5780631726cbc81461012b575b600080fd5b6100f76102c1565b6040516101049190610c9e565b60405180910390f35b6101156102c7565b6040516101229190610c9e565b60405180910390f35b61014560048036038101906101409190610d1c565b6102cd565b6040516101529190610c9e565b60405180910390f35b61017560048036038101906101709190610d1c565b610330565b005b610191600480360381019061018c9190610d1c565b6104ca565b60405161019e9190610c9e565b60405180910390f35b6101af610685565b6040516101bc9190610d58565b60405180910390f35b6101cd6106ab565b005b6101e960048036038101906101e49190610d1c565b610733565b005b6101f36109ef565b6040516102009190610d8e565b60405180910390f35b610211610a02565b60405161021e9190610d58565b60405180910390f35b610241600480360381019061023c9190610d1c565b610a2b565b60405161024e9190610c9e565b60405180910390f35b61025f610a43565b60405161026c9190610c9e565b60405180910390f35b61028f600480360381019061028a9190610d1c565b610a49565b005b6102ab60048036038101906102a69190610d1c565b610b41565b6040516102b89190610d8e565b60405180910390f35b60045481565b60025481565b6000610329600660008473ffffffffffffffffffffffffffffffffffffffff1673ffffffffffffffffffffffffffffffffffffffff1681526020019081526020016000205461031b846104ca565b610b7790919063ffffffff16565b9050919050565b600061033b826102cd565b90506000811161034a57600080fd5b61039c81600660008573ffffffffffffffffffffffffffffffffffffffff1673ffffffffffffffffffffffffffffffffffffffff16815260200190815260200160002054610b6190919063ffffffff16565b600660008473ffffffffffffffffffffffffffffffffffffffff1673ffffffffffffffffffffffffffffffffffffffff168152602001908152602001600020819055508173ffffffffffffffffffffffffffffffffffffffff1663a9059cbb600160009054906101000a900473ffffffffffffffffffffffffffffffffffffffff16836040518363ffffffff1660e01b815260040161043c929190610da9565b602060405180830381600087803b15801561045657600080fd5b505af115801561046a573d6000803e3d6000fd5b505050506040513d601f19601f8201168201806040525081019061048e9190610dfe565b507ffb81f9b30d73d830c3544b34d827c08142579ee75710b490bab0b3995468c565816040516104be9190610c9e565b60405180910390a15050565b6000808273ffffffffffffffffffffffffffffffffffffffff166370a08231306040518263ffffffff1660e01b81526004016105069190610d58565b60206040518083038186803b15801561051e57600080fd5b505afa158015610532573d6000803e3d6000fd5b505050506040513d601f19601f820116820180604052508101906105569190610e57565b905060006105ac600660008673ffffffffffffffffffffffffffffffffffffffff1673ffffffffffffffffffffffffffffffffffffffff1681526020019081526020016000205483610b6190919063ffffffff16565b90506002544210156105c357600092505050610680565b6105da600454600354610b6190919063ffffffff16565b421015806106315750600760008573ffffffffffffffffffffffffffffffffffffffff1673ffffffffffffffffffffffffffffffffffffffff16815260200190815260200160002060009054906101000a900460ff165b15610640578092505050610680565b61067b60045461066d61065e60035442610b7790919063ffffffff16565b84610b8d90919063ffffffff16565b610ba390919063ffffffff16565b925050505b919050565b600160009054906101000a900473ffffffffffffffffffffffffffffffffffffffff1681565b6106b3610bb9565b73ffffffffffffffffffffffffffffffffffffffff166106d1610a02565b73ffffffffffffffffffffffffffffffffffffffff1614610727576040517f08c379a000000000000000000000000000000000000000000000000000000000815260040161071e90610ee1565b60405180910390fd5b6107316000610bc1565b565b61073b610bb9565b73ffffffffffffffffffffffffffffffffffffffff16610759610a02565b73ffffffffffffffffffffffffffffffffffffffff16146107af576040517f08c379a00000000000000000000000000000000000000000000000000000000081526004016107a690610ee1565b60405180910390fd5b600560009054906101000a900460ff166107c857600080fd5b600760008273ffffffffffffffffffffffffffffffffffffffff1673ffffffffffffffffffffffffffffffffffffffff16815260200190815260200160002060009054906101000a900460ff161561081f57600080fd5b60008173ffffffffffffffffffffffffffffffffffffffff166370a08231306040518263ffffffff1660e01b815260040161085a9190610d58565b60206040518083038186803b15801561087257600080fd5b505afa158015610886573d6000803e3d6000fd5b505050506040513d601f19601f820116820180604052508101906108aa9190610e57565b905060006108b7836102cd565b905060006108ce8284610b7790919063ffffffff16565b90506001600760008673ffffffffffffffffffffffffffffffffffffffff1673ffffffffffffffffffffffffffffffffffffffff16815260200190815260200160002060006101000a81548160ff0219169083151502179055508373ffffffffffffffffffffffffffffffffffffffff1663a9059cbb61094c610a02565b836040518363ffffffff1660e01b815260040161096a929190610da9565b602060405180830381600087803b15801561098457600080fd5b505af1158015610998573d6000803e3d6000fd5b505050506040513d601f19601f820116820180604052508101906109bc9190610dfe565b507f44825a4b2df8acb19ce4e1afba9aa850c8b65cdb7942e2078f27d0b0960efee660405160405180910390a150505050565b600560009054906101000a900460ff1681565b60008060009054906101000a900473ffffffffffffffffffffffffffffffffffffffff16905090565b60066020528060005260406000206000915090505481565b60035481565b610a51610bb9565b73ffffffffffffffffffffffffffffffffffffffff16610a6f610a02565b73ffffffffffffffffffffffffffffffffffffffff1614610ac5576040517f08c379a0000000000000000000000000000000000000000000000000000000008152600401610abc90610ee1565b60405180910390fd5b600073ffffffffffffffffffffffffffffffffffffffff168173ffffffffffffffffffffffffffffffffffffffff161415610b35576040517f08c379a0000000000000000000000000000000000000000000000000000000008152600401610b2c90610f73565b60405180910390fd5b610b3e81610bc1565b50565b60076020528060005260406000206000915054906101000a900460ff1681565b60008183610b6f9190610fc2565b905092915050565b60008183610b859190611018565b905092915050565b60008183610b9b919061104c565b905092915050565b60008183610bb191906110d5565b905092915050565b600033905090565b60008060009054906101000a900473ffffffffffffffffffffffffffffffffffffffff169050816000806101000a81548173ffffffffffffffffffffffffffffffffffffffff021916908373ffffffffffffffffffffffffffffffffffffffff1602179055508173ffffffffffffffffffffffffffffffffffffffff168173ffffffffffffffffffffffffffffffffffffffff167f8be0079c531659141344cd1fd0a4f28419497f9722a3daafe3b4186f6b6457e060405160405180910390a35050565b6000819050919050565b610c9881610c85565b82525050565b6000602082019050610cb36000830184610c8f565b92915050565b600080fd5b600073ffffffffffffffffffffffffffffffffffffffff82169050919050565b6000610ce982610cbe565b9050919050565b610cf981610cde565b8114610d0457600080fd5b50565b600081359050610d1681610cf0565b92915050565b600060208284031215610d3257610d31610cb9565b5b6000610d4084828501610d07565b91505092915050565b610d5281610cde565b82525050565b6000602082019050610d6d6000830184610d49565b92915050565b60008115159050919050565b610d8881610d73565b82525050565b6000602082019050610da36000830184610d7f565b92915050565b6000604082019050610dbe6000830185610d49565b610dcb6020830184610c8f565b9392505050565b610ddb81610d73565b8114610de657600080fd5b50565b600081519050610df881610dd2565b92915050565b600060208284031215610e1457610e13610cb9565b5b6000610e2284828501610de9565b91505092915050565b610e3481610c85565b8114610e3f57600080fd5b50565b600081519050610e5181610e2b565b92915050565b600060208284031215610e6d57610e6c610cb9565b5b6000610e7b84828501610e42565b91505092915050565b600082825260208201905092915050565b7f4f776e61626c653a2063616c6c6572206973206e6f7420746865206f776e6572600082015250565b6000610ecb602083610e84565b9150610ed682610e95565b602082019050919050565b60006020820190508181036000830152610efa81610ebe565b9050919050565b7f4f776e61626c653a206e6577206f776e657220697320746865207a65726f206160008201527f6464726573730000000000000000000000000000000000000000000000000000602082015250565b6000610f5d602683610e84565b9150610f6882610f01565b604082019050919050565b60006020820190508181036000830152610f8c81610f50565b9050919050565b7f4e487b7100000000000000000000000000000000000000000000000000000000600052601160045260246000fd5b6000610fcd82610c85565b9150610fd883610c85565b9250827fffffffffffffffffffffffffffffffffffffffffffffffffffffffffffffffff0382111561100d5761100c610f93565b5b828201905092915050565b600061102382610c85565b915061102e83610c85565b92508282101561104157611040610f93565b5b828203905092915050565b600061105782610c85565b915061106283610c85565b9250817fffffffffffffffffffffffffffffffffffffffffffffffffffffffffffffffff048311821515161561109b5761109a610f93565b5b828202905092915050565b7f4e487b7100000000000000000000000000000000000000000000000000000000600052601260045260246000fd5b60006110e082610c85565b91506110eb83610c85565b9250826110fb576110fa6110a6565b5b82820490509291505056fea26469706673582212207bb003792d45c536c820876f68c644cd6f2a8b7fe8baa46083fbff996730131464736f6c63430008090033a2646970667358221220baa36567bbab6c74832bf4f3066f30a1961422420d52452616b8a7e7875e9a9e64736f6c63430008090033",
  "linkReferences": {},
  "deployedLinkReferences": {}
}