{
  "_format": "hh-sol-artifact-1",
  "contractName": "UnrevokableTeamPool",
  "sourceName": "contracts/pools/team/UnrevokableTeamPool.sol",
  "abi": [
    {
      "anonymous": false,
      "inputs": [
        {
          "indexed": true,
          "internalType": "address",
          "name": "previousOwner",
          "type": "address"
        },
        {
          "indexed": true,
          "internalType": "address",
          "name": "newOwner",
          "type": "address"
        }
      ],
      "name": "OwnershipTransferred",
      "type": "event"
    },
    {
      "inputs": [
        {
          "internalType": "address",
          "name": "_beneficiary",
          "type": "address"
        },
        {
          "internalType": "uint256",
          "name": "_start",
          "type": "uint256"
        },
        {
          "internalType": "uint256",
          "name": "_cliff",
          "type": "uint256"
        },
        {
          "internalType": "uint256",
          "name": "_duration",
          "type": "uint256"
        },
        {
          "internalType": "uint256",
          "name": "totalTokens",
          "type": "uint256"
        }
      ],
      "name": "addUnrevokableVestor",
      "outputs": [
        {
          "internalType": "contract TokenVesting",
          "name": "",
          "type": "address"
        }
      ],
      "stateMutability": "nonpayable",
      "type": "function"
    },
    {
      "inputs": [
        {
          "internalType": "address",
          "name": "_beneficiary",
          "type": "address"
        },
        {
          "internalType": "uint256",
          "name": "_start",
          "type": "uint256"
        },
        {
          "internalType": "uint256",
          "name": "_cliff",
          "type": "uint256"
        },
        {
          "internalType": "uint256",
          "name": "_duration",
          "type": "uint256"
        },
        {
          "internalType": "uint256",
          "name": "totalTokens",
          "type": "uint256"
        },
        {
          "internalType": "bool",
          "name": "revokable",
          "type": "bool"
        }
      ],
      "name": "addVestor",
      "outputs": [
        {
          "internalType": "contract TokenVesting",
          "name": "",
          "type": "address"
        }
      ],
      "stateMutability": "nonpayable",
      "type": "function"
    },
    {
      "inputs": [],
      "name": "balance",
      "outputs": [
        {
          "internalType": "uint256",
          "name": "",
          "type": "uint256"
        }
      ],
      "stateMutability": "view",
      "type": "function"
    },
    {
      "inputs": [],
      "name": "getFrom",
      "outputs": [
        {
          "internalType": "address",
          "name": "",
          "type": "address"
        }
      ],
      "stateMutability": "view",
      "type": "function"
    },
    {
      "inputs": [],
      "name": "owner",
      "outputs": [
        {
          "internalType": "address",
          "name": "",
          "type": "address"
        }
      ],
      "stateMutability": "view",
      "type": "function"
    },
    {
      "inputs": [],
      "name": "renounceOwnership",
      "outputs": [],
      "stateMutability": "nonpayable",
      "type": "function"
    },
    {
      "inputs": [
        {
          "internalType": "address",
          "name": "_beneficiary",
          "type": "address"
        },
        {
          "internalType": "uint256",
          "name": "index",
          "type": "uint256"
        }
      ],
      "name": "revoke",
      "outputs": [],
      "stateMutability": "nonpayable",
      "type": "function"
    },
    {
      "inputs": [
        {
          "internalType": "contract IERC20",
          "name": "newToken",
          "type": "address"
        }
      ],
      "name": "setToken",
      "outputs": [],
      "stateMutability": "nonpayable",
      "type": "function"
    },
    {
      "inputs": [],
      "name": "token",
      "outputs": [
        {
          "internalType": "contract IERC20",
          "name": "",
          "type": "address"
        }
      ],
      "stateMutability": "view",
      "type": "function"
    },
    {
      "inputs": [
        {
          "internalType": "address",
          "name": "newOwner",
          "type": "address"
        }
      ],
      "name": "transferOwnership",
      "outputs": [],
      "stateMutability": "nonpayable",
      "type": "function"
    },
    {
      "inputs": [
        {
          "internalType": "address",
          "name": "_beneficiary",
          "type": "address"
        }
      ],
      "name": "vestingCount",
      "outputs": [
        {
          "internalType": "uint256",
          "name": "",
          "type": "uint256"
        }
      ],
      "stateMutability": "view",
      "type": "function"
    }
  ],
  "bytecode": "0x608060405234801561001057600080fd5b5061002d61002261003260201b60201c565b61003a60201b60201c565b610100565b600033905090565b6000600160009054906101000a900473ffffffffffffffffffffffffffffffffffffffff16905081600160006101000a81548173ffffffffffffffffffffffffffffffffffffffff021916908373ffffffffffffffffffffffffffffffffffffffff1602179055508173ffffffffffffffffffffffffffffffffffffffff168173ffffffffffffffffffffffffffffffffffffffff167f8be0079c531659141344cd1fd0a4f28419497f9722a3daafe3b4186f6b6457e060405160405180910390a35050565b612d768061010f6000396000f3fe60806040523480156200001157600080fd5b5060043610620000b85760003560e01c80638da5cb5b116200007b5780638da5cb5b1462000177578063b69ef8a81462000199578063bc502f1a14620001bb578063eac449d914620001f1578063f2fde38b1462000211578063fc0c546a146200023157620000b8565b8063144fa6d714620000bd5780633d4ef00714620000dd5780634b62f3ae1462000113578063715018a61462000149578063798fd1781462000155575b600080fd5b620000db6004803603810190620000d5919062001167565b62000253565b005b620000fb6004803603810190620000f59190620011ca565b620002f0565b6040516200010a919062001217565b60405180910390f35b6200013160048036038101906200012b919062001265565b62000396565b60405162000140919062001358565b60405180910390f35b62000153620006c2565b005b6200015f62000753565b6040516200016e919062001386565b60405180910390f35b620001816200075b565b60405162000190919062001386565b60405180910390f35b620001a362000785565b604051620001b2919062001217565b60405180910390f35b620001d96004803603810190620001d39190620013e0565b6200083c565b604051620001e8919062001358565b60405180910390f35b6200020f60048036038101906200020991906200147c565b62000b68565b005b6200022f6004803603810190620002299190620011ca565b62000e27565b005b6200023b62000f2b565b6040516200024a9190620014e8565b60405180910390f35b600073ffffffffffffffffffffffffffffffffffffffff1660008054906101000a900473ffffffffffffffffffffffffffffffffffffffff1673ffffffffffffffffffffffffffffffffffffffff1614620002ad57600080fd5b806000806101000a81548173ffffffffffffffffffffffffffffffffffffffff021916908373ffffffffffffffffffffffffffffffffffffffff16021790555050565b60008073ffffffffffffffffffffffffffffffffffffffff1660008054906101000a900473ffffffffffffffffffffffffffffffffffffffff1673ffffffffffffffffffffffffffffffffffffffff1614156200034c57600080fd5b600260008373ffffffffffffffffffffffffffffffffffffffff1673ffffffffffffffffffffffffffffffffffffffff168152602001908152602001600020805490509050919050565b6000620003a262000f4f565b73ffffffffffffffffffffffffffffffffffffffff16620003c26200075b565b73ffffffffffffffffffffffffffffffffffffffff16146200041b576040517f08c379a0000000000000000000000000000000000000000000000000000000008152600401620004129062001566565b60405180910390fd5b600073ffffffffffffffffffffffffffffffffffffffff1660008054906101000a900473ffffffffffffffffffffffffffffffffffffffff1673ffffffffffffffffffffffffffffffffffffffff1614156200047657600080fd5b600260008773ffffffffffffffffffffffffffffffffffffffff1673ffffffffffffffffffffffffffffffffffffffff168152602001908152602001600020868686866000604051620004c990620010db565b620004d995949392919062001599565b604051809103906000f080158015620004f6573d6000803e3d6000fd5b509080600181540180825580915050600190039060005260206000200160009091909190916101000a81548173ffffffffffffffffffffffffffffffffffffffff021916908373ffffffffffffffffffffffffffffffffffffffff16021790555060006001600260008973ffffffffffffffffffffffffffffffffffffffff1673ffffffffffffffffffffffffffffffffffffffff16815260200190815260200160002080549050620005aa919062001625565b905062000636600260008973ffffffffffffffffffffffffffffffffffffffff1673ffffffffffffffffffffffffffffffffffffffff168152602001908152602001600020828154811062000604576200060362001660565b5b9060005260206000200160009054906101000a900473ffffffffffffffffffffffffffffffffffffffff168462000f57565b50600260008873ffffffffffffffffffffffffffffffffffffffff1673ffffffffffffffffffffffffffffffffffffffff16815260200190815260200160002081815481106200068b576200068a62001660565b5b9060005260206000200160009054906101000a900473ffffffffffffffffffffffffffffffffffffffff1691505095945050505050565b620006cc62000f4f565b73ffffffffffffffffffffffffffffffffffffffff16620006ec6200075b565b73ffffffffffffffffffffffffffffffffffffffff161462000745576040517f08c379a00000000000000000000000000000000000000000000000000000000081526004016200073c9062001566565b60405180910390fd5b62000751600062001015565b565b600030905090565b6000600160009054906101000a900473ffffffffffffffffffffffffffffffffffffffff16905090565b60008060009054906101000a900473ffffffffffffffffffffffffffffffffffffffff1673ffffffffffffffffffffffffffffffffffffffff166370a08231306040518263ffffffff1660e01b8152600401620007e3919062001386565b60206040518083038186803b158015620007fc57600080fd5b505afa15801562000811573d6000803e3d6000fd5b505050506040513d601f19601f82011682018060405250810190620008379190620016a6565b905090565b60006200084862000f4f565b73ffffffffffffffffffffffffffffffffffffffff16620008686200075b565b73ffffffffffffffffffffffffffffffffffffffff1614620008c1576040517f08c379a0000000000000000000000000000000000000000000000000000000008152600401620008b89062001566565b60405180910390fd5b600073ffffffffffffffffffffffffffffffffffffffff1660008054906101000a900473ffffffffffffffffffffffffffffffffffffffff1673ffffffffffffffffffffffffffffffffffffffff1614156200091c57600080fd5b600260008873ffffffffffffffffffffffffffffffffffffffff1673ffffffffffffffffffffffffffffffffffffffff16815260200190815260200160002087878787866040516200096e90620010db565b6200097e95949392919062001599565b604051809103906000f0801580156200099b573d6000803e3d6000fd5b509080600181540180825580915050600190039060005260206000200160009091909190916101000a81548173ffffffffffffffffffffffffffffffffffffffff021916908373ffffffffffffffffffffffffffffffffffffffff16021790555060006001600260008a73ffffffffffffffffffffffffffffffffffffffff1673ffffffffffffffffffffffffffffffffffffffff1681526020019081526020016000208054905062000a4f919062001625565b905062000adb600260008a73ffffffffffffffffffffffffffffffffffffffff1673ffffffffffffffffffffffffffffffffffffffff168152602001908152602001600020828154811062000aa95762000aa862001660565b5b9060005260206000200160009054906101000a900473ffffffffffffffffffffffffffffffffffffffff168562000f57565b50600260008973ffffffffffffffffffffffffffffffffffffffff1673ffffffffffffffffffffffffffffffffffffffff168152602001908152602001600020818154811062000b305762000b2f62001660565b5b9060005260206000200160009054906101000a900473ffffffffffffffffffffffffffffffffffffffff169150509695505050505050565b62000b7262000f4f565b73ffffffffffffffffffffffffffffffffffffffff1662000b926200075b565b73ffffffffffffffffffffffffffffffffffffffff161462000beb576040517f08c379a000000000000000000000000000000000000000000000000000000000815260040162000be29062001566565b60405180910390fd5b600073ffffffffffffffffffffffffffffffffffffffff1660008054906101000a900473ffffffffffffffffffffffffffffffffffffffff1673ffffffffffffffffffffffffffffffffffffffff16141562000c4657600080fd5b62000c5182620002f0565b811062000c5d57600080fd5b600073ffffffffffffffffffffffffffffffffffffffff16600260008473ffffffffffffffffffffffffffffffffffffffff1673ffffffffffffffffffffffffffffffffffffffff168152602001908152602001600020828154811062000cc95762000cc862001660565b5b9060005260206000200160009054906101000a900473ffffffffffffffffffffffffffffffffffffffff1673ffffffffffffffffffffffffffffffffffffffff16141562000d1657600080fd5b600260008373ffffffffffffffffffffffffffffffffffffffff1673ffffffffffffffffffffffffffffffffffffffff168152602001908152602001600020818154811062000d6a5762000d6962001660565b5b9060005260206000200160009054906101000a900473ffffffffffffffffffffffffffffffffffffffff1673ffffffffffffffffffffffffffffffffffffffff166374a8f10360008054906101000a900473ffffffffffffffffffffffffffffffffffffffff166040518263ffffffff1660e01b815260040162000def919062001386565b600060405180830381600087803b15801562000e0a57600080fd5b505af115801562000e1f573d6000803e3d6000fd5b505050505050565b62000e3162000f4f565b73ffffffffffffffffffffffffffffffffffffffff1662000e516200075b565b73ffffffffffffffffffffffffffffffffffffffff161462000eaa576040517f08c379a000000000000000000000000000000000000000000000000000000000815260040162000ea19062001566565b60405180910390fd5b600073ffffffffffffffffffffffffffffffffffffffff168173ffffffffffffffffffffffffffffffffffffffff16141562000f1d576040517f08c379a000000000000000000000000000000000000000000000000000000000815260040162000f14906200174e565b60405180910390fd5b62000f288162001015565b50565b60008054906101000a900473ffffffffffffffffffffffffffffffffffffffff1681565b600033905090565b60008060009054906101000a900473ffffffffffffffffffffffffffffffffffffffff1673ffffffffffffffffffffffffffffffffffffffff1663a9059cbb84846040518363ffffffff1660e01b815260040162000fb792919062001770565b602060405180830381600087803b15801562000fd257600080fd5b505af115801562000fe7573d6000803e3d6000fd5b505050506040513d601f19601f820116820180604052508101906200100d9190620017b4565b905092915050565b6000600160009054906101000a900473ffffffffffffffffffffffffffffffffffffffff16905081600160006101000a81548173ffffffffffffffffffffffffffffffffffffffff021916908373ffffffffffffffffffffffffffffffffffffffff1602179055508173ffffffffffffffffffffffffffffffffffffffff168173ffffffffffffffffffffffffffffffffffffffff167f8be0079c531659141344cd1fd0a4f28419497f9722a3daafe3b4186f6b6457e060405160405180910390a35050565b61155a80620017e783390190565b600080fd5b600073ffffffffffffffffffffffffffffffffffffffff82169050919050565b60006200111b82620010ee565b9050919050565b60006200112f826200110e565b9050919050565b620011418162001122565b81146200114d57600080fd5b50565b600081359050620011618162001136565b92915050565b60006020828403121562001180576200117f620010e9565b5b6000620011908482850162001150565b91505092915050565b620011a4816200110e565b8114620011b057600080fd5b50565b600081359050620011c48162001199565b92915050565b600060208284031215620011e357620011e2620010e9565b5b6000620011f384828501620011b3565b91505092915050565b6000819050919050565b6200121181620011fc565b82525050565b60006020820190506200122e600083018462001206565b92915050565b6200123f81620011fc565b81146200124b57600080fd5b50565b6000813590506200125f8162001234565b92915050565b600080600080600060a08688031215620012845762001283620010e9565b5b60006200129488828901620011b3565b9550506020620012a7888289016200124e565b9450506040620012ba888289016200124e565b9350506060620012cd888289016200124e565b9250506080620012e0888289016200124e565b9150509295509295909350565b6000819050919050565b600062001318620013126200130c84620010ee565b620012ed565b620010ee565b9050919050565b60006200132c82620012f7565b9050919050565b600062001340826200131f565b9050919050565b620013528162001333565b82525050565b60006020820190506200136f600083018462001347565b92915050565b62001380816200110e565b82525050565b60006020820190506200139d600083018462001375565b92915050565b60008115159050919050565b620013ba81620013a3565b8114620013c657600080fd5b50565b600081359050620013da81620013af565b92915050565b60008060008060008060c087890312156200140057620013ff620010e9565b5b60006200141089828a01620011b3565b96505060206200142389828a016200124e565b95505060406200143689828a016200124e565b94505060606200144989828a016200124e565b93505060806200145c89828a016200124e565b92505060a06200146f89828a01620013c9565b9150509295509295509295565b60008060408385031215620014965762001495620010e9565b5b6000620014a685828601620011b3565b9250506020620014b9858286016200124e565b9150509250929050565b6000620014d0826200131f565b9050919050565b620014e281620014c3565b82525050565b6000602082019050620014ff6000830184620014d7565b92915050565b600082825260208201905092915050565b7f4f776e61626c653a2063616c6c6572206973206e6f7420746865206f776e6572600082015250565b60006200154e60208362001505565b91506200155b8262001516565b602082019050919050565b6000602082019050818103600083015262001581816200153f565b9050919050565b6200159381620013a3565b82525050565b600060a082019050620015b0600083018862001375565b620015bf602083018762001206565b620015ce604083018662001206565b620015dd606083018562001206565b620015ec608083018462001588565b9695505050505050565b7f4e487b7100000000000000000000000000000000000000000000000000000000600052601160045260246000fd5b60006200163282620011fc565b91506200163f83620011fc565b925082821015620016555762001654620015f6565b5b828203905092915050565b7f4e487b7100000000000000000000000000000000000000000000000000000000600052603260045260246000fd5b600081519050620016a08162001234565b92915050565b600060208284031215620016bf57620016be620010e9565b5b6000620016cf848285016200168f565b91505092915050565b7f4f776e61626c653a206e6577206f776e657220697320746865207a65726f206160008201527f6464726573730000000000000000000000000000000000000000000000000000602082015250565b60006200173660268362001505565b91506200174382620016d8565b604082019050919050565b60006020820190508181036000830152620017698162001727565b9050919050565b600060408201905062001787600083018562001375565b62001796602083018462001206565b9392505050565b600081519050620017ae81620013af565b92915050565b600060208284031215620017cd57620017cc620010e9565b5b6000620017dd848285016200179d565b9150509291505056fe60806040523480156200001157600080fd5b506040516200155a3803806200155a8339818101604052810190620000379190620002fa565b620000576200004b6200013460201b60201c565b6200013c60201b60201c565b600073ffffffffffffffffffffffffffffffffffffffff168573ffffffffffffffffffffffffffffffffffffffff1614156200009257600080fd5b81831115620000a057600080fd5b84600160006101000a81548173ffffffffffffffffffffffffffffffffffffffff021916908373ffffffffffffffffffffffffffffffffffffffff16021790555080600560006101000a81548160ff021916908315150217905550816004819055506200011c83856200020060201b62000b611790919060201c565b6002819055508360038190555050505050506200040e565b600033905090565b60008060009054906101000a900473ffffffffffffffffffffffffffffffffffffffff169050816000806101000a81548173ffffffffffffffffffffffffffffffffffffffff021916908373ffffffffffffffffffffffffffffffffffffffff1602179055508173ffffffffffffffffffffffffffffffffffffffff168173ffffffffffffffffffffffffffffffffffffffff167f8be0079c531659141344cd1fd0a4f28419497f9722a3daafe3b4186f6b6457e060405160405180910390a35050565b60008183620002109190620003b1565b905092915050565b600080fd5b600073ffffffffffffffffffffffffffffffffffffffff82169050919050565b60006200024a826200021d565b9050919050565b6200025c816200023d565b81146200026857600080fd5b50565b6000815190506200027c8162000251565b92915050565b6000819050919050565b620002978162000282565b8114620002a357600080fd5b50565b600081519050620002b7816200028c565b92915050565b60008115159050919050565b620002d481620002bd565b8114620002e057600080fd5b50565b600081519050620002f481620002c9565b92915050565b600080600080600060a0868803121562000319576200031862000218565b5b600062000329888289016200026b565b95505060206200033c88828901620002a6565b94505060406200034f88828901620002a6565b93505060606200036288828901620002a6565b92505060806200037588828901620002e3565b9150509295509295909350565b7f4e487b7100000000000000000000000000000000000000000000000000000000600052601160045260246000fd5b6000620003be8262000282565b9150620003cb8362000282565b9250827fffffffffffffffffffffffffffffffffffffffffffffffffffffffffffffffff0382111562000403576200040262000382565b5b828201905092915050565b61113c806200041e6000396000f3fe608060405234801561001057600080fd5b50600436106100ea5760003560e01c806374a8f1031161008c5780639852595c116100665780639852595c14610227578063be9a655514610257578063f2fde38b14610275578063fa01dc0614610291576100ea565b806374a8f103146101cf578063872a7810146101eb5780638da5cb5b14610209576100ea565b806319165587116100c8578063191655871461015b578063384711cc1461017757806338af3eed146101a7578063715018a6146101c5576100ea565b80630fb5a6b4146100ef57806313d033c01461010d5780631726cbc81461012b575b600080fd5b6100f76102c1565b6040516101049190610c9e565b60405180910390f35b6101156102c7565b6040516101229190610c9e565b60405180910390f35b61014560048036038101906101409190610d1c565b6102cd565b6040516101529190610c9e565b60405180910390f35b61017560048036038101906101709190610d1c565b610330565b005b610191600480360381019061018c9190610d1c565b6104ca565b60405161019e9190610c9e565b60405180910390f35b6101af610685565b6040516101bc9190610d58565b60405180910390f35b6101cd6106ab565b005b6101e960048036038101906101e49190610d1c565b610733565b005b6101f36109ef565b6040516102009190610d8e565b60405180910390f35b610211610a02565b60405161021e9190610d58565b60405180910390f35b610241600480360381019061023c9190610d1c565b610a2b565b60405161024e9190610c9e565b60405180910390f35b61025f610a43565b60405161026c9190610c9e565b60405180910390f35b61028f600480360381019061028a9190610d1c565b610a49565b005b6102ab60048036038101906102a69190610d1c565b610b41565b6040516102b89190610d8e565b60405180910390f35b60045481565b60025481565b6000610329600660008473ffffffffffffffffffffffffffffffffffffffff1673ffffffffffffffffffffffffffffffffffffffff1681526020019081526020016000205461031b846104ca565b610b7790919063ffffffff16565b9050919050565b600061033b826102cd565b90506000811161034a57600080fd5b61039c81600660008573ffffffffffffffffffffffffffffffffffffffff1673ffffffffffffffffffffffffffffffffffffffff16815260200190815260200160002054610b6190919063ffffffff16565b600660008473ffffffffffffffffffffffffffffffffffffffff1673ffffffffffffffffffffffffffffffffffffffff168152602001908152602001600020819055508173ffffffffffffffffffffffffffffffffffffffff1663a9059cbb600160009054906101000a900473ffffffffffffffffffffffffffffffffffffffff16836040518363ffffffff1660e01b815260040161043c929190610da9565b602060405180830381600087803b15801561045657600080fd5b505af115801561046a573d6000803e3d6000fd5b505050506040513d601f19601f8201168201806040525081019061048e9190610dfe565b507ffb81f9b30d73d830c3544b34d827c08142579ee75710b490bab0b3995468c565816040516104be9190610c9e565b60405180910390a15050565b6000808273ffffffffffffffffffffffffffffffffffffffff166370a08231306040518263ffffffff1660e01b81526004016105069190610d58565b60206040518083038186803b15801561051e57600080fd5b505afa158015610532573d6000803e3d6000fd5b505050506040513d601f19601f820116820180604052508101906105569190610e57565b905060006105ac600660008673ffffffffffffffffffffffffffffffffffffffff1673ffffffffffffffffffffffffffffffffffffffff1681526020019081526020016000205483610b6190919063ffffffff16565b90506002544210156105c357600092505050610680565b6105da600454600354610b6190919063ffffffff16565b421015806106315750600760008573ffffffffffffffffffffffffffffffffffffffff1673ffffffffffffffffffffffffffffffffffffffff16815260200190815260200160002060009054906101000a900460ff165b15610640578092505050610680565b61067b60045461066d61065e60035442610b7790919063ffffffff16565b84610b8d90919063ffffffff16565b610ba390919063ffffffff16565b925050505b919050565b600160009054906101000a900473ffffffffffffffffffffffffffffffffffffffff1681565b6106b3610bb9565b73ffffffffffffffffffffffffffffffffffffffff166106d1610a02565b73ffffffffffffffffffffffffffffffffffffffff1614610727576040517f08c379a000000000000000000000000000000000000000000000000000000000815260040161071e90610ee1565b60405180910390fd5b6107316000610bc1565b565b61073b610bb9565b73ffffffffffffffffffffffffffffffffffffffff16610759610a02565b73ffffffffffffffffffffffffffffffffffffffff16146107af576040517f08c379a00000000000000000000000000000000000000000000000000000000081526004016107a690610ee1565b60405180910390fd5b600560009054906101000a900460ff166107c857600080fd5b600760008273ffffffffffffffffffffffffffffffffffffffff1673ffffffffffffffffffffffffffffffffffffffff16815260200190815260200160002060009054906101000a900460ff161561081f57600080fd5b60008173ffffffffffffffffffffffffffffffffffffffff166370a08231306040518263ffffffff1660e01b815260040161085a9190610d58565b60206040518083038186803b15801561087257600080fd5b505afa158015610886573d6000803e3d6000fd5b505050506040513d601f19601f820116820180604052508101906108aa9190610e57565b905060006108b7836102cd565b905060006108ce8284610b7790919063ffffffff16565b90506001600760008673ffffffffffffffffffffffffffffffffffffffff1673ffffffffffffffffffffffffffffffffffffffff16815260200190815260200160002060006101000a81548160ff0219169083151502179055508373ffffffffffffffffffffffffffffffffffffffff1663a9059cbb61094c610a02565b836040518363ffffffff1660e01b815260040161096a929190610da9565b602060405180830381600087803b15801561098457600080fd5b505af1158015610998573d6000803e3d6000fd5b505050506040513d601f19601f820116820180604052508101906109bc9190610dfe565b507f44825a4b2df8acb19ce4e1afba9aa850c8b65cdb7942e2078f27d0b0960efee660405160405180910390a150505050565b600560009054906101000a900460ff1681565b60008060009054906101000a900473ffffffffffffffffffffffffffffffffffffffff16905090565b60066020528060005260406000206000915090505481565b60035481565b610a51610bb9565b73ffffffffffffffffffffffffffffffffffffffff16610a6f610a02565b73ffffffffffffffffffffffffffffffffffffffff1614610ac5576040517f08c379a0000000000000000000000000000000000000000000000000000000008152600401610abc90610ee1565b60405180910390fd5b600073ffffffffffffffffffffffffffffffffffffffff168173ffffffffffffffffffffffffffffffffffffffff161415610b35576040517f08c379a0000000000000000000000000000000000000000000000000000000008152600401610b2c90610f73565b60405180910390fd5b610b3e81610bc1565b50565b60076020528060005260406000206000915054906101000a900460ff1681565b60008183610b6f9190610fc2565b905092915050565b60008183610b859190611018565b905092915050565b60008183610b9b919061104c565b905092915050565b60008183610bb191906110d5565b905092915050565b600033905090565b60008060009054906101000a900473ffffffffffffffffffffffffffffffffffffffff169050816000806101000a81548173ffffffffffffffffffffffffffffffffffffffff021916908373ffffffffffffffffffffffffffffffffffffffff1602179055508173ffffffffffffffffffffffffffffffffffffffff168173ffffffffffffffffffffffffffffffffffffffff167f8be0079c531659141344cd1fd0a4f28419497f9722a3daafe3b4186f6b6457e060405160405180910390a35050565b6000819050919050565b610c9881610c85565b82525050565b6000602082019050610cb36000830184610c8f565b92915050565b600080fd5b600073ffffffffffffffffffffffffffffffffffffffff82169050919050565b6000610ce982610cbe565b9050919050565b610cf981610cde565b8114610d0457600080fd5b50565b600081359050610d1681610cf0565b92915050565b600060208284031215610d3257610d31610cb9565b5b6000610d4084828501610d07565b91505092915050565b610d5281610cde565b82525050565b6000602082019050610d6d6000830184610d49565b92915050565b60008115159050919050565b610d8881610d73565b82525050565b6000602082019050610da36000830184610d7f565b92915050565b6000604082019050610dbe6000830185610d49565b610dcb6020830184610c8f565b9392505050565b610ddb81610d73565b8114610de657600080fd5b50565b600081519050610df881610dd2565b92915050565b600060208284031215610e1457610e13610cb9565b5b6000610e2284828501610de9565b91505092915050565b610e3481610c85565b8114610e3f57600080fd5b50565b600081519050610e5181610e2b565b92915050565b600060208284031215610e6d57610e6c610cb9565b5b6000610e7b84828501610e42565b91505092915050565b600082825260208201905092915050565b7f4f776e61626c653a2063616c6c6572206973206e6f7420746865206f776e6572600082015250565b6000610ecb602083610e84565b9150610ed682610e95565b602082019050919050565b60006020820190508181036000830152610efa81610ebe565b9050919050565b7f4f776e61626c653a206e6577206f776e657220697320746865207a65726f206160008201527f6464726573730000000000000000000000000000000000000000000000000000602082015250565b6000610f5d602683610e84565b9150610f6882610f01565b604082019050919050565b60006020820190508181036000830152610f8c81610f50565b9050919050565b7f4e487b7100000000000000000000000000000000000000000000000000000000600052601160045260246000fd5b6000610fcd82610c85565b9150610fd883610c85565b9250827fffffffffffffffffffffffffffffffffffffffffffffffffffffffffffffffff0382111561100d5761100c610f93565b5b828201905092915050565b600061102382610c85565b915061102e83610c85565b92508282101561104157611040610f93565b5b828203905092915050565b600061105782610c85565b915061106283610c85565b9250817fffffffffffffffffffffffffffffffffffffffffffffffffffffffffffffffff048311821515161561109b5761109a610f93565b5b828202905092915050565b7f4e487b7100000000000000000000000000000000000000000000000000000000600052601260045260246000fd5b60006110e082610c85565b91506110eb83610c85565b9250826110fb576110fa6110a6565b5b82820490509291505056fea26469706673582212207bb003792d45c536c820876f68c644cd6f2a8b7fe8baa46083fbff996730131464736f6c63430008090033a26469706673582212207a435359588be99a59e31b275a25c054f441d0369469d8476ab504948c19bc9164736f6c63430008090033",
  "linkReferences": {},
  "deployedLinkReferences": {}
}