{
  "_format": "hh-sol-artifact-1",
  "contractName": "FaucetGamePool",
  "sourceName": "contracts/pools/game/FaucetGamePool.sol",
  "abi": [
    {
      "anonymous": false,
      "inputs": [
        {
          "indexed": true,
          "internalType": "address",
          "name": "previousOwner",
          "type": "address"
        },
        {
          "indexed": true,
          "internalType": "address",
          "name": "newOwner",
          "type": "address"
        }
      ],
      "name": "OwnershipTransferred",
      "type": "event"
    },
    {
      "inputs": [],
      "name": "balance",
      "outputs": [
        {
          "internalType": "uint256",
          "name": "",
          "type": "uint256"
        }
      ],
      "stateMutability": "view",
      "type": "function"
    },
    {
      "inputs": [],
      "name": "getFrom",
      "outputs": [
        {
          "internalType": "address",
          "name": "",
          "type": "address"
        }
      ],
      "stateMutability": "view",
      "type": "function"
    },
    {
      "inputs": [],
      "name": "maxRequestAmount",
      "outputs": [
        {
          "internalType": "uint256",
          "name": "",
          "type": "uint256"
        }
      ],
      "stateMutability": "view",
      "type": "function"
    },
    {
      "inputs": [],
      "name": "owner",
      "outputs": [
        {
          "internalType": "address",
          "name": "",
          "type": "address"
        }
      ],
      "stateMutability": "view",
      "type": "function"
    },
    {
      "inputs": [],
      "name": "renounceOwnership",
      "outputs": [],
      "stateMutability": "nonpayable",
      "type": "function"
    },
    {
      "inputs": [
        {
          "internalType": "address",
          "name": "dst",
          "type": "address"
        },
        {
          "internalType": "uint256",
          "name": "amount",
          "type": "uint256"
        }
      ],
      "name": "requestBZN",
      "outputs": [],
      "stateMutability": "nonpayable",
      "type": "function"
    },
    {
      "inputs": [
        {
          "internalType": "uint256",
          "name": "amount",
          "type": "uint256"
        }
      ],
      "name": "setMaxRequestAmount",
      "outputs": [],
      "stateMutability": "nonpayable",
      "type": "function"
    },
    {
      "inputs": [
        {
          "internalType": "contract IERC20",
          "name": "newToken",
          "type": "address"
        }
      ],
      "name": "setToken",
      "outputs": [],
      "stateMutability": "nonpayable",
      "type": "function"
    },
    {
      "inputs": [],
      "name": "token",
      "outputs": [
        {
          "internalType": "contract IERC20",
          "name": "",
          "type": "address"
        }
      ],
      "stateMutability": "view",
      "type": "function"
    },
    {
      "inputs": [
        {
          "internalType": "address",
          "name": "newOwner",
          "type": "address"
        }
      ],
      "name": "transferOwnership",
      "outputs": [],
      "stateMutability": "nonpayable",
      "type": "function"
    }
  ],
  "bytecode": "0x60806040523480156200001c5760008062000019620000fa565b50505b5060006200002f620000e860201b60201c565b905080600160006101000a81620000456200016a565b8173ffffffffffffffffffffffffffffffffffffffff021916908373ffffffffffffffffffffffffffffffffffffffff1602179062000083620001cf565b5050508073ffffffffffffffffffffffffffffffffffffffff16600073ffffffffffffffffffffffffffffffffffffffff167f8be0079c531659141344cd1fd0a4f28419497f9722a3daafe3b4186f6b6457e060405160405180910390a35062000295565b60005a620000f562000236565b905090565b632a2a7adb598160e01b8152600481016020815285602082015260005b868110156200013757808601518160408401015260208101905062000117565b506020828760640184336000905af158600e01573d6000803e3d6000fd5b3d6001141558600a015760016000f35b505050565b6303daa959598160e01b8152836004820152602081602483336000905af158600e01573d6000803e3d6000fd5b3d6001141558600a015760016000f35b8051935060005b6040811015620001ca57600081830152602081019050620001ae565b505050565b6322bd64c0598160e01b8152836004820152846024820152600081604483336000905af158600e01573d6000803e3d6000fd5b3d6001141558600a015760016000f35b60005b6040811015620002315760008183015260208101905062000215565b505050565b6373509064598160e01b8152602081600483336000905af158600e01573d6000803e3d6000fd5b3d6001141558600a015760016000f35b8051935060005b6040811015620002905760008183015260208101905062000274565b505050565b610feb80620002a56000396000f3fe608060405234801561001957600080610016610bce565b50505b50600436106100a75760003560e01c8063798fd1781161006f578063798fd178146101b85780638da5cb5b146101ec578063b69ef8a814610220578063f2fde38b1461023e578063fc0c546a1461028b576100a7565b8063144fa6d7146100b55780632a782ec41461010257806354abe9f91461013957806358ec90d314610190578063715018a6146101ae575b6000806100b2610bce565b50505b610100600480360360208110156100d4576000806100d1610bce565b50505b81019080803573ffffffffffffffffffffffffffffffffffffffff1690602001909291905050506102bf565b005b610137600480360360208110156101215760008061011e610bce565b50505b810190808035906020019092919050505061037b565b005b61018e6004803603604081101561015857600080610155610bce565b50505b81019080803573ffffffffffffffffffffffffffffffffffffffff16906020019092919080359060200190929190505050610446565b005b6101986104dd565b6040518082815260200191505060405180910390f35b6101b66104ea565b005b6101c061067a565b604051808273ffffffffffffffffffffffffffffffffffffffff16815260200191505060405180910390f35b6101f46106dd565b604051808273ffffffffffffffffffffffffffffffffffffffff16815260200191505060405180910390f35b61022861070e565b6040518082815260200191505060405180910390f35b6102896004803603602081101561025d5760008061025a610bce565b50505b81019080803573ffffffffffffffffffffffffffffffffffffffff169060200190929190505050610868565b005b610293610a86565b604051808273ffffffffffffffffffffffffffffffffffffffff16815260200191505060405180910390f35b600073ffffffffffffffffffffffffffffffffffffffff166000806102e2610c3c565b906101000a900473ffffffffffffffffffffffffffffffffffffffff1673ffffffffffffffffffffffffffffffffffffffff161461032857600080610325610bce565b50505b806000806101000a81610339610c3c565b8173ffffffffffffffffffffffffffffffffffffffff021916908373ffffffffffffffffffffffffffffffffffffffff16021790610375610c9f565b50505050565b610383610ab1565b73ffffffffffffffffffffffffffffffffffffffff166103a16106dd565b73ffffffffffffffffffffffffffffffffffffffff1614610433576040517f08c379a00000000000000000000000000000000000000000000000000000000081526004018080602001828103825260208152602001807f4f776e61626c653a2063616c6c6572206973206e6f7420746865206f776e657281525060200191505060405180910390610430610bce565b50505b8060028190610440610c9f565b50505050565b6002610450610c3c565b8111156104ce576040517f08c379a00000000000000000000000000000000000000000000000000000000081526004018080602001828103825260208152602001807f43616e6e6f742072657175657374206d6f7265207468616e20746865206d6178815250602001915050604051809103906104cb610bce565b50505b6104d88282610ac1565b505050565b60026104e7610c3c565b81565b6104f2610ab1565b73ffffffffffffffffffffffffffffffffffffffff166105106106dd565b73ffffffffffffffffffffffffffffffffffffffff16146105a2576040517f08c379a00000000000000000000000000000000000000000000000000000000081526004018080602001828103825260208152602001807f4f776e61626c653a2063616c6c6572206973206e6f7420746865206f776e65728152506020019150506040518091039061059f610bce565b50505b600073ffffffffffffffffffffffffffffffffffffffff1660016000906105c7610c3c565b906101000a900473ffffffffffffffffffffffffffffffffffffffff1673ffffffffffffffffffffffffffffffffffffffff167f8be0079c531659141344cd1fd0a4f28419497f9722a3daafe3b4186f6b6457e060405160405180910390a36000600160006101000a81610639610c3c565b8173ffffffffffffffffffffffffffffffffffffffff021916908373ffffffffffffffffffffffffffffffffffffffff16021790610675610c9f565b505050565b60005a63996d79a5598160e01b8152602081600483336000905af158600e01573d6000803e3d6000fd5b3d6001141558600a015760016000f35b8051925060005b60408110156106d5576000818301526020810190506106bb565b505050905090565b600060016000906106ec610c3c565b906101000a900473ffffffffffffffffffffffffffffffffffffffff16905090565b60008060009061071c610c3c565b906101000a900473ffffffffffffffffffffffffffffffffffffffff1673ffffffffffffffffffffffffffffffffffffffff166370a082315a63996d79a5598160e01b8152602081600483336000905af158600e01573d6000803e3d6000fd5b3d6001141558600a015760016000f35b8051925060005b60408110156107ad57600081830152602081019050610793565b5050506040518263ffffffff1660e01b8152600401808273ffffffffffffffffffffffffffffffffffffffff16815260200191505060206040518083038186806107f5610d04565b15801561080a57600080610807610bce565b50505b505a610814610d67565b5050505050158015610833573d6000803e3d6000610830610bce565b50505b505050506040513d60208110156108525760008061084f610bce565b50505b8101908080519060200190929190505050905090565b610870610ab1565b73ffffffffffffffffffffffffffffffffffffffff1661088e6106dd565b73ffffffffffffffffffffffffffffffffffffffff1614610920576040517f08c379a00000000000000000000000000000000000000000000000000000000081526004018080602001828103825260208152602001807f4f776e61626c653a2063616c6c6572206973206e6f7420746865206f776e65728152506020019150506040518091039061091d610bce565b50505b600073ffffffffffffffffffffffffffffffffffffffff168173ffffffffffffffffffffffffffffffffffffffff1614156109af576040517f08c379a0000000000000000000000000000000000000000000000000000000008152600401808060200182810382526026815260200180610fc560269139604001915050604051809103906109ac610bce565b50505b8073ffffffffffffffffffffffffffffffffffffffff1660016000906109d3610c3c565b906101000a900473ffffffffffffffffffffffffffffffffffffffff1673ffffffffffffffffffffffffffffffffffffffff167f8be0079c531659141344cd1fd0a4f28419497f9722a3daafe3b4186f6b6457e060405160405180910390a380600160006101000a81610a44610c3c565b8173ffffffffffffffffffffffffffffffffffffffff021916908373ffffffffffffffffffffffffffffffffffffffff16021790610a80610c9f565b50505050565b600080610a91610c3c565b906101000a900473ffffffffffffffffffffffffffffffffffffffff1681565b60005a610abc610e67565b905090565b600080600090610acf610c3c565b906101000a900473ffffffffffffffffffffffffffffffffffffffff1673ffffffffffffffffffffffffffffffffffffffff1663a9059cbb84846040518363ffffffff1660e01b8152600401808373ffffffffffffffffffffffffffffffffffffffff1681526020018281526020019250505060206040518083038160008780610b57610d04565b158015610b6c57600080610b69610bce565b50505b505a610b76610ec4565b505050505050158015610b96573d6000803e3d6000610b93610bce565b50505b505050506040513d6020811015610bb557600080610bb2610bce565b50505b8101908080519060200190929190505050905092915050565b632a2a7adb598160e01b8152600481016020815285602082015260005b86811015610c09578086015181604084010152602081019050610beb565b506020828760640184336000905af158600e01573d6000803e3d6000fd5b3d6001141558600a015760016000f35b505050565b6303daa959598160e01b8152836004820152602081602483336000905af158600e01573d6000803e3d6000fd5b3d6001141558600a015760016000f35b8051935060005b6040811015610c9a57600081830152602081019050610c80565b505050565b6322bd64c0598160e01b8152836004820152846024820152600081604483336000905af158600e01573d6000803e3d6000fd5b3d6001141558600a015760016000f35b60005b6040811015610cff57600081830152602081019050610ce5565b505050565b638435035b598160e01b8152836004820152602081602483336000905af158600e01573d6000803e3d6000fd5b3d6001141558600a015760016000f35b8051935060005b6040811015610d6257600081830152602081019050610d48565b505050565b638540661f598160e01b8152610da6565b600081905081831115610d89578290505b92915050565b600081905081831015610da0578290505b92915050565b836004820152846024820152606060448201528660648201526084810160005b88811015610de1578088015181830152602081019050610dc6565b506060828960a40184336000905af158600e01573d6000803e3d6000fd5b3d6001141558600a015760016000f35b815160408301513d6000853e8b8b82606087013350600060045af15059610e368d3d610d8f565b8c01610e428187610d78565b5b82811015610e5a5760008152602081019050610e43565b50839d5050505050505050565b6373509064598160e01b8152602081600483336000905af158600e01573d6000803e3d6000fd5b3d6001141558600a015760016000f35b8051935060005b6040811015610ebf57600081830152602081019050610ea5565b505050565b6385979f76598160e01b8152610f03565b600081905081831115610ee6578290505b92915050565b600081905081831015610efd578290505b92915050565b836004820152846024820152606060448201528760648201526084810160005b89811015610f3e578089015181830152602081019050610f23565b506060828a60a40184336000905af158600e01573d6000803e3d6000fd5b3d6001141558600a015760016000f35b815160408301513d6000853e8c8c82606087013350600060045af15059610f938e3d610eec565b8d01610f9f8187610ed5565b5b82811015610fb75760008152602081019050610fa0565b50839e505050505050505056fe4f776e61626c653a206e6577206f776e657220697320746865207a65726f2061646472657373",
  "linkReferences": {},
  "deployedLinkReferences": {}
}