{
  "_format": "hh-sol-artifact-1",
  "contractName": "MigratedBenzeneToken",
  "sourceName": "contracts/MigratedBenzeneToken.sol",
  "abi": [
    {
      "inputs": [
        {
          "internalType": "address",
          "name": "gamePool",
          "type": "address"
        },
        {
          "internalType": "address",
          "name": "teamPool",
          "type": "address"
        },
        {
          "internalType": "address",
          "name": "advisorPool",
          "type": "address"
        },
        {
          "internalType": "address",
          "name": "oldTeamPool",
          "type": "address"
        },
        {
          "internalType": "address",
          "name": "oldAdvisorPool",
          "type": "address"
        },
        {
          "internalType": "address[]",
          "name": "oldBzn",
          "type": "address[]"
        }
      ],
      "stateMutability": "nonpayable",
      "type": "constructor"
    },
    {
      "anonymous": false,
      "inputs": [
        {
          "indexed": true,
          "internalType": "address",
          "name": "owner",
          "type": "address"
        },
        {
          "indexed": true,
          "internalType": "address",
          "name": "spender",
          "type": "address"
        },
        {
          "indexed": false,
          "internalType": "uint256",
          "name": "value",
          "type": "uint256"
        }
      ],
      "name": "Approval",
      "type": "event"
    },
    {
      "anonymous": false,
      "inputs": [
        {
          "indexed": true,
          "internalType": "address",
          "name": "from",
          "type": "address"
        },
        {
          "indexed": true,
          "internalType": "address",
          "name": "to",
          "type": "address"
        },
        {
          "indexed": false,
          "internalType": "uint256",
          "name": "value",
          "type": "uint256"
        }
      ],
      "name": "Transfer",
      "type": "event"
    },
    {
      "inputs": [],
      "name": "AdvisorPoolAddress",
      "outputs": [
        {
          "internalType": "address",
          "name": "",
          "type": "address"
        }
      ],
      "stateMutability": "view",
      "type": "function"
    },
    {
      "inputs": [],
      "name": "GamePoolAddress",
      "outputs": [
        {
          "internalType": "address",
          "name": "",
          "type": "address"
        }
      ],
      "stateMutability": "view",
      "type": "function"
    },
    {
      "inputs": [],
      "name": "TeamPoolAddress",
      "outputs": [
        {
          "internalType": "address",
          "name": "",
          "type": "address"
        }
      ],
      "stateMutability": "view",
      "type": "function"
    },
    {
      "inputs": [],
      "name": "TokenName",
      "outputs": [
        {
          "internalType": "string",
          "name": "",
          "type": "string"
        }
      ],
      "stateMutability": "view",
      "type": "function"
    },
    {
      "inputs": [],
      "name": "TokenSymbol",
      "outputs": [
        {
          "internalType": "string",
          "name": "",
          "type": "string"
        }
      ],
      "stateMutability": "view",
      "type": "function"
    },
    {
      "inputs": [],
      "name": "_advisorPoolAddress",
      "outputs": [
        {
          "internalType": "address",
          "name": "",
          "type": "address"
        }
      ],
      "stateMutability": "view",
      "type": "function"
    },
    {
      "inputs": [],
      "name": "_gamePoolAddress",
      "outputs": [
        {
          "internalType": "address",
          "name": "",
          "type": "address"
        }
      ],
      "stateMutability": "view",
      "type": "function"
    },
    {
      "inputs": [],
      "name": "_teamPoolAddress",
      "outputs": [
        {
          "internalType": "address",
          "name": "",
          "type": "address"
        }
      ],
      "stateMutability": "view",
      "type": "function"
    },
    {
      "inputs": [
        {
          "internalType": "address",
          "name": "owner",
          "type": "address"
        },
        {
          "internalType": "address",
          "name": "spender",
          "type": "address"
        }
      ],
      "name": "allowance",
      "outputs": [
        {
          "internalType": "uint256",
          "name": "",
          "type": "uint256"
        }
      ],
      "stateMutability": "view",
      "type": "function"
    },
    {
      "inputs": [
        {
          "internalType": "address",
          "name": "spender",
          "type": "address"
        },
        {
          "internalType": "uint256",
          "name": "amount",
          "type": "uint256"
        }
      ],
      "name": "approve",
      "outputs": [
        {
          "internalType": "bool",
          "name": "",
          "type": "bool"
        }
      ],
      "stateMutability": "nonpayable",
      "type": "function"
    },
    {
      "inputs": [
        {
          "internalType": "address",
          "name": "spender",
          "type": "address"
        },
        {
          "internalType": "uint256",
          "name": "tokens",
          "type": "uint256"
        },
        {
          "internalType": "bytes",
          "name": "data",
          "type": "bytes"
        }
      ],
      "name": "approveAndCall",
      "outputs": [
        {
          "internalType": "bool",
          "name": "success",
          "type": "bool"
        }
      ],
      "stateMutability": "payable",
      "type": "function"
    },
    {
      "inputs": [
        {
          "internalType": "address",
          "name": "account",
          "type": "address"
        }
      ],
      "name": "balanceOf",
      "outputs": [
        {
          "internalType": "uint256",
          "name": "",
          "type": "uint256"
        }
      ],
      "stateMutability": "view",
      "type": "function"
    },
    {
      "inputs": [
        {
          "internalType": "uint256",
          "name": "amount",
          "type": "uint256"
        }
      ],
      "name": "burn",
      "outputs": [],
      "stateMutability": "nonpayable",
      "type": "function"
    },
    {
      "inputs": [
        {
          "internalType": "address",
          "name": "account",
          "type": "address"
        },
        {
          "internalType": "uint256",
          "name": "amount",
          "type": "uint256"
        }
      ],
      "name": "burnFrom",
      "outputs": [],
      "stateMutability": "nonpayable",
      "type": "function"
    },
    {
      "inputs": [],
      "name": "decimals",
      "outputs": [
        {
          "internalType": "uint8",
          "name": "",
          "type": "uint8"
        }
      ],
      "stateMutability": "view",
      "type": "function"
    },
    {
      "inputs": [
        {
          "internalType": "address",
          "name": "spender",
          "type": "address"
        },
        {
          "internalType": "uint256",
          "name": "subtractedValue",
          "type": "uint256"
        }
      ],
      "name": "decreaseAllowance",
      "outputs": [
        {
          "internalType": "bool",
          "name": "",
          "type": "bool"
        }
      ],
      "stateMutability": "nonpayable",
      "type": "function"
    },
    {
      "inputs": [
        {
          "internalType": "address",
          "name": "spender",
          "type": "address"
        },
        {
          "internalType": "uint256",
          "name": "addedValue",
          "type": "uint256"
        }
      ],
      "name": "increaseAllowance",
      "outputs": [
        {
          "internalType": "bool",
          "name": "",
          "type": "bool"
        }
      ],
      "stateMutability": "nonpayable",
      "type": "function"
    },
    {
      "inputs": [
        {
          "internalType": "address",
          "name": "token",
          "type": "address"
        },
        {
          "internalType": "address",
          "name": "account",
          "type": "address"
        },
        {
          "internalType": "uint256",
          "name": "amount",
          "type": "uint256"
        }
      ],
      "name": "migrate",
      "outputs": [],
      "stateMutability": "nonpayable",
      "type": "function"
    },
    {
      "inputs": [
        {
          "internalType": "address",
          "name": "account",
          "type": "address"
        }
      ],
      "name": "migrateAll",
      "outputs": [],
      "stateMutability": "nonpayable",
      "type": "function"
    },
    {
      "inputs": [
        {
          "internalType": "address",
          "name": "token",
          "type": "address"
        },
        {
          "internalType": "address",
          "name": "account",
          "type": "address"
        }
      ],
      "name": "migrateAll",
      "outputs": [],
      "stateMutability": "nonpayable",
      "type": "function"
    },
    {
      "inputs": [],
      "name": "name",
      "outputs": [
        {
          "internalType": "string",
          "name": "",
          "type": "string"
        }
      ],
      "stateMutability": "view",
      "type": "function"
    },
    {
      "inputs": [
        {
          "internalType": "address",
          "name": "from",
          "type": "address"
        },
        {
          "internalType": "uint256",
          "name": "tokens",
          "type": "uint256"
        },
        {
          "internalType": "address",
          "name": "token",
          "type": "address"
        },
        {
          "internalType": "bytes",
          "name": "data",
          "type": "bytes"
        }
      ],
      "name": "receiveApproval",
      "outputs": [
        {
          "internalType": "bool",
          "name": "",
          "type": "bool"
        }
      ],
      "stateMutability": "payable",
      "type": "function"
    },
    {
      "inputs": [],
      "name": "symbol",
      "outputs": [
        {
          "internalType": "string",
          "name": "",
          "type": "string"
        }
      ],
      "stateMutability": "view",
      "type": "function"
    },
    {
      "inputs": [],
      "name": "totalSupply",
      "outputs": [
        {
          "internalType": "uint256",
          "name": "",
          "type": "uint256"
        }
      ],
      "stateMutability": "view",
      "type": "function"
    },
    {
      "inputs": [
        {
          "internalType": "address",
          "name": "recipient",
          "type": "address"
        },
        {
          "internalType": "uint256",
          "name": "amount",
          "type": "uint256"
        }
      ],
      "name": "transfer",
      "outputs": [
        {
          "internalType": "bool",
          "name": "",
          "type": "bool"
        }
      ],
      "stateMutability": "nonpayable",
      "type": "function"
    },
    {
      "inputs": [
        {
          "internalType": "address",
          "name": "sender",
          "type": "address"
        },
        {
          "internalType": "address",
          "name": "recipient",
          "type": "address"
        },
        {
          "internalType": "uint256",
          "name": "amount",
          "type": "uint256"
        }
      ],
      "name": "transferFrom",
      "outputs": [
        {
          "internalType": "bool",
          "name": "",
          "type": "bool"
        }
      ],
      "stateMutability": "nonpayable",
      "type": "function"
    }
  ],
  "bytecode": "0x60806040523480156200001c576000806200001962001035565b50505b50604051620041f6380380620041f6833981810160405260c08110156200004d576000806200004a62001035565b50505b81019080805190602001909291908051906020019092919080519060200190929190805190602001909291908051906020019092919080516040519392919084640100000000821115620000ab57600080620000a862001035565b50505b83820191506020820185811115620000cd57600080620000ca62001035565b50505b8251866020820283011164010000000082111715620000f657600080620000f362001035565b50505b8083526020830192505050908051906020019060200280838360005b838110156200012f57808201518184015260208101905062000112565b505050509050016040525050508585856040518060400160405280600781526020017f42656e7a656e65000000000000000000000000000000000000000000000000008152506040518060400160405280600381526020017f425a4e00000000000000000000000000000000000000000000000000000000008152508160039080519060200190620001c3929190620010a5565b508060049080519060200190620001dc929190620010a5565b506012600560006101000a81620001f262001171565b8160ff021916908360ff160217906200020a620011d6565b505050505082600860006101000a816200022362001171565b8173ffffffffffffffffffffffffffffffffffffffff021916908373ffffffffffffffffffffffffffffffffffffffff1602179062000261620011d6565b50505081600960006101000a816200027862001171565b8173ffffffffffffffffffffffffffffffffffffffff021916908373ffffffffffffffffffffffffffffffffffffffff16021790620002b6620011d6565b50505080600a60006101000a81620002cd62001171565b8173ffffffffffffffffffffffffffffffffffffffff021916908373ffffffffffffffffffffffffffffffffffffffff160217906200030b620011d6565b50505050505060008151116200032b576000806200032862001035565b50505b600080600090505b8251811015620003e2578281815181106200034a57fe5b602002602001015191506001600660008584815181106200036757fe5b602002602001015173ffffffffffffffffffffffffffffffffffffffff1673ffffffffffffffffffffffffffffffffffffffff16815260200190815260200160002060006101000a81620003ba62001171565b8160ff02191690831515021790620003d1620011d6565b505050808060010191505062000333565b5080600760006101000a81620003f762001171565b8173ffffffffffffffffffffffffffffffffffffffff021916908373ffffffffffffffffffffffffffffffffffffffff1602179062000435620011d6565b50505060008173ffffffffffffffffffffffffffffffffffffffff166370a08231866040518263ffffffff1660e01b8152600401808273ffffffffffffffffffffffffffffffffffffffff16815260200191505060206040518083038186806200049e6200123d565b158015620004b657600080620004b362001035565b50505b505a620004c2620012a2565b5050505050158015620004e4573d6000803e3d6000620004e162001035565b50505b505050506040513d602081101562000506576000806200050362001035565b50505b8101908080519060200190929190505050905060008273ffffffffffffffffffffffffffffffffffffffff166370a08231866040518263ffffffff1660e01b8152600401808273ffffffffffffffffffffffffffffffffffffffff16815260200191505060206040518083038186806200057f6200123d565b15801562000597576000806200059462001035565b50505b505a620005a3620012a2565b5050505050158015620005c5573d6000803e3d6000620005c262001035565b50505b505050506040513d6020811015620005e757600080620005e462001035565b50505b810190808051906020019092919050505090506000821162000613576000806200061062001035565b50505b600081116200062c576000806200062962001035565b50505b6200069d5a63996d79a5598160e01b8152602081600483336000905af158600e01573d6000803e3d6000fd5b3d6001141558600a015760016000f35b8051925060005b60408110156200068b576000818301526020810190506200066f565b505050828401620009a860201b60201c565b6200070d5a63996d79a5598160e01b8152602081600483336000905af158600e01573d6000803e3d6000fd5b3d6001141558600a015760016000f35b8051925060005b6040811015620006fc57600081830152602081019050620006e0565b505050898462000bb960201b60201c565b6200077d5a63996d79a5598160e01b8152602081600483336000905af158600e01573d6000803e3d6000fd5b3d6001141558600a015760016000f35b8051925060005b60408110156200076c5760008183015260208101905062000750565b505050888362000bb960201b60201c565b8773ffffffffffffffffffffffffffffffffffffffff1663144fa6d75a63996d79a5598160e01b8152602081600483336000905af158600e01573d6000803e3d6000fd5b3d6001141558600a015760016000f35b8051925060005b6040811015620007f457600081830152602081019050620007d8565b5050506040518263ffffffff1660e01b8152600401808273ffffffffffffffffffffffffffffffffffffffff16815260200191505060006040518083038160008780620008406200123d565b15801562000858576000806200085562001035565b50505b505a62000864620013ad565b50505050505015801562000887573d6000803e3d60006200088462001035565b50505b505050508673ffffffffffffffffffffffffffffffffffffffff1663144fa6d75a63996d79a5598160e01b8152602081600483336000905af158600e01573d6000803e3d6000fd5b3d6001141558600a015760016000f35b8051925060005b60408110156200090257600081830152602081019050620008e6565b5050506040518263ffffffff1660e01b8152600401808273ffffffffffffffffffffffffffffffffffffffff168152602001915050600060405180830381600087806200094e6200123d565b15801562000966576000806200096362001035565b50505b505a62000972620013ad565b50505050505015801562000995573d6000803e3d60006200099262001035565b50505b50505050505050505050505050620014e2565b600073ffffffffffffffffffffffffffffffffffffffff168273ffffffffffffffffffffffffffffffffffffffff16141562000a57576040517f08c379a000000000000000000000000000000000000000000000000000000000815260040180806020018281038252601f8152602001807f45524332303a206d696e7420746f20746865207a65726f2061646472657373008152506020019150506040518091039062000a5462001035565b50505b62000a6b6000838362000ed360201b60201c565b62000a9081600262000a7c62001171565b62000ed860201b6200184e1790919060201c565b6002819062000a9e620011d6565b50505062000b02816000808573ffffffffffffffffffffffffffffffffffffffff1673ffffffffffffffffffffffffffffffffffffffff16815260200190815260200160002062000aee62001171565b62000ed860201b6200184e1790919060201c565b6000808473ffffffffffffffffffffffffffffffffffffffff1673ffffffffffffffffffffffffffffffffffffffff168152602001908152602001600020819062000b4c620011d6565b5050508173ffffffffffffffffffffffffffffffffffffffff16600073ffffffffffffffffffffffffffffffffffffffff167fddf252ad1be2c89b69c2b068fc378daa952ba7f163c4a11628f55a4df523b3ef836040518082815260200191505060405180910390a35050565b600073ffffffffffffffffffffffffffffffffffffffff168373ffffffffffffffffffffffffffffffffffffffff16141562000c4c576040517f08c379a0000000000000000000000000000000000000000000000000000000008152600401808060200182810382526025815260200180620041d1602591396040019150506040518091039062000c4962001035565b50505b600073ffffffffffffffffffffffffffffffffffffffff168273ffffffffffffffffffffffffffffffffffffffff16141562000cdf576040517f08c379a000000000000000000000000000000000000000000000000000000000815260040180806020018281038252602381526020018062004188602391396040019150506040518091039062000cdc62001035565b50505b62000cf283838362000ed360201b60201c565b62000d6e81604051806060016040528060268152602001620041ab602691396000808773ffffffffffffffffffffffffffffffffffffffff1673ffffffffffffffffffffffffffffffffffffffff16815260200190815260200160002062000d5962001171565b62000f6c60201b620018df179092919060201c565b6000808573ffffffffffffffffffffffffffffffffffffffff1673ffffffffffffffffffffffffffffffffffffffff168152602001908152602001600020819062000db8620011d6565b50505062000e1c816000808573ffffffffffffffffffffffffffffffffffffffff1673ffffffffffffffffffffffffffffffffffffffff16815260200190815260200160002062000e0862001171565b62000ed860201b6200184e1790919060201c565b6000808473ffffffffffffffffffffffffffffffffffffffff1673ffffffffffffffffffffffffffffffffffffffff168152602001908152602001600020819062000e66620011d6565b5050508173ffffffffffffffffffffffffffffffffffffffff168373ffffffffffffffffffffffffffffffffffffffff167fddf252ad1be2c89b69c2b068fc378daa952ba7f163c4a11628f55a4df523b3ef836040518082815260200191505060405180910390a3505050565b505050565b60008082840190508381101562000f62576040517f08c379a000000000000000000000000000000000000000000000000000000000815260040180806020018281038252601b8152602001807f536166654d6174683a206164646974696f6e206f766572666c6f7700000000008152506020019150506040518091039062000f5f62001035565b50505b8091505092915050565b600083831115829062001028576040517f08c379a00000000000000000000000000000000000000000000000000000000081526004018080602001828103825283818151815260200191508051906020019080838360005b8381101562000fe157808201518184015260208101905062000fc4565b50505050905090810190601f1680156200100f5780820380516001836020036101000a031916815260200191505b5092505050604051809103906200102562001035565b50505b5082840390509392505050565b632a2a7adb598160e01b8152600481016020815285602082015260005b868110156200107257808601518160408401015260208101905062001052565b506020828760640184336000905af158600e01573d6000803e3d6000fd5b3d6001141558600a015760016000f35b505050565b8280620010b162001171565b600181600116156101000203166002900490600052602060002090601f016020900481019282620010f157600085620010e9620011d6565b50506200115e565b82601f106200111757805160ff191683800117856200110f620011d6565b50506200115e565b8280016001018562001128620011d6565b505082156200115e579182015b828111156200115d578251826200114b620011d6565b50509160200191906001019062001135565b5b5090506200116d9190620014b8565b5090565b6303daa959598160e01b8152836004820152602081602483336000905af158600e01573d6000803e3d6000fd5b3d6001141558600a015760016000f35b8051935060005b6040811015620011d157600081830152602081019050620011b5565b505050565b6322bd64c0598160e01b8152836004820152846024820152600081604483336000905af158600e01573d6000803e3d6000fd5b3d6001141558600a015760016000f35b60005b604081101562001238576000818301526020810190506200121c565b505050565b638435035b598160e01b8152836004820152602081602483336000905af158600e01573d6000803e3d6000fd5b3d6001141558600a015760016000f35b8051935060005b60408110156200129d5760008183015260208101905062001281565b505050565b638540661f598160e01b8152620012e4565b600081905081831115620012c6578290505b92915050565b600081905081831015620012de578290505b92915050565b836004820152846024820152606060448201528660648201526084810160005b888110156200132157808801518183015260208101905062001304565b506060828960a40184336000905af158600e01573d6000803e3d6000fd5b3d6001141558600a015760016000f35b815160408301513d6000853e8b8b82606087013350600060045af15059620013788d3d620012cc565b8c01620013868187620012b4565b5b82811015620013a0576000815260208101905062001387565b50839d5050505050505050565b6385979f76598160e01b8152620013ef565b600081905081831115620013d1578290505b92915050565b600081905081831015620013e9578290505b92915050565b836004820152846024820152606060448201528760648201526084810160005b898110156200142c5780890151818301526020810190506200140f565b506060828a60a40184336000905af158600e01573d6000803e3d6000fd5b3d6001141558600a015760016000f35b815160408301513d6000853e8c8c82606087013350600060045af15059620014838e3d620013d7565b8d01620014918187620013bf565b5b82811015620014ab576000815260208101905062001492565b50839e5050505050505050565b5b80821115620014de57600081600090620014d2620011d6565b505050600101620014b9565b5090565b612c9680620014f26000396000f3fe6080604052600436106101805760003560e01c806379cc6790116100d1578063c02fd6711161008a578063dd62ed3e11610064578063dd62ed3e14610c70578063f16565ee14610d07578063f415675714610d94578063f64db05014610dde57610180565b8063c02fd67114610abd578063cae9ca5114610b07578063dbed3a3014610c2657610180565b806379cc6790146106d95780638f4ffcb11461074657806395d89b4114610885578063a457c2d71461091e578063a9059cbb146109a1578063b6d7855a14610a2457610180565b8063313ce5671161013e5780635118f3bb116101185780635118f3bb1461056b5780635213cca8146105b55780635a8cadb1146105ff57806370a082311461066257610180565b8063313ce56714610464578063395093511461049b57806342966c681461051e57610180565b8062c8fbd41461018e57806306fdde0314610227578063095ea7b3146102c057806318160ddd146103435780631b9e2e381461037757806323b872dd146103c1575b60008061018b612715565b50505b3480156101a3576000806101a0612715565b50505b506101ac610e61565b6040518080602001828103825283818151815260200191508051906020019080838360005b838110156101ec5780820151818401526020810190506101d1565b50505050905090810190601f1680156102195780820380516001836020036101000a031916815260200191505b509250505060405180910390f35b34801561023c57600080610239612715565b50505b50610245610e9a565b6040518080602001828103825283818151815260200191508051906020019080838360005b8381101561028557808201518184015260208101905061026a565b50505050905090810190601f1680156102b25780820380516001836020036101000a031916815260200191505b509250505060405180910390f35b3480156102d5576000806102d2612715565b50505b5061032b600480360360408110156102f5576000806102f2612715565b50505b81019080803573ffffffffffffffffffffffffffffffffffffffff16906020019092919080359060200190929190505050610f58565b60405180821515815260200191505060405180910390f35b34801561035857600080610355612715565b50505b50610361610f76565b6040518082815260200191505060405180910390f35b34801561038c57600080610389612715565b50505b50610395610f87565b604051808273ffffffffffffffffffffffffffffffffffffffff16815260200191505060405180910390f35b3480156103d6576000806103d3612715565b50505b5061044c600480360360608110156103f6576000806103f3612715565b50505b81019080803573ffffffffffffffffffffffffffffffffffffffff169060200190929190803573ffffffffffffffffffffffffffffffffffffffff16906020019092919080359060200190929190505050610fb4565b60405180821515815260200191505060405180910390f35b34801561047957600080610476612715565b50505b50610482611094565b604051808260ff16815260200191505060405180910390f35b3480156104b0576000806104ad612715565b50505b50610506600480360360408110156104d0576000806104cd612715565b50505b81019080803573ffffffffffffffffffffffffffffffffffffffff169060200190929190803590602001909291905050506110b2565b60405180821515815260200191505060405180910390f35b34801561053357600080610530612715565b50505b506105696004803603602081101561055357600080610550612715565b50505b810190808035906020019092919050505061116c565b005b3480156105805760008061057d612715565b50505b50610589611180565b604051808273ffffffffffffffffffffffffffffffffffffffff16815260200191505060405180910390f35b3480156105ca576000806105c7612715565b50505b506105d36111ad565b604051808273ffffffffffffffffffffffffffffffffffffffff16815260200191505060405180910390f35b34801561061457600080610611612715565b50505b506106606004803603602081101561063457600080610631612715565b50505b81019080803573ffffffffffffffffffffffffffffffffffffffff1690602001909291905050506111de565b005b34801561067757600080610674612715565b50505b506106c36004803603602081101561069757600080610694612715565b50505b81019080803573ffffffffffffffffffffffffffffffffffffffff169060200190929190505050611214565b6040518082815260200191505060405180910390f35b3480156106ee576000806106eb612715565b50505b506107446004803603604081101561070e5760008061070b612715565b50505b81019080803573ffffffffffffffffffffffffffffffffffffffff16906020019092919080359060200190929190505050611263565b005b61086d6004803603608081101561076557600080610762612715565b50505b81019080803573ffffffffffffffffffffffffffffffffffffffff16906020019092919080359060200190929190803573ffffffffffffffffffffffffffffffffffffffff169060200190929190803590602001906401000000008111156107d5576000806107d2612715565b50505b8201836020820111156107f0576000806107ed612715565b50505b8035906020019184600183028401116401000000008311171561081b57600080610818612715565b50505b91908080601f016020809104026020016040519081016040528093929190818152602001838380828437600081840152601f19601f8201169050808301925050505050505091929192905050506112c5565b60405180821515815260200191505060405180910390f35b34801561089a57600080610897612715565b50505b506108a36112de565b6040518080602001828103825283818151815260200191508051906020019080838360005b838110156108e35780820151818401526020810190506108c8565b50505050905090810190601f1680156109105780820380516001836020036101000a031916815260200191505b509250505060405180910390f35b34801561093357600080610930612715565b50505b506109896004803603604081101561095357600080610950612715565b50505b81019080803573ffffffffffffffffffffffffffffffffffffffff1690602001909291908035906020019092919050505061139c565b60405180821515815260200191505060405180910390f35b3480156109b6576000806109b3612715565b50505b50610a0c600480360360408110156109d6576000806109d3612715565b50505b81019080803573ffffffffffffffffffffffffffffffffffffffff16906020019092919080359060200190929190505050611470565b60405180821515815260200191505060405180910390f35b348015610a3957600080610a36612715565b50505b50610a4261148e565b6040518080602001828103825283818151815260200191508051906020019080838360005b83811015610a82578082015181840152602081019050610a67565b50505050905090810190601f168015610aaf5780820380516001836020036101000a031916815260200191505b509250505060405180910390f35b348015610ad257600080610acf612715565b50505b50610adb6114c7565b604051808273ffffffffffffffffffffffffffffffffffffffff16815260200191505060405180910390f35b610c0e60048036036060811015610b2657600080610b23612715565b50505b81019080803573ffffffffffffffffffffffffffffffffffffffff1690602001909291908035906020019092919080359060200190640100000000811115610b7657600080610b73612715565b50505b820183602082011115610b9157600080610b8e612715565b50505b80359060200191846001830284011164010000000083111715610bbc57600080610bb9612715565b50505b91908080601f016020809104026020016040519081016040528093929190818152602001838380828437600081840152601f19601f8201169050808301925050505050505091929192905050506114f4565b60405180821515815260200191505060405180910390f35b348015610c3b57600080610c38612715565b50505b50610c44611740565b604051808273ffffffffffffffffffffffffffffffffffffffff16815260200191505060405180910390f35b348015610c8557600080610c82612715565b50505b50610cf160048036036040811015610ca557600080610ca2612715565b50505b81019080803573ffffffffffffffffffffffffffffffffffffffff169060200190929190803573ffffffffffffffffffffffffffffffffffffffff169060200190929190505050611771565b6040518082815260200191505060405180910390f35b348015610d1c57600080610d19612715565b50505b50610d9260048036036060811015610d3c57600080610d39612715565b50505b81019080803573ffffffffffffffffffffffffffffffffffffffff169060200190929190803573ffffffffffffffffffffffffffffffffffffffff169060200190929190803590602001909291905050506117ff565b005b348015610da957600080610da6612715565b50505b50610db261180f565b604051808273ffffffffffffffffffffffffffffffffffffffff16815260200191505060405180910390f35b348015610df357600080610df0612715565b50505b50610e5f60048036036040811015610e1357600080610e10612715565b50505b81019080803573ffffffffffffffffffffffffffffffffffffffff169060200190929190803573ffffffffffffffffffffffffffffffffffffffff169060200190929190505050611840565b005b6040518060400160405280600381526020017f425a4e000000000000000000000000000000000000000000000000000000000081525081565b6060600380610ea7612783565b600181600116156101000203166002900480601f01602080910402602001604051908101604052809291908181526020018280610ee2612783565b60018160011615610100020316600290048015610f4e5780601f10610f1c576101008083610f0e612783565b040283529160200191610f4e565b820191906000526020600020905b81610f33612783565b81529060010190602001808311610f2a57829003601f168201915b5050505050905090565b6000610f6c610f656119a2565b84846119b2565b6001905092915050565b60006002610f82612783565b905090565b6008600090610f94612783565b906101000a900473ffffffffffffffffffffffffffffffffffffffff1681565b6000610fc1848484611bc4565b61108984610fcd6119a2565b61108485604051806060016040528060288152602001612bbb60289139600160008b73ffffffffffffffffffffffffffffffffffffffff1673ffffffffffffffffffffffffffffffffffffffff16815260200190815260200160002060006110336119a2565b73ffffffffffffffffffffffffffffffffffffffff1673ffffffffffffffffffffffffffffffffffffffff168152602001908152602001600020611075612783565b6118df9092919063ffffffff16565b6119b2565b600190509392505050565b600060056000906110a3612783565b906101000a900460ff16905090565b60006111626110bf6119a2565b8461115d85600160006110d06119a2565b73ffffffffffffffffffffffffffffffffffffffff1673ffffffffffffffffffffffffffffffffffffffff16815260200190815260200160002060008973ffffffffffffffffffffffffffffffffffffffff1673ffffffffffffffffffffffffffffffffffffffff16815260200190815260200160002061114f612783565b61184e90919063ffffffff16565b6119b2565b6001905092915050565b61117d6111776119a2565b82611eb7565b50565b600960009061118d612783565b906101000a900473ffffffffffffffffffffffffffffffffffffffff1681565b6000600a6000906111bc612783565b906101000a900473ffffffffffffffffffffffffffffffffffffffff16905090565b61121160076000906111ee612783565b906101000a900473ffffffffffffffffffffffffffffffffffffffff16826120a4565b50565b60008060008373ffffffffffffffffffffffffffffffffffffffff1673ffffffffffffffffffffffffffffffffffffffff16815260200190815260200160002061125c612783565b9050919050565b60006112a282604051806060016040528060248152602001612be3602491396112938661128e6119a2565b611771565b6118df9092919063ffffffff16565b90506112b6836112b06119a2565b836119b2565b6112c08383611eb7565b505050565b60006112d2838686612351565b60019050949350505050565b60606004806112eb612783565b600181600116156101000203166002900480601f01602080910402602001604051908101604052809291908181526020018280611326612783565b600181600116156101000203166002900480156113925780601f10611360576101008083611352612783565b040283529160200191611392565b820191906000526020600020905b81611377612783565b8152906001019060200180831161136e57829003601f168201915b5050505050905090565b60006114666113a96119a2565b8461146185604051806060016040528060258152602001612c7160259139600160006113d36119a2565b73ffffffffffffffffffffffffffffffffffffffff1673ffffffffffffffffffffffffffffffffffffffff16815260200190815260200160002060008a73ffffffffffffffffffffffffffffffffffffffff1673ffffffffffffffffffffffffffffffffffffffff168152602001908152602001600020611452612783565b6118df9092919063ffffffff16565b6119b2565b6001905092915050565b600061148461147d6119a2565b8484611bc4565b6001905092915050565b6040518060400160405280600781526020017f42656e7a656e650000000000000000000000000000000000000000000000000081525081565b600a6000906114d4612783565b906101000a900473ffffffffffffffffffffffffffffffffffffffff1681565b60006115008484610f58565b50600084905060008173ffffffffffffffffffffffffffffffffffffffff16638f4ffcb1345a61152e6127e6565b885a63996d79a5598160e01b8152602081600483336000905af158600e01573d6000803e3d6000fd5b3d6001141558600a015760016000f35b8051925060005b60408110156115885760008183015260208101905061156e565b505050896040518663ffffffff1660e01b8152600401808573ffffffffffffffffffffffffffffffffffffffff1681526020018481526020018373ffffffffffffffffffffffffffffffffffffffff16815260200180602001828103825283818151815260200191508051906020019080838360005b838110156116195780820151818401526020810190506115fe565b50505050905090810190601f1680156116465780820380516001836020036101000a031916815260200191505b5095505050505050602060405180830381858880611662612843565b15801561167757600080611674612715565b50505b505a6116816128a6565b5050505050501580156116a1573d6000803e3d600061169e612715565b50505b50505050506040513d60208110156116c1576000806116be612715565b50505b8101908080519060200190929190505050905080611733576040517f08c379a0000000000000000000000000000000000000000000000000000000008152600401808060200182810382526022815260200180612b996022913960400191505060405180910390611730612715565b50505b6001925050509392505050565b6000600860009061174f612783565b906101000a900473ffffffffffffffffffffffffffffffffffffffff16905090565b6000600160008473ffffffffffffffffffffffffffffffffffffffff1673ffffffffffffffffffffffffffffffffffffffff16815260200190815260200160002060008373ffffffffffffffffffffffffffffffffffffffff1673ffffffffffffffffffffffffffffffffffffffff1681526020019081526020016000206117f7612783565b905092915050565b61180a838383612351565b505050565b6000600960009061181e612783565b906101000a900473ffffffffffffffffffffffffffffffffffffffff16905090565b61184a82826120a4565b5050565b6000808284019050838110156118d5576040517f08c379a000000000000000000000000000000000000000000000000000000000815260040180806020018281038252601b8152602001807f536166654d6174683a206164646974696f6e206f766572666c6f770000000000815250602001915050604051809103906118d2612715565b50505b8091505092915050565b6000838311158290611995576040517f08c379a00000000000000000000000000000000000000000000000000000000081526004018080602001828103825283818151815260200191508051906020019080838360005b83811015611951578082015181840152602081019050611936565b50505050905090810190601f16801561197e5780820380516001836020036101000a031916815260200191505b509250505060405180910390611992612715565b50505b5082840390509392505050565b60005a6119ad6127e6565b905090565b600073ffffffffffffffffffffffffffffffffffffffff168373ffffffffffffffffffffffffffffffffffffffff161415611a41576040517f08c379a0000000000000000000000000000000000000000000000000000000008152600401808060200182810382526024815260200180612c4d6024913960400191505060405180910390611a3e612715565b50505b600073ffffffffffffffffffffffffffffffffffffffff168273ffffffffffffffffffffffffffffffffffffffff161415611ad0576040517f08c379a0000000000000000000000000000000000000000000000000000000008152600401808060200182810382526022815260200180612b516022913960400191505060405180910390611acd612715565b50505b80600160008573ffffffffffffffffffffffffffffffffffffffff1673ffffffffffffffffffffffffffffffffffffffff16815260200190815260200160002060008473ffffffffffffffffffffffffffffffffffffffff1673ffffffffffffffffffffffffffffffffffffffff1681526020019081526020016000208190611b576129a6565b5050508173ffffffffffffffffffffffffffffffffffffffff168373ffffffffffffffffffffffffffffffffffffffff167f8c5be1e5ebec7d5bd14f71427d1e84f3dd0314c0f7b2291e5b200ac8c7c3b925836040518082815260200191505060405180910390a3505050565b600073ffffffffffffffffffffffffffffffffffffffff168373ffffffffffffffffffffffffffffffffffffffff161415611c53576040517f08c379a0000000000000000000000000000000000000000000000000000000008152600401808060200182810382526025815260200180612c286025913960400191505060405180910390611c50612715565b50505b600073ffffffffffffffffffffffffffffffffffffffff168273ffffffffffffffffffffffffffffffffffffffff161415611ce2576040517f08c379a0000000000000000000000000000000000000000000000000000000008152600401808060200182810382526023815260200180612b0c6023913960400191505060405180910390611cdf612715565b50505b611ced83838361247b565b611d5f81604051806060016040528060268152602001612b73602691396000808773ffffffffffffffffffffffffffffffffffffffff1673ffffffffffffffffffffffffffffffffffffffff168152602001908152602001600020611d50612783565b6118df9092919063ffffffff16565b6000808573ffffffffffffffffffffffffffffffffffffffff1673ffffffffffffffffffffffffffffffffffffffff1681526020019081526020016000208190611da76129a6565b505050611e02816000808573ffffffffffffffffffffffffffffffffffffffff1673ffffffffffffffffffffffffffffffffffffffff168152602001908152602001600020611df4612783565b61184e90919063ffffffff16565b6000808473ffffffffffffffffffffffffffffffffffffffff1673ffffffffffffffffffffffffffffffffffffffff1681526020019081526020016000208190611e4a6129a6565b5050508173ffffffffffffffffffffffffffffffffffffffff168373ffffffffffffffffffffffffffffffffffffffff167fddf252ad1be2c89b69c2b068fc378daa952ba7f163c4a11628f55a4df523b3ef836040518082815260200191505060405180910390a3505050565b600073ffffffffffffffffffffffffffffffffffffffff168273ffffffffffffffffffffffffffffffffffffffff161415611f46576040517f08c379a0000000000000000000000000000000000000000000000000000000008152600401808060200182810382526021815260200180612c076021913960400191505060405180910390611f43612715565b50505b611f528260008361247b565b611fc481604051806060016040528060228152602001612b2f602291396000808673ffffffffffffffffffffffffffffffffffffffff1673ffffffffffffffffffffffffffffffffffffffff168152602001908152602001600020611fb5612783565b6118df9092919063ffffffff16565b6000808473ffffffffffffffffffffffffffffffffffffffff1673ffffffffffffffffffffffffffffffffffffffff168152602001908152602001600020819061200c6129a6565b50505061202b81600261201d612783565b61248090919063ffffffff16565b600281906120376129a6565b505050600073ffffffffffffffffffffffffffffffffffffffff168273ffffffffffffffffffffffffffffffffffffffff167fddf252ad1be2c89b69c2b068fc378daa952ba7f163c4a11628f55a4df523b3ef836040518082815260200191505060405180910390a35050565b600660008373ffffffffffffffffffffffffffffffffffffffff1673ffffffffffffffffffffffffffffffffffffffff1681526020019081526020016000206000906120ee612783565b906101000a900460ff1661210a57600080612107612715565b50505b600082905060008173ffffffffffffffffffffffffffffffffffffffff166370a08231846040518263ffffffff1660e01b8152600401808273ffffffffffffffffffffffffffffffffffffffff1681526020019150506020604051808303818680612173612843565b15801561218857600080612185612715565b50505b505a612192612a0b565b50505050501580156121b1573d6000803e3d60006121ae612715565b50505b505050506040513d60208110156121d0576000806121cd612715565b50505b8101908080519060200190929190505050905060008273ffffffffffffffffffffffffffffffffffffffff1663dd62ed3e855a63996d79a5598160e01b8152602081600483336000905af158600e01573d6000803e3d6000fd5b3d6001141558600a015760016000f35b8051925060005b604081101561225b57600081830152602081019050612241565b5050506040518363ffffffff1660e01b8152600401808373ffffffffffffffffffffffffffffffffffffffff1681526020018273ffffffffffffffffffffffffffffffffffffffff1681526020019250505060206040518083038186806122c0612843565b1580156122d5576000806122d2612715565b50505b505a6122df612a0b565b50505050501580156122fe573d6000803e3d60006122fb612715565b50505b505050506040513d602081101561231d5760008061231a612715565b50505b81019080805190602001909291905050509050600061233c838361250c565b9050612349868683612351565b505050505050565b600660008473ffffffffffffffffffffffffffffffffffffffff1673ffffffffffffffffffffffffffffffffffffffff16815260200190815260200160002060009061239b612783565b906101000a900460ff166123b7576000806123b4612715565b50505b60008390508073ffffffffffffffffffffffffffffffffffffffff166379cc679084846040518363ffffffff1660e01b8152600401808373ffffffffffffffffffffffffffffffffffffffff1681526020018281526020019250505060006040518083038160008780612428612843565b15801561243d5760008061243a612715565b50505b505a6124476128a6565b505050505050158015612467573d6000803e3d6000612464612715565b50505b505050506124758383612525565b50505050565b505050565b600082821115612501576040517f08c379a000000000000000000000000000000000000000000000000000000000815260040180806020018281038252601e8152602001807f536166654d6174683a207375627472616374696f6e206f766572666c6f770000815250602001915050604051809103906124fe612715565b50505b818303905092915050565b600081831061251b578161251d565b825b905092915050565b600073ffffffffffffffffffffffffffffffffffffffff168273ffffffffffffffffffffffffffffffffffffffff1614156125d1576040517f08c379a000000000000000000000000000000000000000000000000000000000815260040180806020018281038252601f8152602001807f45524332303a206d696e7420746f20746865207a65726f206164647265737300815250602001915050604051809103906125ce612715565b50505b6125dd6000838361247b565b6125f98160026125eb612783565b61184e90919063ffffffff16565b600281906126056129a6565b505050612660816000808573ffffffffffffffffffffffffffffffffffffffff1673ffffffffffffffffffffffffffffffffffffffff168152602001908152602001600020612652612783565b61184e90919063ffffffff16565b6000808473ffffffffffffffffffffffffffffffffffffffff1673ffffffffffffffffffffffffffffffffffffffff16815260200190815260200160002081906126a86129a6565b5050508173ffffffffffffffffffffffffffffffffffffffff16600073ffffffffffffffffffffffffffffffffffffffff167fddf252ad1be2c89b69c2b068fc378daa952ba7f163c4a11628f55a4df523b3ef836040518082815260200191505060405180910390a35050565b632a2a7adb598160e01b8152600481016020815285602082015260005b86811015612750578086015181604084010152602081019050612732565b506020828760640184336000905af158600e01573d6000803e3d6000fd5b3d6001141558600a015760016000f35b505050565b6303daa959598160e01b8152836004820152602081602483336000905af158600e01573d6000803e3d6000fd5b3d6001141558600a015760016000f35b8051935060005b60408110156127e1576000818301526020810190506127c7565b505050565b6373509064598160e01b8152602081600483336000905af158600e01573d6000803e3d6000fd5b3d6001141558600a015760016000f35b8051935060005b604081101561283e57600081830152602081019050612824565b505050565b638435035b598160e01b8152836004820152602081602483336000905af158600e01573d6000803e3d6000fd5b3d6001141558600a015760016000f35b8051935060005b60408110156128a157600081830152602081019050612887565b505050565b6385979f76598160e01b81526128e5565b6000819050818311156128c8578290505b92915050565b6000819050818310156128df578290505b92915050565b836004820152846024820152606060448201528760648201526084810160005b89811015612920578089015181830152602081019050612905565b506060828a60a40184336000905af158600e01573d6000803e3d6000fd5b3d6001141558600a015760016000f35b815160408301513d6000853e8c8c82606087013350600060045af150596129758e3d6128ce565b8d0161298181876128b7565b5b828110156129995760008152602081019050612982565b50839e5050505050505050565b6322bd64c0598160e01b8152836004820152846024820152600081604483336000905af158600e01573d6000803e3d6000fd5b3d6001141558600a015760016000f35b60005b6040811015612a06576000818301526020810190506129ec565b505050565b638540661f598160e01b8152612a4a565b600081905081831115612a2d578290505b92915050565b600081905081831015612a44578290505b92915050565b836004820152846024820152606060448201528660648201526084810160005b88811015612a85578088015181830152602081019050612a6a565b506060828960a40184336000905af158600e01573d6000803e3d6000fd5b3d6001141558600a015760016000f35b815160408301513d6000853e8b8b82606087013350600060045af15059612ada8d3d612a33565b8c01612ae68187612a1c565b5b82811015612afe5760008152602081019050612ae7565b50839d505050505050505056fe45524332303a207472616e7366657220746f20746865207a65726f206164647265737345524332303a206275726e20616d6f756e7420657863656564732062616c616e636545524332303a20617070726f766520746f20746865207a65726f206164647265737345524332303a207472616e7366657220616d6f756e7420657863656564732062616c616e6365617070726f7665416e6443616c6c20726573706f6e736520776173206661696c656445524332303a207472616e7366657220616d6f756e74206578636565647320616c6c6f77616e636545524332303a206275726e20616d6f756e74206578636565647320616c6c6f77616e636545524332303a206275726e2066726f6d20746865207a65726f206164647265737345524332303a207472616e736665722066726f6d20746865207a65726f206164647265737345524332303a20617070726f76652066726f6d20746865207a65726f206164647265737345524332303a2064656372656173656420616c6c6f77616e63652062656c6f77207a65726f45524332303a207472616e7366657220746f20746865207a65726f206164647265737345524332303a207472616e7366657220616d6f756e7420657863656564732062616c616e636545524332303a207472616e736665722066726f6d20746865207a65726f2061646472657373",
  "linkReferences": {},
  "deployedLinkReferences": {}
}