{
  "_format": "hh-sol-artifact-1",
  "contractName": "BenzeneToken",
  "sourceName": "contracts/BenzeneToken.sol",
  "abi": [
    {
      "inputs": [
        {
          "internalType": "address",
          "name": "gamePool",
          "type": "address"
        },
        {
          "internalType": "address",
          "name": "teamPool",
          "type": "address"
        },
        {
          "internalType": "address",
          "name": "advisorPool",
          "type": "address"
        }
      ],
      "stateMutability": "nonpayable",
      "type": "constructor"
    },
    {
      "anonymous": false,
      "inputs": [
        {
          "indexed": true,
          "internalType": "address",
          "name": "owner",
          "type": "address"
        },
        {
          "indexed": true,
          "internalType": "address",
          "name": "spender",
          "type": "address"
        },
        {
          "indexed": false,
          "internalType": "uint256",
          "name": "value",
          "type": "uint256"
        }
      ],
      "name": "Approval",
      "type": "event"
    },
    {
      "anonymous": false,
      "inputs": [
        {
          "indexed": true,
          "internalType": "address",
          "name": "from",
          "type": "address"
        },
        {
          "indexed": true,
          "internalType": "address",
          "name": "to",
          "type": "address"
        },
        {
          "indexed": false,
          "internalType": "uint256",
          "name": "value",
          "type": "uint256"
        }
      ],
      "name": "Transfer",
      "type": "event"
    },
    {
      "inputs": [],
      "name": "ADVISOR_POOL_INIT",
      "outputs": [
        {
          "internalType": "uint256",
          "name": "",
          "type": "uint256"
        }
      ],
      "stateMutability": "view",
      "type": "function"
    },
    {
      "inputs": [],
      "name": "AdvisorPoolAddress",
      "outputs": [
        {
          "internalType": "address",
          "name": "",
          "type": "address"
        }
      ],
      "stateMutability": "view",
      "type": "function"
    },
    {
      "inputs": [],
      "name": "GAME_POOL_INIT",
      "outputs": [
        {
          "internalType": "uint256",
          "name": "",
          "type": "uint256"
        }
      ],
      "stateMutability": "view",
      "type": "function"
    },
    {
      "inputs": [],
      "name": "GamePoolAddress",
      "outputs": [
        {
          "internalType": "address",
          "name": "",
          "type": "address"
        }
      ],
      "stateMutability": "view",
      "type": "function"
    },
    {
      "inputs": [],
      "name": "INITIAL_SUPPLY",
      "outputs": [
        {
          "internalType": "uint256",
          "name": "",
          "type": "uint256"
        }
      ],
      "stateMutability": "view",
      "type": "function"
    },
    {
      "inputs": [],
      "name": "TEAM_POOL_INIT",
      "outputs": [
        {
          "internalType": "uint256",
          "name": "",
          "type": "uint256"
        }
      ],
      "stateMutability": "view",
      "type": "function"
    },
    {
      "inputs": [],
      "name": "TeamPoolAddress",
      "outputs": [
        {
          "internalType": "address",
          "name": "",
          "type": "address"
        }
      ],
      "stateMutability": "view",
      "type": "function"
    },
    {
      "inputs": [],
      "name": "TokenName",
      "outputs": [
        {
          "internalType": "string",
          "name": "",
          "type": "string"
        }
      ],
      "stateMutability": "view",
      "type": "function"
    },
    {
      "inputs": [],
      "name": "TokenSymbol",
      "outputs": [
        {
          "internalType": "string",
          "name": "",
          "type": "string"
        }
      ],
      "stateMutability": "view",
      "type": "function"
    },
    {
      "inputs": [],
      "name": "_advisorPoolAddress",
      "outputs": [
        {
          "internalType": "address",
          "name": "",
          "type": "address"
        }
      ],
      "stateMutability": "view",
      "type": "function"
    },
    {
      "inputs": [],
      "name": "_gamePoolAddress",
      "outputs": [
        {
          "internalType": "address",
          "name": "",
          "type": "address"
        }
      ],
      "stateMutability": "view",
      "type": "function"
    },
    {
      "inputs": [],
      "name": "_teamPoolAddress",
      "outputs": [
        {
          "internalType": "address",
          "name": "",
          "type": "address"
        }
      ],
      "stateMutability": "view",
      "type": "function"
    },
    {
      "inputs": [
        {
          "internalType": "address",
          "name": "owner",
          "type": "address"
        },
        {
          "internalType": "address",
          "name": "spender",
          "type": "address"
        }
      ],
      "name": "allowance",
      "outputs": [
        {
          "internalType": "uint256",
          "name": "",
          "type": "uint256"
        }
      ],
      "stateMutability": "view",
      "type": "function"
    },
    {
      "inputs": [
        {
          "internalType": "address",
          "name": "spender",
          "type": "address"
        },
        {
          "internalType": "uint256",
          "name": "amount",
          "type": "uint256"
        }
      ],
      "name": "approve",
      "outputs": [
        {
          "internalType": "bool",
          "name": "",
          "type": "bool"
        }
      ],
      "stateMutability": "nonpayable",
      "type": "function"
    },
    {
      "inputs": [
        {
          "internalType": "address",
          "name": "spender",
          "type": "address"
        },
        {
          "internalType": "uint256",
          "name": "tokens",
          "type": "uint256"
        },
        {
          "internalType": "bytes",
          "name": "data",
          "type": "bytes"
        }
      ],
      "name": "approveAndCall",
      "outputs": [
        {
          "internalType": "bool",
          "name": "success",
          "type": "bool"
        }
      ],
      "stateMutability": "payable",
      "type": "function"
    },
    {
      "inputs": [
        {
          "internalType": "address",
          "name": "account",
          "type": "address"
        }
      ],
      "name": "balanceOf",
      "outputs": [
        {
          "internalType": "uint256",
          "name": "",
          "type": "uint256"
        }
      ],
      "stateMutability": "view",
      "type": "function"
    },
    {
      "inputs": [
        {
          "internalType": "uint256",
          "name": "amount",
          "type": "uint256"
        }
      ],
      "name": "burn",
      "outputs": [],
      "stateMutability": "nonpayable",
      "type": "function"
    },
    {
      "inputs": [
        {
          "internalType": "address",
          "name": "account",
          "type": "address"
        },
        {
          "internalType": "uint256",
          "name": "amount",
          "type": "uint256"
        }
      ],
      "name": "burnFrom",
      "outputs": [],
      "stateMutability": "nonpayable",
      "type": "function"
    },
    {
      "inputs": [],
      "name": "decimals",
      "outputs": [
        {
          "internalType": "uint8",
          "name": "",
          "type": "uint8"
        }
      ],
      "stateMutability": "view",
      "type": "function"
    },
    {
      "inputs": [
        {
          "internalType": "address",
          "name": "spender",
          "type": "address"
        },
        {
          "internalType": "uint256",
          "name": "subtractedValue",
          "type": "uint256"
        }
      ],
      "name": "decreaseAllowance",
      "outputs": [
        {
          "internalType": "bool",
          "name": "",
          "type": "bool"
        }
      ],
      "stateMutability": "nonpayable",
      "type": "function"
    },
    {
      "inputs": [
        {
          "internalType": "address",
          "name": "spender",
          "type": "address"
        },
        {
          "internalType": "uint256",
          "name": "addedValue",
          "type": "uint256"
        }
      ],
      "name": "increaseAllowance",
      "outputs": [
        {
          "internalType": "bool",
          "name": "",
          "type": "bool"
        }
      ],
      "stateMutability": "nonpayable",
      "type": "function"
    },
    {
      "inputs": [
        {
          "internalType": "address",
          "name": "token",
          "type": "address"
        },
        {
          "internalType": "address",
          "name": "account",
          "type": "address"
        },
        {
          "internalType": "uint256",
          "name": "amount",
          "type": "uint256"
        }
      ],
      "name": "migrate",
      "outputs": [],
      "stateMutability": "nonpayable",
      "type": "function"
    },
    {
      "inputs": [
        {
          "internalType": "address",
          "name": "account",
          "type": "address"
        }
      ],
      "name": "migrateAll",
      "outputs": [],
      "stateMutability": "nonpayable",
      "type": "function"
    },
    {
      "inputs": [
        {
          "internalType": "address",
          "name": "token",
          "type": "address"
        },
        {
          "internalType": "address",
          "name": "account",
          "type": "address"
        }
      ],
      "name": "migrateAll",
      "outputs": [],
      "stateMutability": "nonpayable",
      "type": "function"
    },
    {
      "inputs": [],
      "name": "name",
      "outputs": [
        {
          "internalType": "string",
          "name": "",
          "type": "string"
        }
      ],
      "stateMutability": "view",
      "type": "function"
    },
    {
      "inputs": [
        {
          "internalType": "address",
          "name": "from",
          "type": "address"
        },
        {
          "internalType": "uint256",
          "name": "tokens",
          "type": "uint256"
        },
        {
          "internalType": "address",
          "name": "token",
          "type": "address"
        },
        {
          "internalType": "bytes",
          "name": "data",
          "type": "bytes"
        }
      ],
      "name": "receiveApproval",
      "outputs": [
        {
          "internalType": "bool",
          "name": "",
          "type": "bool"
        }
      ],
      "stateMutability": "payable",
      "type": "function"
    },
    {
      "inputs": [],
      "name": "symbol",
      "outputs": [
        {
          "internalType": "string",
          "name": "",
          "type": "string"
        }
      ],
      "stateMutability": "view",
      "type": "function"
    },
    {
      "inputs": [],
      "name": "totalSupply",
      "outputs": [
        {
          "internalType": "uint256",
          "name": "",
          "type": "uint256"
        }
      ],
      "stateMutability": "view",
      "type": "function"
    },
    {
      "inputs": [
        {
          "internalType": "address",
          "name": "recipient",
          "type": "address"
        },
        {
          "internalType": "uint256",
          "name": "amount",
          "type": "uint256"
        }
      ],
      "name": "transfer",
      "outputs": [
        {
          "internalType": "bool",
          "name": "",
          "type": "bool"
        }
      ],
      "stateMutability": "nonpayable",
      "type": "function"
    },
    {
      "inputs": [
        {
          "internalType": "address",
          "name": "sender",
          "type": "address"
        },
        {
          "internalType": "address",
          "name": "recipient",
          "type": "address"
        },
        {
          "internalType": "uint256",
          "name": "amount",
          "type": "uint256"
        }
      ],
      "name": "transferFrom",
      "outputs": [
        {
          "internalType": "bool",
          "name": "",
          "type": "bool"
        }
      ],
      "stateMutability": "nonpayable",
      "type": "function"
    }
  ],
  "bytecode": "0x60806040523480156200001c576000806200001962000e8d565b50505b50604051620040b5380380620040b5833981810160405260608110156200004d576000806200004a62000e8d565b50505b810190808051906020019092919080519060200190929190805190602001909291905050508282826040518060400160405280600781526020017f42656e7a656e65000000000000000000000000000000000000000000000000008152506040518060400160405280600381526020017f425a4e00000000000000000000000000000000000000000000000000000000008152508160039080519060200190620000f992919062000efd565b5080600490805190602001906200011292919062000efd565b506012600560006101000a816200012862000fc9565b8160ff021916908360ff16021790620001406200102e565b505050505082600560016101000a816200015962000fc9565b8173ffffffffffffffffffffffffffffffffffffffff021916908373ffffffffffffffffffffffffffffffffffffffff16021790620001976200102e565b50505081600660006101000a81620001ae62000fc9565b8173ffffffffffffffffffffffffffffffffffffffff021916908373ffffffffffffffffffffffffffffffffffffffff16021790620001ec6200102e565b50505080600760006101000a816200020362000fc9565b8173ffffffffffffffffffffffffffffffffffffffff021916908373ffffffffffffffffffffffffffffffffffffffff16021790620002416200102e565b505050505050620002db5a63996d79a5598160e01b8152602081600483336000905af158600e01573d6000803e3d6000fd5b3d6001141558600a015760016000f35b8051925060005b6040811015620002a6576000818301526020810190506200028a565b5050506a0422ca8b0a00a4250000006a108b2a2c280290940000006a3e09de2596099e2b00000001016200080060201b60201c565b620003815a63996d79a5598160e01b8152602081600483336000905af158600e01573d6000803e3d6000fd5b3d6001141558600a015760016000f35b8051925060005b60408110156200033a576000818301526020810190506200031e565b50505060056001906200034c62000fc9565b906101000a900473ffffffffffffffffffffffffffffffffffffffff166a3e09de2596099e2b00000062000a1160201b60201c565b620004275a63996d79a5598160e01b8152602081600483336000905af158600e01573d6000803e3d6000fd5b3d6001141558600a015760016000f35b8051925060005b6040811015620003e057600081830152602081019050620003c4565b5050506006600090620003f262000fc9565b906101000a900473ffffffffffffffffffffffffffffffffffffffff166a108b2a2c2802909400000062000a1160201b60201c565b620004cd5a63996d79a5598160e01b8152602081600483336000905af158600e01573d6000803e3d6000fd5b3d6001141558600a015760016000f35b8051925060005b604081101562000486576000818301526020810190506200046a565b50505060076000906200049862000fc9565b906101000a900473ffffffffffffffffffffffffffffffffffffffff166a0422ca8b0a00a42500000062000a1160201b60201c565b8273ffffffffffffffffffffffffffffffffffffffff1663144fa6d75a63996d79a5598160e01b8152602081600483336000905af158600e01573d6000803e3d6000fd5b3d6001141558600a015760016000f35b8051925060005b6040811015620005445760008183015260208101905062000528565b5050506040518263ffffffff1660e01b8152600401808273ffffffffffffffffffffffffffffffffffffffff168152602001915050600060405180830381600087806200059062001095565b158015620005a857600080620005a562000e8d565b50505b505a620005b4620010fa565b505050505050158015620005d7573d6000803e3d6000620005d462000e8d565b50505b505050508173ffffffffffffffffffffffffffffffffffffffff1663144fa6d75a63996d79a5598160e01b8152602081600483336000905af158600e01573d6000803e3d6000fd5b3d6001141558600a015760016000f35b8051925060005b6040811015620006525760008183015260208101905062000636565b5050506040518263ffffffff1660e01b8152600401808273ffffffffffffffffffffffffffffffffffffffff168152602001915050600060405180830381600087806200069e62001095565b158015620006b657600080620006b362000e8d565b50505b505a620006c2620010fa565b505050505050158015620006e5573d6000803e3d6000620006e262000e8d565b50505b505050508073ffffffffffffffffffffffffffffffffffffffff1663144fa6d75a63996d79a5598160e01b8152602081600483336000905af158600e01573d6000803e3d6000fd5b3d6001141558600a015760016000f35b8051925060005b6040811015620007605760008183015260208101905062000744565b5050506040518263ffffffff1660e01b8152600401808273ffffffffffffffffffffffffffffffffffffffff16815260200191505060006040518083038160008780620007ac62001095565b158015620007c457600080620007c162000e8d565b50505b505a620007d0620010fa565b505050505050158015620007f3573d6000803e3d6000620007f062000e8d565b50505b505050505050506200122f565b600073ffffffffffffffffffffffffffffffffffffffff168273ffffffffffffffffffffffffffffffffffffffff161415620008af576040517f08c379a000000000000000000000000000000000000000000000000000000000815260040180806020018281038252601f8152602001807f45524332303a206d696e7420746f20746865207a65726f20616464726573730081525060200191505060405180910390620008ac62000e8d565b50505b620008c36000838362000d2b60201b60201c565b620008e8816002620008d462000fc9565b62000d3060201b620019c01790919060201c565b60028190620008f66200102e565b5050506200095a816000808573ffffffffffffffffffffffffffffffffffffffff1673ffffffffffffffffffffffffffffffffffffffff1681526020019081526020016000206200094662000fc9565b62000d3060201b620019c01790919060201c565b6000808473ffffffffffffffffffffffffffffffffffffffff1673ffffffffffffffffffffffffffffffffffffffff1681526020019081526020016000208190620009a46200102e565b5050508173ffffffffffffffffffffffffffffffffffffffff16600073ffffffffffffffffffffffffffffffffffffffff167fddf252ad1be2c89b69c2b068fc378daa952ba7f163c4a11628f55a4df523b3ef836040518082815260200191505060405180910390a35050565b600073ffffffffffffffffffffffffffffffffffffffff168373ffffffffffffffffffffffffffffffffffffffff16141562000aa4576040517f08c379a000000000000000000000000000000000000000000000000000000000815260040180806020018281038252602581526020018062004090602591396040019150506040518091039062000aa162000e8d565b50505b600073ffffffffffffffffffffffffffffffffffffffff168273ffffffffffffffffffffffffffffffffffffffff16141562000b37576040517f08c379a000000000000000000000000000000000000000000000000000000000815260040180806020018281038252602381526020018062004047602391396040019150506040518091039062000b3462000e8d565b50505b62000b4a83838362000d2b60201b60201c565b62000bc6816040518060600160405280602681526020016200406a602691396000808773ffffffffffffffffffffffffffffffffffffffff1673ffffffffffffffffffffffffffffffffffffffff16815260200190815260200160002062000bb162000fc9565b62000dc460201b62001a51179092919060201c565b6000808573ffffffffffffffffffffffffffffffffffffffff1673ffffffffffffffffffffffffffffffffffffffff168152602001908152602001600020819062000c106200102e565b50505062000c74816000808573ffffffffffffffffffffffffffffffffffffffff1673ffffffffffffffffffffffffffffffffffffffff16815260200190815260200160002062000c6062000fc9565b62000d3060201b620019c01790919060201c565b6000808473ffffffffffffffffffffffffffffffffffffffff1673ffffffffffffffffffffffffffffffffffffffff168152602001908152602001600020819062000cbe6200102e565b5050508173ffffffffffffffffffffffffffffffffffffffff168373ffffffffffffffffffffffffffffffffffffffff167fddf252ad1be2c89b69c2b068fc378daa952ba7f163c4a11628f55a4df523b3ef836040518082815260200191505060405180910390a3505050565b505050565b60008082840190508381101562000dba576040517f08c379a000000000000000000000000000000000000000000000000000000000815260040180806020018281038252601b8152602001807f536166654d6174683a206164646974696f6e206f766572666c6f7700000000008152506020019150506040518091039062000db762000e8d565b50505b8091505092915050565b600083831115829062000e80576040517f08c379a00000000000000000000000000000000000000000000000000000000081526004018080602001828103825283818151815260200191508051906020019080838360005b8381101562000e3957808201518184015260208101905062000e1c565b50505050905090810190601f16801562000e675780820380516001836020036101000a031916815260200191505b50925050506040518091039062000e7d62000e8d565b50505b5082840390509392505050565b632a2a7adb598160e01b8152600481016020815285602082015260005b8681101562000eca57808601518160408401015260208101905062000eaa565b506020828760640184336000905af158600e01573d6000803e3d6000fd5b3d6001141558600a015760016000f35b505050565b828062000f0962000fc9565b600181600116156101000203166002900490600052602060002090601f01602090048101928262000f495760008562000f416200102e565b505062000fb6565b82601f1062000f6f57805160ff1916838001178562000f676200102e565b505062000fb6565b8280016001018562000f806200102e565b5050821562000fb6579182015b8281111562000fb55782518262000fa36200102e565b50509160200191906001019062000f8d565b5b50905062000fc5919062001205565b5090565b6303daa959598160e01b8152836004820152602081602483336000905af158600e01573d6000803e3d6000fd5b3d6001141558600a015760016000f35b8051935060005b604081101562001029576000818301526020810190506200100d565b505050565b6322bd64c0598160e01b8152836004820152846024820152600081604483336000905af158600e01573d6000803e3d6000fd5b3d6001141558600a015760016000f35b60005b6040811015620010905760008183015260208101905062001074565b505050565b638435035b598160e01b8152836004820152602081602483336000905af158600e01573d6000803e3d6000fd5b3d6001141558600a015760016000f35b8051935060005b6040811015620010f557600081830152602081019050620010d9565b505050565b6385979f76598160e01b81526200113c565b6000819050818311156200111e578290505b92915050565b60008190508183101562001136578290505b92915050565b836004820152846024820152606060448201528760648201526084810160005b89811015620011795780890151818301526020810190506200115c565b506060828a60a40184336000905af158600e01573d6000803e3d6000fd5b3d6001141558600a015760016000f35b815160408301513d6000853e8c8c82606087013350600060045af15059620011d08e3d62001124565b8d01620011de81876200110c565b5b82811015620011f85760008152602081019050620011df565b50839e5050505050505050565b5b808211156200122b576000816000906200121f6200102e565b50505060010162001206565b5090565b612e08806200123f6000396000f3fe6080604052600436106101cc5760003560e01c806370a08231116100f7578063c02fd67111610095578063f12b60f211610064578063f12b60f214610def578063f16565ee14610e23578063f415675714610eb0578063f64db05014610efa576101cc565b8063c02fd67114610ba5578063cae9ca5114610bef578063dbed3a3014610d0e578063dd62ed3e14610d58576101cc565b806395d89b41116100d157806395d89b411461096d578063a457c2d714610a06578063a9059cbb14610a89578063b6d7855a14610b0c576101cc565b806370a082311461074a57806379cc6790146107c15780638f4ffcb11461082e576101cc565b80632ff2e9dc1161016f5780635118f3bb1161013e5780635118f3bb1461061f5780635213cca8146106695780635a8cadb1146106b35780636ec40f9e14610716576101cc565b80632ff2e9dc146104e4578063313ce56714610518578063395093511461054f57806342966c68146105d2576101cc565b806318160ddd116101ab57806318160ddd1461038f5780631b9e2e38146103c357806323b872dd1461040d57806329b49825146104b0576101cc565b8062c8fbd4146101da57806306fdde0314610273578063095ea7b31461030c575b6000806101d7612887565b50505b3480156101ef576000806101ec612887565b50505b506101f8610f7d565b6040518080602001828103825283818151815260200191508051906020019080838360005b8381101561023857808201518184015260208101905061021d565b50505050905090810190601f1680156102655780820380516001836020036101000a031916815260200191505b509250505060405180910390f35b34801561028857600080610285612887565b50505b50610291610fb6565b6040518080602001828103825283818151815260200191508051906020019080838360005b838110156102d15780820151818401526020810190506102b6565b50505050905090810190601f1680156102fe5780820380516001836020036101000a031916815260200191505b509250505060405180910390f35b3480156103215760008061031e612887565b50505b50610377600480360360408110156103415760008061033e612887565b50505b81019080803573ffffffffffffffffffffffffffffffffffffffff16906020019092919080359060200190929190505050611074565b60405180821515815260200191505060405180910390f35b3480156103a4576000806103a1612887565b50505b506103ad611092565b6040518082815260200191505060405180910390f35b3480156103d8576000806103d5612887565b50505b506103e16110a3565b604051808273ffffffffffffffffffffffffffffffffffffffff16815260200191505060405180910390f35b3480156104225760008061041f612887565b50505b50610498600480360360608110156104425760008061043f612887565b50505b81019080803573ffffffffffffffffffffffffffffffffffffffff169060200190929190803573ffffffffffffffffffffffffffffffffffffffff169060200190929190803590602001909291905050506110d0565b60405180821515815260200191505060405180910390f35b3480156104c5576000806104c2612887565b50505b506104ce6111b0565b6040518082815260200191505060405180910390f35b3480156104f9576000806104f6612887565b50505b506105026111bf565b6040518082815260200191505060405180910390f35b34801561052d5760008061052a612887565b50505b506105366111e8565b604051808260ff16815260200191505060405180910390f35b34801561056457600080610561612887565b50505b506105ba6004803603604081101561058457600080610581612887565b50505b81019080803573ffffffffffffffffffffffffffffffffffffffff16906020019092919080359060200190929190505050611206565b60405180821515815260200191505060405180910390f35b3480156105e7576000806105e4612887565b50505b5061061d6004803603602081101561060757600080610604612887565b50505b81019080803590602001909291905050506112c0565b005b34801561063457600080610631612887565b50505b5061063d6112d4565b604051808273ffffffffffffffffffffffffffffffffffffffff16815260200191505060405180910390f35b34801561067e5760008061067b612887565b50505b50610687611301565b604051808273ffffffffffffffffffffffffffffffffffffffff16815260200191505060405180910390f35b3480156106c8576000806106c5612887565b50505b50610714600480360360208110156106e8576000806106e5612887565b50505b81019080803573ffffffffffffffffffffffffffffffffffffffff169060200190929190505050611332565b005b34801561072b57600080610728612887565b50505b50610734611368565b6040518082815260200191505060405180910390f35b34801561075f5760008061075c612887565b50505b506107ab6004803603602081101561077f5760008061077c612887565b50505b81019080803573ffffffffffffffffffffffffffffffffffffffff169060200190929190505050611377565b6040518082815260200191505060405180910390f35b3480156107d6576000806107d3612887565b50505b5061082c600480360360408110156107f6576000806107f3612887565b50505b81019080803573ffffffffffffffffffffffffffffffffffffffff169060200190929190803590602001909291905050506113c6565b005b6109556004803603608081101561084d5760008061084a612887565b50505b81019080803573ffffffffffffffffffffffffffffffffffffffff16906020019092919080359060200190929190803573ffffffffffffffffffffffffffffffffffffffff169060200190929190803590602001906401000000008111156108bd576000806108ba612887565b50505b8201836020820111156108d8576000806108d5612887565b50505b8035906020019184600183028401116401000000008311171561090357600080610900612887565b50505b91908080601f016020809104026020016040519081016040528093929190818152602001838380828437600081840152601f19601f820116905080830192505050505050509192919290505050611428565b60405180821515815260200191505060405180910390f35b3480156109825760008061097f612887565b50505b5061098b611441565b6040518080602001828103825283818151815260200191508051906020019080838360005b838110156109cb5780820151818401526020810190506109b0565b50505050905090810190601f1680156109f85780820380516001836020036101000a031916815260200191505b509250505060405180910390f35b348015610a1b57600080610a18612887565b50505b50610a7160048036036040811015610a3b57600080610a38612887565b50505b81019080803573ffffffffffffffffffffffffffffffffffffffff169060200190929190803590602001909291905050506114ff565b60405180821515815260200191505060405180910390f35b348015610a9e57600080610a9b612887565b50505b50610af460048036036040811015610abe57600080610abb612887565b50505b81019080803573ffffffffffffffffffffffffffffffffffffffff169060200190929190803590602001909291905050506115d3565b60405180821515815260200191505060405180910390f35b348015610b2157600080610b1e612887565b50505b50610b2a6115f1565b6040518080602001828103825283818151815260200191508051906020019080838360005b83811015610b6a578082015181840152602081019050610b4f565b50505050905090810190601f168015610b975780820380516001836020036101000a031916815260200191505b509250505060405180910390f35b348015610bba57600080610bb7612887565b50505b50610bc361162a565b604051808273ffffffffffffffffffffffffffffffffffffffff16815260200191505060405180910390f35b610cf660048036036060811015610c0e57600080610c0b612887565b50505b81019080803573ffffffffffffffffffffffffffffffffffffffff1690602001909291908035906020019092919080359060200190640100000000811115610c5e57600080610c5b612887565b50505b820183602082011115610c7957600080610c76612887565b50505b80359060200191846001830284011164010000000083111715610ca457600080610ca1612887565b50505b91908080601f016020809104026020016040519081016040528093929190818152602001838380828437600081840152601f19601f820116905080830192505050505050509192919290505050611657565b60405180821515815260200191505060405180910390f35b348015610d2357600080610d20612887565b50505b50610d2c6118a3565b604051808273ffffffffffffffffffffffffffffffffffffffff16815260200191505060405180910390f35b348015610d6d57600080610d6a612887565b50505b50610dd960048036036040811015610d8d57600080610d8a612887565b50505b81019080803573ffffffffffffffffffffffffffffffffffffffff169060200190929190803573ffffffffffffffffffffffffffffffffffffffff1690602001909291905050506118d4565b6040518082815260200191505060405180910390f35b348015610e0457600080610e01612887565b50505b50610e0d611962565b6040518082815260200191505060405180910390f35b348015610e3857600080610e35612887565b50505b50610eae60048036036060811015610e5857600080610e55612887565b50505b81019080803573ffffffffffffffffffffffffffffffffffffffff169060200190929190803573ffffffffffffffffffffffffffffffffffffffff16906020019092919080359060200190929190505050611971565b005b348015610ec557600080610ec2612887565b50505b50610ece611981565b604051808273ffffffffffffffffffffffffffffffffffffffff16815260200191505060405180910390f35b348015610f0f57600080610f0c612887565b50505b50610f7b60048036036040811015610f2f57600080610f2c612887565b50505b81019080803573ffffffffffffffffffffffffffffffffffffffff169060200190929190803573ffffffffffffffffffffffffffffffffffffffff1690602001909291905050506119b2565b005b6040518060400160405280600381526020017f425a4e000000000000000000000000000000000000000000000000000000000081525081565b6060600380610fc36128f5565b600181600116156101000203166002900480601f01602080910402602001604051908101604052809291908181526020018280610ffe6128f5565b6001816001161561010002031660029004801561106a5780601f1061103857610100808361102a6128f5565b04028352916020019161106a565b820191906000526020600020905b8161104f6128f5565b8152906001019060200180831161104657829003601f168201915b5050505050905090565b6000611088611081611b14565b8484611b24565b6001905092915050565b6000600261109e6128f5565b905090565b60056001906110b06128f5565b906101000a900473ffffffffffffffffffffffffffffffffffffffff1681565b60006110dd848484611d36565b6111a5846110e9611b14565b6111a085604051806060016040528060288152602001612d2d60289139600160008b73ffffffffffffffffffffffffffffffffffffffff1673ffffffffffffffffffffffffffffffffffffffff168152602001908152602001600020600061114f611b14565b73ffffffffffffffffffffffffffffffffffffffff1673ffffffffffffffffffffffffffffffffffffffff1681526020019081526020016000206111916128f5565b611a519092919063ffffffff16565b611b24565b600190509392505050565b6a0422ca8b0a00a42500000081565b6a0422ca8b0a00a4250000006a108b2a2c280290940000006a3e09de2596099e2b000000010181565b600060056000906111f76128f5565b906101000a900460ff16905090565b60006112b6611213611b14565b846112b18560016000611224611b14565b73ffffffffffffffffffffffffffffffffffffffff1673ffffffffffffffffffffffffffffffffffffffff16815260200190815260200160002060008973ffffffffffffffffffffffffffffffffffffffff1673ffffffffffffffffffffffffffffffffffffffff1681526020019081526020016000206112a36128f5565b6119c090919063ffffffff16565b611b24565b6001905092915050565b6112d16112cb611b14565b82612029565b50565b60066000906112e16128f5565b906101000a900473ffffffffffffffffffffffffffffffffffffffff1681565b600060076000906113106128f5565b906101000a900473ffffffffffffffffffffffffffffffffffffffff16905090565b61136560096000906113426128f5565b906101000a900473ffffffffffffffffffffffffffffffffffffffff1682612216565b50565b6a3e09de2596099e2b00000081565b60008060008373ffffffffffffffffffffffffffffffffffffffff1673ffffffffffffffffffffffffffffffffffffffff1681526020019081526020016000206113bf6128f5565b9050919050565b600061140582604051806060016040528060248152602001612d55602491396113f6866113f1611b14565b6118d4565b611a519092919063ffffffff16565b905061141983611413611b14565b83611b24565b6114238383612029565b505050565b60006114358386866124c3565b60019050949350505050565b606060048061144e6128f5565b600181600116156101000203166002900480601f016020809104026020016040519081016040528092919081815260200182806114896128f5565b600181600116156101000203166002900480156114f55780601f106114c35761010080836114b56128f5565b0402835291602001916114f5565b820191906000526020600020905b816114da6128f5565b815290600101906020018083116114d157829003601f168201915b5050505050905090565b60006115c961150c611b14565b846115c485604051806060016040528060258152602001612de36025913960016000611536611b14565b73ffffffffffffffffffffffffffffffffffffffff1673ffffffffffffffffffffffffffffffffffffffff16815260200190815260200160002060008a73ffffffffffffffffffffffffffffffffffffffff1673ffffffffffffffffffffffffffffffffffffffff1681526020019081526020016000206115b56128f5565b611a519092919063ffffffff16565b611b24565b6001905092915050565b60006115e76115e0611b14565b8484611d36565b6001905092915050565b6040518060400160405280600781526020017f42656e7a656e650000000000000000000000000000000000000000000000000081525081565b60076000906116376128f5565b906101000a900473ffffffffffffffffffffffffffffffffffffffff1681565b60006116638484611074565b50600084905060008173ffffffffffffffffffffffffffffffffffffffff16638f4ffcb1345a611691612958565b885a63996d79a5598160e01b8152602081600483336000905af158600e01573d6000803e3d6000fd5b3d6001141558600a015760016000f35b8051925060005b60408110156116eb576000818301526020810190506116d1565b505050896040518663ffffffff1660e01b8152600401808573ffffffffffffffffffffffffffffffffffffffff1681526020018481526020018373ffffffffffffffffffffffffffffffffffffffff16815260200180602001828103825283818151815260200191508051906020019080838360005b8381101561177c578082015181840152602081019050611761565b50505050905090810190601f1680156117a95780820380516001836020036101000a031916815260200191505b50955050505050506020604051808303818588806117c56129b5565b1580156117da576000806117d7612887565b50505b505a6117e4612a18565b505050505050158015611804573d6000803e3d6000611801612887565b50505b50505050506040513d602081101561182457600080611821612887565b50505b8101908080519060200190929190505050905080611896576040517f08c379a0000000000000000000000000000000000000000000000000000000008152600401808060200182810382526022815260200180612d0b6022913960400191505060405180910390611893612887565b50505b6001925050509392505050565b600060056001906118b26128f5565b906101000a900473ffffffffffffffffffffffffffffffffffffffff16905090565b6000600160008473ffffffffffffffffffffffffffffffffffffffff1673ffffffffffffffffffffffffffffffffffffffff16815260200190815260200160002060008373ffffffffffffffffffffffffffffffffffffffff1673ffffffffffffffffffffffffffffffffffffffff16815260200190815260200160002061195a6128f5565b905092915050565b6a108b2a2c2802909400000081565b61197c8383836124c3565b505050565b600060066000906119906128f5565b906101000a900473ffffffffffffffffffffffffffffffffffffffff16905090565b6119bc8282612216565b5050565b600080828401905083811015611a47576040517f08c379a000000000000000000000000000000000000000000000000000000000815260040180806020018281038252601b8152602001807f536166654d6174683a206164646974696f6e206f766572666c6f77000000000081525060200191505060405180910390611a44612887565b50505b8091505092915050565b6000838311158290611b07576040517f08c379a00000000000000000000000000000000000000000000000000000000081526004018080602001828103825283818151815260200191508051906020019080838360005b83811015611ac3578082015181840152602081019050611aa8565b50505050905090810190601f168015611af05780820380516001836020036101000a031916815260200191505b509250505060405180910390611b04612887565b50505b5082840390509392505050565b60005a611b1f612958565b905090565b600073ffffffffffffffffffffffffffffffffffffffff168373ffffffffffffffffffffffffffffffffffffffff161415611bb3576040517f08c379a0000000000000000000000000000000000000000000000000000000008152600401808060200182810382526024815260200180612dbf6024913960400191505060405180910390611bb0612887565b50505b600073ffffffffffffffffffffffffffffffffffffffff168273ffffffffffffffffffffffffffffffffffffffff161415611c42576040517f08c379a0000000000000000000000000000000000000000000000000000000008152600401808060200182810382526022815260200180612cc36022913960400191505060405180910390611c3f612887565b50505b80600160008573ffffffffffffffffffffffffffffffffffffffff1673ffffffffffffffffffffffffffffffffffffffff16815260200190815260200160002060008473ffffffffffffffffffffffffffffffffffffffff1673ffffffffffffffffffffffffffffffffffffffff1681526020019081526020016000208190611cc9612b18565b5050508173ffffffffffffffffffffffffffffffffffffffff168373ffffffffffffffffffffffffffffffffffffffff167f8c5be1e5ebec7d5bd14f71427d1e84f3dd0314c0f7b2291e5b200ac8c7c3b925836040518082815260200191505060405180910390a3505050565b600073ffffffffffffffffffffffffffffffffffffffff168373ffffffffffffffffffffffffffffffffffffffff161415611dc5576040517f08c379a0000000000000000000000000000000000000000000000000000000008152600401808060200182810382526025815260200180612d9a6025913960400191505060405180910390611dc2612887565b50505b600073ffffffffffffffffffffffffffffffffffffffff168273ffffffffffffffffffffffffffffffffffffffff161415611e54576040517f08c379a0000000000000000000000000000000000000000000000000000000008152600401808060200182810382526023815260200180612c7e6023913960400191505060405180910390611e51612887565b50505b611e5f8383836125ed565b611ed181604051806060016040528060268152602001612ce5602691396000808773ffffffffffffffffffffffffffffffffffffffff1673ffffffffffffffffffffffffffffffffffffffff168152602001908152602001600020611ec26128f5565b611a519092919063ffffffff16565b6000808573ffffffffffffffffffffffffffffffffffffffff1673ffffffffffffffffffffffffffffffffffffffff1681526020019081526020016000208190611f19612b18565b505050611f74816000808573ffffffffffffffffffffffffffffffffffffffff1673ffffffffffffffffffffffffffffffffffffffff168152602001908152602001600020611f666128f5565b6119c090919063ffffffff16565b6000808473ffffffffffffffffffffffffffffffffffffffff1673ffffffffffffffffffffffffffffffffffffffff1681526020019081526020016000208190611fbc612b18565b5050508173ffffffffffffffffffffffffffffffffffffffff168373ffffffffffffffffffffffffffffffffffffffff167fddf252ad1be2c89b69c2b068fc378daa952ba7f163c4a11628f55a4df523b3ef836040518082815260200191505060405180910390a3505050565b600073ffffffffffffffffffffffffffffffffffffffff168273ffffffffffffffffffffffffffffffffffffffff1614156120b8576040517f08c379a0000000000000000000000000000000000000000000000000000000008152600401808060200182810382526021815260200180612d7960219139604001915050604051809103906120b5612887565b50505b6120c4826000836125ed565b61213681604051806060016040528060228152602001612ca1602291396000808673ffffffffffffffffffffffffffffffffffffffff1673ffffffffffffffffffffffffffffffffffffffff1681526020019081526020016000206121276128f5565b611a519092919063ffffffff16565b6000808473ffffffffffffffffffffffffffffffffffffffff1673ffffffffffffffffffffffffffffffffffffffff168152602001908152602001600020819061217e612b18565b50505061219d81600261218f6128f5565b6125f290919063ffffffff16565b600281906121a9612b18565b505050600073ffffffffffffffffffffffffffffffffffffffff168273ffffffffffffffffffffffffffffffffffffffff167fddf252ad1be2c89b69c2b068fc378daa952ba7f163c4a11628f55a4df523b3ef836040518082815260200191505060405180910390a35050565b600860008373ffffffffffffffffffffffffffffffffffffffff1673ffffffffffffffffffffffffffffffffffffffff1681526020019081526020016000206000906122606128f5565b906101000a900460ff1661227c57600080612279612887565b50505b600082905060008173ffffffffffffffffffffffffffffffffffffffff166370a08231846040518263ffffffff1660e01b8152600401808273ffffffffffffffffffffffffffffffffffffffff16815260200191505060206040518083038186806122e56129b5565b1580156122fa576000806122f7612887565b50505b505a612304612b7d565b5050505050158015612323573d6000803e3d6000612320612887565b50505b505050506040513d60208110156123425760008061233f612887565b50505b8101908080519060200190929190505050905060008273ffffffffffffffffffffffffffffffffffffffff1663dd62ed3e855a63996d79a5598160e01b8152602081600483336000905af158600e01573d6000803e3d6000fd5b3d6001141558600a015760016000f35b8051925060005b60408110156123cd576000818301526020810190506123b3565b5050506040518363ffffffff1660e01b8152600401808373ffffffffffffffffffffffffffffffffffffffff1681526020018273ffffffffffffffffffffffffffffffffffffffff1681526020019250505060206040518083038186806124326129b5565b15801561244757600080612444612887565b50505b505a612451612b7d565b5050505050158015612470573d6000803e3d600061246d612887565b50505b505050506040513d602081101561248f5760008061248c612887565b50505b8101908080519060200190929190505050905060006124ae838361267e565b90506124bb8686836124c3565b505050505050565b600860008473ffffffffffffffffffffffffffffffffffffffff1673ffffffffffffffffffffffffffffffffffffffff16815260200190815260200160002060009061250d6128f5565b906101000a900460ff1661252957600080612526612887565b50505b60008390508073ffffffffffffffffffffffffffffffffffffffff166379cc679084846040518363ffffffff1660e01b8152600401808373ffffffffffffffffffffffffffffffffffffffff168152602001828152602001925050506000604051808303816000878061259a6129b5565b1580156125af576000806125ac612887565b50505b505a6125b9612a18565b5050505050501580156125d9573d6000803e3d60006125d6612887565b50505b505050506125e78383612697565b50505050565b505050565b600082821115612673576040517f08c379a000000000000000000000000000000000000000000000000000000000815260040180806020018281038252601e8152602001807f536166654d6174683a207375627472616374696f6e206f766572666c6f77000081525060200191505060405180910390612670612887565b50505b818303905092915050565b600081831061268d578161268f565b825b905092915050565b600073ffffffffffffffffffffffffffffffffffffffff168273ffffffffffffffffffffffffffffffffffffffff161415612743576040517f08c379a000000000000000000000000000000000000000000000000000000000815260040180806020018281038252601f8152602001807f45524332303a206d696e7420746f20746865207a65726f20616464726573730081525060200191505060405180910390612740612887565b50505b61274f600083836125ed565b61276b81600261275d6128f5565b6119c090919063ffffffff16565b60028190612777612b18565b5050506127d2816000808573ffffffffffffffffffffffffffffffffffffffff1673ffffffffffffffffffffffffffffffffffffffff1681526020019081526020016000206127c46128f5565b6119c090919063ffffffff16565b6000808473ffffffffffffffffffffffffffffffffffffffff1673ffffffffffffffffffffffffffffffffffffffff168152602001908152602001600020819061281a612b18565b5050508173ffffffffffffffffffffffffffffffffffffffff16600073ffffffffffffffffffffffffffffffffffffffff167fddf252ad1be2c89b69c2b068fc378daa952ba7f163c4a11628f55a4df523b3ef836040518082815260200191505060405180910390a35050565b632a2a7adb598160e01b8152600481016020815285602082015260005b868110156128c25780860151816040840101526020810190506128a4565b506020828760640184336000905af158600e01573d6000803e3d6000fd5b3d6001141558600a015760016000f35b505050565b6303daa959598160e01b8152836004820152602081602483336000905af158600e01573d6000803e3d6000fd5b3d6001141558600a015760016000f35b8051935060005b604081101561295357600081830152602081019050612939565b505050565b6373509064598160e01b8152602081600483336000905af158600e01573d6000803e3d6000fd5b3d6001141558600a015760016000f35b8051935060005b60408110156129b057600081830152602081019050612996565b505050565b638435035b598160e01b8152836004820152602081602483336000905af158600e01573d6000803e3d6000fd5b3d6001141558600a015760016000f35b8051935060005b6040811015612a13576000818301526020810190506129f9565b505050565b6385979f76598160e01b8152612a57565b600081905081831115612a3a578290505b92915050565b600081905081831015612a51578290505b92915050565b836004820152846024820152606060448201528760648201526084810160005b89811015612a92578089015181830152602081019050612a77565b506060828a60a40184336000905af158600e01573d6000803e3d6000fd5b3d6001141558600a015760016000f35b815160408301513d6000853e8c8c82606087013350600060045af15059612ae78e3d612a40565b8d01612af38187612a29565b5b82811015612b0b5760008152602081019050612af4565b50839e5050505050505050565b6322bd64c0598160e01b8152836004820152846024820152600081604483336000905af158600e01573d6000803e3d6000fd5b3d6001141558600a015760016000f35b60005b6040811015612b7857600081830152602081019050612b5e565b505050565b638540661f598160e01b8152612bbc565b600081905081831115612b9f578290505b92915050565b600081905081831015612bb6578290505b92915050565b836004820152846024820152606060448201528660648201526084810160005b88811015612bf7578088015181830152602081019050612bdc565b506060828960a40184336000905af158600e01573d6000803e3d6000fd5b3d6001141558600a015760016000f35b815160408301513d6000853e8b8b82606087013350600060045af15059612c4c8d3d612ba5565b8c01612c588187612b8e565b5b82811015612c705760008152602081019050612c59565b50839d505050505050505056fe45524332303a207472616e7366657220746f20746865207a65726f206164647265737345524332303a206275726e20616d6f756e7420657863656564732062616c616e636545524332303a20617070726f766520746f20746865207a65726f206164647265737345524332303a207472616e7366657220616d6f756e7420657863656564732062616c616e6365617070726f7665416e6443616c6c20726573706f6e736520776173206661696c656445524332303a207472616e7366657220616d6f756e74206578636565647320616c6c6f77616e636545524332303a206275726e20616d6f756e74206578636565647320616c6c6f77616e636545524332303a206275726e2066726f6d20746865207a65726f206164647265737345524332303a207472616e736665722066726f6d20746865207a65726f206164647265737345524332303a20617070726f76652066726f6d20746865207a65726f206164647265737345524332303a2064656372656173656420616c6c6f77616e63652062656c6f77207a65726f45524332303a207472616e7366657220746f20746865207a65726f206164647265737345524332303a207472616e7366657220616d6f756e7420657863656564732062616c616e636545524332303a207472616e736665722066726f6d20746865207a65726f2061646472657373",
  "linkReferences": {},
  "deployedLinkReferences": {}
}