{
  "_format": "hh-sol-artifact-1",
  "contractName": "FaucetGamePool",
  "sourceName": "contracts/pools/game/FaucetGamePool.sol",
  "abi": [
    {
      "anonymous": false,
      "inputs": [
        {
          "indexed": true,
          "internalType": "address",
          "name": "previousOwner",
          "type": "address"
        },
        {
          "indexed": true,
          "internalType": "address",
          "name": "newOwner",
          "type": "address"
        }
      ],
      "name": "OwnershipTransferred",
      "type": "event"
    },
    {
      "inputs": [],
      "name": "balance",
      "outputs": [
        {
          "internalType": "uint256",
          "name": "",
          "type": "uint256"
        }
      ],
      "stateMutability": "view",
      "type": "function"
    },
    {
      "inputs": [],
      "name": "getFrom",
      "outputs": [
        {
          "internalType": "address",
          "name": "",
          "type": "address"
        }
      ],
      "stateMutability": "view",
      "type": "function"
    },
    {
      "inputs": [],
      "name": "maxRequestAmount",
      "outputs": [
        {
          "internalType": "uint256",
          "name": "",
          "type": "uint256"
        }
      ],
      "stateMutability": "view",
      "type": "function"
    },
    {
      "inputs": [],
      "name": "owner",
      "outputs": [
        {
          "internalType": "address",
          "name": "",
          "type": "address"
        }
      ],
      "stateMutability": "view",
      "type": "function"
    },
    {
      "inputs": [],
      "name": "renounceOwnership",
      "outputs": [],
      "stateMutability": "nonpayable",
      "type": "function"
    },
    {
      "inputs": [
        {
          "internalType": "address",
          "name": "dst",
          "type": "address"
        },
        {
          "internalType": "uint256",
          "name": "amount",
          "type": "uint256"
        }
      ],
      "name": "requestBZN",
      "outputs": [],
      "stateMutability": "nonpayable",
      "type": "function"
    },
    {
      "inputs": [
        {
          "internalType": "uint256",
          "name": "amount",
          "type": "uint256"
        }
      ],
      "name": "setMaxRequestAmount",
      "outputs": [],
      "stateMutability": "nonpayable",
      "type": "function"
    },
    {
      "inputs": [
        {
          "internalType": "contract IERC20",
          "name": "newToken",
          "type": "address"
        }
      ],
      "name": "setToken",
      "outputs": [],
      "stateMutability": "nonpayable",
      "type": "function"
    },
    {
      "inputs": [],
      "name": "token",
      "outputs": [
        {
          "internalType": "contract IERC20",
          "name": "",
          "type": "address"
        }
      ],
      "stateMutability": "view",
      "type": "function"
    },
    {
      "inputs": [
        {
          "internalType": "address",
          "name": "newOwner",
          "type": "address"
        }
      ],
      "name": "transferOwnership",
      "outputs": [],
      "stateMutability": "nonpayable",
      "type": "function"
    }
  ],
  "bytecode": "0x608060405234801561001057600080fd5b5061002d61002261003260201b60201c565b61003a60201b60201c565b610100565b600033905090565b6000600160009054906101000a900473ffffffffffffffffffffffffffffffffffffffff16905081600160006101000a81548173ffffffffffffffffffffffffffffffffffffffff021916908373ffffffffffffffffffffffffffffffffffffffff1602179055508173ffffffffffffffffffffffffffffffffffffffff168173ffffffffffffffffffffffffffffffffffffffff167f8be0079c531659141344cd1fd0a4f28419497f9722a3daafe3b4186f6b6457e060405160405180910390a35050565b610c298061010f6000396000f3fe608060405234801561001057600080fd5b506004361061009e5760003560e01c8063798fd17811610066578063798fd1781461011f5780638da5cb5b1461013d578063b69ef8a81461015b578063f2fde38b14610179578063fc0c546a146101955761009e565b8063144fa6d7146100a35780632a782ec4146100bf57806354abe9f9146100db57806358ec90d3146100f7578063715018a614610115575b600080fd5b6100bd60048036038101906100b891906107b1565b6101b3565b005b6100d960048036038101906100d49190610814565b61024f565b005b6100f560048036038101906100f0919061086d565b6102d5565b005b6100ff610329565b60405161010c91906108bc565b60405180910390f35b61011d61032f565b005b6101276103b7565b60405161013491906108e6565b60405180910390f35b6101456103bf565b60405161015291906108e6565b60405180910390f35b6101636103e9565b60405161017091906108bc565b60405180910390f35b610193600480360381019061018e9190610901565b61049a565b005b61019d610592565b6040516101aa919061098d565b60405180910390f35b600073ffffffffffffffffffffffffffffffffffffffff1660008054906101000a900473ffffffffffffffffffffffffffffffffffffffff1673ffffffffffffffffffffffffffffffffffffffff161461020c57600080fd5b806000806101000a81548173ffffffffffffffffffffffffffffffffffffffff021916908373ffffffffffffffffffffffffffffffffffffffff16021790555050565b6102576105b6565b73ffffffffffffffffffffffffffffffffffffffff166102756103bf565b73ffffffffffffffffffffffffffffffffffffffff16146102cb576040517f08c379a00000000000000000000000000000000000000000000000000000000081526004016102c290610a05565b60405180910390fd5b8060028190555050565b60025481111561031a576040517f08c379a000000000000000000000000000000000000000000000000000000000815260040161031190610a71565b60405180910390fd5b61032482826105be565b505050565b60025481565b6103376105b6565b73ffffffffffffffffffffffffffffffffffffffff166103556103bf565b73ffffffffffffffffffffffffffffffffffffffff16146103ab576040517f08c379a00000000000000000000000000000000000000000000000000000000081526004016103a290610a05565b60405180910390fd5b6103b56000610676565b565b600030905090565b6000600160009054906101000a900473ffffffffffffffffffffffffffffffffffffffff16905090565b60008060009054906101000a900473ffffffffffffffffffffffffffffffffffffffff1673ffffffffffffffffffffffffffffffffffffffff166370a08231306040518263ffffffff1660e01b815260040161044591906108e6565b60206040518083038186803b15801561045d57600080fd5b505afa158015610471573d6000803e3d6000fd5b505050506040513d601f19601f820116820180604052508101906104959190610aa6565b905090565b6104a26105b6565b73ffffffffffffffffffffffffffffffffffffffff166104c06103bf565b73ffffffffffffffffffffffffffffffffffffffff1614610516576040517f08c379a000000000000000000000000000000000000000000000000000000000815260040161050d90610a05565b60405180910390fd5b600073ffffffffffffffffffffffffffffffffffffffff168173ffffffffffffffffffffffffffffffffffffffff161415610586576040517f08c379a000000000000000000000000000000000000000000000000000000000815260040161057d90610b45565b60405180910390fd5b61058f81610676565b50565b60008054906101000a900473ffffffffffffffffffffffffffffffffffffffff1681565b600033905090565b60008060009054906101000a900473ffffffffffffffffffffffffffffffffffffffff1673ffffffffffffffffffffffffffffffffffffffff1663a9059cbb84846040518363ffffffff1660e01b815260040161061c929190610b65565b602060405180830381600087803b15801561063657600080fd5b505af115801561064a573d6000803e3d6000fd5b505050506040513d601f19601f8201168201806040525081019061066e9190610bc6565b905092915050565b6000600160009054906101000a900473ffffffffffffffffffffffffffffffffffffffff16905081600160006101000a81548173ffffffffffffffffffffffffffffffffffffffff021916908373ffffffffffffffffffffffffffffffffffffffff1602179055508173ffffffffffffffffffffffffffffffffffffffff168173ffffffffffffffffffffffffffffffffffffffff167f8be0079c531659141344cd1fd0a4f28419497f9722a3daafe3b4186f6b6457e060405160405180910390a35050565b600080fd5b600073ffffffffffffffffffffffffffffffffffffffff82169050919050565b600061076c82610741565b9050919050565b600061077e82610761565b9050919050565b61078e81610773565b811461079957600080fd5b50565b6000813590506107ab81610785565b92915050565b6000602082840312156107c7576107c661073c565b5b60006107d58482850161079c565b91505092915050565b6000819050919050565b6107f1816107de565b81146107fc57600080fd5b50565b60008135905061080e816107e8565b92915050565b60006020828403121561082a5761082961073c565b5b6000610838848285016107ff565b91505092915050565b61084a81610761565b811461085557600080fd5b50565b60008135905061086781610841565b92915050565b600080604083850312156108845761088361073c565b5b600061089285828601610858565b92505060206108a3858286016107ff565b9150509250929050565b6108b6816107de565b82525050565b60006020820190506108d160008301846108ad565b92915050565b6108e081610761565b82525050565b60006020820190506108fb60008301846108d7565b92915050565b6000602082840312156109175761091661073c565b5b600061092584828501610858565b91505092915050565b6000819050919050565b600061095361094e61094984610741565b61092e565b610741565b9050919050565b600061096582610938565b9050919050565b60006109778261095a565b9050919050565b6109878161096c565b82525050565b60006020820190506109a2600083018461097e565b92915050565b600082825260208201905092915050565b7f4f776e61626c653a2063616c6c6572206973206e6f7420746865206f776e6572600082015250565b60006109ef6020836109a8565b91506109fa826109b9565b602082019050919050565b60006020820190508181036000830152610a1e816109e2565b9050919050565b7f43616e6e6f742072657175657374206d6f7265207468616e20746865206d6178600082015250565b6000610a5b6020836109a8565b9150610a6682610a25565b602082019050919050565b60006020820190508181036000830152610a8a81610a4e565b9050919050565b600081519050610aa0816107e8565b92915050565b600060208284031215610abc57610abb61073c565b5b6000610aca84828501610a91565b91505092915050565b7f4f776e61626c653a206e6577206f776e657220697320746865207a65726f206160008201527f6464726573730000000000000000000000000000000000000000000000000000602082015250565b6000610b2f6026836109a8565b9150610b3a82610ad3565b604082019050919050565b60006020820190508181036000830152610b5e81610b22565b9050919050565b6000604082019050610b7a60008301856108d7565b610b8760208301846108ad565b9392505050565b60008115159050919050565b610ba381610b8e565b8114610bae57600080fd5b50565b600081519050610bc081610b9a565b92915050565b600060208284031215610bdc57610bdb61073c565b5b6000610bea84828501610bb1565b9150509291505056fea264697066735822122045f464222d8b4555f3138ca2538d403504a9dd67eea400a3ac8226aefde3635e64736f6c63430008090033",
  "linkReferences": {},
  "deployedLinkReferences": {}
}