{
  "_format": "hh-sol-artifact-1",
  "contractName": "L2BenzeneToken",
  "sourceName": "contracts/L2/optimism/L2BenzeneToken.sol",
  "abi": [
    {
      "inputs": [
        {
          "internalType": "address",
          "name": "_l2Bridge",
          "type": "address"
        },
        {
          "internalType": "address",
          "name": "_l1Token",
          "type": "address"
        },
        {
          "internalType": "address",
          "name": "gamePool",
          "type": "address"
        },
        {
          "internalType": "address",
          "name": "teamPool",
          "type": "address"
        },
        {
          "internalType": "address",
          "name": "advisorPool",
          "type": "address"
        }
      ],
      "stateMutability": "nonpayable",
      "type": "constructor"
    },
    {
      "anonymous": false,
      "inputs": [
        {
          "indexed": true,
          "internalType": "address",
          "name": "owner",
          "type": "address"
        },
        {
          "indexed": true,
          "internalType": "address",
          "name": "spender",
          "type": "address"
        },
        {
          "indexed": false,
          "internalType": "uint256",
          "name": "value",
          "type": "uint256"
        }
      ],
      "name": "Approval",
      "type": "event"
    },
    {
      "anonymous": false,
      "inputs": [
        {
          "indexed": true,
          "internalType": "address",
          "name": "_account",
          "type": "address"
        },
        {
          "indexed": false,
          "internalType": "uint256",
          "name": "_amount",
          "type": "uint256"
        }
      ],
      "name": "Burn",
      "type": "event"
    },
    {
      "anonymous": false,
      "inputs": [
        {
          "indexed": true,
          "internalType": "address",
          "name": "_account",
          "type": "address"
        },
        {
          "indexed": false,
          "internalType": "uint256",
          "name": "_amount",
          "type": "uint256"
        }
      ],
      "name": "Mint",
      "type": "event"
    },
    {
      "anonymous": false,
      "inputs": [
        {
          "indexed": true,
          "internalType": "address",
          "name": "from",
          "type": "address"
        },
        {
          "indexed": true,
          "internalType": "address",
          "name": "to",
          "type": "address"
        },
        {
          "indexed": false,
          "internalType": "uint256",
          "name": "value",
          "type": "uint256"
        }
      ],
      "name": "Transfer",
      "type": "event"
    },
    {
      "inputs": [],
      "name": "AdvisorPoolAddress",
      "outputs": [
        {
          "internalType": "address",
          "name": "",
          "type": "address"
        }
      ],
      "stateMutability": "view",
      "type": "function"
    },
    {
      "inputs": [],
      "name": "GamePoolAddress",
      "outputs": [
        {
          "internalType": "address",
          "name": "",
          "type": "address"
        }
      ],
      "stateMutability": "view",
      "type": "function"
    },
    {
      "inputs": [],
      "name": "TeamPoolAddress",
      "outputs": [
        {
          "internalType": "address",
          "name": "",
          "type": "address"
        }
      ],
      "stateMutability": "view",
      "type": "function"
    },
    {
      "inputs": [],
      "name": "TokenName",
      "outputs": [
        {
          "internalType": "string",
          "name": "",
          "type": "string"
        }
      ],
      "stateMutability": "view",
      "type": "function"
    },
    {
      "inputs": [],
      "name": "TokenSymbol",
      "outputs": [
        {
          "internalType": "string",
          "name": "",
          "type": "string"
        }
      ],
      "stateMutability": "view",
      "type": "function"
    },
    {
      "inputs": [
        {
          "internalType": "address",
          "name": "owner",
          "type": "address"
        },
        {
          "internalType": "address",
          "name": "spender",
          "type": "address"
        }
      ],
      "name": "allowance",
      "outputs": [
        {
          "internalType": "uint256",
          "name": "",
          "type": "uint256"
        }
      ],
      "stateMutability": "view",
      "type": "function"
    },
    {
      "inputs": [
        {
          "internalType": "address",
          "name": "spender",
          "type": "address"
        },
        {
          "internalType": "uint256",
          "name": "amount",
          "type": "uint256"
        }
      ],
      "name": "approve",
      "outputs": [
        {
          "internalType": "bool",
          "name": "",
          "type": "bool"
        }
      ],
      "stateMutability": "nonpayable",
      "type": "function"
    },
    {
      "inputs": [
        {
          "internalType": "address",
          "name": "spender",
          "type": "address"
        },
        {
          "internalType": "uint256",
          "name": "tokens",
          "type": "uint256"
        },
        {
          "internalType": "bytes",
          "name": "data",
          "type": "bytes"
        }
      ],
      "name": "approveAndCall",
      "outputs": [
        {
          "internalType": "bool",
          "name": "success",
          "type": "bool"
        }
      ],
      "stateMutability": "payable",
      "type": "function"
    },
    {
      "inputs": [
        {
          "internalType": "address",
          "name": "account",
          "type": "address"
        }
      ],
      "name": "balanceOf",
      "outputs": [
        {
          "internalType": "uint256",
          "name": "",
          "type": "uint256"
        }
      ],
      "stateMutability": "view",
      "type": "function"
    },
    {
      "inputs": [
        {
          "internalType": "uint256",
          "name": "amount",
          "type": "uint256"
        }
      ],
      "name": "burn",
      "outputs": [],
      "stateMutability": "nonpayable",
      "type": "function"
    },
    {
      "inputs": [
        {
          "internalType": "address",
          "name": "_from",
          "type": "address"
        },
        {
          "internalType": "uint256",
          "name": "_amount",
          "type": "uint256"
        }
      ],
      "name": "burn",
      "outputs": [],
      "stateMutability": "nonpayable",
      "type": "function"
    },
    {
      "inputs": [
        {
          "internalType": "address",
          "name": "account",
          "type": "address"
        },
        {
          "internalType": "uint256",
          "name": "amount",
          "type": "uint256"
        }
      ],
      "name": "burnFrom",
      "outputs": [],
      "stateMutability": "nonpayable",
      "type": "function"
    },
    {
      "inputs": [],
      "name": "decimals",
      "outputs": [
        {
          "internalType": "uint8",
          "name": "",
          "type": "uint8"
        }
      ],
      "stateMutability": "view",
      "type": "function"
    },
    {
      "inputs": [
        {
          "internalType": "address",
          "name": "spender",
          "type": "address"
        },
        {
          "internalType": "uint256",
          "name": "subtractedValue",
          "type": "uint256"
        }
      ],
      "name": "decreaseAllowance",
      "outputs": [
        {
          "internalType": "bool",
          "name": "",
          "type": "bool"
        }
      ],
      "stateMutability": "nonpayable",
      "type": "function"
    },
    {
      "inputs": [
        {
          "internalType": "address",
          "name": "spender",
          "type": "address"
        },
        {
          "internalType": "uint256",
          "name": "addedValue",
          "type": "uint256"
        }
      ],
      "name": "increaseAllowance",
      "outputs": [
        {
          "internalType": "bool",
          "name": "",
          "type": "bool"
        }
      ],
      "stateMutability": "nonpayable",
      "type": "function"
    },
    {
      "inputs": [],
      "name": "l1Token",
      "outputs": [
        {
          "internalType": "address",
          "name": "",
          "type": "address"
        }
      ],
      "stateMutability": "view",
      "type": "function"
    },
    {
      "inputs": [],
      "name": "l2Bridge",
      "outputs": [
        {
          "internalType": "address",
          "name": "",
          "type": "address"
        }
      ],
      "stateMutability": "view",
      "type": "function"
    },
    {
      "inputs": [
        {
          "internalType": "address",
          "name": "token",
          "type": "address"
        },
        {
          "internalType": "address",
          "name": "account",
          "type": "address"
        },
        {
          "internalType": "uint256",
          "name": "amount",
          "type": "uint256"
        }
      ],
      "name": "migrate",
      "outputs": [],
      "stateMutability": "nonpayable",
      "type": "function"
    },
    {
      "inputs": [
        {
          "internalType": "address",
          "name": "account",
          "type": "address"
        }
      ],
      "name": "migrateAll",
      "outputs": [],
      "stateMutability": "nonpayable",
      "type": "function"
    },
    {
      "inputs": [
        {
          "internalType": "address",
          "name": "token",
          "type": "address"
        },
        {
          "internalType": "address",
          "name": "account",
          "type": "address"
        }
      ],
      "name": "migrateAll",
      "outputs": [],
      "stateMutability": "nonpayable",
      "type": "function"
    },
    {
      "inputs": [
        {
          "internalType": "address",
          "name": "_to",
          "type": "address"
        },
        {
          "internalType": "uint256",
          "name": "_amount",
          "type": "uint256"
        }
      ],
      "name": "mint",
      "outputs": [],
      "stateMutability": "nonpayable",
      "type": "function"
    },
    {
      "inputs": [],
      "name": "name",
      "outputs": [
        {
          "internalType": "string",
          "name": "",
          "type": "string"
        }
      ],
      "stateMutability": "view",
      "type": "function"
    },
    {
      "inputs": [
        {
          "internalType": "address",
          "name": "from",
          "type": "address"
        },
        {
          "internalType": "uint256",
          "name": "tokens",
          "type": "uint256"
        },
        {
          "internalType": "address",
          "name": "token",
          "type": "address"
        },
        {
          "internalType": "bytes",
          "name": "data",
          "type": "bytes"
        }
      ],
      "name": "receiveApproval",
      "outputs": [
        {
          "internalType": "bool",
          "name": "",
          "type": "bool"
        }
      ],
      "stateMutability": "payable",
      "type": "function"
    },
    {
      "inputs": [
        {
          "internalType": "bytes4",
          "name": "_interfaceId",
          "type": "bytes4"
        }
      ],
      "name": "supportsInterface",
      "outputs": [
        {
          "internalType": "bool",
          "name": "",
          "type": "bool"
        }
      ],
      "stateMutability": "pure",
      "type": "function"
    },
    {
      "inputs": [],
      "name": "symbol",
      "outputs": [
        {
          "internalType": "string",
          "name": "",
          "type": "string"
        }
      ],
      "stateMutability": "view",
      "type": "function"
    },
    {
      "inputs": [],
      "name": "totalSupply",
      "outputs": [
        {
          "internalType": "uint256",
          "name": "",
          "type": "uint256"
        }
      ],
      "stateMutability": "view",
      "type": "function"
    },
    {
      "inputs": [
        {
          "internalType": "address",
          "name": "recipient",
          "type": "address"
        },
        {
          "internalType": "uint256",
          "name": "amount",
          "type": "uint256"
        }
      ],
      "name": "transfer",
      "outputs": [
        {
          "internalType": "bool",
          "name": "",
          "type": "bool"
        }
      ],
      "stateMutability": "nonpayable",
      "type": "function"
    },
    {
      "inputs": [
        {
          "internalType": "address",
          "name": "sender",
          "type": "address"
        },
        {
          "internalType": "address",
          "name": "recipient",
          "type": "address"
        },
        {
          "internalType": "uint256",
          "name": "amount",
          "type": "uint256"
        }
      ],
      "name": "transferFrom",
      "outputs": [
        {
          "internalType": "bool",
          "name": "",
          "type": "bool"
        }
      ],
      "stateMutability": "nonpayable",
      "type": "function"
    }
  ],
  "bytecode": "0x60806040523480156200001157600080fd5b50604051620031d8380380620031d883398181016040528101906200003791906200049c565b82828287876040518060400160405280600781526020017f42656e7a656e65000000000000000000000000000000000000000000000000008152506040518060400160405280600381526020017f425a4e000000000000000000000000000000000000000000000000000000000081525081818160039080519060200190620000c292919062000382565b508060049080519060200190620000db92919062000382565b50505082600560006101000a81548173ffffffffffffffffffffffffffffffffffffffff021916908373ffffffffffffffffffffffffffffffffffffffff16021790555083600660006101000a81548173ffffffffffffffffffffffffffffffffffffffff021916908373ffffffffffffffffffffffffffffffffffffffff1602179055505050505082600760006101000a81548173ffffffffffffffffffffffffffffffffffffffff021916908373ffffffffffffffffffffffffffffffffffffffff16021790555081600860006101000a81548173ffffffffffffffffffffffffffffffffffffffff021916908373ffffffffffffffffffffffffffffffffffffffff16021790555080600960006101000a81548173ffffffffffffffffffffffffffffffffffffffff021916908373ffffffffffffffffffffffffffffffffffffffff1602179055505050508273ffffffffffffffffffffffffffffffffffffffff1663144fa6d7306040518263ffffffff1660e01b81526004016200026591906200058f565b600060405180830381600087803b1580156200028057600080fd5b505af115801562000295573d6000803e3d6000fd5b505050508173ffffffffffffffffffffffffffffffffffffffff1663144fa6d7306040518263ffffffff1660e01b8152600401620002d491906200058f565b600060405180830381600087803b158015620002ef57600080fd5b505af115801562000304573d6000803e3d6000fd5b505050508073ffffffffffffffffffffffffffffffffffffffff1663144fa6d7306040518263ffffffff1660e01b81526004016200034391906200058f565b600060405180830381600087803b1580156200035e57600080fd5b505af115801562000373573d6000803e3d6000fd5b50505050505050505062000611565b8280546200039090620005db565b90600052602060002090601f016020900481019282620003b4576000855562000400565b82601f10620003cf57805160ff191683800117855562000400565b8280016001018555821562000400579182015b82811115620003ff578251825591602001919060010190620003e2565b5b5090506200040f919062000413565b5090565b5b808211156200042e57600081600090555060010162000414565b5090565b600080fd5b600073ffffffffffffffffffffffffffffffffffffffff82169050919050565b6000620004648262000437565b9050919050565b620004768162000457565b81146200048257600080fd5b50565b60008151905062000496816200046b565b92915050565b600080600080600060a08688031215620004bb57620004ba62000432565b5b6000620004cb8882890162000485565b9550506020620004de8882890162000485565b9450506040620004f18882890162000485565b9350506060620005048882890162000485565b9250506080620005178882890162000485565b9150509295509295909350565b6000819050919050565b60006200054f62000549620005438462000437565b62000524565b62000437565b9050919050565b600062000563826200052e565b9050919050565b6000620005778262000556565b9050919050565b62000589816200056a565b82525050565b6000602082019050620005a660008301846200057e565b92915050565b7f4e487b7100000000000000000000000000000000000000000000000000000000600052602260045260246000fd5b60006002820490506001821680620005f457607f821691505b602082108114156200060b576200060a620005ac565b5b50919050565b612bb780620006216000396000f3fe6080604052600436106101b65760003560e01c80638f4ffcb1116100ec578063c01e1bd61161008a578063dd62ed3e11610064578063dd62ed3e14610641578063f16565ee1461067e578063f4156757146106a7578063f64db050146106d2576101b6565b8063c01e1bd6146105bb578063cae9ca51146105e6578063dbed3a3014610616576101b6565b8063a457c2d7116100c6578063a457c2d7146104eb578063a9059cbb14610528578063ae1f6aaf14610565578063b6d7855a14610590576101b6565b80638f4ffcb11461046757806395d89b41146104975780639dc29fac146104c2576101b6565b806339509351116101595780635213cca8116101335780635213cca8146103ad5780635a8cadb1146103d857806370a082311461040157806379cc67901461043e576101b6565b8063395093511461031e57806340c10f191461035b57806342966c6814610384576101b6565b8063095ea7b311610195578063095ea7b31461024e57806318160ddd1461028b57806323b872dd146102b6578063313ce567146102f3576101b6565b8062c8fbd4146101bb57806301ffc9a7146101e657806306fdde0314610223575b600080fd5b3480156101c757600080fd5b506101d06106fb565b6040516101dd9190611c57565b60405180910390f35b3480156101f257600080fd5b5061020d60048036038101906102089190611ce5565b610734565b60405161021a9190611d2d565b60405180910390f35b34801561022f57600080fd5b5061023861080a565b6040516102459190611c57565b60405180910390f35b34801561025a57600080fd5b5061027560048036038101906102709190611ddc565b61089c565b6040516102829190611d2d565b60405180910390f35b34801561029757600080fd5b506102a06108ba565b6040516102ad9190611e2b565b60405180910390f35b3480156102c257600080fd5b506102dd60048036038101906102d89190611e46565b6108c4565b6040516102ea9190611d2d565b60405180910390f35b3480156102ff57600080fd5b506103086109bc565b6040516103159190611eb5565b60405180910390f35b34801561032a57600080fd5b5061034560048036038101906103409190611ddc565b6109c5565b6040516103529190611d2d565b60405180910390f35b34801561036757600080fd5b50610382600480360381019061037d9190611ddc565b610a71565b005b34801561039057600080fd5b506103ab60048036038101906103a69190611ed0565b610b5d565b005b3480156103b957600080fd5b506103c2610b71565b6040516103cf9190611f0c565b60405180910390f35b3480156103e457600080fd5b506103ff60048036038101906103fa9190611f27565b610b9b565b005b34801561040d57600080fd5b5061042860048036038101906104239190611f27565b610bca565b6040516104359190611e2b565b60405180910390f35b34801561044a57600080fd5b5061046560048036038101906104609190611ddc565b610c12565b005b610481600480360381019061047c9190612089565b610c8d565b60405161048e9190611d2d565b60405180910390f35b3480156104a357600080fd5b506104ac610ca6565b6040516104b99190611c57565b60405180910390f35b3480156104ce57600080fd5b506104e960048036038101906104e49190611ddc565b610d38565b005b3480156104f757600080fd5b50610512600480360381019061050d9190611ddc565b610e24565b60405161051f9190611d2d565b60405180910390f35b34801561053457600080fd5b5061054f600480360381019061054a9190611ddc565b610f0f565b60405161055c9190611d2d565b60405180910390f35b34801561057157600080fd5b5061057a610f2d565b6040516105879190611f0c565b60405180910390f35b34801561059c57600080fd5b506105a5610f53565b6040516105b29190611c57565b60405180910390f35b3480156105c757600080fd5b506105d0610f8c565b6040516105dd9190611f0c565b60405180910390f35b61060060048036038101906105fb919061210c565b610fb2565b60405161060d9190611d2d565b60405180910390f35b34801561062257600080fd5b5061062b6110a7565b6040516106389190611f0c565b60405180910390f35b34801561064d57600080fd5b506106686004803603810190610663919061217b565b6110d1565b6040516106759190611e2b565b60405180910390f35b34801561068a57600080fd5b506106a560048036038101906106a09190611e46565b611158565b005b3480156106b357600080fd5b506106bc611168565b6040516106c99190611f0c565b60405180910390f35b3480156106de57600080fd5b506106f960048036038101906106f4919061217b565b611192565b005b6040518060400160405280600381526020017f425a4e000000000000000000000000000000000000000000000000000000000081525081565b6000807f01ffc9a7a5cef8baa21ed3c5c0d7e23accb804b619e9333b597f47a0d84076e290506000639dc29fac60e01b6340c10f1960e01b63c01e1bd660e01b18189050817bffffffffffffffffffffffffffffffffffffffffffffffffffffffff1916847bffffffffffffffffffffffffffffffffffffffffffffffffffffffff191614806108015750807bffffffffffffffffffffffffffffffffffffffffffffffffffffffff1916847bffffffffffffffffffffffffffffffffffffffffffffffffffffffff1916145b92505050919050565b606060038054610819906121ea565b80601f0160208091040260200160405190810160405280929190818152602001828054610845906121ea565b80156108925780601f1061086757610100808354040283529160200191610892565b820191906000526020600020905b81548152906001019060200180831161087557829003601f168201915b5050505050905090565b60006108b06108a96111a0565b84846111a8565b6001905092915050565b6000600254905090565b60006108d1848484611373565b6000600160008673ffffffffffffffffffffffffffffffffffffffff1673ffffffffffffffffffffffffffffffffffffffff168152602001908152602001600020600061091c6111a0565b73ffffffffffffffffffffffffffffffffffffffff1673ffffffffffffffffffffffffffffffffffffffff1681526020019081526020016000205490508281101561099c576040517f08c379a00000000000000000000000000000000000000000000000000000000081526004016109939061228e565b60405180910390fd5b6109b0856109a86111a0565b8584036111a8565b60019150509392505050565b60006012905090565b6000610a676109d26111a0565b8484600160006109e06111a0565b73ffffffffffffffffffffffffffffffffffffffff1673ffffffffffffffffffffffffffffffffffffffff16815260200190815260200160002060008873ffffffffffffffffffffffffffffffffffffffff1673ffffffffffffffffffffffffffffffffffffffff16815260200190815260200160002054610a6291906122dd565b6111a8565b6001905092915050565b600660009054906101000a900473ffffffffffffffffffffffffffffffffffffffff1673ffffffffffffffffffffffffffffffffffffffff163373ffffffffffffffffffffffffffffffffffffffff1614610b01576040517f08c379a0000000000000000000000000000000000000000000000000000000008152600401610af89061237f565b60405180910390fd5b610b0b82826115f4565b8173ffffffffffffffffffffffffffffffffffffffff167f0f6798a560793a54c3bcfe86a93cde1e73087d944c0ea20544137d412139688582604051610b519190611e2b565b60405180910390a25050565b610b6e610b686111a0565b82611754565b50565b6000600960009054906101000a900473ffffffffffffffffffffffffffffffffffffffff16905090565b610bc7600b60009054906101000a900473ffffffffffffffffffffffffffffffffffffffff168261192b565b50565b60008060008373ffffffffffffffffffffffffffffffffffffffff1673ffffffffffffffffffffffffffffffffffffffff168152602001908152602001600020549050919050565b6000610c2583610c206111a0565b6110d1565b905081811015610c6a576040517f08c379a0000000000000000000000000000000000000000000000000000000008152600401610c6190612411565b60405180910390fd5b610c7e83610c766111a0565b8484036111a8565b610c888383611754565b505050565b6000610c9a838686611ac3565b60019050949350505050565b606060048054610cb5906121ea565b80601f0160208091040260200160405190810160405280929190818152602001828054610ce1906121ea565b8015610d2e5780601f10610d0357610100808354040283529160200191610d2e565b820191906000526020600020905b815481529060010190602001808311610d1157829003601f168201915b5050505050905090565b600660009054906101000a900473ffffffffffffffffffffffffffffffffffffffff1673ffffffffffffffffffffffffffffffffffffffff163373ffffffffffffffffffffffffffffffffffffffff1614610dc8576040517f08c379a0000000000000000000000000000000000000000000000000000000008152600401610dbf9061237f565b60405180910390fd5b610dd28282611754565b8173ffffffffffffffffffffffffffffffffffffffff167fcc16f5dbb4873280815c1ee09dbd06736cffcc184412cf7a71a0fdb75d397ca582604051610e189190611e2b565b60405180910390a25050565b60008060016000610e336111a0565b73ffffffffffffffffffffffffffffffffffffffff1673ffffffffffffffffffffffffffffffffffffffff16815260200190815260200160002060008573ffffffffffffffffffffffffffffffffffffffff1673ffffffffffffffffffffffffffffffffffffffff16815260200190815260200160002054905082811015610ef0576040517f08c379a0000000000000000000000000000000000000000000000000000000008152600401610ee7906124a3565b60405180910390fd5b610f04610efb6111a0565b858584036111a8565b600191505092915050565b6000610f23610f1c6111a0565b8484611373565b6001905092915050565b600660009054906101000a900473ffffffffffffffffffffffffffffffffffffffff1681565b6040518060400160405280600781526020017f42656e7a656e650000000000000000000000000000000000000000000000000081525081565b600560009054906101000a900473ffffffffffffffffffffffffffffffffffffffff1681565b6000610fbe848461089c565b50600084905060008173ffffffffffffffffffffffffffffffffffffffff16638f4ffcb134338830896040518663ffffffff1660e01b81526004016110069493929190612518565b6020604051808303818588803b15801561101f57600080fd5b505af1158015611033573d6000803e3d6000fd5b50505050506040513d601f19601f820116820180604052508101906110589190612590565b90508061109a576040517f08c379a00000000000000000000000000000000000000000000000000000000081526004016110919061262f565b60405180910390fd5b6001925050509392505050565b6000600760009054906101000a900473ffffffffffffffffffffffffffffffffffffffff16905090565b6000600160008473ffffffffffffffffffffffffffffffffffffffff1673ffffffffffffffffffffffffffffffffffffffff16815260200190815260200160002060008373ffffffffffffffffffffffffffffffffffffffff1673ffffffffffffffffffffffffffffffffffffffff16815260200190815260200160002054905092915050565b611163838383611ac3565b505050565b6000600860009054906101000a900473ffffffffffffffffffffffffffffffffffffffff16905090565b61119c828261192b565b5050565b600033905090565b600073ffffffffffffffffffffffffffffffffffffffff168373ffffffffffffffffffffffffffffffffffffffff161415611218576040517f08c379a000000000000000000000000000000000000000000000000000000000815260040161120f906126c1565b60405180910390fd5b600073ffffffffffffffffffffffffffffffffffffffff168273ffffffffffffffffffffffffffffffffffffffff161415611288576040517f08c379a000000000000000000000000000000000000000000000000000000000815260040161127f90612753565b60405180910390fd5b80600160008573ffffffffffffffffffffffffffffffffffffffff1673ffffffffffffffffffffffffffffffffffffffff16815260200190815260200160002060008473ffffffffffffffffffffffffffffffffffffffff1673ffffffffffffffffffffffffffffffffffffffff168152602001908152602001600020819055508173ffffffffffffffffffffffffffffffffffffffff168373ffffffffffffffffffffffffffffffffffffffff167f8c5be1e5ebec7d5bd14f71427d1e84f3dd0314c0f7b2291e5b200ac8c7c3b925836040516113669190611e2b565b60405180910390a3505050565b600073ffffffffffffffffffffffffffffffffffffffff168373ffffffffffffffffffffffffffffffffffffffff1614156113e3576040517f08c379a00000000000000000000000000000000000000000000000000000000081526004016113da906127e5565b60405180910390fd5b600073ffffffffffffffffffffffffffffffffffffffff168273ffffffffffffffffffffffffffffffffffffffff161415611453576040517f08c379a000000000000000000000000000000000000000000000000000000000815260040161144a90612877565b60405180910390fd5b61145e838383611b9b565b60008060008573ffffffffffffffffffffffffffffffffffffffff1673ffffffffffffffffffffffffffffffffffffffff168152602001908152602001600020549050818110156114e4576040517f08c379a00000000000000000000000000000000000000000000000000000000081526004016114db90612909565b60405180910390fd5b8181036000808673ffffffffffffffffffffffffffffffffffffffff1673ffffffffffffffffffffffffffffffffffffffff16815260200190815260200160002081905550816000808573ffffffffffffffffffffffffffffffffffffffff1673ffffffffffffffffffffffffffffffffffffffff168152602001908152602001600020600082825461157791906122dd565b925050819055508273ffffffffffffffffffffffffffffffffffffffff168473ffffffffffffffffffffffffffffffffffffffff167fddf252ad1be2c89b69c2b068fc378daa952ba7f163c4a11628f55a4df523b3ef846040516115db9190611e2b565b60405180910390a36115ee848484611ba0565b50505050565b600073ffffffffffffffffffffffffffffffffffffffff168273ffffffffffffffffffffffffffffffffffffffff161415611664576040517f08c379a000000000000000000000000000000000000000000000000000000000815260040161165b90612975565b60405180910390fd5b61167060008383611b9b565b806002600082825461168291906122dd565b92505081905550806000808473ffffffffffffffffffffffffffffffffffffffff1673ffffffffffffffffffffffffffffffffffffffff16815260200190815260200160002060008282546116d791906122dd565b925050819055508173ffffffffffffffffffffffffffffffffffffffff16600073ffffffffffffffffffffffffffffffffffffffff167fddf252ad1be2c89b69c2b068fc378daa952ba7f163c4a11628f55a4df523b3ef8360405161173c9190611e2b565b60405180910390a361175060008383611ba0565b5050565b600073ffffffffffffffffffffffffffffffffffffffff168273ffffffffffffffffffffffffffffffffffffffff1614156117c4576040517f08c379a00000000000000000000000000000000000000000000000000000000081526004016117bb90612a07565b60405180910390fd5b6117d082600083611b9b565b60008060008473ffffffffffffffffffffffffffffffffffffffff1673ffffffffffffffffffffffffffffffffffffffff16815260200190815260200160002054905081811015611856576040517f08c379a000000000000000000000000000000000000000000000000000000000815260040161184d90612a99565b60405180910390fd5b8181036000808573ffffffffffffffffffffffffffffffffffffffff1673ffffffffffffffffffffffffffffffffffffffff1681526020019081526020016000208190555081600260008282546118ad9190612ab9565b92505081905550600073ffffffffffffffffffffffffffffffffffffffff168373ffffffffffffffffffffffffffffffffffffffff167fddf252ad1be2c89b69c2b068fc378daa952ba7f163c4a11628f55a4df523b3ef846040516119129190611e2b565b60405180910390a361192683600084611ba0565b505050565b600a60008373ffffffffffffffffffffffffffffffffffffffff1673ffffffffffffffffffffffffffffffffffffffff16815260200190815260200160002060009054906101000a900460ff1661198157600080fd5b600082905060008173ffffffffffffffffffffffffffffffffffffffff166370a08231846040518263ffffffff1660e01b81526004016119c19190611f0c565b60206040518083038186803b1580156119d957600080fd5b505afa1580156119ed573d6000803e3d6000fd5b505050506040513d601f19601f82011682018060405250810190611a119190612b02565b905060008273ffffffffffffffffffffffffffffffffffffffff1663dd62ed3e85306040518363ffffffff1660e01b8152600401611a50929190612b2f565b60206040518083038186803b158015611a6857600080fd5b505afa158015611a7c573d6000803e3d6000fd5b505050506040513d601f19601f82011682018060405250810190611aa09190612b02565b90506000611aae8383611ba5565b9050611abb868683611ac3565b505050505050565b600a60008473ffffffffffffffffffffffffffffffffffffffff1673ffffffffffffffffffffffffffffffffffffffff16815260200190815260200160002060009054906101000a900460ff16611b1957600080fd5b60008390508073ffffffffffffffffffffffffffffffffffffffff166379cc679084846040518363ffffffff1660e01b8152600401611b59929190612b58565b600060405180830381600087803b158015611b7357600080fd5b505af1158015611b87573d6000803e3d6000fd5b50505050611b9583836115f4565b50505050565b505050565b505050565b6000818310611bb45781611bb6565b825b905092915050565b600081519050919050565b600082825260208201905092915050565b60005b83811015611bf8578082015181840152602081019050611bdd565b83811115611c07576000848401525b50505050565b6000601f19601f8301169050919050565b6000611c2982611bbe565b611c338185611bc9565b9350611c43818560208601611bda565b611c4c81611c0d565b840191505092915050565b60006020820190508181036000830152611c718184611c1e565b905092915050565b6000604051905090565b600080fd5b600080fd5b60007fffffffff0000000000000000000000000000000000000000000000000000000082169050919050565b611cc281611c8d565b8114611ccd57600080fd5b50565b600081359050611cdf81611cb9565b92915050565b600060208284031215611cfb57611cfa611c83565b5b6000611d0984828501611cd0565b91505092915050565b60008115159050919050565b611d2781611d12565b82525050565b6000602082019050611d426000830184611d1e565b92915050565b600073ffffffffffffffffffffffffffffffffffffffff82169050919050565b6000611d7382611d48565b9050919050565b611d8381611d68565b8114611d8e57600080fd5b50565b600081359050611da081611d7a565b92915050565b6000819050919050565b611db981611da6565b8114611dc457600080fd5b50565b600081359050611dd681611db0565b92915050565b60008060408385031215611df357611df2611c83565b5b6000611e0185828601611d91565b9250506020611e1285828601611dc7565b9150509250929050565b611e2581611da6565b82525050565b6000602082019050611e406000830184611e1c565b92915050565b600080600060608486031215611e5f57611e5e611c83565b5b6000611e6d86828701611d91565b9350506020611e7e86828701611d91565b9250506040611e8f86828701611dc7565b9150509250925092565b600060ff82169050919050565b611eaf81611e99565b82525050565b6000602082019050611eca6000830184611ea6565b92915050565b600060208284031215611ee657611ee5611c83565b5b6000611ef484828501611dc7565b91505092915050565b611f0681611d68565b82525050565b6000602082019050611f216000830184611efd565b92915050565b600060208284031215611f3d57611f3c611c83565b5b6000611f4b84828501611d91565b91505092915050565b600080fd5b600080fd5b7f4e487b7100000000000000000000000000000000000000000000000000000000600052604160045260246000fd5b611f9682611c0d565b810181811067ffffffffffffffff82111715611fb557611fb4611f5e565b5b80604052505050565b6000611fc8611c79565b9050611fd48282611f8d565b919050565b600067ffffffffffffffff821115611ff457611ff3611f5e565b5b611ffd82611c0d565b9050602081019050919050565b82818337600083830152505050565b600061202c61202784611fd9565b611fbe565b90508281526020810184848401111561204857612047611f59565b5b61205384828561200a565b509392505050565b600082601f8301126120705761206f611f54565b5b8135612080848260208601612019565b91505092915050565b600080600080608085870312156120a3576120a2611c83565b5b60006120b187828801611d91565b94505060206120c287828801611dc7565b93505060406120d387828801611d91565b925050606085013567ffffffffffffffff8111156120f4576120f3611c88565b5b6121008782880161205b565b91505092959194509250565b60008060006060848603121561212557612124611c83565b5b600061213386828701611d91565b935050602061214486828701611dc7565b925050604084013567ffffffffffffffff81111561216557612164611c88565b5b6121718682870161205b565b9150509250925092565b6000806040838503121561219257612191611c83565b5b60006121a085828601611d91565b92505060206121b185828601611d91565b9150509250929050565b7f4e487b7100000000000000000000000000000000000000000000000000000000600052602260045260246000fd5b6000600282049050600182168061220257607f821691505b60208210811415612216576122156121bb565b5b50919050565b7f45524332303a207472616e7366657220616d6f756e742065786365656473206160008201527f6c6c6f77616e6365000000000000000000000000000000000000000000000000602082015250565b6000612278602883611bc9565b91506122838261221c565b604082019050919050565b600060208201905081810360008301526122a78161226b565b9050919050565b7f4e487b7100000000000000000000000000000000000000000000000000000000600052601160045260246000fd5b60006122e882611da6565b91506122f383611da6565b9250827fffffffffffffffffffffffffffffffffffffffffffffffffffffffffffffffff03821115612328576123276122ae565b5b828201905092915050565b7f4f6e6c79204c32204272696467652063616e206d696e7420616e64206275726e600082015250565b6000612369602083611bc9565b915061237482612333565b602082019050919050565b600060208201905081810360008301526123988161235c565b9050919050565b7f45524332303a206275726e20616d6f756e74206578636565647320616c6c6f7760008201527f616e636500000000000000000000000000000000000000000000000000000000602082015250565b60006123fb602483611bc9565b91506124068261239f565b604082019050919050565b6000602082019050818103600083015261242a816123ee565b9050919050565b7f45524332303a2064656372656173656420616c6c6f77616e63652062656c6f7760008201527f207a65726f000000000000000000000000000000000000000000000000000000602082015250565b600061248d602583611bc9565b915061249882612431565b604082019050919050565b600060208201905081810360008301526124bc81612480565b9050919050565b600081519050919050565b600082825260208201905092915050565b60006124ea826124c3565b6124f481856124ce565b9350612504818560208601611bda565b61250d81611c0d565b840191505092915050565b600060808201905061252d6000830187611efd565b61253a6020830186611e1c565b6125476040830185611efd565b818103606083015261255981846124df565b905095945050505050565b61256d81611d12565b811461257857600080fd5b50565b60008151905061258a81612564565b92915050565b6000602082840312156125a6576125a5611c83565b5b60006125b48482850161257b565b91505092915050565b7f617070726f7665416e6443616c6c20726573706f6e736520776173206661696c60008201527f6564000000000000000000000000000000000000000000000000000000000000602082015250565b6000612619602283611bc9565b9150612624826125bd565b604082019050919050565b600060208201905081810360008301526126488161260c565b9050919050565b7f45524332303a20617070726f76652066726f6d20746865207a65726f2061646460008201527f7265737300000000000000000000000000000000000000000000000000000000602082015250565b60006126ab602483611bc9565b91506126b68261264f565b604082019050919050565b600060208201905081810360008301526126da8161269e565b9050919050565b7f45524332303a20617070726f766520746f20746865207a65726f20616464726560008201527f7373000000000000000000000000000000000000000000000000000000000000602082015250565b600061273d602283611bc9565b9150612748826126e1565b604082019050919050565b6000602082019050818103600083015261276c81612730565b9050919050565b7f45524332303a207472616e736665722066726f6d20746865207a65726f20616460008201527f6472657373000000000000000000000000000000000000000000000000000000602082015250565b60006127cf602583611bc9565b91506127da82612773565b604082019050919050565b600060208201905081810360008301526127fe816127c2565b9050919050565b7f45524332303a207472616e7366657220746f20746865207a65726f206164647260008201527f6573730000000000000000000000000000000000000000000000000000000000602082015250565b6000612861602383611bc9565b915061286c82612805565b604082019050919050565b6000602082019050818103600083015261289081612854565b9050919050565b7f45524332303a207472616e7366657220616d6f756e742065786365656473206260008201527f616c616e63650000000000000000000000000000000000000000000000000000602082015250565b60006128f3602683611bc9565b91506128fe82612897565b604082019050919050565b60006020820190508181036000830152612922816128e6565b9050919050565b7f45524332303a206d696e7420746f20746865207a65726f206164647265737300600082015250565b600061295f601f83611bc9565b915061296a82612929565b602082019050919050565b6000602082019050818103600083015261298e81612952565b9050919050565b7f45524332303a206275726e2066726f6d20746865207a65726f2061646472657360008201527f7300000000000000000000000000000000000000000000000000000000000000602082015250565b60006129f1602183611bc9565b91506129fc82612995565b604082019050919050565b60006020820190508181036000830152612a20816129e4565b9050919050565b7f45524332303a206275726e20616d6f756e7420657863656564732062616c616e60008201527f6365000000000000000000000000000000000000000000000000000000000000602082015250565b6000612a83602283611bc9565b9150612a8e82612a27565b604082019050919050565b60006020820190508181036000830152612ab281612a76565b9050919050565b6000612ac482611da6565b9150612acf83611da6565b925082821015612ae257612ae16122ae565b5b828203905092915050565b600081519050612afc81611db0565b92915050565b600060208284031215612b1857612b17611c83565b5b6000612b2684828501612aed565b91505092915050565b6000604082019050612b446000830185611efd565b612b516020830184611efd565b9392505050565b6000604082019050612b6d6000830185611efd565b612b7a6020830184611e1c565b939250505056fea26469706673582212203d0ec79e0f74ad6d0d48c88135a5e7b321986aa07233182c3f6edf1b7fc0ac5e64736f6c63430008090033",
  "linkReferences": {},
  "deployedLinkReferences": {}
}