{
  "_format": "hh-sol-artifact-1",
  "contractName": "Migratable",
  "sourceName": "contracts/base/lib/upgrades/Migratable.sol",
  "abi": [
    {
      "anonymous": false,
      "inputs": [
        {
          "indexed": false,
          "internalType": "string",
          "name": "contractName",
          "type": "string"
        },
        {
          "indexed": false,
          "internalType": "string",
          "name": "migrationId",
          "type": "string"
        }
      ],
      "name": "Migrated",
      "type": "event"
    },
    {
      "inputs": [],
      "name": "initialize",
      "outputs": [],
      "stateMutability": "nonpayable",
      "type": "function"
    },
    {
      "inputs": [
        {
          "internalType": "string",
          "name": "contractName",
          "type": "string"
        },
        {
          "internalType": "string",
          "name": "migrationId",
          "type": "string"
        }
      ],
      "name": "isMigrated",
      "outputs": [
        {
          "internalType": "bool",
          "name": "",
          "type": "bool"
        }
      ],
      "stateMutability": "view",
      "type": "function"
    }
  ],
  "bytecode": "0x60806040523480156100195760008061001661001f565b50505b5061008d565b632a2a7adb598160e01b8152600481016020815285602082015260005b8681101561005a57808601518160408401015260208101905061003c565b506020828760640184336000905af158600e01573d6000803e3d6000fd5b3d6001141558600a015760016000f35b505050565b6108ab8061009c6000396000f3fe608060405234801561001957600080610016610742565b50505b506004361061003f5760003560e01c80638129fc1c1461004d578063c0bac1a814610057575b60008061004a610742565b50505b6100556101fe565b005b6101e66004803603604081101561007657600080610073610742565b50505b810190808035906020019064010000000081111561009c57600080610099610742565b50505b8201836020820111156100b7576000806100b4610742565b50505b803590602001918460018302840111640100000000831117156100e2576000806100df610742565b50505b91908080601f016020809104026020016040519081016040528093929190818152602001838380828437600081840152601f19601f8201169050808301925050505050505091929192908035906020019064010000000081111561014e5760008061014b610742565b50505b82018360208201111561016957600080610166610742565b50505b8035906020019184600183028401116401000000008311171561019457600080610191610742565b50505b91908080601f016020809104026020016040519081016040528093929190818152602001838380828437600081840152601f19601f8201169050808301925050505050505091929192905050506105e7565b60405180821515815260200191505060405180910390f35b6040518060400160405280600a81526020017f4d696772617461626c65000000000000000000000000000000000000000000008152506040518060400160405280600581526020017f312e322e310000000000000000000000000000000000000000000000000000008152506102a9826040518060400160405280600b81526020017f696e697469616c697a65640000000000000000000000000000000000000000008152506106d5565b6102b382826106d5565b7fdd117a11c22118c9dee4b5a67ce578bc44529dce21ee0ccc439588fbb9fb4ea38282604051808060200180602001838103835285818151815260200191508051906020019080838360005b8381101561031a5780820151818401526020810190506102ff565b50505050905090810190601f1680156103475780820380516001836020036101000a031916815260200191505b50838103825284818151815260200191508051906020019080838360005b83811015610380578082015181840152602081019050610365565b50505050905090810190601f1680156103ad5780820380516001836020036101000a031916815260200191505b5094505050505060405180910390a160016000836040518082805190602001908083835b602083106103f457805182526020820191506020810190506020830392506103d1565b6001836020036101000a0380198251168184511680821785525050505050509050019150509081526020016040518091039020826040518082805190602001908083835b6020831061045b5780518252602082019150602081019050602083039250610438565b6001836020036101000a038019825116818451168082178552505050505050905001915050908152602001604051809103902060006101000a8161049d6107b0565b8160ff021916908315150217906104b2610813565b50505060016000836040518082805190602001908083835b602083106104ed57805182526020820191506020810190506020830392506104ca565b6001836020036101000a03801982511681845116808217855250505050505090500191505090815260200160405180910390206040518060400160405280600b81526020017f696e697469616c697a65640000000000000000000000000000000000000000008152506040518082805190602001908083835b602083106105895780518252602082019150602081019050602083039250610566565b6001836020036101000a038019825116818451168082178552505050505050905001915050908152602001604051809103902060006101000a816105cb6107b0565b8160ff021916908315150217906105e0610813565b5050505050565b600080836040518082805190602001908083835b6020831061061e57805182526020820191506020810190506020830392506105fb565b6001836020036101000a0380198251168184511680821785525050505050509050019150509081526020016040518091039020826040518082805190602001908083835b602083106106855780518252602082019150602081019050602083039250610662565b6001836020036101000a03801982511681845116808217855250505050505090500191505090815260200160405180910390206000906106c36107b0565b906101000a900460ff16905092915050565b6106df82826105e7565b1561073e576040517f08c379a0000000000000000000000000000000000000000000000000000000008152600401808060200182810382526032815260200180610879603291396040019150506040518091039061073b610742565b50505b5050565b632a2a7adb598160e01b8152600481016020815285602082015260005b8681101561077d57808601518160408401015260208101905061075f565b506020828760640184336000905af158600e01573d6000803e3d6000fd5b3d6001141558600a015760016000f35b505050565b6303daa959598160e01b8152836004820152602081602483336000905af158600e01573d6000803e3d6000fd5b3d6001141558600a015760016000f35b8051935060005b604081101561080e576000818301526020810190506107f4565b505050565b6322bd64c0598160e01b8152836004820152846024820152600081604483336000905af158600e01573d6000803e3d6000fd5b3d6001141558600a015760016000f35b60005b604081101561087357600081830152602081019050610859565b50505056fe52657175657374656420746172676574206d6967726174696f6e2049442068617320616c7265616479206265656e2072756e",
  "linkReferences": {},
  "deployedLinkReferences": {}
}