{
  "_format": "hh-sol-artifact-1",
  "contractName": "L2StandardERC20",
  "sourceName": "@eth-optimism/contracts/standards/L2StandardERC20.sol",
  "abi": [
    {
      "inputs": [
        {
          "internalType": "address",
          "name": "_l2Bridge",
          "type": "address"
        },
        {
          "internalType": "address",
          "name": "_l1Token",
          "type": "address"
        },
        {
          "internalType": "string",
          "name": "_name",
          "type": "string"
        },
        {
          "internalType": "string",
          "name": "_symbol",
          "type": "string"
        }
      ],
      "stateMutability": "nonpayable",
      "type": "constructor"
    },
    {
      "anonymous": false,
      "inputs": [
        {
          "indexed": true,
          "internalType": "address",
          "name": "owner",
          "type": "address"
        },
        {
          "indexed": true,
          "internalType": "address",
          "name": "spender",
          "type": "address"
        },
        {
          "indexed": false,
          "internalType": "uint256",
          "name": "value",
          "type": "uint256"
        }
      ],
      "name": "Approval",
      "type": "event"
    },
    {
      "anonymous": false,
      "inputs": [
        {
          "indexed": true,
          "internalType": "address",
          "name": "_account",
          "type": "address"
        },
        {
          "indexed": false,
          "internalType": "uint256",
          "name": "_amount",
          "type": "uint256"
        }
      ],
      "name": "Burn",
      "type": "event"
    },
    {
      "anonymous": false,
      "inputs": [
        {
          "indexed": true,
          "internalType": "address",
          "name": "_account",
          "type": "address"
        },
        {
          "indexed": false,
          "internalType": "uint256",
          "name": "_amount",
          "type": "uint256"
        }
      ],
      "name": "Mint",
      "type": "event"
    },
    {
      "anonymous": false,
      "inputs": [
        {
          "indexed": true,
          "internalType": "address",
          "name": "from",
          "type": "address"
        },
        {
          "indexed": true,
          "internalType": "address",
          "name": "to",
          "type": "address"
        },
        {
          "indexed": false,
          "internalType": "uint256",
          "name": "value",
          "type": "uint256"
        }
      ],
      "name": "Transfer",
      "type": "event"
    },
    {
      "inputs": [
        {
          "internalType": "address",
          "name": "owner",
          "type": "address"
        },
        {
          "internalType": "address",
          "name": "spender",
          "type": "address"
        }
      ],
      "name": "allowance",
      "outputs": [
        {
          "internalType": "uint256",
          "name": "",
          "type": "uint256"
        }
      ],
      "stateMutability": "view",
      "type": "function"
    },
    {
      "inputs": [
        {
          "internalType": "address",
          "name": "spender",
          "type": "address"
        },
        {
          "internalType": "uint256",
          "name": "amount",
          "type": "uint256"
        }
      ],
      "name": "approve",
      "outputs": [
        {
          "internalType": "bool",
          "name": "",
          "type": "bool"
        }
      ],
      "stateMutability": "nonpayable",
      "type": "function"
    },
    {
      "inputs": [
        {
          "internalType": "address",
          "name": "account",
          "type": "address"
        }
      ],
      "name": "balanceOf",
      "outputs": [
        {
          "internalType": "uint256",
          "name": "",
          "type": "uint256"
        }
      ],
      "stateMutability": "view",
      "type": "function"
    },
    {
      "inputs": [
        {
          "internalType": "address",
          "name": "_from",
          "type": "address"
        },
        {
          "internalType": "uint256",
          "name": "_amount",
          "type": "uint256"
        }
      ],
      "name": "burn",
      "outputs": [],
      "stateMutability": "nonpayable",
      "type": "function"
    },
    {
      "inputs": [],
      "name": "decimals",
      "outputs": [
        {
          "internalType": "uint8",
          "name": "",
          "type": "uint8"
        }
      ],
      "stateMutability": "view",
      "type": "function"
    },
    {
      "inputs": [
        {
          "internalType": "address",
          "name": "spender",
          "type": "address"
        },
        {
          "internalType": "uint256",
          "name": "subtractedValue",
          "type": "uint256"
        }
      ],
      "name": "decreaseAllowance",
      "outputs": [
        {
          "internalType": "bool",
          "name": "",
          "type": "bool"
        }
      ],
      "stateMutability": "nonpayable",
      "type": "function"
    },
    {
      "inputs": [
        {
          "internalType": "address",
          "name": "spender",
          "type": "address"
        },
        {
          "internalType": "uint256",
          "name": "addedValue",
          "type": "uint256"
        }
      ],
      "name": "increaseAllowance",
      "outputs": [
        {
          "internalType": "bool",
          "name": "",
          "type": "bool"
        }
      ],
      "stateMutability": "nonpayable",
      "type": "function"
    },
    {
      "inputs": [],
      "name": "l1Token",
      "outputs": [
        {
          "internalType": "address",
          "name": "",
          "type": "address"
        }
      ],
      "stateMutability": "view",
      "type": "function"
    },
    {
      "inputs": [],
      "name": "l2Bridge",
      "outputs": [
        {
          "internalType": "address",
          "name": "",
          "type": "address"
        }
      ],
      "stateMutability": "view",
      "type": "function"
    },
    {
      "inputs": [
        {
          "internalType": "address",
          "name": "_to",
          "type": "address"
        },
        {
          "internalType": "uint256",
          "name": "_amount",
          "type": "uint256"
        }
      ],
      "name": "mint",
      "outputs": [],
      "stateMutability": "nonpayable",
      "type": "function"
    },
    {
      "inputs": [],
      "name": "name",
      "outputs": [
        {
          "internalType": "string",
          "name": "",
          "type": "string"
        }
      ],
      "stateMutability": "view",
      "type": "function"
    },
    {
      "inputs": [
        {
          "internalType": "bytes4",
          "name": "_interfaceId",
          "type": "bytes4"
        }
      ],
      "name": "supportsInterface",
      "outputs": [
        {
          "internalType": "bool",
          "name": "",
          "type": "bool"
        }
      ],
      "stateMutability": "pure",
      "type": "function"
    },
    {
      "inputs": [],
      "name": "symbol",
      "outputs": [
        {
          "internalType": "string",
          "name": "",
          "type": "string"
        }
      ],
      "stateMutability": "view",
      "type": "function"
    },
    {
      "inputs": [],
      "name": "totalSupply",
      "outputs": [
        {
          "internalType": "uint256",
          "name": "",
          "type": "uint256"
        }
      ],
      "stateMutability": "view",
      "type": "function"
    },
    {
      "inputs": [
        {
          "internalType": "address",
          "name": "recipient",
          "type": "address"
        },
        {
          "internalType": "uint256",
          "name": "amount",
          "type": "uint256"
        }
      ],
      "name": "transfer",
      "outputs": [
        {
          "internalType": "bool",
          "name": "",
          "type": "bool"
        }
      ],
      "stateMutability": "nonpayable",
      "type": "function"
    },
    {
      "inputs": [
        {
          "internalType": "address",
          "name": "sender",
          "type": "address"
        },
        {
          "internalType": "address",
          "name": "recipient",
          "type": "address"
        },
        {
          "internalType": "uint256",
          "name": "amount",
          "type": "uint256"
        }
      ],
      "name": "transferFrom",
      "outputs": [
        {
          "internalType": "bool",
          "name": "",
          "type": "bool"
        }
      ],
      "stateMutability": "nonpayable",
      "type": "function"
    }
  ],
  "bytecode": "0x60806040523480156200001157600080fd5b5060405162002285380380620022858339818101604052810190620000379190620003ab565b8181816003908051906020019062000051929190620000f9565b5080600490805190602001906200006a929190620000f9565b50505082600560006101000a81548173ffffffffffffffffffffffffffffffffffffffff021916908373ffffffffffffffffffffffffffffffffffffffff16021790555083600660006101000a81548173ffffffffffffffffffffffffffffffffffffffff021916908373ffffffffffffffffffffffffffffffffffffffff16021790555050505050620004c0565b82805462000107906200048a565b90600052602060002090601f0160209004810192826200012b576000855562000177565b82601f106200014657805160ff191683800117855562000177565b8280016001018555821562000177579182015b828111156200017657825182559160200191906001019062000159565b5b5090506200018691906200018a565b5090565b5b80821115620001a55760008160009055506001016200018b565b5090565b6000604051905090565b600080fd5b600080fd5b600073ffffffffffffffffffffffffffffffffffffffff82169050919050565b6000620001ea82620001bd565b9050919050565b620001fc81620001dd565b81146200020857600080fd5b50565b6000815190506200021c81620001f1565b92915050565b600080fd5b600080fd5b6000601f19601f8301169050919050565b7f4e487b7100000000000000000000000000000000000000000000000000000000600052604160045260246000fd5b62000277826200022c565b810181811067ffffffffffffffff821117156200029957620002986200023d565b5b80604052505050565b6000620002ae620001a9565b9050620002bc82826200026c565b919050565b600067ffffffffffffffff821115620002df57620002de6200023d565b5b620002ea826200022c565b9050602081019050919050565b60005b8381101562000317578082015181840152602081019050620002fa565b8381111562000327576000848401525b50505050565b6000620003446200033e84620002c1565b620002a2565b90508281526020810184848401111562000363576200036262000227565b5b62000370848285620002f7565b509392505050565b600082601f83011262000390576200038f62000222565b5b8151620003a28482602086016200032d565b91505092915050565b60008060008060808587031215620003c857620003c7620001b3565b5b6000620003d8878288016200020b565b9450506020620003eb878288016200020b565b935050604085015167ffffffffffffffff8111156200040f576200040e620001b8565b5b6200041d8782880162000378565b925050606085015167ffffffffffffffff811115620004415762000440620001b8565b5b6200044f8782880162000378565b91505092959194509250565b7f4e487b7100000000000000000000000000000000000000000000000000000000600052602260045260246000fd5b60006002820490506001821680620004a357607f821691505b60208210811415620004ba57620004b96200045b565b5b50919050565b611db580620004d06000396000f3fe608060405234801561001057600080fd5b50600436106101005760003560e01c806370a0823111610097578063a9059cbb11610066578063a9059cbb146102d5578063ae1f6aaf14610305578063c01e1bd614610323578063dd62ed3e1461034157610100565b806370a082311461023b57806395d89b411461026b5780639dc29fac14610289578063a457c2d7146102a557610100565b806323b872dd116100d357806323b872dd146101a1578063313ce567146101d157806339509351146101ef57806340c10f191461021f57610100565b806301ffc9a71461010557806306fdde0314610135578063095ea7b31461015357806318160ddd14610183575b600080fd5b61011f600480360381019061011a919061132e565b610371565b60405161012c9190611376565b60405180910390f35b61013d610447565b60405161014a919061142a565b60405180910390f35b61016d600480360381019061016891906114e0565b6104d9565b60405161017a9190611376565b60405180910390f35b61018b6104f7565b604051610198919061152f565b60405180910390f35b6101bb60048036038101906101b6919061154a565b610501565b6040516101c89190611376565b60405180910390f35b6101d96105f9565b6040516101e691906115b9565b60405180910390f35b610209600480360381019061020491906114e0565b610602565b6040516102169190611376565b60405180910390f35b610239600480360381019061023491906114e0565b6106ae565b005b610255600480360381019061025091906115d4565b61079a565b604051610262919061152f565b60405180910390f35b6102736107e2565b604051610280919061142a565b60405180910390f35b6102a3600480360381019061029e91906114e0565b610874565b005b6102bf60048036038101906102ba91906114e0565b610960565b6040516102cc9190611376565b60405180910390f35b6102ef60048036038101906102ea91906114e0565b610a4b565b6040516102fc9190611376565b60405180910390f35b61030d610a69565b60405161031a9190611610565b60405180910390f35b61032b610a8f565b6040516103389190611610565b60405180910390f35b61035b6004803603810190610356919061162b565b610ab5565b604051610368919061152f565b60405180910390f35b6000807f01ffc9a7a5cef8baa21ed3c5c0d7e23accb804b619e9333b597f47a0d84076e290506000639dc29fac60e01b6340c10f1960e01b63c01e1bd660e01b18189050817bffffffffffffffffffffffffffffffffffffffffffffffffffffffff1916847bffffffffffffffffffffffffffffffffffffffffffffffffffffffff1916148061043e5750807bffffffffffffffffffffffffffffffffffffffffffffffffffffffff1916847bffffffffffffffffffffffffffffffffffffffffffffffffffffffff1916145b92505050919050565b6060600380546104569061169a565b80601f01602080910402602001604051908101604052809291908181526020018280546104829061169a565b80156104cf5780601f106104a4576101008083540402835291602001916104cf565b820191906000526020600020905b8154815290600101906020018083116104b257829003601f168201915b5050505050905090565b60006104ed6104e6610b3c565b8484610b44565b6001905092915050565b6000600254905090565b600061050e848484610d0f565b6000600160008673ffffffffffffffffffffffffffffffffffffffff1673ffffffffffffffffffffffffffffffffffffffff1681526020019081526020016000206000610559610b3c565b73ffffffffffffffffffffffffffffffffffffffff1673ffffffffffffffffffffffffffffffffffffffff168152602001908152602001600020549050828110156105d9576040517f08c379a00000000000000000000000000000000000000000000000000000000081526004016105d09061173e565b60405180910390fd5b6105ed856105e5610b3c565b858403610b44565b60019150509392505050565b60006012905090565b60006106a461060f610b3c565b84846001600061061d610b3c565b73ffffffffffffffffffffffffffffffffffffffff1673ffffffffffffffffffffffffffffffffffffffff16815260200190815260200160002060008873ffffffffffffffffffffffffffffffffffffffff1673ffffffffffffffffffffffffffffffffffffffff1681526020019081526020016000205461069f919061178d565b610b44565b6001905092915050565b600660009054906101000a900473ffffffffffffffffffffffffffffffffffffffff1673ffffffffffffffffffffffffffffffffffffffff163373ffffffffffffffffffffffffffffffffffffffff161461073e576040517f08c379a00000000000000000000000000000000000000000000000000000000081526004016107359061182f565b60405180910390fd5b6107488282610f90565b8173ffffffffffffffffffffffffffffffffffffffff167f0f6798a560793a54c3bcfe86a93cde1e73087d944c0ea20544137d41213968858260405161078e919061152f565b60405180910390a25050565b60008060008373ffffffffffffffffffffffffffffffffffffffff1673ffffffffffffffffffffffffffffffffffffffff168152602001908152602001600020549050919050565b6060600480546107f19061169a565b80601f016020809104026020016040519081016040528092919081815260200182805461081d9061169a565b801561086a5780601f1061083f5761010080835404028352916020019161086a565b820191906000526020600020905b81548152906001019060200180831161084d57829003601f168201915b5050505050905090565b600660009054906101000a900473ffffffffffffffffffffffffffffffffffffffff1673ffffffffffffffffffffffffffffffffffffffff163373ffffffffffffffffffffffffffffffffffffffff1614610904576040517f08c379a00000000000000000000000000000000000000000000000000000000081526004016108fb9061182f565b60405180910390fd5b61090e82826110f0565b8173ffffffffffffffffffffffffffffffffffffffff167fcc16f5dbb4873280815c1ee09dbd06736cffcc184412cf7a71a0fdb75d397ca582604051610954919061152f565b60405180910390a25050565b6000806001600061096f610b3c565b73ffffffffffffffffffffffffffffffffffffffff1673ffffffffffffffffffffffffffffffffffffffff16815260200190815260200160002060008573ffffffffffffffffffffffffffffffffffffffff1673ffffffffffffffffffffffffffffffffffffffff16815260200190815260200160002054905082811015610a2c576040517f08c379a0000000000000000000000000000000000000000000000000000000008152600401610a23906118c1565b60405180910390fd5b610a40610a37610b3c565b85858403610b44565b600191505092915050565b6000610a5f610a58610b3c565b8484610d0f565b6001905092915050565b600660009054906101000a900473ffffffffffffffffffffffffffffffffffffffff1681565b600560009054906101000a900473ffffffffffffffffffffffffffffffffffffffff1681565b6000600160008473ffffffffffffffffffffffffffffffffffffffff1673ffffffffffffffffffffffffffffffffffffffff16815260200190815260200160002060008373ffffffffffffffffffffffffffffffffffffffff1673ffffffffffffffffffffffffffffffffffffffff16815260200190815260200160002054905092915050565b600033905090565b600073ffffffffffffffffffffffffffffffffffffffff168373ffffffffffffffffffffffffffffffffffffffff161415610bb4576040517f08c379a0000000000000000000000000000000000000000000000000000000008152600401610bab90611953565b60405180910390fd5b600073ffffffffffffffffffffffffffffffffffffffff168273ffffffffffffffffffffffffffffffffffffffff161415610c24576040517f08c379a0000000000000000000000000000000000000000000000000000000008152600401610c1b906119e5565b60405180910390fd5b80600160008573ffffffffffffffffffffffffffffffffffffffff1673ffffffffffffffffffffffffffffffffffffffff16815260200190815260200160002060008473ffffffffffffffffffffffffffffffffffffffff1673ffffffffffffffffffffffffffffffffffffffff168152602001908152602001600020819055508173ffffffffffffffffffffffffffffffffffffffff168373ffffffffffffffffffffffffffffffffffffffff167f8c5be1e5ebec7d5bd14f71427d1e84f3dd0314c0f7b2291e5b200ac8c7c3b92583604051610d02919061152f565b60405180910390a3505050565b600073ffffffffffffffffffffffffffffffffffffffff168373ffffffffffffffffffffffffffffffffffffffff161415610d7f576040517f08c379a0000000000000000000000000000000000000000000000000000000008152600401610d7690611a77565b60405180910390fd5b600073ffffffffffffffffffffffffffffffffffffffff168273ffffffffffffffffffffffffffffffffffffffff161415610def576040517f08c379a0000000000000000000000000000000000000000000000000000000008152600401610de690611b09565b60405180910390fd5b610dfa8383836112c7565b60008060008573ffffffffffffffffffffffffffffffffffffffff1673ffffffffffffffffffffffffffffffffffffffff16815260200190815260200160002054905081811015610e80576040517f08c379a0000000000000000000000000000000000000000000000000000000008152600401610e7790611b9b565b60405180910390fd5b8181036000808673ffffffffffffffffffffffffffffffffffffffff1673ffffffffffffffffffffffffffffffffffffffff16815260200190815260200160002081905550816000808573ffffffffffffffffffffffffffffffffffffffff1673ffffffffffffffffffffffffffffffffffffffff1681526020019081526020016000206000828254610f13919061178d565b925050819055508273ffffffffffffffffffffffffffffffffffffffff168473ffffffffffffffffffffffffffffffffffffffff167fddf252ad1be2c89b69c2b068fc378daa952ba7f163c4a11628f55a4df523b3ef84604051610f77919061152f565b60405180910390a3610f8a8484846112cc565b50505050565b600073ffffffffffffffffffffffffffffffffffffffff168273ffffffffffffffffffffffffffffffffffffffff161415611000576040517f08c379a0000000000000000000000000000000000000000000000000000000008152600401610ff790611c07565b60405180910390fd5b61100c600083836112c7565b806002600082825461101e919061178d565b92505081905550806000808473ffffffffffffffffffffffffffffffffffffffff1673ffffffffffffffffffffffffffffffffffffffff1681526020019081526020016000206000828254611073919061178d565b925050819055508173ffffffffffffffffffffffffffffffffffffffff16600073ffffffffffffffffffffffffffffffffffffffff167fddf252ad1be2c89b69c2b068fc378daa952ba7f163c4a11628f55a4df523b3ef836040516110d8919061152f565b60405180910390a36110ec600083836112cc565b5050565b600073ffffffffffffffffffffffffffffffffffffffff168273ffffffffffffffffffffffffffffffffffffffff161415611160576040517f08c379a000000000000000000000000000000000000000000000000000000000815260040161115790611c99565b60405180910390fd5b61116c826000836112c7565b60008060008473ffffffffffffffffffffffffffffffffffffffff1673ffffffffffffffffffffffffffffffffffffffff168152602001908152602001600020549050818110156111f2576040517f08c379a00000000000000000000000000000000000000000000000000000000081526004016111e990611d2b565b60405180910390fd5b8181036000808573ffffffffffffffffffffffffffffffffffffffff1673ffffffffffffffffffffffffffffffffffffffff1681526020019081526020016000208190555081600260008282546112499190611d4b565b92505081905550600073ffffffffffffffffffffffffffffffffffffffff168373ffffffffffffffffffffffffffffffffffffffff167fddf252ad1be2c89b69c2b068fc378daa952ba7f163c4a11628f55a4df523b3ef846040516112ae919061152f565b60405180910390a36112c2836000846112cc565b505050565b505050565b505050565b600080fd5b60007fffffffff0000000000000000000000000000000000000000000000000000000082169050919050565b61130b816112d6565b811461131657600080fd5b50565b60008135905061132881611302565b92915050565b600060208284031215611344576113436112d1565b5b600061135284828501611319565b91505092915050565b60008115159050919050565b6113708161135b565b82525050565b600060208201905061138b6000830184611367565b92915050565b600081519050919050565b600082825260208201905092915050565b60005b838110156113cb5780820151818401526020810190506113b0565b838111156113da576000848401525b50505050565b6000601f19601f8301169050919050565b60006113fc82611391565b611406818561139c565b93506114168185602086016113ad565b61141f816113e0565b840191505092915050565b6000602082019050818103600083015261144481846113f1565b905092915050565b600073ffffffffffffffffffffffffffffffffffffffff82169050919050565b60006114778261144c565b9050919050565b6114878161146c565b811461149257600080fd5b50565b6000813590506114a48161147e565b92915050565b6000819050919050565b6114bd816114aa565b81146114c857600080fd5b50565b6000813590506114da816114b4565b92915050565b600080604083850312156114f7576114f66112d1565b5b600061150585828601611495565b9250506020611516858286016114cb565b9150509250929050565b611529816114aa565b82525050565b60006020820190506115446000830184611520565b92915050565b600080600060608486031215611563576115626112d1565b5b600061157186828701611495565b935050602061158286828701611495565b9250506040611593868287016114cb565b9150509250925092565b600060ff82169050919050565b6115b38161159d565b82525050565b60006020820190506115ce60008301846115aa565b92915050565b6000602082840312156115ea576115e96112d1565b5b60006115f884828501611495565b91505092915050565b61160a8161146c565b82525050565b60006020820190506116256000830184611601565b92915050565b60008060408385031215611642576116416112d1565b5b600061165085828601611495565b925050602061166185828601611495565b9150509250929050565b7f4e487b7100000000000000000000000000000000000000000000000000000000600052602260045260246000fd5b600060028204905060018216806116b257607f821691505b602082108114156116c6576116c561166b565b5b50919050565b7f45524332303a207472616e7366657220616d6f756e742065786365656473206160008201527f6c6c6f77616e6365000000000000000000000000000000000000000000000000602082015250565b600061172860288361139c565b9150611733826116cc565b604082019050919050565b600060208201905081810360008301526117578161171b565b9050919050565b7f4e487b7100000000000000000000000000000000000000000000000000000000600052601160045260246000fd5b6000611798826114aa565b91506117a3836114aa565b9250827fffffffffffffffffffffffffffffffffffffffffffffffffffffffffffffffff038211156117d8576117d761175e565b5b828201905092915050565b7f4f6e6c79204c32204272696467652063616e206d696e7420616e64206275726e600082015250565b600061181960208361139c565b9150611824826117e3565b602082019050919050565b600060208201905081810360008301526118488161180c565b9050919050565b7f45524332303a2064656372656173656420616c6c6f77616e63652062656c6f7760008201527f207a65726f000000000000000000000000000000000000000000000000000000602082015250565b60006118ab60258361139c565b91506118b68261184f565b604082019050919050565b600060208201905081810360008301526118da8161189e565b9050919050565b7f45524332303a20617070726f76652066726f6d20746865207a65726f2061646460008201527f7265737300000000000000000000000000000000000000000000000000000000602082015250565b600061193d60248361139c565b9150611948826118e1565b604082019050919050565b6000602082019050818103600083015261196c81611930565b9050919050565b7f45524332303a20617070726f766520746f20746865207a65726f20616464726560008201527f7373000000000000000000000000000000000000000000000000000000000000602082015250565b60006119cf60228361139c565b91506119da82611973565b604082019050919050565b600060208201905081810360008301526119fe816119c2565b9050919050565b7f45524332303a207472616e736665722066726f6d20746865207a65726f20616460008201527f6472657373000000000000000000000000000000000000000000000000000000602082015250565b6000611a6160258361139c565b9150611a6c82611a05565b604082019050919050565b60006020820190508181036000830152611a9081611a54565b9050919050565b7f45524332303a207472616e7366657220746f20746865207a65726f206164647260008201527f6573730000000000000000000000000000000000000000000000000000000000602082015250565b6000611af360238361139c565b9150611afe82611a97565b604082019050919050565b60006020820190508181036000830152611b2281611ae6565b9050919050565b7f45524332303a207472616e7366657220616d6f756e742065786365656473206260008201527f616c616e63650000000000000000000000000000000000000000000000000000602082015250565b6000611b8560268361139c565b9150611b9082611b29565b604082019050919050565b60006020820190508181036000830152611bb481611b78565b9050919050565b7f45524332303a206d696e7420746f20746865207a65726f206164647265737300600082015250565b6000611bf1601f8361139c565b9150611bfc82611bbb565b602082019050919050565b60006020820190508181036000830152611c2081611be4565b9050919050565b7f45524332303a206275726e2066726f6d20746865207a65726f2061646472657360008201527f7300000000000000000000000000000000000000000000000000000000000000602082015250565b6000611c8360218361139c565b9150611c8e82611c27565b604082019050919050565b60006020820190508181036000830152611cb281611c76565b9050919050565b7f45524332303a206275726e20616d6f756e7420657863656564732062616c616e60008201527f6365000000000000000000000000000000000000000000000000000000000000602082015250565b6000611d1560228361139c565b9150611d2082611cb9565b604082019050919050565b60006020820190508181036000830152611d4481611d08565b9050919050565b6000611d56826114aa565b9150611d61836114aa565b925082821015611d7457611d7361175e565b5b82820390509291505056fea264697066735822122074790ccce64bac4e3950537467f25cb19fdb3121abc79cdccd46ab34ca18f46864736f6c63430008090033",
  "linkReferences": {},
  "deployedLinkReferences": {}
}