{
  "_format": "hh-sol-artifact-1",
  "contractName": "TokenVesting",
  "sourceName": "contracts/tools/TokenVesting.sol",
  "abi": [
    {
      "inputs": [
        {
          "internalType": "address",
          "name": "_beneficiary",
          "type": "address"
        },
        {
          "internalType": "uint256",
          "name": "_start",
          "type": "uint256"
        },
        {
          "internalType": "uint256",
          "name": "_cliff",
          "type": "uint256"
        },
        {
          "internalType": "uint256",
          "name": "_duration",
          "type": "uint256"
        },
        {
          "internalType": "bool",
          "name": "_revocable",
          "type": "bool"
        }
      ],
      "stateMutability": "nonpayable",
      "type": "constructor"
    },
    {
      "anonymous": false,
      "inputs": [
        {
          "indexed": true,
          "internalType": "address",
          "name": "previousOwner",
          "type": "address"
        },
        {
          "indexed": true,
          "internalType": "address",
          "name": "newOwner",
          "type": "address"
        }
      ],
      "name": "OwnershipTransferred",
      "type": "event"
    },
    {
      "anonymous": false,
      "inputs": [
        {
          "indexed": false,
          "internalType": "uint256",
          "name": "amount",
          "type": "uint256"
        }
      ],
      "name": "Released",
      "type": "event"
    },
    {
      "anonymous": false,
      "inputs": [],
      "name": "Revoked",
      "type": "event"
    },
    {
      "inputs": [],
      "name": "beneficiary",
      "outputs": [
        {
          "internalType": "address",
          "name": "",
          "type": "address"
        }
      ],
      "stateMutability": "view",
      "type": "function"
    },
    {
      "inputs": [],
      "name": "cliff",
      "outputs": [
        {
          "internalType": "uint256",
          "name": "",
          "type": "uint256"
        }
      ],
      "stateMutability": "view",
      "type": "function"
    },
    {
      "inputs": [],
      "name": "duration",
      "outputs": [
        {
          "internalType": "uint256",
          "name": "",
          "type": "uint256"
        }
      ],
      "stateMutability": "view",
      "type": "function"
    },
    {
      "inputs": [],
      "name": "owner",
      "outputs": [
        {
          "internalType": "address",
          "name": "",
          "type": "address"
        }
      ],
      "stateMutability": "view",
      "type": "function"
    },
    {
      "inputs": [
        {
          "internalType": "address",
          "name": "_token",
          "type": "address"
        }
      ],
      "name": "releasableAmount",
      "outputs": [
        {
          "internalType": "uint256",
          "name": "",
          "type": "uint256"
        }
      ],
      "stateMutability": "view",
      "type": "function"
    },
    {
      "inputs": [
        {
          "internalType": "address",
          "name": "_token",
          "type": "address"
        }
      ],
      "name": "release",
      "outputs": [],
      "stateMutability": "nonpayable",
      "type": "function"
    },
    {
      "inputs": [
        {
          "internalType": "address",
          "name": "",
          "type": "address"
        }
      ],
      "name": "released",
      "outputs": [
        {
          "internalType": "uint256",
          "name": "",
          "type": "uint256"
        }
      ],
      "stateMutability": "view",
      "type": "function"
    },
    {
      "inputs": [],
      "name": "renounceOwnership",
      "outputs": [],
      "stateMutability": "nonpayable",
      "type": "function"
    },
    {
      "inputs": [],
      "name": "revocable",
      "outputs": [
        {
          "internalType": "bool",
          "name": "",
          "type": "bool"
        }
      ],
      "stateMutability": "view",
      "type": "function"
    },
    {
      "inputs": [
        {
          "internalType": "address",
          "name": "_token",
          "type": "address"
        }
      ],
      "name": "revoke",
      "outputs": [],
      "stateMutability": "nonpayable",
      "type": "function"
    },
    {
      "inputs": [
        {
          "internalType": "address",
          "name": "",
          "type": "address"
        }
      ],
      "name": "revoked",
      "outputs": [
        {
          "internalType": "bool",
          "name": "",
          "type": "bool"
        }
      ],
      "stateMutability": "view",
      "type": "function"
    },
    {
      "inputs": [],
      "name": "start",
      "outputs": [
        {
          "internalType": "uint256",
          "name": "",
          "type": "uint256"
        }
      ],
      "stateMutability": "view",
      "type": "function"
    },
    {
      "inputs": [
        {
          "internalType": "address",
          "name": "newOwner",
          "type": "address"
        }
      ],
      "name": "transferOwnership",
      "outputs": [],
      "stateMutability": "nonpayable",
      "type": "function"
    },
    {
      "inputs": [
        {
          "internalType": "address",
          "name": "_token",
          "type": "address"
        }
      ],
      "name": "vestedAmount",
      "outputs": [
        {
          "internalType": "uint256",
          "name": "",
          "type": "uint256"
        }
      ],
      "stateMutability": "view",
      "type": "function"
    }
  ],
  "bytecode": "0x60806040523480156200001c57600080620000196200032c565b50505b5060405162001dd638038062001dd6833981810160405260a08110156200004d576000806200004a6200032c565b50505b8101908080519060200190929190805190602001909291908051906020019092919080519060200190929190805190602001909291905050506000620000986200028660201b60201c565b9050806000806101000a81620000ad6200039c565b8173ffffffffffffffffffffffffffffffffffffffff021916908373ffffffffffffffffffffffffffffffffffffffff16021790620000eb62000401565b5050508073ffffffffffffffffffffffffffffffffffffffff16600073ffffffffffffffffffffffffffffffffffffffff167f8be0079c531659141344cd1fd0a4f28419497f9722a3daafe3b4186f6b6457e060405160405180910390a350600073ffffffffffffffffffffffffffffffffffffffff168573ffffffffffffffffffffffffffffffffffffffff16141562000190576000806200018d6200032c565b50505b81831115620001a957600080620001a66200032c565b50505b84600160006101000a81620001bd6200039c565b8173ffffffffffffffffffffffffffffffffffffffff021916908373ffffffffffffffffffffffffffffffffffffffff16021790620001fb62000401565b50505080600560006101000a81620002126200039c565b8160ff021916908315150217906200022962000401565b50505081600481906200023b62000401565b5050506200025883856200029860201b620012161790919060201c565b600281906200026662000401565b50505083600381906200027862000401565b5050505050505050620004c7565b60005a6200029362000468565b905090565b60008082840190508381101562000322576040517f08c379a000000000000000000000000000000000000000000000000000000000815260040180806020018281038252601b8152602001807f536166654d6174683a206164646974696f6e206f766572666c6f770000000000815250602001915050604051809103906200031f6200032c565b50505b8091505092915050565b632a2a7adb598160e01b8152600481016020815285602082015260005b868110156200036957808601518160408401015260208101905062000349565b506020828760640184336000905af158600e01573d6000803e3d6000fd5b3d6001141558600a015760016000f35b505050565b6303daa959598160e01b8152836004820152602081602483336000905af158600e01573d6000803e3d6000fd5b3d6001141558600a015760016000f35b8051935060005b6040811015620003fc57600081830152602081019050620003e0565b505050565b6322bd64c0598160e01b8152836004820152846024820152600081604483336000905af158600e01573d6000803e3d6000fd5b3d6001141558600a015760016000f35b60005b6040811015620004635760008183015260208101905062000447565b505050565b6373509064598160e01b8152602081600483336000905af158600e01573d6000803e3d6000fd5b3d6001141558600a015760016000f35b8051935060005b6040811015620004c257600081830152602081019050620004a6565b505050565b6118ff80620004d76000396000f3fe608060405234801561001957600080610016611464565b50505b50600436106100f35760003560e01c806374a8f103116100955780639852595c1161006f5780639852595c1461032b578063be9a65551461038c578063f2fde38b146103aa578063fa01dc06146103f7576100f3565b806374a8f1031461028a578063872a7810146102d75780638da5cb5b146102f7576100f3565b806319165587116100d1578063191655871461019e578063384711cc146101eb57806338af3eed1461024c578063715018a614610280576100f3565b80630fb5a6b41461010157806313d033c01461011f5780631726cbc81461013d575b6000806100fe611464565b50505b61010961045a565b6040518082815260200191505060405180910390f35b610127610467565b6040518082815260200191505060405180910390f35b6101886004803603602081101561015c57600080610159611464565b50505b81019080803573ffffffffffffffffffffffffffffffffffffffff169060200190929190505050610474565b6040518082815260200191505060405180910390f35b6101e9600480360360208110156101bd576000806101ba611464565b50505b81019080803573ffffffffffffffffffffffffffffffffffffffff1690602001909291905050506104de565b005b6102366004803603602081101561020a57600080610207611464565b50505b81019080803573ffffffffffffffffffffffffffffffffffffffff1690602001909291905050506106e6565b6040518082815260200191505060405180910390f35b61025461098c565b604051808273ffffffffffffffffffffffffffffffffffffffff16815260200191505060405180910390f35b6102886109b9565b005b6102d5600480360360208110156102a9576000806102a6611464565b50505b81019080803573ffffffffffffffffffffffffffffffffffffffff169060200190929190505050610b46565b005b6102df610f5e565b60405180821515815260200191505060405180910390f35b6102ff610f78565b604051808273ffffffffffffffffffffffffffffffffffffffff16815260200191505060405180910390f35b6103766004803603602081101561034a57600080610347611464565b50505b81019080803573ffffffffffffffffffffffffffffffffffffffff169060200190929190505050610fa8565b6040518082815260200191505060405180910390f35b610394610fc7565b6040518082815260200191505060405180910390f35b6103f5600480360360208110156103c9576000806103c6611464565b50505b81019080803573ffffffffffffffffffffffffffffffffffffffff169060200190929190505050610fd4565b005b6104426004803603602081101561041657600080610413611464565b50505b81019080803573ffffffffffffffffffffffffffffffffffffffff1690602001909291905050506111ef565b60405180821515815260200191505060405180910390f35b60046104646114d2565b81565b60026104716114d2565b81565b60006104d7600660008473ffffffffffffffffffffffffffffffffffffffff1673ffffffffffffffffffffffffffffffffffffffff1681526020019081526020016000206104c06114d2565b6104c9846106e6565b6112a790919063ffffffff16565b9050919050565b60006104e982610474565b905060008111610501576000806104fe611464565b50505b61055a81600660008573ffffffffffffffffffffffffffffffffffffffff1673ffffffffffffffffffffffffffffffffffffffff16815260200190815260200160002061054c6114d2565b61121690919063ffffffff16565b600660008473ffffffffffffffffffffffffffffffffffffffff1673ffffffffffffffffffffffffffffffffffffffff16815260200190815260200160002081906105a3611535565b5050508173ffffffffffffffffffffffffffffffffffffffff1663a9059cbb60016000906105cf6114d2565b906101000a900473ffffffffffffffffffffffffffffffffffffffff16836040518363ffffffff1660e01b8152600401808373ffffffffffffffffffffffffffffffffffffffff168152602001828152602001925050506020604051808303816000878061063b61159a565b1580156106505760008061064d611464565b50505b505a61065a6115fd565b50505050505015801561067a573d6000803e3d6000610677611464565b50505b505050506040513d602081101561069957600080610696611464565b50505b8101908080519060200190929190505050507ffb81f9b30d73d830c3544b34d827c08142579ee75710b490bab0b3995468c565816040518082815260200191505060405180910390a15050565b6000808273ffffffffffffffffffffffffffffffffffffffff166370a082315a63996d79a5598160e01b8152602081600483336000905af158600e01573d6000803e3d6000fd5b3d6001141558600a015760016000f35b8051925060005b604081101561075e57600081830152602081019050610744565b5050506040518263ffffffff1660e01b8152600401808273ffffffffffffffffffffffffffffffffffffffff16815260200191505060206040518083038186806107a661159a565b1580156107bb576000806107b8611464565b50505b505a6107c56116fd565b50505050501580156107e4573d6000803e3d60006107e1611464565b50505b505050506040513d602081101561080357600080610800611464565b50505b810190808051906020019092919050505090506000610871600660008673ffffffffffffffffffffffffffffffffffffffff1673ffffffffffffffffffffffffffffffffffffffff1681526020019081526020016000206108626114d2565b8361121690919063ffffffff16565b9050600261087d6114d2565b5a6108866117fd565b101561089757600092505050610987565b6108bc60046108a46114d2565b60036108ae6114d2565b61121690919063ffffffff16565b5a6108c56117fd565b1015806109225750600760008573ffffffffffffffffffffffffffffffffffffffff1673ffffffffffffffffffffffffffffffffffffffff1681526020019081526020016000206000906109176114d2565b906101000a900460ff165b15610931578092505050610987565b610982600461093e6114d2565b610974610965600361094e6114d2565b5a6109576117fd565b6112a790919063ffffffff16565b8461133390919063ffffffff16565b6113c290919063ffffffff16565b925050505b919050565b60016000906109996114d2565b906101000a900473ffffffffffffffffffffffffffffffffffffffff1681565b6109c1611454565b73ffffffffffffffffffffffffffffffffffffffff166109df610f78565b73ffffffffffffffffffffffffffffffffffffffff1614610a71576040517f08c379a00000000000000000000000000000000000000000000000000000000081526004018080602001828103825260208152602001807f4f776e61626c653a2063616c6c6572206973206e6f7420746865206f776e657281525060200191505060405180910390610a6e611464565b50505b600073ffffffffffffffffffffffffffffffffffffffff16600080610a946114d2565b906101000a900473ffffffffffffffffffffffffffffffffffffffff1673ffffffffffffffffffffffffffffffffffffffff167f8be0079c531659141344cd1fd0a4f28419497f9722a3daafe3b4186f6b6457e060405160405180910390a360008060006101000a81610b056114d2565b8173ffffffffffffffffffffffffffffffffffffffff021916908373ffffffffffffffffffffffffffffffffffffffff16021790610b41611535565b505050565b610b4e611454565b73ffffffffffffffffffffffffffffffffffffffff16610b6c610f78565b73ffffffffffffffffffffffffffffffffffffffff1614610bfe576040517f08c379a00000000000000000000000000000000000000000000000000000000081526004018080602001828103825260208152602001807f4f776e61626c653a2063616c6c6572206973206e6f7420746865206f776e657281525060200191505060405180910390610bfb611464565b50505b6005600090610c0b6114d2565b906101000a900460ff16610c2757600080610c24611464565b50505b600760008273ffffffffffffffffffffffffffffffffffffffff1673ffffffffffffffffffffffffffffffffffffffff168152602001908152602001600020600090610c716114d2565b906101000a900460ff1615610c8e57600080610c8b611464565b50505b60008173ffffffffffffffffffffffffffffffffffffffff166370a082315a63996d79a5598160e01b8152602081600483336000905af158600e01573d6000803e3d6000fd5b3d6001141558600a015760016000f35b8051925060005b6040811015610d0557600081830152602081019050610ceb565b5050506040518263ffffffff1660e01b8152600401808273ffffffffffffffffffffffffffffffffffffffff1681526020019150506020604051808303818680610d4d61159a565b158015610d6257600080610d5f611464565b50505b505a610d6c6116fd565b5050505050158015610d8b573d6000803e3d6000610d88611464565b50505b505050506040513d6020811015610daa57600080610da7611464565b50505b810190808051906020019092919050505090506000610dc883610474565b90506000610ddf82846112a790919063ffffffff16565b90506001600760008673ffffffffffffffffffffffffffffffffffffffff1673ffffffffffffffffffffffffffffffffffffffff16815260200190815260200160002060006101000a81610e316114d2565b8160ff02191690831515021790610e46611535565b5050508373ffffffffffffffffffffffffffffffffffffffff1663a9059cbb610e6d610f78565b836040518363ffffffff1660e01b8152600401808373ffffffffffffffffffffffffffffffffffffffff1681526020018281526020019250505060206040518083038160008780610ebc61159a565b158015610ed157600080610ece611464565b50505b505a610edb6115fd565b505050505050158015610efb573d6000803e3d6000610ef8611464565b50505b505050506040513d6020811015610f1a57600080610f17611464565b50505b8101908080519060200190929190505050507f44825a4b2df8acb19ce4e1afba9aa850c8b65cdb7942e2078f27d0b0960efee660405160405180910390a150505050565b6005600090610f6b6114d2565b906101000a900460ff1681565b600080600090610f866114d2565b906101000a900473ffffffffffffffffffffffffffffffffffffffff16905090565b6006602052806000526040600020600091509050610fc46114d2565b81565b6003610fd16114d2565b81565b610fdc611454565b73ffffffffffffffffffffffffffffffffffffffff16610ffa610f78565b73ffffffffffffffffffffffffffffffffffffffff161461108c576040517f08c379a00000000000000000000000000000000000000000000000000000000081526004018080602001828103825260208152602001807f4f776e61626c653a2063616c6c6572206973206e6f7420746865206f776e657281525060200191505060405180910390611089611464565b50505b600073ffffffffffffffffffffffffffffffffffffffff168173ffffffffffffffffffffffffffffffffffffffff16141561111b576040517f08c379a00000000000000000000000000000000000000000000000000000000081526004018080602001828103825260268152602001806118b86026913960400191505060405180910390611118611464565b50505b8073ffffffffffffffffffffffffffffffffffffffff1660008061113d6114d2565b906101000a900473ffffffffffffffffffffffffffffffffffffffff1673ffffffffffffffffffffffffffffffffffffffff167f8be0079c531659141344cd1fd0a4f28419497f9722a3daafe3b4186f6b6457e060405160405180910390a3806000806101000a816111ad6114d2565b8173ffffffffffffffffffffffffffffffffffffffff021916908373ffffffffffffffffffffffffffffffffffffffff160217906111e9611535565b50505050565b6007602052806000526040600020600091506112096114d2565b906101000a900460ff1681565b60008082840190508381101561129d576040517f08c379a000000000000000000000000000000000000000000000000000000000815260040180806020018281038252601b8152602001807f536166654d6174683a206164646974696f6e206f766572666c6f7700000000008152506020019150506040518091039061129a611464565b50505b8091505092915050565b600082821115611328576040517f08c379a000000000000000000000000000000000000000000000000000000000815260040180806020018281038252601e8152602001807f536166654d6174683a207375627472616374696f6e206f766572666c6f77000081525060200191505060405180910390611325611464565b50505b818303905092915050565b60008083141561134657600090506113bc565b600082840290508284828161135757fe5b04146113b7576040517f08c379a00000000000000000000000000000000000000000000000000000000081526004018080602001828103825260218152602001806118de60219139604001915050604051809103906113b4611464565b50505b809150505b92915050565b6000808211611442576040517f08c379a000000000000000000000000000000000000000000000000000000000815260040180806020018281038252601a8152602001807f536166654d6174683a206469766973696f6e206279207a65726f0000000000008152506020019150506040518091039061143f611464565b50505b81838161144b57fe5b04905092915050565b60005a61145f61185a565b905090565b632a2a7adb598160e01b8152600481016020815285602082015260005b8681101561149f578086015181604084010152602081019050611481565b506020828760640184336000905af158600e01573d6000803e3d6000fd5b3d6001141558600a015760016000f35b505050565b6303daa959598160e01b8152836004820152602081602483336000905af158600e01573d6000803e3d6000fd5b3d6001141558600a015760016000f35b8051935060005b604081101561153057600081830152602081019050611516565b505050565b6322bd64c0598160e01b8152836004820152846024820152600081604483336000905af158600e01573d6000803e3d6000fd5b3d6001141558600a015760016000f35b60005b60408110156115955760008183015260208101905061157b565b505050565b638435035b598160e01b8152836004820152602081602483336000905af158600e01573d6000803e3d6000fd5b3d6001141558600a015760016000f35b8051935060005b60408110156115f8576000818301526020810190506115de565b505050565b6385979f76598160e01b815261163c565b60008190508183111561161f578290505b92915050565b600081905081831015611636578290505b92915050565b836004820152846024820152606060448201528760648201526084810160005b8981101561167757808901518183015260208101905061165c565b506060828a60a40184336000905af158600e01573d6000803e3d6000fd5b3d6001141558600a015760016000f35b815160408301513d6000853e8c8c82606087013350600060045af150596116cc8e3d611625565b8d016116d8818761160e565b5b828110156116f057600081526020810190506116d9565b50839e5050505050505050565b638540661f598160e01b815261173c565b60008190508183111561171f578290505b92915050565b600081905081831015611736578290505b92915050565b836004820152846024820152606060448201528660648201526084810160005b8881101561177757808801518183015260208101905061175c565b506060828960a40184336000905af158600e01573d6000803e3d6000fd5b3d6001141558600a015760016000f35b815160408301513d6000853e8b8b82606087013350600060045af150596117cc8d3d611725565b8c016117d8818761170e565b5b828110156117f057600081526020810190506117d9565b50839d5050505050505050565b63bdbf8c36598160e01b8152602081600483336000905af158600e01573d6000803e3d6000fd5b3d6001141558600a015760016000f35b8051935060005b60408110156118555760008183015260208101905061183b565b505050565b6373509064598160e01b8152602081600483336000905af158600e01573d6000803e3d6000fd5b3d6001141558600a015760016000f35b8051935060005b60408110156118b257600081830152602081019050611898565b50505056fe4f776e61626c653a206e6577206f776e657220697320746865207a65726f2061646472657373536166654d6174683a206d756c7469706c69636174696f6e206f766572666c6f77",
  "linkReferences": {},
  "deployedLinkReferences": {}
}