{
  "_format": "hh-sol-artifact-1",
  "contractName": "GamePool",
  "sourceName": "contracts/pools/game/GamePool.sol",
  "abi": [
    {
      "anonymous": false,
      "inputs": [
        {
          "indexed": false,
          "internalType": "string",
          "name": "contractName",
          "type": "string"
        },
        {
          "indexed": false,
          "internalType": "string",
          "name": "migrationId",
          "type": "string"
        }
      ],
      "name": "Migrated",
      "type": "event"
    },
    {
      "anonymous": false,
      "inputs": [
        {
          "indexed": true,
          "internalType": "address",
          "name": "previousOwner",
          "type": "address"
        },
        {
          "indexed": true,
          "internalType": "address",
          "name": "newOwner",
          "type": "address"
        }
      ],
      "name": "OwnershipTransferred",
      "type": "event"
    },
    {
      "anonymous": false,
      "inputs": [
        {
          "indexed": true,
          "internalType": "address",
          "name": "user",
          "type": "address"
        },
        {
          "indexed": true,
          "internalType": "uint256",
          "name": "_tokenId",
          "type": "uint256"
        },
        {
          "indexed": false,
          "internalType": "uint256",
          "name": "amount",
          "type": "uint256"
        }
      ],
      "name": "Redeem",
      "type": "event"
    },
    {
      "inputs": [
        {
          "internalType": "uint256",
          "name": "",
          "type": "uint256"
        }
      ],
      "name": "BZNclaimed",
      "outputs": [
        {
          "internalType": "bool",
          "name": "",
          "type": "bool"
        }
      ],
      "stateMutability": "view",
      "type": "function"
    },
    {
      "inputs": [],
      "name": "FILL_LIMIT",
      "outputs": [
        {
          "internalType": "uint256",
          "name": "",
          "type": "uint256"
        }
      ],
      "stateMutability": "view",
      "type": "function"
    },
    {
      "inputs": [],
      "name": "_preorderFill",
      "outputs": [],
      "stateMutability": "nonpayable",
      "type": "function"
    },
    {
      "inputs": [],
      "name": "balance",
      "outputs": [
        {
          "internalType": "uint256",
          "name": "",
          "type": "uint256"
        }
      ],
      "stateMutability": "view",
      "type": "function"
    },
    {
      "inputs": [],
      "name": "carToken",
      "outputs": [
        {
          "internalType": "contract ICarToken",
          "name": "",
          "type": "address"
        }
      ],
      "stateMutability": "view",
      "type": "function"
    },
    {
      "inputs": [],
      "name": "dailyLimit",
      "outputs": [
        {
          "internalType": "uint256",
          "name": "",
          "type": "uint256"
        }
      ],
      "stateMutability": "view",
      "type": "function"
    },
    {
      "inputs": [],
      "name": "decimals",
      "outputs": [
        {
          "internalType": "uint8",
          "name": "",
          "type": "uint8"
        }
      ],
      "stateMutability": "view",
      "type": "function"
    },
    {
      "inputs": [],
      "name": "gameBalance",
      "outputs": [
        {
          "internalType": "address",
          "name": "",
          "type": "address"
        }
      ],
      "stateMutability": "view",
      "type": "function"
    },
    {
      "inputs": [],
      "name": "getFrom",
      "outputs": [
        {
          "internalType": "address",
          "name": "",
          "type": "address"
        }
      ],
      "stateMutability": "view",
      "type": "function"
    },
    {
      "inputs": [],
      "name": "initialize",
      "outputs": [],
      "stateMutability": "nonpayable",
      "type": "function"
    },
    {
      "inputs": [
        {
          "internalType": "address",
          "name": "tokenAdr",
          "type": "address"
        },
        {
          "internalType": "address",
          "name": "carAdr",
          "type": "address"
        },
        {
          "internalType": "address",
          "name": "factory",
          "type": "address"
        }
      ],
      "name": "initialize",
      "outputs": [],
      "stateMutability": "nonpayable",
      "type": "function"
    },
    {
      "inputs": [
        {
          "internalType": "string",
          "name": "contractName",
          "type": "string"
        },
        {
          "internalType": "string",
          "name": "migrationId",
          "type": "string"
        }
      ],
      "name": "isMigrated",
      "outputs": [
        {
          "internalType": "bool",
          "name": "",
          "type": "bool"
        }
      ],
      "stateMutability": "view",
      "type": "function"
    },
    {
      "inputs": [],
      "name": "limitAmount",
      "outputs": [
        {
          "internalType": "uint256",
          "name": "",
          "type": "uint256"
        }
      ],
      "stateMutability": "view",
      "type": "function"
    },
    {
      "inputs": [],
      "name": "limitStart",
      "outputs": [
        {
          "internalType": "uint256",
          "name": "",
          "type": "uint256"
        }
      ],
      "stateMutability": "view",
      "type": "function"
    },
    {
      "inputs": [
        {
          "internalType": "address",
          "name": "newToken",
          "type": "address"
        }
      ],
      "name": "migrate",
      "outputs": [],
      "stateMutability": "nonpayable",
      "type": "function"
    },
    {
      "inputs": [],
      "name": "owner",
      "outputs": [
        {
          "internalType": "address",
          "name": "",
          "type": "address"
        }
      ],
      "stateMutability": "view",
      "type": "function"
    },
    {
      "inputs": [],
      "name": "renounceOwnership",
      "outputs": [],
      "stateMutability": "nonpayable",
      "type": "function"
    },
    {
      "inputs": [
        {
          "internalType": "address",
          "name": "player",
          "type": "address"
        },
        {
          "internalType": "uint256",
          "name": "amount",
          "type": "uint256"
        }
      ],
      "name": "rewardPlayer",
      "outputs": [],
      "stateMutability": "nonpayable",
      "type": "function"
    },
    {
      "inputs": [
        {
          "internalType": "address",
          "name": "_gameBalance",
          "type": "address"
        }
      ],
      "name": "setGameBalance",
      "outputs": [],
      "stateMutability": "nonpayable",
      "type": "function"
    },
    {
      "inputs": [
        {
          "internalType": "uint256",
          "name": "amount",
          "type": "uint256"
        }
      ],
      "name": "setLimitAndStart",
      "outputs": [],
      "stateMutability": "nonpayable",
      "type": "function"
    },
    {
      "inputs": [
        {
          "internalType": "contract IERC20",
          "name": "newToken",
          "type": "address"
        }
      ],
      "name": "setToken",
      "outputs": [],
      "stateMutability": "nonpayable",
      "type": "function"
    },
    {
      "inputs": [],
      "name": "token",
      "outputs": [
        {
          "internalType": "contract IERC20",
          "name": "",
          "type": "address"
        }
      ],
      "stateMutability": "view",
      "type": "function"
    },
    {
      "inputs": [],
      "name": "tokensRedeemed",
      "outputs": [
        {
          "internalType": "uint256",
          "name": "",
          "type": "uint256"
        }
      ],
      "stateMutability": "view",
      "type": "function"
    },
    {
      "inputs": [
        {
          "internalType": "address",
          "name": "newOwner",
          "type": "address"
        }
      ],
      "name": "transferOwnership",
      "outputs": [],
      "stateMutability": "nonpayable",
      "type": "function"
    }
  ],
  "bytecode": "0x608060405234801561001057600080fd5b5061002d61002261003260201b60201c565b61003a60201b60201c565b610100565b600033905090565b6000600260009054906101000a900473ffffffffffffffffffffffffffffffffffffffff16905081600260006101000a81548173ffffffffffffffffffffffffffffffffffffffff021916908373ffffffffffffffffffffffffffffffffffffffff1602179055508173ffffffffffffffffffffffffffffffffffffffff168173ffffffffffffffffffffffffffffffffffffffff167f8be0079c531659141344cd1fd0a4f28419497f9722a3daafe3b4186f6b6457e060405160405180910390a35050565b61239b80620001106000396000f3fe608060405234801561001057600080fd5b50600436106101585760003560e01c806389cbc416116100c3578063ce5494bb1161007c578063ce5494bb1461035b578063d530bf3314610377578063d726f4cf14610395578063f2fde38b146103b1578063f82ca9f0146103cd578063fc0c546a146103e957610158565b806389cbc416146102975780638da5cb5b146102b5578063a108b664146102d3578063b69ef8a8146102f1578063c0bac1a81461030f578063c0c53b8b1461033f57610158565b80635b789237116101155780635b789237146101f957806367eeba0c14610229578063715018a61461024757806378abafaf14610251578063798fd1781461026f5780638129fc1c1461028d57610158565b8063144fa6d71461015d5780631d9885d2146101795780632e6d770a14610183578063313ce567146101a157806335f6ebc1146101bf57806352be2e64146101db575b600080fd5b61017760048036038101906101729190611814565b610407565b005b6101816104a6565b005b61018b610a05565b604051610198919061185a565b60405180910390f35b6101a9610a0a565b6040516101b69190611891565b60405180910390f35b6101d960048036038101906101d49190611904565b610a0f565b005b6101e3610aa5565b6040516101f0919061185a565b60405180910390f35b610213600480360381019061020e9190611944565b610aab565b604051610220919061198c565b60405180910390f35b610231610acb565b60405161023e919061185a565b60405180910390f35b61024f610b1f565b005b610259610ba7565b604051610266919061185a565b60405180910390f35b610277610bad565b60405161028491906119b6565b60405180910390f35b610295610bb5565b005b61029f610d82565b6040516102ac919061185a565b60405180910390f35b6102bd610d88565b6040516102ca91906119b6565b60405180910390f35b6102db610db2565b6040516102e891906119b6565b60405180910390f35b6102f9610dd8565b604051610306919061185a565b60405180910390f35b61032960048036038101906103249190611b17565b610e8a565b604051610336919061198c565b60405180910390f35b61035960048036038101906103549190611b8f565b610edb565b005b61037560048036038101906103709190611be2565b611142565b005b61037f61132a565b60405161038c9190611c6e565b60405180910390f35b6103af60048036038101906103aa9190611be2565b611350565b005b6103cb60048036038101906103c69190611be2565b611410565b005b6103e760048036038101906103e29190611944565b611508565b005b6103f1611595565b6040516103fe9190611caa565b60405180910390f35b600073ffffffffffffffffffffffffffffffffffffffff16600160009054906101000a900473ffffffffffffffffffffffffffffffffffffffff1673ffffffffffffffffffffffffffffffffffffffff161461046257600080fd5b80600160006101000a81548173ffffffffffffffffffffffffffffffffffffffff021916908373ffffffffffffffffffffffffffffffffffffffff16021790555050565b6000600460009054906101000a900473ffffffffffffffffffffffffffffffffffffffff16905060003390506000600560009054906101000a900473ffffffffffffffffffffffffffffffffffffffff1673ffffffffffffffffffffffffffffffffffffffff166370a08231836040518263ffffffff1660e01b815260040161052f91906119b6565b60206040518083038186803b15801561054757600080fd5b505afa15801561055b573d6000803e3d6000fd5b505050506040513d601f19601f8201168201806040525081019061057f9190611cda565b905060008060008060005b858110156109975760a0841061059f57610997565b600560009054906101000a900473ffffffffffffffffffffffffffffffffffffffff1673ffffffffffffffffffffffffffffffffffffffff16632f745c5988836040518363ffffffff1660e01b81526004016105fc929190611d07565b60206040518083038186803b15801561061457600080fd5b505afa158015610628573d6000803e3d6000fd5b505050506040513d601f19601f8201168201806040525081019061064c9190611cda565b92506000600560009054906101000a900473ffffffffffffffffffffffffffffffffffffffff1673ffffffffffffffffffffffffffffffffffffffff16635c9a7a8b856040518263ffffffff1660e01b81526004016106ab919061185a565b602060405180830381600087803b1580156106c557600080fd5b505af11580156106d9573d6000803e3d6000fd5b505050506040513d601f19601f820116820180604052508101906106fd9190611cda565b90506003600085815260200190815260200160002060009054906101000a900460ff161561072b5750610984565b600560009054906101000a900473ffffffffffffffffffffffffffffffffffffffff1673ffffffffffffffffffffffffffffffffffffffff1663029bca78826040518263ffffffff1660e01b8152600401610786919061185a565b602060405180830381600087803b1580156107a057600080fd5b505af11580156107b4573d6000803e3d6000fd5b505050506040513d601f19601f820116820180604052508101906107d89190611d5c565b610870578873ffffffffffffffffffffffffffffffffffffffff16632833018e856040518263ffffffff1660e01b8152600401610815919061185a565b60206040518083038186803b15801561082d57600080fd5b505afa158015610841573d6000803e3d6000fd5b505050506040513d601f19601f820116820180604052508101906108659190611d5c565b61086f5750610984565b5b601260ff16600a6108819190611eeb565b600560009054906101000a900473ffffffffffffffffffffffffffffffffffffffff1673ffffffffffffffffffffffffffffffffffffffff1663d748c2e4866040518263ffffffff1660e01b81526004016108dc919061185a565b602060405180830381600087803b1580156108f657600080fd5b505af115801561090a573d6000803e3d6000fd5b505050506040513d601f19601f8201168201806040525081019061092e9190611cda565b6109389190611f36565b925082866109469190611f90565b955060016003600086815260200190815260200160002060006101000a81548160ff021916908315150217905550848061097f90611fe6565b955050505b808061098f90611fe6565b91505061058a565b5060008411156109fc576109ab86856115bb565b50818673ffffffffffffffffffffffffffffffffffffffff167fe5b754fb1abb7f01b499791d0b820ae3b6af3424ac1c59768edb53f4ec31a929836040516109f3919061185a565b60405180910390a35b50505050505050565b60a081565b601281565b600660009054906101000a900473ffffffffffffffffffffffffffffffffffffffff1673ffffffffffffffffffffffffffffffffffffffff163373ffffffffffffffffffffffffffffffffffffffff1614610a6957600080fd5b610a71610acb565b811115610a7d57600080fd5b610a8782826115bb565b508060076000828254610a9a9190611f90565b925050819055505050565b60095481565b60036020528060005260406000206000915054906101000a900460ff1681565b60008060085460016201518060095442610ae5919061202f565b610aef9190612092565b610af99190611f90565b610b039190611f36565b9050600060075482610b15919061202f565b9050809250505090565b610b27611674565b73ffffffffffffffffffffffffffffffffffffffff16610b45610d88565b73ffffffffffffffffffffffffffffffffffffffff1614610b9b576040517f08c379a0000000000000000000000000000000000000000000000000000000008152600401610b9290612120565b60405180910390fd5b610ba5600061167c565b565b60085481565b600030905090565b6040518060400160405280600a81526020017f4d696772617461626c65000000000000000000000000000000000000000000008152506040518060400160405280600581526020017f312e322e31000000000000000000000000000000000000000000000000000000815250610c60826040518060400160405280600b81526020017f696e697469616c697a6564000000000000000000000000000000000000000000815250611742565b610c6a8282611742565b7fdd117a11c22118c9dee4b5a67ce578bc44529dce21ee0ccc439588fbb9fb4ea38282604051610c9b9291906121b7565b60405180910390a16001600083604051610cb5919061222a565b908152602001604051809103902082604051610cd1919061222a565b908152602001604051809103902060006101000a81548160ff0219169083151502179055506001600083604051610d08919061222a565b90815260200160405180910390206040518060400160405280600b81526020017f696e697469616c697a6564000000000000000000000000000000000000000000815250604051610d59919061222a565b908152602001604051809103902060006101000a81548160ff0219169083151502179055505050565b60075481565b6000600260009054906101000a900473ffffffffffffffffffffffffffffffffffffffff16905090565b600660009054906101000a900473ffffffffffffffffffffffffffffffffffffffff1681565b6000600160009054906101000a900473ffffffffffffffffffffffffffffffffffffffff1673ffffffffffffffffffffffffffffffffffffffff166370a08231306040518263ffffffff1660e01b8152600401610e3591906119b6565b60206040518083038186803b158015610e4d57600080fd5b505afa158015610e61573d6000803e3d6000fd5b505050506040513d601f19601f82011682018060405250810190610e859190611cda565b905090565b60008083604051610e9b919061222a565b908152602001604051809103902082604051610eb7919061222a565b908152602001604051809103902060009054906101000a900460ff16905092915050565b6040518060400160405280600881526020017f47616d65506f6f6c0000000000000000000000000000000000000000000000008152506040518060400160405280600381526020017f302e310000000000000000000000000000000000000000000000000000000000815250610f86826040518060400160405280600b81526020017f696e697469616c697a6564000000000000000000000000000000000000000000815250611742565b610f908282611742565b6000859050610f9e81610407565b600085905080600560006101000a81548173ffffffffffffffffffffffffffffffffffffffff021916908373ffffffffffffffffffffffffffffffffffffffff16021790555084600460006101000a81548173ffffffffffffffffffffffffffffffffffffffff021916908373ffffffffffffffffffffffffffffffffffffffff16021790555050507fdd117a11c22118c9dee4b5a67ce578bc44529dce21ee0ccc439588fbb9fb4ea382826040516110589291906121b7565b60405180910390a16001600083604051611072919061222a565b90815260200160405180910390208260405161108e919061222a565b908152602001604051809103902060006101000a81548160ff02191690831515021790555060016000836040516110c5919061222a565b90815260200160405180910390206040518060400160405280600b81526020017f696e697469616c697a6564000000000000000000000000000000000000000000815250604051611116919061222a565b908152602001604051809103902060006101000a81548160ff0219169083151502179055505050505050565b61114a611674565b73ffffffffffffffffffffffffffffffffffffffff16611168610d88565b73ffffffffffffffffffffffffffffffffffffffff16146111be576040517f08c379a00000000000000000000000000000000000000000000000000000000081526004016111b590612120565b60405180910390fd5b600160009054906101000a900473ffffffffffffffffffffffffffffffffffffffff1673ffffffffffffffffffffffffffffffffffffffff1663095ea7b382611205610dd8565b6040518363ffffffff1660e01b8152600401611222929190611d07565b602060405180830381600087803b15801561123c57600080fd5b505af1158015611250573d6000803e3d6000fd5b505050506040513d601f19601f820116820180604052508101906112749190611d5c565b50600081905080600160006101000a81548173ffffffffffffffffffffffffffffffffffffffff021916908373ffffffffffffffffffffffffffffffffffffffff1602179055508073ffffffffffffffffffffffffffffffffffffffff16635a8cadb1306040518263ffffffff1660e01b81526004016112f491906119b6565b600060405180830381600087803b15801561130e57600080fd5b505af1158015611322573d6000803e3d6000fd5b505050505050565b600560009054906101000a900473ffffffffffffffffffffffffffffffffffffffff1681565b611358611674565b73ffffffffffffffffffffffffffffffffffffffff16611376610d88565b73ffffffffffffffffffffffffffffffffffffffff16146113cc576040517f08c379a00000000000000000000000000000000000000000000000000000000081526004016113c390612120565b60405180910390fd5b80600660006101000a81548173ffffffffffffffffffffffffffffffffffffffff021916908373ffffffffffffffffffffffffffffffffffffffff16021790555050565b611418611674565b73ffffffffffffffffffffffffffffffffffffffff16611436610d88565b73ffffffffffffffffffffffffffffffffffffffff161461148c576040517f08c379a000000000000000000000000000000000000000000000000000000000815260040161148390612120565b60405180910390fd5b600073ffffffffffffffffffffffffffffffffffffffff168173ffffffffffffffffffffffffffffffffffffffff1614156114fc576040517f08c379a00000000000000000000000000000000000000000000000000000000081526004016114f3906122b3565b60405180910390fd5b6115058161167c565b50565b611510611674565b73ffffffffffffffffffffffffffffffffffffffff1661152e610d88565b73ffffffffffffffffffffffffffffffffffffffff1614611584576040517f08c379a000000000000000000000000000000000000000000000000000000000815260040161157b90612120565b60405180910390fd5b806008819055504260098190555050565b600160009054906101000a900473ffffffffffffffffffffffffffffffffffffffff1681565b6000600160009054906101000a900473ffffffffffffffffffffffffffffffffffffffff1673ffffffffffffffffffffffffffffffffffffffff1663a9059cbb84846040518363ffffffff1660e01b815260040161161a929190611d07565b602060405180830381600087803b15801561163457600080fd5b505af1158015611648573d6000803e3d6000fd5b505050506040513d601f19601f8201168201806040525081019061166c9190611d5c565b905092915050565b600033905090565b6000600260009054906101000a900473ffffffffffffffffffffffffffffffffffffffff16905081600260006101000a81548173ffffffffffffffffffffffffffffffffffffffff021916908373ffffffffffffffffffffffffffffffffffffffff1602179055508173ffffffffffffffffffffffffffffffffffffffff168173ffffffffffffffffffffffffffffffffffffffff167f8be0079c531659141344cd1fd0a4f28419497f9722a3daafe3b4186f6b6457e060405160405180910390a35050565b61174c8282610e8a565b1561178c576040517f08c379a000000000000000000000000000000000000000000000000000000000815260040161178390612345565b60405180910390fd5b5050565b6000604051905090565b600080fd5b600080fd5b600073ffffffffffffffffffffffffffffffffffffffff82169050919050565b60006117cf826117a4565b9050919050565b60006117e1826117c4565b9050919050565b6117f1816117d6565b81146117fc57600080fd5b50565b60008135905061180e816117e8565b92915050565b60006020828403121561182a5761182961179a565b5b6000611838848285016117ff565b91505092915050565b6000819050919050565b61185481611841565b82525050565b600060208201905061186f600083018461184b565b92915050565b600060ff82169050919050565b61188b81611875565b82525050565b60006020820190506118a66000830184611882565b92915050565b6118b5816117c4565b81146118c057600080fd5b50565b6000813590506118d2816118ac565b92915050565b6118e181611841565b81146118ec57600080fd5b50565b6000813590506118fe816118d8565b92915050565b6000806040838503121561191b5761191a61179a565b5b6000611929858286016118c3565b925050602061193a858286016118ef565b9150509250929050565b60006020828403121561195a5761195961179a565b5b6000611968848285016118ef565b91505092915050565b60008115159050919050565b61198681611971565b82525050565b60006020820190506119a1600083018461197d565b92915050565b6119b0816117c4565b82525050565b60006020820190506119cb60008301846119a7565b92915050565b600080fd5b600080fd5b6000601f19601f8301169050919050565b7f4e487b7100000000000000000000000000000000000000000000000000000000600052604160045260246000fd5b611a24826119db565b810181811067ffffffffffffffff82111715611a4357611a426119ec565b5b80604052505050565b6000611a56611790565b9050611a628282611a1b565b919050565b600067ffffffffffffffff821115611a8257611a816119ec565b5b611a8b826119db565b9050602081019050919050565b82818337600083830152505050565b6000611aba611ab584611a67565b611a4c565b905082815260208101848484011115611ad657611ad56119d6565b5b611ae1848285611a98565b509392505050565b600082601f830112611afe57611afd6119d1565b5b8135611b0e848260208601611aa7565b91505092915050565b60008060408385031215611b2e57611b2d61179a565b5b600083013567ffffffffffffffff811115611b4c57611b4b61179f565b5b611b5885828601611ae9565b925050602083013567ffffffffffffffff811115611b7957611b7861179f565b5b611b8585828601611ae9565b9150509250929050565b600080600060608486031215611ba857611ba761179a565b5b6000611bb6868287016118c3565b9350506020611bc7868287016118c3565b9250506040611bd8868287016118c3565b9150509250925092565b600060208284031215611bf857611bf761179a565b5b6000611c06848285016118c3565b91505092915050565b6000819050919050565b6000611c34611c2f611c2a846117a4565b611c0f565b6117a4565b9050919050565b6000611c4682611c19565b9050919050565b6000611c5882611c3b565b9050919050565b611c6881611c4d565b82525050565b6000602082019050611c836000830184611c5f565b92915050565b6000611c9482611c3b565b9050919050565b611ca481611c89565b82525050565b6000602082019050611cbf6000830184611c9b565b92915050565b600081519050611cd4816118d8565b92915050565b600060208284031215611cf057611cef61179a565b5b6000611cfe84828501611cc5565b91505092915050565b6000604082019050611d1c60008301856119a7565b611d29602083018461184b565b9392505050565b611d3981611971565b8114611d4457600080fd5b50565b600081519050611d5681611d30565b92915050565b600060208284031215611d7257611d7161179a565b5b6000611d8084828501611d47565b91505092915050565b7f4e487b7100000000000000000000000000000000000000000000000000000000600052601160045260246000fd5b60008160011c9050919050565b6000808291508390505b6001851115611e0f57808604811115611deb57611dea611d89565b5b6001851615611dfa5780820291505b8081029050611e0885611db8565b9450611dcf565b94509492505050565b600082611e285760019050611ee4565b81611e365760009050611ee4565b8160018114611e4c5760028114611e5657611e85565b6001915050611ee4565b60ff841115611e6857611e67611d89565b5b8360020a915084821115611e7f57611e7e611d89565b5b50611ee4565b5060208310610133831016604e8410600b8410161715611eba5782820a905083811115611eb557611eb4611d89565b5b611ee4565b611ec78484846001611dc5565b92509050818404811115611ede57611edd611d89565b5b81810290505b9392505050565b6000611ef682611841565b9150611f0183611841565b9250611f2e7fffffffffffffffffffffffffffffffffffffffffffffffffffffffffffffffff8484611e18565b905092915050565b6000611f4182611841565b9150611f4c83611841565b9250817fffffffffffffffffffffffffffffffffffffffffffffffffffffffffffffffff0483118215151615611f8557611f84611d89565b5b828202905092915050565b6000611f9b82611841565b9150611fa683611841565b9250827fffffffffffffffffffffffffffffffffffffffffffffffffffffffffffffffff03821115611fdb57611fda611d89565b5b828201905092915050565b6000611ff182611841565b91507fffffffffffffffffffffffffffffffffffffffffffffffffffffffffffffffff82141561202457612023611d89565b5b600182019050919050565b600061203a82611841565b915061204583611841565b92508282101561205857612057611d89565b5b828203905092915050565b7f4e487b7100000000000000000000000000000000000000000000000000000000600052601260045260246000fd5b600061209d82611841565b91506120a883611841565b9250826120b8576120b7612063565b5b828204905092915050565b600082825260208201905092915050565b7f4f776e61626c653a2063616c6c6572206973206e6f7420746865206f776e6572600082015250565b600061210a6020836120c3565b9150612115826120d4565b602082019050919050565b60006020820190508181036000830152612139816120fd565b9050919050565b600081519050919050565b60005b8381101561216957808201518184015260208101905061214e565b83811115612178576000848401525b50505050565b600061218982612140565b61219381856120c3565b93506121a381856020860161214b565b6121ac816119db565b840191505092915050565b600060408201905081810360008301526121d1818561217e565b905081810360208301526121e5818461217e565b90509392505050565b600081905092915050565b600061220482612140565b61220e81856121ee565b935061221e81856020860161214b565b80840191505092915050565b600061223682846121f9565b915081905092915050565b7f4f776e61626c653a206e6577206f776e657220697320746865207a65726f206160008201527f6464726573730000000000000000000000000000000000000000000000000000602082015250565b600061229d6026836120c3565b91506122a882612241565b604082019050919050565b600060208201905081810360008301526122cc81612290565b9050919050565b7f52657175657374656420746172676574206d6967726174696f6e20494420686160008201527f7320616c7265616479206265656e2072756e0000000000000000000000000000602082015250565b600061232f6032836120c3565b915061233a826122d3565b604082019050919050565b6000602082019050818103600083015261235e81612322565b905091905056fea2646970667358221220a08770471f531b7b4eac3e92d7e38fe548e6517ff29bbb270a0ef77f65cf8f9364736f6c63430008090033",
  "linkReferences": {},
  "deployedLinkReferences": {}
}