{
  "_format": "hh-sol-artifact-1",
  "contractName": "AdvisorPool",
  "sourceName": "contracts/pools/advisor/AdvisorPool.sol",
  "abi": [
    {
      "anonymous": false,
      "inputs": [
        {
          "indexed": true,
          "internalType": "address",
          "name": "previousOwner",
          "type": "address"
        },
        {
          "indexed": true,
          "internalType": "address",
          "name": "newOwner",
          "type": "address"
        }
      ],
      "name": "OwnershipTransferred",
      "type": "event"
    },
    {
      "inputs": [
        {
          "internalType": "address",
          "name": "_beneficiary",
          "type": "address"
        },
        {
          "internalType": "uint256",
          "name": "_start",
          "type": "uint256"
        },
        {
          "internalType": "uint256",
          "name": "_cliff",
          "type": "uint256"
        },
        {
          "internalType": "uint256",
          "name": "_duration",
          "type": "uint256"
        },
        {
          "internalType": "uint256",
          "name": "totalTokens",
          "type": "uint256"
        }
      ],
      "name": "addVestor",
      "outputs": [
        {
          "internalType": "contract TokenVesting",
          "name": "",
          "type": "address"
        }
      ],
      "stateMutability": "nonpayable",
      "type": "function"
    },
    {
      "inputs": [],
      "name": "balance",
      "outputs": [
        {
          "internalType": "uint256",
          "name": "",
          "type": "uint256"
        }
      ],
      "stateMutability": "view",
      "type": "function"
    },
    {
      "inputs": [],
      "name": "getFrom",
      "outputs": [
        {
          "internalType": "address",
          "name": "",
          "type": "address"
        }
      ],
      "stateMutability": "view",
      "type": "function"
    },
    {
      "inputs": [],
      "name": "owner",
      "outputs": [
        {
          "internalType": "address",
          "name": "",
          "type": "address"
        }
      ],
      "stateMutability": "view",
      "type": "function"
    },
    {
      "inputs": [],
      "name": "renounceOwnership",
      "outputs": [],
      "stateMutability": "nonpayable",
      "type": "function"
    },
    {
      "inputs": [
        {
          "internalType": "contract IERC20",
          "name": "newToken",
          "type": "address"
        }
      ],
      "name": "setToken",
      "outputs": [],
      "stateMutability": "nonpayable",
      "type": "function"
    },
    {
      "inputs": [],
      "name": "token",
      "outputs": [
        {
          "internalType": "contract IERC20",
          "name": "",
          "type": "address"
        }
      ],
      "stateMutability": "view",
      "type": "function"
    },
    {
      "inputs": [
        {
          "internalType": "address",
          "name": "_beneficiary",
          "type": "address"
        },
        {
          "internalType": "uint256",
          "name": "amount",
          "type": "uint256"
        }
      ],
      "name": "transfer",
      "outputs": [
        {
          "internalType": "bool",
          "name": "",
          "type": "bool"
        }
      ],
      "stateMutability": "nonpayable",
      "type": "function"
    },
    {
      "inputs": [
        {
          "internalType": "address",
          "name": "newOwner",
          "type": "address"
        }
      ],
      "name": "transferOwnership",
      "outputs": [],
      "stateMutability": "nonpayable",
      "type": "function"
    }
  ],
  "bytecode": "0x608060405234801561001057600080fd5b5061002d61002261003260201b60201c565b61003a60201b60201c565b610100565b600033905090565b6000600160009054906101000a900473ffffffffffffffffffffffffffffffffffffffff16905081600160006101000a81548173ffffffffffffffffffffffffffffffffffffffff021916908373ffffffffffffffffffffffffffffffffffffffff1602179055508173ffffffffffffffffffffffffffffffffffffffff168173ffffffffffffffffffffffffffffffffffffffff167f8be0079c531659141344cd1fd0a4f28419497f9722a3daafe3b4186f6b6457e060405160405180910390a35050565b6124508061010f6000396000f3fe60806040523480156200001157600080fd5b5060043610620000a05760003560e01c80638da5cb5b116200006f5780638da5cb5b1462000129578063a9059cbb146200014b578063b69ef8a81462000181578063f2fde38b14620001a3578063fc0c546a14620001c357620000a0565b8063144fa6d714620000a557806345bb3d5e14620000c5578063715018a614620000fb578063798fd1781462000107575b600080fd5b620000c36004803603810190620000bd919062000970565b620001e5565b005b620000e36004803603810190620000dd919062000a0e565b62000282565b604051620000f2919062000b01565b60405180910390f35b62000105620003c2565b005b6200011162000453565b60405162000120919062000b2f565b60405180910390f35b620001336200045b565b60405162000142919062000b2f565b60405180910390f35b62000169600480360381019062000163919062000b4c565b62000485565b60405162000178919062000bb0565b60405180910390f35b6200018b62000579565b6040516200019a919062000bde565b60405180910390f35b620001c16004803603810190620001bb919062000bfb565b62000630565b005b620001cd62000734565b604051620001dc919062000c52565b60405180910390f35b600073ffffffffffffffffffffffffffffffffffffffff1660008054906101000a900473ffffffffffffffffffffffffffffffffffffffff1673ffffffffffffffffffffffffffffffffffffffff16146200023f57600080fd5b806000806101000a81548173ffffffffffffffffffffffffffffffffffffffff021916908373ffffffffffffffffffffffffffffffffffffffff16021790555050565b60006200028e62000758565b73ffffffffffffffffffffffffffffffffffffffff16620002ae6200045b565b73ffffffffffffffffffffffffffffffffffffffff161462000307576040517f08c379a0000000000000000000000000000000000000000000000000000000008152600401620002fe9062000cd0565b60405180910390fd5b600073ffffffffffffffffffffffffffffffffffffffff1660008054906101000a900473ffffffffffffffffffffffffffffffffffffffff1673ffffffffffffffffffffffffffffffffffffffff1614156200036257600080fd5b60008686868660006040516200037890620008e4565b6200038895949392919062000cf2565b604051809103906000f080158015620003a5573d6000803e3d6000fd5b509050620003b4818462000760565b508091505095945050505050565b620003cc62000758565b73ffffffffffffffffffffffffffffffffffffffff16620003ec6200045b565b73ffffffffffffffffffffffffffffffffffffffff161462000445576040517f08c379a00000000000000000000000000000000000000000000000000000000081526004016200043c9062000cd0565b60405180910390fd5b6200045160006200081e565b565b600030905090565b6000600160009054906101000a900473ffffffffffffffffffffffffffffffffffffffff16905090565b60006200049162000758565b73ffffffffffffffffffffffffffffffffffffffff16620004b16200045b565b73ffffffffffffffffffffffffffffffffffffffff16146200050a576040517f08c379a0000000000000000000000000000000000000000000000000000000008152600401620005019062000cd0565b60405180910390fd5b600073ffffffffffffffffffffffffffffffffffffffff1660008054906101000a900473ffffffffffffffffffffffffffffffffffffffff1673ffffffffffffffffffffffffffffffffffffffff1614156200056557600080fd5b62000571838362000760565b905092915050565b60008060009054906101000a900473ffffffffffffffffffffffffffffffffffffffff1673ffffffffffffffffffffffffffffffffffffffff166370a08231306040518263ffffffff1660e01b8152600401620005d7919062000b2f565b60206040518083038186803b158015620005f057600080fd5b505afa15801562000605573d6000803e3d6000fd5b505050506040513d601f19601f820116820180604052508101906200062b919062000d66565b905090565b6200063a62000758565b73ffffffffffffffffffffffffffffffffffffffff166200065a6200045b565b73ffffffffffffffffffffffffffffffffffffffff1614620006b3576040517f08c379a0000000000000000000000000000000000000000000000000000000008152600401620006aa9062000cd0565b60405180910390fd5b600073ffffffffffffffffffffffffffffffffffffffff168173ffffffffffffffffffffffffffffffffffffffff16141562000726576040517f08c379a00000000000000000000000000000000000000000000000000000000081526004016200071d9062000e0e565b60405180910390fd5b62000731816200081e565b50565b60008054906101000a900473ffffffffffffffffffffffffffffffffffffffff1681565b600033905090565b60008060009054906101000a900473ffffffffffffffffffffffffffffffffffffffff1673ffffffffffffffffffffffffffffffffffffffff1663a9059cbb84846040518363ffffffff1660e01b8152600401620007c092919062000e30565b602060405180830381600087803b158015620007db57600080fd5b505af1158015620007f0573d6000803e3d6000fd5b505050506040513d601f19601f8201168201806040525081019062000816919062000e8e565b905092915050565b6000600160009054906101000a900473ffffffffffffffffffffffffffffffffffffffff16905081600160006101000a81548173ffffffffffffffffffffffffffffffffffffffff021916908373ffffffffffffffffffffffffffffffffffffffff1602179055508173ffffffffffffffffffffffffffffffffffffffff168173ffffffffffffffffffffffffffffffffffffffff167f8be0079c531659141344cd1fd0a4f28419497f9722a3daafe3b4186f6b6457e060405160405180910390a35050565b61155a8062000ec183390190565b600080fd5b600073ffffffffffffffffffffffffffffffffffffffff82169050919050565b60006200092482620008f7565b9050919050565b6000620009388262000917565b9050919050565b6200094a816200092b565b81146200095657600080fd5b50565b6000813590506200096a816200093f565b92915050565b600060208284031215620009895762000988620008f2565b5b6000620009998482850162000959565b91505092915050565b620009ad8162000917565b8114620009b957600080fd5b50565b600081359050620009cd81620009a2565b92915050565b6000819050919050565b620009e881620009d3565b8114620009f457600080fd5b50565b60008135905062000a0881620009dd565b92915050565b600080600080600060a0868803121562000a2d5762000a2c620008f2565b5b600062000a3d88828901620009bc565b955050602062000a5088828901620009f7565b945050604062000a6388828901620009f7565b935050606062000a7688828901620009f7565b925050608062000a8988828901620009f7565b9150509295509295909350565b6000819050919050565b600062000ac162000abb62000ab584620008f7565b62000a96565b620008f7565b9050919050565b600062000ad58262000aa0565b9050919050565b600062000ae98262000ac8565b9050919050565b62000afb8162000adc565b82525050565b600060208201905062000b18600083018462000af0565b92915050565b62000b298162000917565b82525050565b600060208201905062000b46600083018462000b1e565b92915050565b6000806040838503121562000b665762000b65620008f2565b5b600062000b7685828601620009bc565b925050602062000b8985828601620009f7565b9150509250929050565b60008115159050919050565b62000baa8162000b93565b82525050565b600060208201905062000bc7600083018462000b9f565b92915050565b62000bd881620009d3565b82525050565b600060208201905062000bf5600083018462000bcd565b92915050565b60006020828403121562000c145762000c13620008f2565b5b600062000c2484828501620009bc565b91505092915050565b600062000c3a8262000ac8565b9050919050565b62000c4c8162000c2d565b82525050565b600060208201905062000c69600083018462000c41565b92915050565b600082825260208201905092915050565b7f4f776e61626c653a2063616c6c6572206973206e6f7420746865206f776e6572600082015250565b600062000cb860208362000c6f565b915062000cc58262000c80565b602082019050919050565b6000602082019050818103600083015262000ceb8162000ca9565b9050919050565b600060a08201905062000d09600083018862000b1e565b62000d18602083018762000bcd565b62000d27604083018662000bcd565b62000d36606083018562000bcd565b62000d45608083018462000b9f565b9695505050505050565b60008151905062000d6081620009dd565b92915050565b60006020828403121562000d7f5762000d7e620008f2565b5b600062000d8f8482850162000d4f565b91505092915050565b7f4f776e61626c653a206e6577206f776e657220697320746865207a65726f206160008201527f6464726573730000000000000000000000000000000000000000000000000000602082015250565b600062000df660268362000c6f565b915062000e038262000d98565b604082019050919050565b6000602082019050818103600083015262000e298162000de7565b9050919050565b600060408201905062000e47600083018562000b1e565b62000e56602083018462000bcd565b9392505050565b62000e688162000b93565b811462000e7457600080fd5b50565b60008151905062000e888162000e5d565b92915050565b60006020828403121562000ea75762000ea6620008f2565b5b600062000eb78482850162000e77565b9150509291505056fe60806040523480156200001157600080fd5b506040516200155a3803806200155a8339818101604052810190620000379190620002fa565b620000576200004b6200013460201b60201c565b6200013c60201b60201c565b600073ffffffffffffffffffffffffffffffffffffffff168573ffffffffffffffffffffffffffffffffffffffff1614156200009257600080fd5b81831115620000a057600080fd5b84600160006101000a81548173ffffffffffffffffffffffffffffffffffffffff021916908373ffffffffffffffffffffffffffffffffffffffff16021790555080600560006101000a81548160ff021916908315150217905550816004819055506200011c83856200020060201b62000b611790919060201c565b6002819055508360038190555050505050506200040e565b600033905090565b60008060009054906101000a900473ffffffffffffffffffffffffffffffffffffffff169050816000806101000a81548173ffffffffffffffffffffffffffffffffffffffff021916908373ffffffffffffffffffffffffffffffffffffffff1602179055508173ffffffffffffffffffffffffffffffffffffffff168173ffffffffffffffffffffffffffffffffffffffff167f8be0079c531659141344cd1fd0a4f28419497f9722a3daafe3b4186f6b6457e060405160405180910390a35050565b60008183620002109190620003b1565b905092915050565b600080fd5b600073ffffffffffffffffffffffffffffffffffffffff82169050919050565b60006200024a826200021d565b9050919050565b6200025c816200023d565b81146200026857600080fd5b50565b6000815190506200027c8162000251565b92915050565b6000819050919050565b620002978162000282565b8114620002a357600080fd5b50565b600081519050620002b7816200028c565b92915050565b60008115159050919050565b620002d481620002bd565b8114620002e057600080fd5b50565b600081519050620002f481620002c9565b92915050565b600080600080600060a0868803121562000319576200031862000218565b5b600062000329888289016200026b565b95505060206200033c88828901620002a6565b94505060406200034f88828901620002a6565b93505060606200036288828901620002a6565b92505060806200037588828901620002e3565b9150509295509295909350565b7f4e487b7100000000000000000000000000000000000000000000000000000000600052601160045260246000fd5b6000620003be8262000282565b9150620003cb8362000282565b9250827fffffffffffffffffffffffffffffffffffffffffffffffffffffffffffffffff0382111562000403576200040262000382565b5b828201905092915050565b61113c806200041e6000396000f3fe608060405234801561001057600080fd5b50600436106100ea5760003560e01c806374a8f1031161008c5780639852595c116100665780639852595c14610227578063be9a655514610257578063f2fde38b14610275578063fa01dc0614610291576100ea565b806374a8f103146101cf578063872a7810146101eb5780638da5cb5b14610209576100ea565b806319165587116100c8578063191655871461015b578063384711cc1461017757806338af3eed146101a7578063715018a6146101c5576100ea565b80630fb5a6b4146100ef57806313d033c01461010d5780631726cbc81461012b575b600080fd5b6100f76102c1565b6040516101049190610c9e565b60405180910390f35b6101156102c7565b6040516101229190610c9e565b60405180910390f35b61014560048036038101906101409190610d1c565b6102cd565b6040516101529190610c9e565b60405180910390f35b61017560048036038101906101709190610d1c565b610330565b005b610191600480360381019061018c9190610d1c565b6104ca565b60405161019e9190610c9e565b60405180910390f35b6101af610685565b6040516101bc9190610d58565b60405180910390f35b6101cd6106ab565b005b6101e960048036038101906101e49190610d1c565b610733565b005b6101f36109ef565b6040516102009190610d8e565b60405180910390f35b610211610a02565b60405161021e9190610d58565b60405180910390f35b610241600480360381019061023c9190610d1c565b610a2b565b60405161024e9190610c9e565b60405180910390f35b61025f610a43565b60405161026c9190610c9e565b60405180910390f35b61028f600480360381019061028a9190610d1c565b610a49565b005b6102ab60048036038101906102a69190610d1c565b610b41565b6040516102b89190610d8e565b60405180910390f35b60045481565b60025481565b6000610329600660008473ffffffffffffffffffffffffffffffffffffffff1673ffffffffffffffffffffffffffffffffffffffff1681526020019081526020016000205461031b846104ca565b610b7790919063ffffffff16565b9050919050565b600061033b826102cd565b90506000811161034a57600080fd5b61039c81600660008573ffffffffffffffffffffffffffffffffffffffff1673ffffffffffffffffffffffffffffffffffffffff16815260200190815260200160002054610b6190919063ffffffff16565b600660008473ffffffffffffffffffffffffffffffffffffffff1673ffffffffffffffffffffffffffffffffffffffff168152602001908152602001600020819055508173ffffffffffffffffffffffffffffffffffffffff1663a9059cbb600160009054906101000a900473ffffffffffffffffffffffffffffffffffffffff16836040518363ffffffff1660e01b815260040161043c929190610da9565b602060405180830381600087803b15801561045657600080fd5b505af115801561046a573d6000803e3d6000fd5b505050506040513d601f19601f8201168201806040525081019061048e9190610dfe565b507ffb81f9b30d73d830c3544b34d827c08142579ee75710b490bab0b3995468c565816040516104be9190610c9e565b60405180910390a15050565b6000808273ffffffffffffffffffffffffffffffffffffffff166370a08231306040518263ffffffff1660e01b81526004016105069190610d58565b60206040518083038186803b15801561051e57600080fd5b505afa158015610532573d6000803e3d6000fd5b505050506040513d601f19601f820116820180604052508101906105569190610e57565b905060006105ac600660008673ffffffffffffffffffffffffffffffffffffffff1673ffffffffffffffffffffffffffffffffffffffff1681526020019081526020016000205483610b6190919063ffffffff16565b90506002544210156105c357600092505050610680565b6105da600454600354610b6190919063ffffffff16565b421015806106315750600760008573ffffffffffffffffffffffffffffffffffffffff1673ffffffffffffffffffffffffffffffffffffffff16815260200190815260200160002060009054906101000a900460ff165b15610640578092505050610680565b61067b60045461066d61065e60035442610b7790919063ffffffff16565b84610b8d90919063ffffffff16565b610ba390919063ffffffff16565b925050505b919050565b600160009054906101000a900473ffffffffffffffffffffffffffffffffffffffff1681565b6106b3610bb9565b73ffffffffffffffffffffffffffffffffffffffff166106d1610a02565b73ffffffffffffffffffffffffffffffffffffffff1614610727576040517f08c379a000000000000000000000000000000000000000000000000000000000815260040161071e90610ee1565b60405180910390fd5b6107316000610bc1565b565b61073b610bb9565b73ffffffffffffffffffffffffffffffffffffffff16610759610a02565b73ffffffffffffffffffffffffffffffffffffffff16146107af576040517f08c379a00000000000000000000000000000000000000000000000000000000081526004016107a690610ee1565b60405180910390fd5b600560009054906101000a900460ff166107c857600080fd5b600760008273ffffffffffffffffffffffffffffffffffffffff1673ffffffffffffffffffffffffffffffffffffffff16815260200190815260200160002060009054906101000a900460ff161561081f57600080fd5b60008173ffffffffffffffffffffffffffffffffffffffff166370a08231306040518263ffffffff1660e01b815260040161085a9190610d58565b60206040518083038186803b15801561087257600080fd5b505afa158015610886573d6000803e3d6000fd5b505050506040513d601f19601f820116820180604052508101906108aa9190610e57565b905060006108b7836102cd565b905060006108ce8284610b7790919063ffffffff16565b90506001600760008673ffffffffffffffffffffffffffffffffffffffff1673ffffffffffffffffffffffffffffffffffffffff16815260200190815260200160002060006101000a81548160ff0219169083151502179055508373ffffffffffffffffffffffffffffffffffffffff1663a9059cbb61094c610a02565b836040518363ffffffff1660e01b815260040161096a929190610da9565b602060405180830381600087803b15801561098457600080fd5b505af1158015610998573d6000803e3d6000fd5b505050506040513d601f19601f820116820180604052508101906109bc9190610dfe565b507f44825a4b2df8acb19ce4e1afba9aa850c8b65cdb7942e2078f27d0b0960efee660405160405180910390a150505050565b600560009054906101000a900460ff1681565b60008060009054906101000a900473ffffffffffffffffffffffffffffffffffffffff16905090565b60066020528060005260406000206000915090505481565b60035481565b610a51610bb9565b73ffffffffffffffffffffffffffffffffffffffff16610a6f610a02565b73ffffffffffffffffffffffffffffffffffffffff1614610ac5576040517f08c379a0000000000000000000000000000000000000000000000000000000008152600401610abc90610ee1565b60405180910390fd5b600073ffffffffffffffffffffffffffffffffffffffff168173ffffffffffffffffffffffffffffffffffffffff161415610b35576040517f08c379a0000000000000000000000000000000000000000000000000000000008152600401610b2c90610f73565b60405180910390fd5b610b3e81610bc1565b50565b60076020528060005260406000206000915054906101000a900460ff1681565b60008183610b6f9190610fc2565b905092915050565b60008183610b859190611018565b905092915050565b60008183610b9b919061104c565b905092915050565b60008183610bb191906110d5565b905092915050565b600033905090565b60008060009054906101000a900473ffffffffffffffffffffffffffffffffffffffff169050816000806101000a81548173ffffffffffffffffffffffffffffffffffffffff021916908373ffffffffffffffffffffffffffffffffffffffff1602179055508173ffffffffffffffffffffffffffffffffffffffff168173ffffffffffffffffffffffffffffffffffffffff167f8be0079c531659141344cd1fd0a4f28419497f9722a3daafe3b4186f6b6457e060405160405180910390a35050565b6000819050919050565b610c9881610c85565b82525050565b6000602082019050610cb36000830184610c8f565b92915050565b600080fd5b600073ffffffffffffffffffffffffffffffffffffffff82169050919050565b6000610ce982610cbe565b9050919050565b610cf981610cde565b8114610d0457600080fd5b50565b600081359050610d1681610cf0565b92915050565b600060208284031215610d3257610d31610cb9565b5b6000610d4084828501610d07565b91505092915050565b610d5281610cde565b82525050565b6000602082019050610d6d6000830184610d49565b92915050565b60008115159050919050565b610d8881610d73565b82525050565b6000602082019050610da36000830184610d7f565b92915050565b6000604082019050610dbe6000830185610d49565b610dcb6020830184610c8f565b9392505050565b610ddb81610d73565b8114610de657600080fd5b50565b600081519050610df881610dd2565b92915050565b600060208284031215610e1457610e13610cb9565b5b6000610e2284828501610de9565b91505092915050565b610e3481610c85565b8114610e3f57600080fd5b50565b600081519050610e5181610e2b565b92915050565b600060208284031215610e6d57610e6c610cb9565b5b6000610e7b84828501610e42565b91505092915050565b600082825260208201905092915050565b7f4f776e61626c653a2063616c6c6572206973206e6f7420746865206f776e6572600082015250565b6000610ecb602083610e84565b9150610ed682610e95565b602082019050919050565b60006020820190508181036000830152610efa81610ebe565b9050919050565b7f4f776e61626c653a206e6577206f776e657220697320746865207a65726f206160008201527f6464726573730000000000000000000000000000000000000000000000000000602082015250565b6000610f5d602683610e84565b9150610f6882610f01565b604082019050919050565b60006020820190508181036000830152610f8c81610f50565b9050919050565b7f4e487b7100000000000000000000000000000000000000000000000000000000600052601160045260246000fd5b6000610fcd82610c85565b9150610fd883610c85565b9250827fffffffffffffffffffffffffffffffffffffffffffffffffffffffffffffffff0382111561100d5761100c610f93565b5b828201905092915050565b600061102382610c85565b915061102e83610c85565b92508282101561104157611040610f93565b5b828203905092915050565b600061105782610c85565b915061106283610c85565b9250817fffffffffffffffffffffffffffffffffffffffffffffffffffffffffffffffff048311821515161561109b5761109a610f93565b5b828202905092915050565b7f4e487b7100000000000000000000000000000000000000000000000000000000600052601260045260246000fd5b60006110e082610c85565b91506110eb83610c85565b9250826110fb576110fa6110a6565b5b82820490509291505056fea26469706673582212207bb003792d45c536c820876f68c644cd6f2a8b7fe8baa46083fbff996730131464736f6c63430008090033a26469706673582212209b0a5815b5dfe26165cf7399ceeb77a30d1c49d0620fa3c3173ee356b03a644c64736f6c63430008090033",
  "linkReferences": {},
  "deployedLinkReferences": {}
}