{
  "contracts/pools/TokenPool.sol": {
    "TokenPool": {
      "abi": [
        {
          "inputs": [],
          "name": "balance",
          "outputs": [
            {
              "internalType": "uint256",
              "name": "",
              "type": "uint256"
            }
          ],
          "stateMutability": "view",
          "type": "function"
        },
        {
          "inputs": [],
          "name": "getFrom",
          "outputs": [
            {
              "internalType": "address",
              "name": "",
              "type": "address"
            }
          ],
          "stateMutability": "view",
          "type": "function"
        },
        {
          "inputs": [
            {
              "internalType": "contract IERC20",
              "name": "newToken",
              "type": "address"
            }
          ],
          "name": "setToken",
          "outputs": [],
          "stateMutability": "nonpayable",
          "type": "function"
        },
        {
          "inputs": [],
          "name": "token",
          "outputs": [
            {
              "internalType": "contract IERC20",
              "name": "",
              "type": "address"
            }
          ],
          "stateMutability": "view",
          "type": "function"
        }
      ],
      "evm": {
        "bytecode": {
          "linkReferences": {},
          "object": "60806040523480156100195760008061001661001f565b50505b5061008d565b632a2a7adb598160e01b8152600481016020815285602082015260005b8681101561005a57808601518160408401015260208101905061003c565b506020828760640184336000905af158600e01573d6000803e3d6000fd5b3d6001141558600a015760016000f35b505050565b6106738061009c6000396000f3fe6080604052348015610019576000806100166103da565b50505b50600436106100555760003560e01c8063144fa6d714610063578063798fd178146100b0578063b69ef8a8146100e4578063fc0c546a14610102575b6000806100606103da565b50505b6100ae600480360360208110156100825760008061007f6103da565b50505b81019080803573ffffffffffffffffffffffffffffffffffffffff169060200190929190505050610136565b005b6100b86101f2565b604051808273ffffffffffffffffffffffffffffffffffffffff16815260200191505060405180910390f35b6100ec610255565b6040518082815260200191505060405180910390f35b61010a6103af565b604051808273ffffffffffffffffffffffffffffffffffffffff16815260200191505060405180910390f35b600073ffffffffffffffffffffffffffffffffffffffff16600080610159610448565b906101000a900473ffffffffffffffffffffffffffffffffffffffff1673ffffffffffffffffffffffffffffffffffffffff161461019f5760008061019c6103da565b50505b806000806101000a816101b0610448565b8173ffffffffffffffffffffffffffffffffffffffff021916908373ffffffffffffffffffffffffffffffffffffffff160217906101ec6104ab565b50505050565b60005a63996d79a5598160e01b8152602081600483336000905af158600e01573d6000803e3d6000fd5b3d6001141558600a015760016000f35b8051925060005b604081101561024d57600081830152602081019050610233565b505050905090565b600080600090610263610448565b906101000a900473ffffffffffffffffffffffffffffffffffffffff1673ffffffffffffffffffffffffffffffffffffffff166370a082315a63996d79a5598160e01b8152602081600483336000905af158600e01573d6000803e3d6000fd5b3d6001141558600a015760016000f35b8051925060005b60408110156102f4576000818301526020810190506102da565b5050506040518263ffffffff1660e01b8152600401808273ffffffffffffffffffffffffffffffffffffffff168152602001915050602060405180830381868061033c610510565b1580156103515760008061034e6103da565b50505b505a61035b610573565b505050505015801561037a573d6000803e3d60006103776103da565b50505b505050506040513d6020811015610399576000806103966103da565b50505b8101908080519060200190929190505050905090565b6000806103ba610448565b906101000a900473ffffffffffffffffffffffffffffffffffffffff1681565b632a2a7adb598160e01b8152600481016020815285602082015260005b868110156104155780860151816040840101526020810190506103f7565b506020828760640184336000905af158600e01573d6000803e3d6000fd5b3d6001141558600a015760016000f35b505050565b6303daa959598160e01b8152836004820152602081602483336000905af158600e01573d6000803e3d6000fd5b3d6001141558600a015760016000f35b8051935060005b60408110156104a65760008183015260208101905061048c565b505050565b6322bd64c0598160e01b8152836004820152846024820152600081604483336000905af158600e01573d6000803e3d6000fd5b3d6001141558600a015760016000f35b60005b604081101561050b576000818301526020810190506104f1565b505050565b638435035b598160e01b8152836004820152602081602483336000905af158600e01573d6000803e3d6000fd5b3d6001141558600a015760016000f35b8051935060005b604081101561056e57600081830152602081019050610554565b505050565b638540661f598160e01b81526105b2565b600081905081831115610595578290505b92915050565b6000819050818310156105ac578290505b92915050565b836004820152846024820152606060448201528660648201526084810160005b888110156105ed5780880151818301526020810190506105d2565b506060828960a40184336000905af158600e01573d6000803e3d6000fd5b3d6001141558600a015760016000f35b815160408301513d6000853e8b8b82606087013350600060045af150596106428d3d61059b565b8c0161064e8187610584565b5b82811015610666576000815260208101905061064f565b50839d505050505050505056",
          "opcodes": "PUSH1 0x80 PUSH1 0x40 MSTORE CALLVALUE DUP1 ISZERO PUSH2 0x19 JUMPI PUSH1 0x0 DUP1 PUSH2 0x16 PUSH2 0x1F JUMP JUMPDEST POP POP JUMPDEST POP PUSH2 0x8D JUMP JUMPDEST PUSH4 0x2A2A7ADB MSIZE DUP2 PUSH1 0xE0 SHL DUP2 MSTORE PUSH1 0x4 DUP2 ADD PUSH1 0x20 DUP2 MSTORE DUP6 PUSH1 0x20 DUP3 ADD MSTORE PUSH1 0x0 JUMPDEST DUP7 DUP2 LT ISZERO PUSH2 0x5A JUMPI DUP1 DUP7 ADD MLOAD DUP2 PUSH1 0x40 DUP5 ADD ADD MSTORE PUSH1 0x20 DUP2 ADD SWAP1 POP PUSH2 0x3C JUMP JUMPDEST POP PUSH1 0x20 DUP3 DUP8 PUSH1 0x64 ADD DUP5 CALLER PUSH1 0x0 SWAP1 GAS CALL PC PUSH1 0xE ADD JUMPI RETURNDATASIZE PUSH1 0x0 DUP1 RETURNDATACOPY RETURNDATASIZE PUSH1 0x0 REVERT JUMPDEST RETURNDATASIZE PUSH1 0x1 EQ ISZERO PC PUSH1 0xA ADD JUMPI PUSH1 0x1 PUSH1 0x0 RETURN JUMPDEST POP POP POP JUMP JUMPDEST PUSH2 0x673 DUP1 PUSH2 0x9C PUSH1 0x0 CODECOPY PUSH1 0x0 RETURN INVALID PUSH1 0x80 PUSH1 0x40 MSTORE CALLVALUE DUP1 ISZERO PUSH2 0x19 JUMPI PUSH1 0x0 DUP1 PUSH2 0x16 PUSH2 0x3DA JUMP JUMPDEST POP POP JUMPDEST POP PUSH1 0x4 CALLDATASIZE LT PUSH2 0x55 JUMPI PUSH1 0x0 CALLDATALOAD PUSH1 0xE0 SHR DUP1 PUSH4 0x144FA6D7 EQ PUSH2 0x63 JUMPI DUP1 PUSH4 0x798FD178 EQ PUSH2 0xB0 JUMPI DUP1 PUSH4 0xB69EF8A8 EQ PUSH2 0xE4 JUMPI DUP1 PUSH4 0xFC0C546A EQ PUSH2 0x102 JUMPI JUMPDEST PUSH1 0x0 DUP1 PUSH2 0x60 PUSH2 0x3DA JUMP JUMPDEST POP POP JUMPDEST PUSH2 0xAE PUSH1 0x4 DUP1 CALLDATASIZE SUB PUSH1 0x20 DUP2 LT ISZERO PUSH2 0x82 JUMPI PUSH1 0x0 DUP1 PUSH2 0x7F PUSH2 0x3DA JUMP JUMPDEST POP POP JUMPDEST DUP2 ADD SWAP1 DUP1 DUP1 CALLDATALOAD PUSH20 0xFFFFFFFFFFFFFFFFFFFFFFFFFFFFFFFFFFFFFFFF AND SWAP1 PUSH1 0x20 ADD SWAP1 SWAP3 SWAP2 SWAP1 POP POP POP PUSH2 0x136 JUMP JUMPDEST STOP JUMPDEST PUSH2 0xB8 PUSH2 0x1F2 JUMP JUMPDEST PUSH1 0x40 MLOAD DUP1 DUP3 PUSH20 0xFFFFFFFFFFFFFFFFFFFFFFFFFFFFFFFFFFFFFFFF AND DUP2 MSTORE PUSH1 0x20 ADD SWAP2 POP POP PUSH1 0x40 MLOAD DUP1 SWAP2 SUB SWAP1 RETURN JUMPDEST PUSH2 0xEC PUSH2 0x255 JUMP JUMPDEST PUSH1 0x40 MLOAD DUP1 DUP3 DUP2 MSTORE PUSH1 0x20 ADD SWAP2 POP POP PUSH1 0x40 MLOAD DUP1 SWAP2 SUB SWAP1 RETURN JUMPDEST PUSH2 0x10A PUSH2 0x3AF JUMP JUMPDEST PUSH1 0x40 MLOAD DUP1 DUP3 PUSH20 0xFFFFFFFFFFFFFFFFFFFFFFFFFFFFFFFFFFFFFFFF AND DUP2 MSTORE PUSH1 0x20 ADD SWAP2 POP POP PUSH1 0x40 MLOAD DUP1 SWAP2 SUB SWAP1 RETURN JUMPDEST PUSH1 0x0 PUSH20 0xFFFFFFFFFFFFFFFFFFFFFFFFFFFFFFFFFFFFFFFF AND PUSH1 0x0 DUP1 PUSH2 0x159 PUSH2 0x448 JUMP JUMPDEST SWAP1 PUSH2 0x100 EXP SWAP1 DIV PUSH20 0xFFFFFFFFFFFFFFFFFFFFFFFFFFFFFFFFFFFFFFFF AND PUSH20 0xFFFFFFFFFFFFFFFFFFFFFFFFFFFFFFFFFFFFFFFF AND EQ PUSH2 0x19F JUMPI PUSH1 0x0 DUP1 PUSH2 0x19C PUSH2 0x3DA JUMP JUMPDEST POP POP JUMPDEST DUP1 PUSH1 0x0 DUP1 PUSH2 0x100 EXP DUP2 PUSH2 0x1B0 PUSH2 0x448 JUMP JUMPDEST DUP2 PUSH20 0xFFFFFFFFFFFFFFFFFFFFFFFFFFFFFFFFFFFFFFFF MUL NOT AND SWAP1 DUP4 PUSH20 0xFFFFFFFFFFFFFFFFFFFFFFFFFFFFFFFFFFFFFFFF AND MUL OR SWAP1 PUSH2 0x1EC PUSH2 0x4AB JUMP JUMPDEST POP POP POP POP JUMP JUMPDEST PUSH1 0x0 GAS PUSH4 0x996D79A5 MSIZE DUP2 PUSH1 0xE0 SHL DUP2 MSTORE PUSH1 0x20 DUP2 PUSH1 0x4 DUP4 CALLER PUSH1 0x0 SWAP1 GAS CALL PC PUSH1 0xE ADD JUMPI RETURNDATASIZE PUSH1 0x0 DUP1 RETURNDATACOPY RETURNDATASIZE PUSH1 0x0 REVERT JUMPDEST RETURNDATASIZE PUSH1 0x1 EQ ISZERO PC PUSH1 0xA ADD JUMPI PUSH1 0x1 PUSH1 0x0 RETURN JUMPDEST DUP1 MLOAD SWAP3 POP PUSH1 0x0 JUMPDEST PUSH1 0x40 DUP2 LT ISZERO PUSH2 0x24D JUMPI PUSH1 0x0 DUP2 DUP4 ADD MSTORE PUSH1 0x20 DUP2 ADD SWAP1 POP PUSH2 0x233 JUMP JUMPDEST POP POP POP SWAP1 POP SWAP1 JUMP JUMPDEST PUSH1 0x0 DUP1 PUSH1 0x0 SWAP1 PUSH2 0x263 PUSH2 0x448 JUMP JUMPDEST SWAP1 PUSH2 0x100 EXP SWAP1 DIV PUSH20 0xFFFFFFFFFFFFFFFFFFFFFFFFFFFFFFFFFFFFFFFF AND PUSH20 0xFFFFFFFFFFFFFFFFFFFFFFFFFFFFFFFFFFFFFFFF AND PUSH4 0x70A08231 GAS PUSH4 0x996D79A5 MSIZE DUP2 PUSH1 0xE0 SHL DUP2 MSTORE PUSH1 0x20 DUP2 PUSH1 0x4 DUP4 CALLER PUSH1 0x0 SWAP1 GAS CALL PC PUSH1 0xE ADD JUMPI RETURNDATASIZE PUSH1 0x0 DUP1 RETURNDATACOPY RETURNDATASIZE PUSH1 0x0 REVERT JUMPDEST RETURNDATASIZE PUSH1 0x1 EQ ISZERO PC PUSH1 0xA ADD JUMPI PUSH1 0x1 PUSH1 0x0 RETURN JUMPDEST DUP1 MLOAD SWAP3 POP PUSH1 0x0 JUMPDEST PUSH1 0x40 DUP2 LT ISZERO PUSH2 0x2F4 JUMPI PUSH1 0x0 DUP2 DUP4 ADD MSTORE PUSH1 0x20 DUP2 ADD SWAP1 POP PUSH2 0x2DA JUMP JUMPDEST POP POP POP PUSH1 0x40 MLOAD DUP3 PUSH4 0xFFFFFFFF AND PUSH1 0xE0 SHL DUP2 MSTORE PUSH1 0x4 ADD DUP1 DUP3 PUSH20 0xFFFFFFFFFFFFFFFFFFFFFFFFFFFFFFFFFFFFFFFF AND DUP2 MSTORE PUSH1 0x20 ADD SWAP2 POP POP PUSH1 0x20 PUSH1 0x40 MLOAD DUP1 DUP4 SUB DUP2 DUP7 DUP1 PUSH2 0x33C PUSH2 0x510 JUMP JUMPDEST ISZERO DUP1 ISZERO PUSH2 0x351 JUMPI PUSH1 0x0 DUP1 PUSH2 0x34E PUSH2 0x3DA JUMP JUMPDEST POP POP JUMPDEST POP GAS PUSH2 0x35B PUSH2 0x573 JUMP JUMPDEST POP POP POP POP POP ISZERO DUP1 ISZERO PUSH2 0x37A JUMPI RETURNDATASIZE PUSH1 0x0 DUP1 RETURNDATACOPY RETURNDATASIZE PUSH1 0x0 PUSH2 0x377 PUSH2 0x3DA JUMP JUMPDEST POP POP JUMPDEST POP POP POP POP PUSH1 0x40 MLOAD RETURNDATASIZE PUSH1 0x20 DUP2 LT ISZERO PUSH2 0x399 JUMPI PUSH1 0x0 DUP1 PUSH2 0x396 PUSH2 0x3DA JUMP JUMPDEST POP POP JUMPDEST DUP2 ADD SWAP1 DUP1 DUP1 MLOAD SWAP1 PUSH1 0x20 ADD SWAP1 SWAP3 SWAP2 SWAP1 POP POP POP SWAP1 POP SWAP1 JUMP JUMPDEST PUSH1 0x0 DUP1 PUSH2 0x3BA PUSH2 0x448 JUMP JUMPDEST SWAP1 PUSH2 0x100 EXP SWAP1 DIV PUSH20 0xFFFFFFFFFFFFFFFFFFFFFFFFFFFFFFFFFFFFFFFF AND DUP2 JUMP JUMPDEST PUSH4 0x2A2A7ADB MSIZE DUP2 PUSH1 0xE0 SHL DUP2 MSTORE PUSH1 0x4 DUP2 ADD PUSH1 0x20 DUP2 MSTORE DUP6 PUSH1 0x20 DUP3 ADD MSTORE PUSH1 0x0 JUMPDEST DUP7 DUP2 LT ISZERO PUSH2 0x415 JUMPI DUP1 DUP7 ADD MLOAD DUP2 PUSH1 0x40 DUP5 ADD ADD MSTORE PUSH1 0x20 DUP2 ADD SWAP1 POP PUSH2 0x3F7 JUMP JUMPDEST POP PUSH1 0x20 DUP3 DUP8 PUSH1 0x64 ADD DUP5 CALLER PUSH1 0x0 SWAP1 GAS CALL PC PUSH1 0xE ADD JUMPI RETURNDATASIZE PUSH1 0x0 DUP1 RETURNDATACOPY RETURNDATASIZE PUSH1 0x0 REVERT JUMPDEST RETURNDATASIZE PUSH1 0x1 EQ ISZERO PC PUSH1 0xA ADD JUMPI PUSH1 0x1 PUSH1 0x0 RETURN JUMPDEST POP POP POP JUMP JUMPDEST PUSH4 0x3DAA959 MSIZE DUP2 PUSH1 0xE0 SHL DUP2 MSTORE DUP4 PUSH1 0x4 DUP3 ADD MSTORE PUSH1 0x20 DUP2 PUSH1 0x24 DUP4 CALLER PUSH1 0x0 SWAP1 GAS CALL PC PUSH1 0xE ADD JUMPI RETURNDATASIZE PUSH1 0x0 DUP1 RETURNDATACOPY RETURNDATASIZE PUSH1 0x0 REVERT JUMPDEST RETURNDATASIZE PUSH1 0x1 EQ ISZERO PC PUSH1 0xA ADD JUMPI PUSH1 0x1 PUSH1 0x0 RETURN JUMPDEST DUP1 MLOAD SWAP4 POP PUSH1 0x0 JUMPDEST PUSH1 0x40 DUP2 LT ISZERO PUSH2 0x4A6 JUMPI PUSH1 0x0 DUP2 DUP4 ADD MSTORE PUSH1 0x20 DUP2 ADD SWAP1 POP PUSH2 0x48C JUMP JUMPDEST POP POP POP JUMP JUMPDEST PUSH4 0x22BD64C0 MSIZE DUP2 PUSH1 0xE0 SHL DUP2 MSTORE DUP4 PUSH1 0x4 DUP3 ADD MSTORE DUP5 PUSH1 0x24 DUP3 ADD MSTORE PUSH1 0x0 DUP2 PUSH1 0x44 DUP4 CALLER PUSH1 0x0 SWAP1 GAS CALL PC PUSH1 0xE ADD JUMPI RETURNDATASIZE PUSH1 0x0 DUP1 RETURNDATACOPY RETURNDATASIZE PUSH1 0x0 REVERT JUMPDEST RETURNDATASIZE PUSH1 0x1 EQ ISZERO PC PUSH1 0xA ADD JUMPI PUSH1 0x1 PUSH1 0x0 RETURN JUMPDEST PUSH1 0x0 JUMPDEST PUSH1 0x40 DUP2 LT ISZERO PUSH2 0x50B JUMPI PUSH1 0x0 DUP2 DUP4 ADD MSTORE PUSH1 0x20 DUP2 ADD SWAP1 POP PUSH2 0x4F1 JUMP JUMPDEST POP POP POP JUMP JUMPDEST PUSH4 0x8435035B MSIZE DUP2 PUSH1 0xE0 SHL DUP2 MSTORE DUP4 PUSH1 0x4 DUP3 ADD MSTORE PUSH1 0x20 DUP2 PUSH1 0x24 DUP4 CALLER PUSH1 0x0 SWAP1 GAS CALL PC PUSH1 0xE ADD JUMPI RETURNDATASIZE PUSH1 0x0 DUP1 RETURNDATACOPY RETURNDATASIZE PUSH1 0x0 REVERT JUMPDEST RETURNDATASIZE PUSH1 0x1 EQ ISZERO PC PUSH1 0xA ADD JUMPI PUSH1 0x1 PUSH1 0x0 RETURN JUMPDEST DUP1 MLOAD SWAP4 POP PUSH1 0x0 JUMPDEST PUSH1 0x40 DUP2 LT ISZERO PUSH2 0x56E JUMPI PUSH1 0x0 DUP2 DUP4 ADD MSTORE PUSH1 0x20 DUP2 ADD SWAP1 POP PUSH2 0x554 JUMP JUMPDEST POP POP POP JUMP JUMPDEST PUSH4 0x8540661F MSIZE DUP2 PUSH1 0xE0 SHL DUP2 MSTORE PUSH2 0x5B2 JUMP JUMPDEST PUSH1 0x0 DUP2 SWAP1 POP DUP2 DUP4 GT ISZERO PUSH2 0x595 JUMPI DUP3 SWAP1 POP JUMPDEST SWAP3 SWAP2 POP POP JUMP JUMPDEST PUSH1 0x0 DUP2 SWAP1 POP DUP2 DUP4 LT ISZERO PUSH2 0x5AC JUMPI DUP3 SWAP1 POP JUMPDEST SWAP3 SWAP2 POP POP JUMP JUMPDEST DUP4 PUSH1 0x4 DUP3 ADD MSTORE DUP5 PUSH1 0x24 DUP3 ADD MSTORE PUSH1 0x60 PUSH1 0x44 DUP3 ADD MSTORE DUP7 PUSH1 0x64 DUP3 ADD MSTORE PUSH1 0x84 DUP2 ADD PUSH1 0x0 JUMPDEST DUP9 DUP2 LT ISZERO PUSH2 0x5ED JUMPI DUP1 DUP9 ADD MLOAD DUP2 DUP4 ADD MSTORE PUSH1 0x20 DUP2 ADD SWAP1 POP PUSH2 0x5D2 JUMP JUMPDEST POP PUSH1 0x60 DUP3 DUP10 PUSH1 0xA4 ADD DUP5 CALLER PUSH1 0x0 SWAP1 GAS CALL PC PUSH1 0xE ADD JUMPI RETURNDATASIZE PUSH1 0x0 DUP1 RETURNDATACOPY RETURNDATASIZE PUSH1 0x0 REVERT JUMPDEST RETURNDATASIZE PUSH1 0x1 EQ ISZERO PC PUSH1 0xA ADD JUMPI PUSH1 0x1 PUSH1 0x0 RETURN JUMPDEST DUP2 MLOAD PUSH1 0x40 DUP4 ADD MLOAD RETURNDATASIZE PUSH1 0x0 DUP6 RETURNDATACOPY DUP12 DUP12 DUP3 PUSH1 0x60 DUP8 ADD CALLER POP PUSH1 0x0 PUSH1 0x4 GAS CALL POP MSIZE PUSH2 0x642 DUP14 RETURNDATASIZE PUSH2 0x59B JUMP JUMPDEST DUP13 ADD PUSH2 0x64E DUP2 DUP8 PUSH2 0x584 JUMP JUMPDEST JUMPDEST DUP3 DUP2 LT ISZERO PUSH2 0x666 JUMPI PUSH1 0x0 DUP2 MSTORE PUSH1 0x20 DUP2 ADD SWAP1 POP PUSH2 0x64F JUMP JUMPDEST POP DUP4 SWAP14 POP POP POP POP POP POP POP POP JUMP "
        },
        "methodIdentifiers": {
          "balance()": "b69ef8a8",
          "getFrom()": "798fd178",
          "setToken(address)": "144fa6d7",
          "token()": "fc0c546a"
        }
      }
    }
  }
}