{
  "contracts/pools/advisor/AdvisorPool.sol": {
    "AdvisorPool": {
      "abi": [
        {
          "anonymous": false,
          "inputs": [
            {
              "indexed": true,
              "internalType": "address",
              "name": "previousOwner",
              "type": "address"
            },
            {
              "indexed": true,
              "internalType": "address",
              "name": "newOwner",
              "type": "address"
            }
          ],
          "name": "OwnershipTransferred",
          "type": "event"
        },
        {
          "inputs": [
            {
              "internalType": "address",
              "name": "_beneficiary",
              "type": "address"
            },
            {
              "internalType": "uint256",
              "name": "_start",
              "type": "uint256"
            },
            {
              "internalType": "uint256",
              "name": "_cliff",
              "type": "uint256"
            },
            {
              "internalType": "uint256",
              "name": "_duration",
              "type": "uint256"
            },
            {
              "internalType": "uint256",
              "name": "totalTokens",
              "type": "uint256"
            }
          ],
          "name": "addVestor",
          "outputs": [
            {
              "internalType": "contract TokenVesting",
              "name": "",
              "type": "address"
            }
          ],
          "stateMutability": "nonpayable",
          "type": "function"
        },
        {
          "inputs": [],
          "name": "balance",
          "outputs": [
            {
              "internalType": "uint256",
              "name": "",
              "type": "uint256"
            }
          ],
          "stateMutability": "view",
          "type": "function"
        },
        {
          "inputs": [],
          "name": "getFrom",
          "outputs": [
            {
              "internalType": "address",
              "name": "",
              "type": "address"
            }
          ],
          "stateMutability": "view",
          "type": "function"
        },
        {
          "inputs": [],
          "name": "owner",
          "outputs": [
            {
              "internalType": "address",
              "name": "",
              "type": "address"
            }
          ],
          "stateMutability": "view",
          "type": "function"
        },
        {
          "inputs": [],
          "name": "renounceOwnership",
          "outputs": [],
          "stateMutability": "nonpayable",
          "type": "function"
        },
        {
          "inputs": [
            {
              "internalType": "contract IERC20",
              "name": "newToken",
              "type": "address"
            }
          ],
          "name": "setToken",
          "outputs": [],
          "stateMutability": "nonpayable",
          "type": "function"
        },
        {
          "inputs": [],
          "name": "token",
          "outputs": [
            {
              "internalType": "contract IERC20",
              "name": "",
              "type": "address"
            }
          ],
          "stateMutability": "view",
          "type": "function"
        },
        {
          "inputs": [
            {
              "internalType": "address",
              "name": "_beneficiary",
              "type": "address"
            },
            {
              "internalType": "uint256",
              "name": "amount",
              "type": "uint256"
            }
          ],
          "name": "transfer",
          "outputs": [
            {
              "internalType": "bool",
              "name": "",
              "type": "bool"
            }
          ],
          "stateMutability": "nonpayable",
          "type": "function"
        },
        {
          "inputs": [
            {
              "internalType": "address",
              "name": "newOwner",
              "type": "address"
            }
          ],
          "name": "transferOwnership",
          "outputs": [],
          "stateMutability": "nonpayable",
          "type": "function"
        }
      ],
      "evm": {
        "bytecode": {
          "linkReferences": {},
          "object": "60806040523480156200001c5760008062000019620000fa565b50505b5060006200002f620000e860201b60201c565b905080600160006101000a81620000456200016a565b8173ffffffffffffffffffffffffffffffffffffffff021916908373ffffffffffffffffffffffffffffffffffffffff1602179062000083620001cf565b5050508073ffffffffffffffffffffffffffffffffffffffff16600073ffffffffffffffffffffffffffffffffffffffff167f8be0079c531659141344cd1fd0a4f28419497f9722a3daafe3b4186f6b6457e060405160405180910390a35062000295565b60005a620000f562000236565b905090565b632a2a7adb598160e01b8152600481016020815285602082015260005b868110156200013757808601518160408401015260208101905062000117565b506020828760640184336000905af158600e01573d6000803e3d6000fd5b3d6001141558600a015760016000f35b505050565b6303daa959598160e01b8152836004820152602081602483336000905af158600e01573d6000803e3d6000fd5b3d6001141558600a015760016000f35b8051935060005b6040811015620001ca57600081830152602081019050620001ae565b505050565b6322bd64c0598160e01b8152836004820152846024820152600081604483336000905af158600e01573d6000803e3d6000fd5b3d6001141558600a015760016000f35b60005b6040811015620002315760008183015260208101905062000215565b505050565b6373509064598160e01b8152602081600483336000905af158600e01573d6000803e3d6000fd5b3d6001141558600a015760016000f35b8051935060005b6040811015620002905760008183015260208101905062000274565b505050565b6130fd80620002a56000396000f3fe60806040523480156200001c576000806200001962000e4a565b50505b5060043610620000ab5760003560e01c80638da5cb5b116200007a5780638da5cb5b14620001f3578063a9059cbb1462000229578063b69ef8a8146200029b578063f2fde38b14620002bb578063fc0c546a146200030d57620000ab565b8063144fa6d714620000bb57806345bb3d5e146200010d578063715018a614620001b1578063798fd17814620001bd575b600080620000b862000e4a565b50505b6200010b60048036036020811015620000de57600080620000db62000e4a565b50505b81019080803573ffffffffffffffffffffffffffffffffffffffff16906020019092919050505062000343565b005b62000185600480360360a081101562000130576000806200012d62000e4a565b50505b81019080803573ffffffffffffffffffffffffffffffffffffffff1690602001909291908035906020019092919080359060200190929190803590602001909291908035906020019092919050505062000408565b604051808273ffffffffffffffffffffffffffffffffffffffff16815260200191505060405180910390f35b620001bb620005dc565b005b620001c762000779565b604051808273ffffffffffffffffffffffffffffffffffffffff16815260200191505060405180910390f35b620001fd620007de565b604051808273ffffffffffffffffffffffffffffffffffffffff16815260200191505060405180910390f35b62000283600480360360408110156200024c576000806200024962000e4a565b50505b81019080803573ffffffffffffffffffffffffffffffffffffffff1690602001909291908035906020019092919050505062000811565b60405180821515815260200191505060405180910390f35b620002a562000955565b6040518082815260200191505060405180910390f35b6200030b60048036036020811015620002de57600080620002db62000e4a565b50505b81019080803573ffffffffffffffffffffffffffffffffffffffff16906020019092919050505062000ac0565b005b6200031762000cef565b604051808273ffffffffffffffffffffffffffffffffffffffff16815260200191505060405180910390f35b600073ffffffffffffffffffffffffffffffffffffffff166000806200036862000eba565b906101000a900473ffffffffffffffffffffffffffffffffffffffff1673ffffffffffffffffffffffffffffffffffffffff1614620003b157600080620003ae62000e4a565b50505b806000806101000a81620003c462000eba565b8173ffffffffffffffffffffffffffffffffffffffff021916908373ffffffffffffffffffffffffffffffffffffffff160217906200040262000f1f565b50505050565b60006200041462000d1c565b73ffffffffffffffffffffffffffffffffffffffff1662000434620007de565b73ffffffffffffffffffffffffffffffffffffffff1614620004c9576040517f08c379a00000000000000000000000000000000000000000000000000000000081526004018080602001828103825260208152602001807f4f776e61626c653a2063616c6c6572206973206e6f7420746865206f776e657281525060200191505060405180910390620004c662000e4a565b50505b600073ffffffffffffffffffffffffffffffffffffffff16600080620004ee62000eba565b906101000a900473ffffffffffffffffffffffffffffffffffffffff1673ffffffffffffffffffffffffffffffffffffffff16141562000538576000806200053562000e4a565b50505b60008686868660006040516200054e9062000f86565b808673ffffffffffffffffffffffffffffffffffffffff1681526020018581526020018481526020018381526020018215158152602001955050505050506040518091039060006200059f62000f94565b505080158015620005bf573d6000803e3d6000620005bc62000e4a565b50505b509050620005ce818462000d2e565b508091505095945050505050565b620005e662000d1c565b73ffffffffffffffffffffffffffffffffffffffff1662000606620007de565b73ffffffffffffffffffffffffffffffffffffffff16146200069b576040517f08c379a00000000000000000000000000000000000000000000000000000000081526004018080602001828103825260208152602001807f4f776e61626c653a2063616c6c6572206973206e6f7420746865206f776e6572815250602001915050604051809103906200069862000e4a565b50505b600073ffffffffffffffffffffffffffffffffffffffff166001600090620006c262000eba565b906101000a900473ffffffffffffffffffffffffffffffffffffffff1673ffffffffffffffffffffffffffffffffffffffff167f8be0079c531659141344cd1fd0a4f28419497f9722a3daafe3b4186f6b6457e060405160405180910390a36000600160006101000a816200073662000eba565b8173ffffffffffffffffffffffffffffffffffffffff021916908373ffffffffffffffffffffffffffffffffffffffff160217906200077462000f1f565b505050565b60005a63996d79a5598160e01b8152602081600483336000905af158600e01573d6000803e3d6000fd5b3d6001141558600a015760016000f35b8051925060005b6040811015620007d657600081830152602081019050620007ba565b505050905090565b60006001600090620007ef62000eba565b906101000a900473ffffffffffffffffffffffffffffffffffffffff16905090565b60006200081d62000d1c565b73ffffffffffffffffffffffffffffffffffffffff166200083d620007de565b73ffffffffffffffffffffffffffffffffffffffff1614620008d2576040517f08c379a00000000000000000000000000000000000000000000000000000000081526004018080602001828103825260208152602001807f4f776e61626c653a2063616c6c6572206973206e6f7420746865206f776e657281525060200191505060405180910390620008cf62000e4a565b50505b600073ffffffffffffffffffffffffffffffffffffffff16600080620008f762000eba565b906101000a900473ffffffffffffffffffffffffffffffffffffffff1673ffffffffffffffffffffffffffffffffffffffff16141562000941576000806200093e62000e4a565b50505b6200094d838362000d2e565b905092915050565b6000806000906200096562000eba565b906101000a900473ffffffffffffffffffffffffffffffffffffffff1673ffffffffffffffffffffffffffffffffffffffff166370a082315a63996d79a5598160e01b8152602081600483336000905af158600e01573d6000803e3d6000fd5b3d6001141558600a015760016000f35b8051925060005b6040811015620009f857600081830152602081019050620009dc565b5050506040518263ffffffff1660e01b8152600401808273ffffffffffffffffffffffffffffffffffffffff168152602001915050602060405180830381868062000a4262001026565b15801562000a5a5760008062000a5762000e4a565b50505b505a62000a666200108b565b505050505015801562000a88573d6000803e3d600062000a8562000e4a565b50505b505050506040513d602081101562000aaa5760008062000aa762000e4a565b50505b8101908080519060200190929190505050905090565b62000aca62000d1c565b73ffffffffffffffffffffffffffffffffffffffff1662000aea620007de565b73ffffffffffffffffffffffffffffffffffffffff161462000b7f576040517f08c379a00000000000000000000000000000000000000000000000000000000081526004018080602001828103825260208152602001807f4f776e61626c653a2063616c6c6572206973206e6f7420746865206f776e65728152506020019150506040518091039062000b7c62000e4a565b50505b600073ffffffffffffffffffffffffffffffffffffffff168173ffffffffffffffffffffffffffffffffffffffff16141562000c12576040517f08c379a0000000000000000000000000000000000000000000000000000000008152600401808060200182810382526026815260200180620030d7602691396040019150506040518091039062000c0f62000e4a565b50505b8073ffffffffffffffffffffffffffffffffffffffff16600160009062000c3862000eba565b906101000a900473ffffffffffffffffffffffffffffffffffffffff1673ffffffffffffffffffffffffffffffffffffffff167f8be0079c531659141344cd1fd0a4f28419497f9722a3daafe3b4186f6b6457e060405160405180910390a380600160006101000a8162000cab62000eba565b8173ffffffffffffffffffffffffffffffffffffffff021916908373ffffffffffffffffffffffffffffffffffffffff1602179062000ce962000f1f565b50505050565b60008062000cfc62000eba565b906101000a900473ffffffffffffffffffffffffffffffffffffffff1681565b60005a62000d2962001196565b905090565b60008060009062000d3e62000eba565b906101000a900473ffffffffffffffffffffffffffffffffffffffff1673ffffffffffffffffffffffffffffffffffffffff1663a9059cbb84846040518363ffffffff1660e01b8152600401808373ffffffffffffffffffffffffffffffffffffffff168152602001828152602001925050506020604051808303816000878062000dc862001026565b15801562000de05760008062000ddd62000e4a565b50505b505a62000dec620011f5565b50505050505015801562000e0f573d6000803e3d600062000e0c62000e4a565b50505b505050506040513d602081101562000e315760008062000e2e62000e4a565b50505b8101908080519060200190929190505050905092915050565b632a2a7adb598160e01b8152600481016020815285602082015260005b8681101562000e8757808601518160408401015260208101905062000e67565b506020828760640184336000905af158600e01573d6000803e3d6000fd5b3d6001141558600a015760016000f35b505050565b6303daa959598160e01b8152836004820152602081602483336000905af158600e01573d6000803e3d6000fd5b3d6001141558600a015760016000f35b8051935060005b604081101562000f1a5760008183015260208101905062000efe565b505050565b6322bd64c0598160e01b8152836004820152846024820152600081604483336000905af158600e01573d6000803e3d6000fd5b3d6001141558600a015760016000f35b60005b604081101562000f815760008183015260208101905062000f65565b505050565b611dd6806200130183390190565b6314aa2ff7598160e01b8152600481016020815286602082015260005b8781101562000fd157808701518160408401015260208101905062000fb1565b506020828860640184336000905af158600e01573d6000803e3d6000fd5b3d6001141558600a015760016000f35b8151965059825b818110156200101f576000815260208101905062001006565b5050505050565b638435035b598160e01b8152836004820152602081602483336000905af158600e01573d6000803e3d6000fd5b3d6001141558600a015760016000f35b8051935060005b604081101562001086576000818301526020810190506200106a565b505050565b638540661f598160e01b8152620010cd565b600081905081831115620010af578290505b92915050565b600081905081831015620010c7578290505b92915050565b836004820152846024820152606060448201528660648201526084810160005b888110156200110a578088015181830152602081019050620010ed565b506060828960a40184336000905af158600e01573d6000803e3d6000fd5b3d6001141558600a015760016000f35b815160408301513d6000853e8b8b82606087013350600060045af15059620011618d3d620010b5565b8c016200116f81876200109d565b5b8281101562001189576000815260208101905062001170565b50839d5050505050505050565b6373509064598160e01b8152602081600483336000905af158600e01573d6000803e3d6000fd5b3d6001141558600a015760016000f35b8051935060005b6040811015620011f057600081830152602081019050620011d4565b505050565b6385979f76598160e01b815262001237565b60008190508183111562001219578290505b92915050565b60008190508183101562001231578290505b92915050565b836004820152846024820152606060448201528760648201526084810160005b898110156200127457808901518183015260208101905062001257565b506060828a60a40184336000905af158600e01573d6000803e3d6000fd5b3d6001141558600a015760016000f35b815160408301513d6000853e8c8c82606087013350600060045af15059620012cb8e3d6200121f565b8d01620012d9818762001207565b5b82811015620012f35760008152602081019050620012da565b50839e505050505050505056fe60806040523480156200001c57600080620000196200032c565b50505b5060405162001dd638038062001dd6833981810160405260a08110156200004d576000806200004a6200032c565b50505b8101908080519060200190929190805190602001909291908051906020019092919080519060200190929190805190602001909291905050506000620000986200028660201b60201c565b9050806000806101000a81620000ad6200039c565b8173ffffffffffffffffffffffffffffffffffffffff021916908373ffffffffffffffffffffffffffffffffffffffff16021790620000eb62000401565b5050508073ffffffffffffffffffffffffffffffffffffffff16600073ffffffffffffffffffffffffffffffffffffffff167f8be0079c531659141344cd1fd0a4f28419497f9722a3daafe3b4186f6b6457e060405160405180910390a350600073ffffffffffffffffffffffffffffffffffffffff168573ffffffffffffffffffffffffffffffffffffffff16141562000190576000806200018d6200032c565b50505b81831115620001a957600080620001a66200032c565b50505b84600160006101000a81620001bd6200039c565b8173ffffffffffffffffffffffffffffffffffffffff021916908373ffffffffffffffffffffffffffffffffffffffff16021790620001fb62000401565b50505080600560006101000a81620002126200039c565b8160ff021916908315150217906200022962000401565b50505081600481906200023b62000401565b5050506200025883856200029860201b620012161790919060201c565b600281906200026662000401565b50505083600381906200027862000401565b5050505050505050620004c7565b60005a6200029362000468565b905090565b60008082840190508381101562000322576040517f08c379a000000000000000000000000000000000000000000000000000000000815260040180806020018281038252601b8152602001807f536166654d6174683a206164646974696f6e206f766572666c6f770000000000815250602001915050604051809103906200031f6200032c565b50505b8091505092915050565b632a2a7adb598160e01b8152600481016020815285602082015260005b868110156200036957808601518160408401015260208101905062000349565b506020828760640184336000905af158600e01573d6000803e3d6000fd5b3d6001141558600a015760016000f35b505050565b6303daa959598160e01b8152836004820152602081602483336000905af158600e01573d6000803e3d6000fd5b3d6001141558600a015760016000f35b8051935060005b6040811015620003fc57600081830152602081019050620003e0565b505050565b6322bd64c0598160e01b8152836004820152846024820152600081604483336000905af158600e01573d6000803e3d6000fd5b3d6001141558600a015760016000f35b60005b6040811015620004635760008183015260208101905062000447565b505050565b6373509064598160e01b8152602081600483336000905af158600e01573d6000803e3d6000fd5b3d6001141558600a015760016000f35b8051935060005b6040811015620004c257600081830152602081019050620004a6565b505050565b6118ff80620004d76000396000f3fe608060405234801561001957600080610016611464565b50505b50600436106100f35760003560e01c806374a8f103116100955780639852595c1161006f5780639852595c1461032b578063be9a65551461038c578063f2fde38b146103aa578063fa01dc06146103f7576100f3565b806374a8f1031461028a578063872a7810146102d75780638da5cb5b146102f7576100f3565b806319165587116100d1578063191655871461019e578063384711cc146101eb57806338af3eed1461024c578063715018a614610280576100f3565b80630fb5a6b41461010157806313d033c01461011f5780631726cbc81461013d575b6000806100fe611464565b50505b61010961045a565b6040518082815260200191505060405180910390f35b610127610467565b6040518082815260200191505060405180910390f35b6101886004803603602081101561015c57600080610159611464565b50505b81019080803573ffffffffffffffffffffffffffffffffffffffff169060200190929190505050610474565b6040518082815260200191505060405180910390f35b6101e9600480360360208110156101bd576000806101ba611464565b50505b81019080803573ffffffffffffffffffffffffffffffffffffffff1690602001909291905050506104de565b005b6102366004803603602081101561020a57600080610207611464565b50505b81019080803573ffffffffffffffffffffffffffffffffffffffff1690602001909291905050506106e6565b6040518082815260200191505060405180910390f35b61025461098c565b604051808273ffffffffffffffffffffffffffffffffffffffff16815260200191505060405180910390f35b6102886109b9565b005b6102d5600480360360208110156102a9576000806102a6611464565b50505b81019080803573ffffffffffffffffffffffffffffffffffffffff169060200190929190505050610b46565b005b6102df610f5e565b60405180821515815260200191505060405180910390f35b6102ff610f78565b604051808273ffffffffffffffffffffffffffffffffffffffff16815260200191505060405180910390f35b6103766004803603602081101561034a57600080610347611464565b50505b81019080803573ffffffffffffffffffffffffffffffffffffffff169060200190929190505050610fa8565b6040518082815260200191505060405180910390f35b610394610fc7565b6040518082815260200191505060405180910390f35b6103f5600480360360208110156103c9576000806103c6611464565b50505b81019080803573ffffffffffffffffffffffffffffffffffffffff169060200190929190505050610fd4565b005b6104426004803603602081101561041657600080610413611464565b50505b81019080803573ffffffffffffffffffffffffffffffffffffffff1690602001909291905050506111ef565b60405180821515815260200191505060405180910390f35b60046104646114d2565b81565b60026104716114d2565b81565b60006104d7600660008473ffffffffffffffffffffffffffffffffffffffff1673ffffffffffffffffffffffffffffffffffffffff1681526020019081526020016000206104c06114d2565b6104c9846106e6565b6112a790919063ffffffff16565b9050919050565b60006104e982610474565b905060008111610501576000806104fe611464565b50505b61055a81600660008573ffffffffffffffffffffffffffffffffffffffff1673ffffffffffffffffffffffffffffffffffffffff16815260200190815260200160002061054c6114d2565b61121690919063ffffffff16565b600660008473ffffffffffffffffffffffffffffffffffffffff1673ffffffffffffffffffffffffffffffffffffffff16815260200190815260200160002081906105a3611535565b5050508173ffffffffffffffffffffffffffffffffffffffff1663a9059cbb60016000906105cf6114d2565b906101000a900473ffffffffffffffffffffffffffffffffffffffff16836040518363ffffffff1660e01b8152600401808373ffffffffffffffffffffffffffffffffffffffff168152602001828152602001925050506020604051808303816000878061063b61159a565b1580156106505760008061064d611464565b50505b505a61065a6115fd565b50505050505015801561067a573d6000803e3d6000610677611464565b50505b505050506040513d602081101561069957600080610696611464565b50505b8101908080519060200190929190505050507ffb81f9b30d73d830c3544b34d827c08142579ee75710b490bab0b3995468c565816040518082815260200191505060405180910390a15050565b6000808273ffffffffffffffffffffffffffffffffffffffff166370a082315a63996d79a5598160e01b8152602081600483336000905af158600e01573d6000803e3d6000fd5b3d6001141558600a015760016000f35b8051925060005b604081101561075e57600081830152602081019050610744565b5050506040518263ffffffff1660e01b8152600401808273ffffffffffffffffffffffffffffffffffffffff16815260200191505060206040518083038186806107a661159a565b1580156107bb576000806107b8611464565b50505b505a6107c56116fd565b50505050501580156107e4573d6000803e3d60006107e1611464565b50505b505050506040513d602081101561080357600080610800611464565b50505b810190808051906020019092919050505090506000610871600660008673ffffffffffffffffffffffffffffffffffffffff1673ffffffffffffffffffffffffffffffffffffffff1681526020019081526020016000206108626114d2565b8361121690919063ffffffff16565b9050600261087d6114d2565b5a6108866117fd565b101561089757600092505050610987565b6108bc60046108a46114d2565b60036108ae6114d2565b61121690919063ffffffff16565b5a6108c56117fd565b1015806109225750600760008573ffffffffffffffffffffffffffffffffffffffff1673ffffffffffffffffffffffffffffffffffffffff1681526020019081526020016000206000906109176114d2565b906101000a900460ff165b15610931578092505050610987565b610982600461093e6114d2565b610974610965600361094e6114d2565b5a6109576117fd565b6112a790919063ffffffff16565b8461133390919063ffffffff16565b6113c290919063ffffffff16565b925050505b919050565b60016000906109996114d2565b906101000a900473ffffffffffffffffffffffffffffffffffffffff1681565b6109c1611454565b73ffffffffffffffffffffffffffffffffffffffff166109df610f78565b73ffffffffffffffffffffffffffffffffffffffff1614610a71576040517f08c379a00000000000000000000000000000000000000000000000000000000081526004018080602001828103825260208152602001807f4f776e61626c653a2063616c6c6572206973206e6f7420746865206f776e657281525060200191505060405180910390610a6e611464565b50505b600073ffffffffffffffffffffffffffffffffffffffff16600080610a946114d2565b906101000a900473ffffffffffffffffffffffffffffffffffffffff1673ffffffffffffffffffffffffffffffffffffffff167f8be0079c531659141344cd1fd0a4f28419497f9722a3daafe3b4186f6b6457e060405160405180910390a360008060006101000a81610b056114d2565b8173ffffffffffffffffffffffffffffffffffffffff021916908373ffffffffffffffffffffffffffffffffffffffff16021790610b41611535565b505050565b610b4e611454565b73ffffffffffffffffffffffffffffffffffffffff16610b6c610f78565b73ffffffffffffffffffffffffffffffffffffffff1614610bfe576040517f08c379a00000000000000000000000000000000000000000000000000000000081526004018080602001828103825260208152602001807f4f776e61626c653a2063616c6c6572206973206e6f7420746865206f776e657281525060200191505060405180910390610bfb611464565b50505b6005600090610c0b6114d2565b906101000a900460ff16610c2757600080610c24611464565b50505b600760008273ffffffffffffffffffffffffffffffffffffffff1673ffffffffffffffffffffffffffffffffffffffff168152602001908152602001600020600090610c716114d2565b906101000a900460ff1615610c8e57600080610c8b611464565b50505b60008173ffffffffffffffffffffffffffffffffffffffff166370a082315a63996d79a5598160e01b8152602081600483336000905af158600e01573d6000803e3d6000fd5b3d6001141558600a015760016000f35b8051925060005b6040811015610d0557600081830152602081019050610ceb565b5050506040518263ffffffff1660e01b8152600401808273ffffffffffffffffffffffffffffffffffffffff1681526020019150506020604051808303818680610d4d61159a565b158015610d6257600080610d5f611464565b50505b505a610d6c6116fd565b5050505050158015610d8b573d6000803e3d6000610d88611464565b50505b505050506040513d6020811015610daa57600080610da7611464565b50505b810190808051906020019092919050505090506000610dc883610474565b90506000610ddf82846112a790919063ffffffff16565b90506001600760008673ffffffffffffffffffffffffffffffffffffffff1673ffffffffffffffffffffffffffffffffffffffff16815260200190815260200160002060006101000a81610e316114d2565b8160ff02191690831515021790610e46611535565b5050508373ffffffffffffffffffffffffffffffffffffffff1663a9059cbb610e6d610f78565b836040518363ffffffff1660e01b8152600401808373ffffffffffffffffffffffffffffffffffffffff1681526020018281526020019250505060206040518083038160008780610ebc61159a565b158015610ed157600080610ece611464565b50505b505a610edb6115fd565b505050505050158015610efb573d6000803e3d6000610ef8611464565b50505b505050506040513d6020811015610f1a57600080610f17611464565b50505b8101908080519060200190929190505050507f44825a4b2df8acb19ce4e1afba9aa850c8b65cdb7942e2078f27d0b0960efee660405160405180910390a150505050565b6005600090610f6b6114d2565b906101000a900460ff1681565b600080600090610f866114d2565b906101000a900473ffffffffffffffffffffffffffffffffffffffff16905090565b6006602052806000526040600020600091509050610fc46114d2565b81565b6003610fd16114d2565b81565b610fdc611454565b73ffffffffffffffffffffffffffffffffffffffff16610ffa610f78565b73ffffffffffffffffffffffffffffffffffffffff161461108c576040517f08c379a00000000000000000000000000000000000000000000000000000000081526004018080602001828103825260208152602001807f4f776e61626c653a2063616c6c6572206973206e6f7420746865206f776e657281525060200191505060405180910390611089611464565b50505b600073ffffffffffffffffffffffffffffffffffffffff168173ffffffffffffffffffffffffffffffffffffffff16141561111b576040517f08c379a00000000000000000000000000000000000000000000000000000000081526004018080602001828103825260268152602001806118b86026913960400191505060405180910390611118611464565b50505b8073ffffffffffffffffffffffffffffffffffffffff1660008061113d6114d2565b906101000a900473ffffffffffffffffffffffffffffffffffffffff1673ffffffffffffffffffffffffffffffffffffffff167f8be0079c531659141344cd1fd0a4f28419497f9722a3daafe3b4186f6b6457e060405160405180910390a3806000806101000a816111ad6114d2565b8173ffffffffffffffffffffffffffffffffffffffff021916908373ffffffffffffffffffffffffffffffffffffffff160217906111e9611535565b50505050565b6007602052806000526040600020600091506112096114d2565b906101000a900460ff1681565b60008082840190508381101561129d576040517f08c379a000000000000000000000000000000000000000000000000000000000815260040180806020018281038252601b8152602001807f536166654d6174683a206164646974696f6e206f766572666c6f7700000000008152506020019150506040518091039061129a611464565b50505b8091505092915050565b600082821115611328576040517f08c379a000000000000000000000000000000000000000000000000000000000815260040180806020018281038252601e8152602001807f536166654d6174683a207375627472616374696f6e206f766572666c6f77000081525060200191505060405180910390611325611464565b50505b818303905092915050565b60008083141561134657600090506113bc565b600082840290508284828161135757fe5b04146113b7576040517f08c379a00000000000000000000000000000000000000000000000000000000081526004018080602001828103825260218152602001806118de60219139604001915050604051809103906113b4611464565b50505b809150505b92915050565b6000808211611442576040517f08c379a000000000000000000000000000000000000000000000000000000000815260040180806020018281038252601a8152602001807f536166654d6174683a206469766973696f6e206279207a65726f0000000000008152506020019150506040518091039061143f611464565b50505b81838161144b57fe5b04905092915050565b60005a61145f61185a565b905090565b632a2a7adb598160e01b8152600481016020815285602082015260005b8681101561149f578086015181604084010152602081019050611481565b506020828760640184336000905af158600e01573d6000803e3d6000fd5b3d6001141558600a015760016000f35b505050565b6303daa959598160e01b8152836004820152602081602483336000905af158600e01573d6000803e3d6000fd5b3d6001141558600a015760016000f35b8051935060005b604081101561153057600081830152602081019050611516565b505050565b6322bd64c0598160e01b8152836004820152846024820152600081604483336000905af158600e01573d6000803e3d6000fd5b3d6001141558600a015760016000f35b60005b60408110156115955760008183015260208101905061157b565b505050565b638435035b598160e01b8152836004820152602081602483336000905af158600e01573d6000803e3d6000fd5b3d6001141558600a015760016000f35b8051935060005b60408110156115f8576000818301526020810190506115de565b505050565b6385979f76598160e01b815261163c565b60008190508183111561161f578290505b92915050565b600081905081831015611636578290505b92915050565b836004820152846024820152606060448201528760648201526084810160005b8981101561167757808901518183015260208101905061165c565b506060828a60a40184336000905af158600e01573d6000803e3d6000fd5b3d6001141558600a015760016000f35b815160408301513d6000853e8c8c82606087013350600060045af150596116cc8e3d611625565b8d016116d8818761160e565b5b828110156116f057600081526020810190506116d9565b50839e5050505050505050565b638540661f598160e01b815261173c565b60008190508183111561171f578290505b92915050565b600081905081831015611736578290505b92915050565b836004820152846024820152606060448201528660648201526084810160005b8881101561177757808801518183015260208101905061175c565b506060828960a40184336000905af158600e01573d6000803e3d6000fd5b3d6001141558600a015760016000f35b815160408301513d6000853e8b8b82606087013350600060045af150596117cc8d3d611725565b8c016117d8818761170e565b5b828110156117f057600081526020810190506117d9565b50839d5050505050505050565b63bdbf8c36598160e01b8152602081600483336000905af158600e01573d6000803e3d6000fd5b3d6001141558600a015760016000f35b8051935060005b60408110156118555760008183015260208101905061183b565b505050565b6373509064598160e01b8152602081600483336000905af158600e01573d6000803e3d6000fd5b3d6001141558600a015760016000f35b8051935060005b60408110156118b257600081830152602081019050611898565b50505056fe4f776e61626c653a206e6577206f776e657220697320746865207a65726f2061646472657373536166654d6174683a206d756c7469706c69636174696f6e206f766572666c6f774f776e61626c653a206e6577206f776e657220697320746865207a65726f2061646472657373",
          "opcodes": "PUSH1 0x80 PUSH1 0x40 MSTORE CALLVALUE DUP1 ISZERO PUSH3 0x1C JUMPI PUSH1 0x0 DUP1 PUSH3 0x19 PUSH3 0xFA JUMP JUMPDEST POP POP JUMPDEST POP PUSH1 0x0 PUSH3 0x2F PUSH3 0xE8 PUSH1 0x20 SHL PUSH1 0x20 SHR JUMP JUMPDEST SWAP1 POP DUP1 PUSH1 0x1 PUSH1 0x0 PUSH2 0x100 EXP DUP2 PUSH3 0x45 PUSH3 0x16A JUMP JUMPDEST DUP2 PUSH20 0xFFFFFFFFFFFFFFFFFFFFFFFFFFFFFFFFFFFFFFFF MUL NOT AND SWAP1 DUP4 PUSH20 0xFFFFFFFFFFFFFFFFFFFFFFFFFFFFFFFFFFFFFFFF AND MUL OR SWAP1 PUSH3 0x83 PUSH3 0x1CF JUMP JUMPDEST POP POP POP DUP1 PUSH20 0xFFFFFFFFFFFFFFFFFFFFFFFFFFFFFFFFFFFFFFFF AND PUSH1 0x0 PUSH20 0xFFFFFFFFFFFFFFFFFFFFFFFFFFFFFFFFFFFFFFFF AND PUSH32 0x8BE0079C531659141344CD1FD0A4F28419497F9722A3DAAFE3B4186F6B6457E0 PUSH1 0x40 MLOAD PUSH1 0x40 MLOAD DUP1 SWAP2 SUB SWAP1 LOG3 POP PUSH3 0x295 JUMP JUMPDEST PUSH1 0x0 GAS PUSH3 0xF5 PUSH3 0x236 JUMP JUMPDEST SWAP1 POP SWAP1 JUMP JUMPDEST PUSH4 0x2A2A7ADB MSIZE DUP2 PUSH1 0xE0 SHL DUP2 MSTORE PUSH1 0x4 DUP2 ADD PUSH1 0x20 DUP2 MSTORE DUP6 PUSH1 0x20 DUP3 ADD MSTORE PUSH1 0x0 JUMPDEST DUP7 DUP2 LT ISZERO PUSH3 0x137 JUMPI DUP1 DUP7 ADD MLOAD DUP2 PUSH1 0x40 DUP5 ADD ADD MSTORE PUSH1 0x20 DUP2 ADD SWAP1 POP PUSH3 0x117 JUMP JUMPDEST POP PUSH1 0x20 DUP3 DUP8 PUSH1 0x64 ADD DUP5 CALLER PUSH1 0x0 SWAP1 GAS CALL PC PUSH1 0xE ADD JUMPI RETURNDATASIZE PUSH1 0x0 DUP1 RETURNDATACOPY RETURNDATASIZE PUSH1 0x0 REVERT JUMPDEST RETURNDATASIZE PUSH1 0x1 EQ ISZERO PC PUSH1 0xA ADD JUMPI PUSH1 0x1 PUSH1 0x0 RETURN JUMPDEST POP POP POP JUMP JUMPDEST PUSH4 0x3DAA959 MSIZE DUP2 PUSH1 0xE0 SHL DUP2 MSTORE DUP4 PUSH1 0x4 DUP3 ADD MSTORE PUSH1 0x20 DUP2 PUSH1 0x24 DUP4 CALLER PUSH1 0x0 SWAP1 GAS CALL PC PUSH1 0xE ADD JUMPI RETURNDATASIZE PUSH1 0x0 DUP1 RETURNDATACOPY RETURNDATASIZE PUSH1 0x0 REVERT JUMPDEST RETURNDATASIZE PUSH1 0x1 EQ ISZERO PC PUSH1 0xA ADD JUMPI PUSH1 0x1 PUSH1 0x0 RETURN JUMPDEST DUP1 MLOAD SWAP4 POP PUSH1 0x0 JUMPDEST PUSH1 0x40 DUP2 LT ISZERO PUSH3 0x1CA JUMPI PUSH1 0x0 DUP2 DUP4 ADD MSTORE PUSH1 0x20 DUP2 ADD SWAP1 POP PUSH3 0x1AE JUMP JUMPDEST POP POP POP JUMP JUMPDEST PUSH4 0x22BD64C0 MSIZE DUP2 PUSH1 0xE0 SHL DUP2 MSTORE DUP4 PUSH1 0x4 DUP3 ADD MSTORE DUP5 PUSH1 0x24 DUP3 ADD MSTORE PUSH1 0x0 DUP2 PUSH1 0x44 DUP4 CALLER PUSH1 0x0 SWAP1 GAS CALL PC PUSH1 0xE ADD JUMPI RETURNDATASIZE PUSH1 0x0 DUP1 RETURNDATACOPY RETURNDATASIZE PUSH1 0x0 REVERT JUMPDEST RETURNDATASIZE PUSH1 0x1 EQ ISZERO PC PUSH1 0xA ADD JUMPI PUSH1 0x1 PUSH1 0x0 RETURN JUMPDEST PUSH1 0x0 JUMPDEST PUSH1 0x40 DUP2 LT ISZERO PUSH3 0x231 JUMPI PUSH1 0x0 DUP2 DUP4 ADD MSTORE PUSH1 0x20 DUP2 ADD SWAP1 POP PUSH3 0x215 JUMP JUMPDEST POP POP POP JUMP JUMPDEST PUSH4 0x73509064 MSIZE DUP2 PUSH1 0xE0 SHL DUP2 MSTORE PUSH1 0x20 DUP2 PUSH1 0x4 DUP4 CALLER PUSH1 0x0 SWAP1 GAS CALL PC PUSH1 0xE ADD JUMPI RETURNDATASIZE PUSH1 0x0 DUP1 RETURNDATACOPY RETURNDATASIZE PUSH1 0x0 REVERT JUMPDEST RETURNDATASIZE PUSH1 0x1 EQ ISZERO PC PUSH1 0xA ADD JUMPI PUSH1 0x1 PUSH1 0x0 RETURN JUMPDEST DUP1 MLOAD SWAP4 POP PUSH1 0x0 JUMPDEST PUSH1 0x40 DUP2 LT ISZERO PUSH3 0x290 JUMPI PUSH1 0x0 DUP2 DUP4 ADD MSTORE PUSH1 0x20 DUP2 ADD SWAP1 POP PUSH3 0x274 JUMP JUMPDEST POP POP POP JUMP JUMPDEST PUSH2 0x30FD DUP1 PUSH3 0x2A5 PUSH1 0x0 CODECOPY PUSH1 0x0 RETURN INVALID PUSH1 0x80 PUSH1 0x40 MSTORE CALLVALUE DUP1 ISZERO PUSH3 0x1C JUMPI PUSH1 0x0 DUP1 PUSH3 0x19 PUSH3 0xE4A JUMP JUMPDEST POP POP JUMPDEST POP PUSH1 0x4 CALLDATASIZE LT PUSH3 0xAB JUMPI PUSH1 0x0 CALLDATALOAD PUSH1 0xE0 SHR DUP1 PUSH4 0x8DA5CB5B GT PUSH3 0x7A JUMPI DUP1 PUSH4 0x8DA5CB5B EQ PUSH3 0x1F3 JUMPI DUP1 PUSH4 0xA9059CBB EQ PUSH3 0x229 JUMPI DUP1 PUSH4 0xB69EF8A8 EQ PUSH3 0x29B JUMPI DUP1 PUSH4 0xF2FDE38B EQ PUSH3 0x2BB JUMPI DUP1 PUSH4 0xFC0C546A EQ PUSH3 0x30D JUMPI PUSH3 0xAB JUMP JUMPDEST DUP1 PUSH4 0x144FA6D7 EQ PUSH3 0xBB JUMPI DUP1 PUSH4 0x45BB3D5E EQ PUSH3 0x10D JUMPI DUP1 PUSH4 0x715018A6 EQ PUSH3 0x1B1 JUMPI DUP1 PUSH4 0x798FD178 EQ PUSH3 0x1BD JUMPI JUMPDEST PUSH1 0x0 DUP1 PUSH3 0xB8 PUSH3 0xE4A JUMP JUMPDEST POP POP JUMPDEST PUSH3 0x10B PUSH1 0x4 DUP1 CALLDATASIZE SUB PUSH1 0x20 DUP2 LT ISZERO PUSH3 0xDE JUMPI PUSH1 0x0 DUP1 PUSH3 0xDB PUSH3 0xE4A JUMP JUMPDEST POP POP JUMPDEST DUP2 ADD SWAP1 DUP1 DUP1 CALLDATALOAD PUSH20 0xFFFFFFFFFFFFFFFFFFFFFFFFFFFFFFFFFFFFFFFF AND SWAP1 PUSH1 0x20 ADD SWAP1 SWAP3 SWAP2 SWAP1 POP POP POP PUSH3 0x343 JUMP JUMPDEST STOP JUMPDEST PUSH3 0x185 PUSH1 0x4 DUP1 CALLDATASIZE SUB PUSH1 0xA0 DUP2 LT ISZERO PUSH3 0x130 JUMPI PUSH1 0x0 DUP1 PUSH3 0x12D PUSH3 0xE4A JUMP JUMPDEST POP POP JUMPDEST DUP2 ADD SWAP1 DUP1 DUP1 CALLDATALOAD PUSH20 0xFFFFFFFFFFFFFFFFFFFFFFFFFFFFFFFFFFFFFFFF AND SWAP1 PUSH1 0x20 ADD SWAP1 SWAP3 SWAP2 SWAP1 DUP1 CALLDATALOAD SWAP1 PUSH1 0x20 ADD SWAP1 SWAP3 SWAP2 SWAP1 DUP1 CALLDATALOAD SWAP1 PUSH1 0x20 ADD SWAP1 SWAP3 SWAP2 SWAP1 DUP1 CALLDATALOAD SWAP1 PUSH1 0x20 ADD SWAP1 SWAP3 SWAP2 SWAP1 DUP1 CALLDATALOAD SWAP1 PUSH1 0x20 ADD SWAP1 SWAP3 SWAP2 SWAP1 POP POP POP PUSH3 0x408 JUMP JUMPDEST PUSH1 0x40 MLOAD DUP1 DUP3 PUSH20 0xFFFFFFFFFFFFFFFFFFFFFFFFFFFFFFFFFFFFFFFF AND DUP2 MSTORE PUSH1 0x20 ADD SWAP2 POP POP PUSH1 0x40 MLOAD DUP1 SWAP2 SUB SWAP1 RETURN JUMPDEST PUSH3 0x1BB PUSH3 0x5DC JUMP JUMPDEST STOP JUMPDEST PUSH3 0x1C7 PUSH3 0x779 JUMP JUMPDEST PUSH1 0x40 MLOAD DUP1 DUP3 PUSH20 0xFFFFFFFFFFFFFFFFFFFFFFFFFFFFFFFFFFFFFFFF AND DUP2 MSTORE PUSH1 0x20 ADD SWAP2 POP POP PUSH1 0x40 MLOAD DUP1 SWAP2 SUB SWAP1 RETURN JUMPDEST PUSH3 0x1FD PUSH3 0x7DE JUMP JUMPDEST PUSH1 0x40 MLOAD DUP1 DUP3 PUSH20 0xFFFFFFFFFFFFFFFFFFFFFFFFFFFFFFFFFFFFFFFF AND DUP2 MSTORE PUSH1 0x20 ADD SWAP2 POP POP PUSH1 0x40 MLOAD DUP1 SWAP2 SUB SWAP1 RETURN JUMPDEST PUSH3 0x283 PUSH1 0x4 DUP1 CALLDATASIZE SUB PUSH1 0x40 DUP2 LT ISZERO PUSH3 0x24C JUMPI PUSH1 0x0 DUP1 PUSH3 0x249 PUSH3 0xE4A JUMP JUMPDEST POP POP JUMPDEST DUP2 ADD SWAP1 DUP1 DUP1 CALLDATALOAD PUSH20 0xFFFFFFFFFFFFFFFFFFFFFFFFFFFFFFFFFFFFFFFF AND SWAP1 PUSH1 0x20 ADD SWAP1 SWAP3 SWAP2 SWAP1 DUP1 CALLDATALOAD SWAP1 PUSH1 0x20 ADD SWAP1 SWAP3 SWAP2 SWAP1 POP POP POP PUSH3 0x811 JUMP JUMPDEST PUSH1 0x40 MLOAD DUP1 DUP3 ISZERO ISZERO DUP2 MSTORE PUSH1 0x20 ADD SWAP2 POP POP PUSH1 0x40 MLOAD DUP1 SWAP2 SUB SWAP1 RETURN JUMPDEST PUSH3 0x2A5 PUSH3 0x955 JUMP JUMPDEST PUSH1 0x40 MLOAD DUP1 DUP3 DUP2 MSTORE PUSH1 0x20 ADD SWAP2 POP POP PUSH1 0x40 MLOAD DUP1 SWAP2 SUB SWAP1 RETURN JUMPDEST PUSH3 0x30B PUSH1 0x4 DUP1 CALLDATASIZE SUB PUSH1 0x20 DUP2 LT ISZERO PUSH3 0x2DE JUMPI PUSH1 0x0 DUP1 PUSH3 0x2DB PUSH3 0xE4A JUMP JUMPDEST POP POP JUMPDEST DUP2 ADD SWAP1 DUP1 DUP1 CALLDATALOAD PUSH20 0xFFFFFFFFFFFFFFFFFFFFFFFFFFFFFFFFFFFFFFFF AND SWAP1 PUSH1 0x20 ADD SWAP1 SWAP3 SWAP2 SWAP1 POP POP POP PUSH3 0xAC0 JUMP JUMPDEST STOP JUMPDEST PUSH3 0x317 PUSH3 0xCEF JUMP JUMPDEST PUSH1 0x40 MLOAD DUP1 DUP3 PUSH20 0xFFFFFFFFFFFFFFFFFFFFFFFFFFFFFFFFFFFFFFFF AND DUP2 MSTORE PUSH1 0x20 ADD SWAP2 POP POP PUSH1 0x40 MLOAD DUP1 SWAP2 SUB SWAP1 RETURN JUMPDEST PUSH1 0x0 PUSH20 0xFFFFFFFFFFFFFFFFFFFFFFFFFFFFFFFFFFFFFFFF AND PUSH1 0x0 DUP1 PUSH3 0x368 PUSH3 0xEBA JUMP JUMPDEST SWAP1 PUSH2 0x100 EXP SWAP1 DIV PUSH20 0xFFFFFFFFFFFFFFFFFFFFFFFFFFFFFFFFFFFFFFFF AND PUSH20 0xFFFFFFFFFFFFFFFFFFFFFFFFFFFFFFFFFFFFFFFF AND EQ PUSH3 0x3B1 JUMPI PUSH1 0x0 DUP1 PUSH3 0x3AE PUSH3 0xE4A JUMP JUMPDEST POP POP JUMPDEST DUP1 PUSH1 0x0 DUP1 PUSH2 0x100 EXP DUP2 PUSH3 0x3C4 PUSH3 0xEBA JUMP JUMPDEST DUP2 PUSH20 0xFFFFFFFFFFFFFFFFFFFFFFFFFFFFFFFFFFFFFFFF MUL NOT AND SWAP1 DUP4 PUSH20 0xFFFFFFFFFFFFFFFFFFFFFFFFFFFFFFFFFFFFFFFF AND MUL OR SWAP1 PUSH3 0x402 PUSH3 0xF1F JUMP JUMPDEST POP POP POP POP JUMP JUMPDEST PUSH1 0x0 PUSH3 0x414 PUSH3 0xD1C JUMP JUMPDEST PUSH20 0xFFFFFFFFFFFFFFFFFFFFFFFFFFFFFFFFFFFFFFFF AND PUSH3 0x434 PUSH3 0x7DE JUMP JUMPDEST PUSH20 0xFFFFFFFFFFFFFFFFFFFFFFFFFFFFFFFFFFFFFFFF AND EQ PUSH3 0x4C9 JUMPI PUSH1 0x40 MLOAD PUSH32 0x8C379A000000000000000000000000000000000000000000000000000000000 DUP2 MSTORE PUSH1 0x4 ADD DUP1 DUP1 PUSH1 0x20 ADD DUP3 DUP2 SUB DUP3 MSTORE PUSH1 0x20 DUP2 MSTORE PUSH1 0x20 ADD DUP1 PUSH32 0x4F776E61626C653A2063616C6C6572206973206E6F7420746865206F776E6572 DUP2 MSTORE POP PUSH1 0x20 ADD SWAP2 POP POP PUSH1 0x40 MLOAD DUP1 SWAP2 SUB SWAP1 PUSH3 0x4C6 PUSH3 0xE4A JUMP JUMPDEST POP POP JUMPDEST PUSH1 0x0 PUSH20 0xFFFFFFFFFFFFFFFFFFFFFFFFFFFFFFFFFFFFFFFF AND PUSH1 0x0 DUP1 PUSH3 0x4EE PUSH3 0xEBA JUMP JUMPDEST SWAP1 PUSH2 0x100 EXP SWAP1 DIV PUSH20 0xFFFFFFFFFFFFFFFFFFFFFFFFFFFFFFFFFFFFFFFF AND PUSH20 0xFFFFFFFFFFFFFFFFFFFFFFFFFFFFFFFFFFFFFFFF AND EQ ISZERO PUSH3 0x538 JUMPI PUSH1 0x0 DUP1 PUSH3 0x535 PUSH3 0xE4A JUMP JUMPDEST POP POP JUMPDEST PUSH1 0x0 DUP7 DUP7 DUP7 DUP7 PUSH1 0x0 PUSH1 0x40 MLOAD PUSH3 0x54E SWAP1 PUSH3 0xF86 JUMP JUMPDEST DUP1 DUP7 PUSH20 0xFFFFFFFFFFFFFFFFFFFFFFFFFFFFFFFFFFFFFFFF AND DUP2 MSTORE PUSH1 0x20 ADD DUP6 DUP2 MSTORE PUSH1 0x20 ADD DUP5 DUP2 MSTORE PUSH1 0x20 ADD DUP4 DUP2 MSTORE PUSH1 0x20 ADD DUP3 ISZERO ISZERO DUP2 MSTORE PUSH1 0x20 ADD SWAP6 POP POP POP POP POP POP PUSH1 0x40 MLOAD DUP1 SWAP2 SUB SWAP1 PUSH1 0x0 PUSH3 0x59F PUSH3 0xF94 JUMP JUMPDEST POP POP DUP1 ISZERO DUP1 ISZERO PUSH3 0x5BF JUMPI RETURNDATASIZE PUSH1 0x0 DUP1 RETURNDATACOPY RETURNDATASIZE PUSH1 0x0 PUSH3 0x5BC PUSH3 0xE4A JUMP JUMPDEST POP POP JUMPDEST POP SWAP1 POP PUSH3 0x5CE DUP2 DUP5 PUSH3 0xD2E JUMP JUMPDEST POP DUP1 SWAP2 POP POP SWAP6 SWAP5 POP POP POP POP POP JUMP JUMPDEST PUSH3 0x5E6 PUSH3 0xD1C JUMP JUMPDEST PUSH20 0xFFFFFFFFFFFFFFFFFFFFFFFFFFFFFFFFFFFFFFFF AND PUSH3 0x606 PUSH3 0x7DE JUMP JUMPDEST PUSH20 0xFFFFFFFFFFFFFFFFFFFFFFFFFFFFFFFFFFFFFFFF AND EQ PUSH3 0x69B JUMPI PUSH1 0x40 MLOAD PUSH32 0x8C379A000000000000000000000000000000000000000000000000000000000 DUP2 MSTORE PUSH1 0x4 ADD DUP1 DUP1 PUSH1 0x20 ADD DUP3 DUP2 SUB DUP3 MSTORE PUSH1 0x20 DUP2 MSTORE PUSH1 0x20 ADD DUP1 PUSH32 0x4F776E61626C653A2063616C6C6572206973206E6F7420746865206F776E6572 DUP2 MSTORE POP PUSH1 0x20 ADD SWAP2 POP POP PUSH1 0x40 MLOAD DUP1 SWAP2 SUB SWAP1 PUSH3 0x698 PUSH3 0xE4A JUMP JUMPDEST POP POP JUMPDEST PUSH1 0x0 PUSH20 0xFFFFFFFFFFFFFFFFFFFFFFFFFFFFFFFFFFFFFFFF AND PUSH1 0x1 PUSH1 0x0 SWAP1 PUSH3 0x6C2 PUSH3 0xEBA JUMP JUMPDEST SWAP1 PUSH2 0x100 EXP SWAP1 DIV PUSH20 0xFFFFFFFFFFFFFFFFFFFFFFFFFFFFFFFFFFFFFFFF AND PUSH20 0xFFFFFFFFFFFFFFFFFFFFFFFFFFFFFFFFFFFFFFFF AND PUSH32 0x8BE0079C531659141344CD1FD0A4F28419497F9722A3DAAFE3B4186F6B6457E0 PUSH1 0x40 MLOAD PUSH1 0x40 MLOAD DUP1 SWAP2 SUB SWAP1 LOG3 PUSH1 0x0 PUSH1 0x1 PUSH1 0x0 PUSH2 0x100 EXP DUP2 PUSH3 0x736 PUSH3 0xEBA JUMP JUMPDEST DUP2 PUSH20 0xFFFFFFFFFFFFFFFFFFFFFFFFFFFFFFFFFFFFFFFF MUL NOT AND SWAP1 DUP4 PUSH20 0xFFFFFFFFFFFFFFFFFFFFFFFFFFFFFFFFFFFFFFFF AND MUL OR SWAP1 PUSH3 0x774 PUSH3 0xF1F JUMP JUMPDEST POP POP POP JUMP JUMPDEST PUSH1 0x0 GAS PUSH4 0x996D79A5 MSIZE DUP2 PUSH1 0xE0 SHL DUP2 MSTORE PUSH1 0x20 DUP2 PUSH1 0x4 DUP4 CALLER PUSH1 0x0 SWAP1 GAS CALL PC PUSH1 0xE ADD JUMPI RETURNDATASIZE PUSH1 0x0 DUP1 RETURNDATACOPY RETURNDATASIZE PUSH1 0x0 REVERT JUMPDEST RETURNDATASIZE PUSH1 0x1 EQ ISZERO PC PUSH1 0xA ADD JUMPI PUSH1 0x1 PUSH1 0x0 RETURN JUMPDEST DUP1 MLOAD SWAP3 POP PUSH1 0x0 JUMPDEST PUSH1 0x40 DUP2 LT ISZERO PUSH3 0x7D6 JUMPI PUSH1 0x0 DUP2 DUP4 ADD MSTORE PUSH1 0x20 DUP2 ADD SWAP1 POP PUSH3 0x7BA JUMP JUMPDEST POP POP POP SWAP1 POP SWAP1 JUMP JUMPDEST PUSH1 0x0 PUSH1 0x1 PUSH1 0x0 SWAP1 PUSH3 0x7EF PUSH3 0xEBA JUMP JUMPDEST SWAP1 PUSH2 0x100 EXP SWAP1 DIV PUSH20 0xFFFFFFFFFFFFFFFFFFFFFFFFFFFFFFFFFFFFFFFF AND SWAP1 POP SWAP1 JUMP JUMPDEST PUSH1 0x0 PUSH3 0x81D PUSH3 0xD1C JUMP JUMPDEST PUSH20 0xFFFFFFFFFFFFFFFFFFFFFFFFFFFFFFFFFFFFFFFF AND PUSH3 0x83D PUSH3 0x7DE JUMP JUMPDEST PUSH20 0xFFFFFFFFFFFFFFFFFFFFFFFFFFFFFFFFFFFFFFFF AND EQ PUSH3 0x8D2 JUMPI PUSH1 0x40 MLOAD PUSH32 0x8C379A000000000000000000000000000000000000000000000000000000000 DUP2 MSTORE PUSH1 0x4 ADD DUP1 DUP1 PUSH1 0x20 ADD DUP3 DUP2 SUB DUP3 MSTORE PUSH1 0x20 DUP2 MSTORE PUSH1 0x20 ADD DUP1 PUSH32 0x4F776E61626C653A2063616C6C6572206973206E6F7420746865206F776E6572 DUP2 MSTORE POP PUSH1 0x20 ADD SWAP2 POP POP PUSH1 0x40 MLOAD DUP1 SWAP2 SUB SWAP1 PUSH3 0x8CF PUSH3 0xE4A JUMP JUMPDEST POP POP JUMPDEST PUSH1 0x0 PUSH20 0xFFFFFFFFFFFFFFFFFFFFFFFFFFFFFFFFFFFFFFFF AND PUSH1 0x0 DUP1 PUSH3 0x8F7 PUSH3 0xEBA JUMP JUMPDEST SWAP1 PUSH2 0x100 EXP SWAP1 DIV PUSH20 0xFFFFFFFFFFFFFFFFFFFFFFFFFFFFFFFFFFFFFFFF AND PUSH20 0xFFFFFFFFFFFFFFFFFFFFFFFFFFFFFFFFFFFFFFFF AND EQ ISZERO PUSH3 0x941 JUMPI PUSH1 0x0 DUP1 PUSH3 0x93E PUSH3 0xE4A JUMP JUMPDEST POP POP JUMPDEST PUSH3 0x94D DUP4 DUP4 PUSH3 0xD2E JUMP JUMPDEST SWAP1 POP SWAP3 SWAP2 POP POP JUMP JUMPDEST PUSH1 0x0 DUP1 PUSH1 0x0 SWAP1 PUSH3 0x965 PUSH3 0xEBA JUMP JUMPDEST SWAP1 PUSH2 0x100 EXP SWAP1 DIV PUSH20 0xFFFFFFFFFFFFFFFFFFFFFFFFFFFFFFFFFFFFFFFF AND PUSH20 0xFFFFFFFFFFFFFFFFFFFFFFFFFFFFFFFFFFFFFFFF AND PUSH4 0x70A08231 GAS PUSH4 0x996D79A5 MSIZE DUP2 PUSH1 0xE0 SHL DUP2 MSTORE PUSH1 0x20 DUP2 PUSH1 0x4 DUP4 CALLER PUSH1 0x0 SWAP1 GAS CALL PC PUSH1 0xE ADD JUMPI RETURNDATASIZE PUSH1 0x0 DUP1 RETURNDATACOPY RETURNDATASIZE PUSH1 0x0 REVERT JUMPDEST RETURNDATASIZE PUSH1 0x1 EQ ISZERO PC PUSH1 0xA ADD JUMPI PUSH1 0x1 PUSH1 0x0 RETURN JUMPDEST DUP1 MLOAD SWAP3 POP PUSH1 0x0 JUMPDEST PUSH1 0x40 DUP2 LT ISZERO PUSH3 0x9F8 JUMPI PUSH1 0x0 DUP2 DUP4 ADD MSTORE PUSH1 0x20 DUP2 ADD SWAP1 POP PUSH3 0x9DC JUMP JUMPDEST POP POP POP PUSH1 0x40 MLOAD DUP3 PUSH4 0xFFFFFFFF AND PUSH1 0xE0 SHL DUP2 MSTORE PUSH1 0x4 ADD DUP1 DUP3 PUSH20 0xFFFFFFFFFFFFFFFFFFFFFFFFFFFFFFFFFFFFFFFF AND DUP2 MSTORE PUSH1 0x20 ADD SWAP2 POP POP PUSH1 0x20 PUSH1 0x40 MLOAD DUP1 DUP4 SUB DUP2 DUP7 DUP1 PUSH3 0xA42 PUSH3 0x1026 JUMP JUMPDEST ISZERO DUP1 ISZERO PUSH3 0xA5A JUMPI PUSH1 0x0 DUP1 PUSH3 0xA57 PUSH3 0xE4A JUMP JUMPDEST POP POP JUMPDEST POP GAS PUSH3 0xA66 PUSH3 0x108B JUMP JUMPDEST POP POP POP POP POP ISZERO DUP1 ISZERO PUSH3 0xA88 JUMPI RETURNDATASIZE PUSH1 0x0 DUP1 RETURNDATACOPY RETURNDATASIZE PUSH1 0x0 PUSH3 0xA85 PUSH3 0xE4A JUMP JUMPDEST POP POP JUMPDEST POP POP POP POP PUSH1 0x40 MLOAD RETURNDATASIZE PUSH1 0x20 DUP2 LT ISZERO PUSH3 0xAAA JUMPI PUSH1 0x0 DUP1 PUSH3 0xAA7 PUSH3 0xE4A JUMP JUMPDEST POP POP JUMPDEST DUP2 ADD SWAP1 DUP1 DUP1 MLOAD SWAP1 PUSH1 0x20 ADD SWAP1 SWAP3 SWAP2 SWAP1 POP POP POP SWAP1 POP SWAP1 JUMP JUMPDEST PUSH3 0xACA PUSH3 0xD1C JUMP JUMPDEST PUSH20 0xFFFFFFFFFFFFFFFFFFFFFFFFFFFFFFFFFFFFFFFF AND PUSH3 0xAEA PUSH3 0x7DE JUMP JUMPDEST PUSH20 0xFFFFFFFFFFFFFFFFFFFFFFFFFFFFFFFFFFFFFFFF AND EQ PUSH3 0xB7F JUMPI PUSH1 0x40 MLOAD PUSH32 0x8C379A000000000000000000000000000000000000000000000000000000000 DUP2 MSTORE PUSH1 0x4 ADD DUP1 DUP1 PUSH1 0x20 ADD DUP3 DUP2 SUB DUP3 MSTORE PUSH1 0x20 DUP2 MSTORE PUSH1 0x20 ADD DUP1 PUSH32 0x4F776E61626C653A2063616C6C6572206973206E6F7420746865206F776E6572 DUP2 MSTORE POP PUSH1 0x20 ADD SWAP2 POP POP PUSH1 0x40 MLOAD DUP1 SWAP2 SUB SWAP1 PUSH3 0xB7C PUSH3 0xE4A JUMP JUMPDEST POP POP JUMPDEST PUSH1 0x0 PUSH20 0xFFFFFFFFFFFFFFFFFFFFFFFFFFFFFFFFFFFFFFFF AND DUP2 PUSH20 0xFFFFFFFFFFFFFFFFFFFFFFFFFFFFFFFFFFFFFFFF AND EQ ISZERO PUSH3 0xC12 JUMPI PUSH1 0x40 MLOAD PUSH32 0x8C379A000000000000000000000000000000000000000000000000000000000 DUP2 MSTORE PUSH1 0x4 ADD DUP1 DUP1 PUSH1 0x20 ADD DUP3 DUP2 SUB DUP3 MSTORE PUSH1 0x26 DUP2 MSTORE PUSH1 0x20 ADD DUP1 PUSH3 0x30D7 PUSH1 0x26 SWAP2 CODECOPY PUSH1 0x40 ADD SWAP2 POP POP PUSH1 0x40 MLOAD DUP1 SWAP2 SUB SWAP1 PUSH3 0xC0F PUSH3 0xE4A JUMP JUMPDEST POP POP JUMPDEST DUP1 PUSH20 0xFFFFFFFFFFFFFFFFFFFFFFFFFFFFFFFFFFFFFFFF AND PUSH1 0x1 PUSH1 0x0 SWAP1 PUSH3 0xC38 PUSH3 0xEBA JUMP JUMPDEST SWAP1 PUSH2 0x100 EXP SWAP1 DIV PUSH20 0xFFFFFFFFFFFFFFFFFFFFFFFFFFFFFFFFFFFFFFFF AND PUSH20 0xFFFFFFFFFFFFFFFFFFFFFFFFFFFFFFFFFFFFFFFF AND PUSH32 0x8BE0079C531659141344CD1FD0A4F28419497F9722A3DAAFE3B4186F6B6457E0 PUSH1 0x40 MLOAD PUSH1 0x40 MLOAD DUP1 SWAP2 SUB SWAP1 LOG3 DUP1 PUSH1 0x1 PUSH1 0x0 PUSH2 0x100 EXP DUP2 PUSH3 0xCAB PUSH3 0xEBA JUMP JUMPDEST DUP2 PUSH20 0xFFFFFFFFFFFFFFFFFFFFFFFFFFFFFFFFFFFFFFFF MUL NOT AND SWAP1 DUP4 PUSH20 0xFFFFFFFFFFFFFFFFFFFFFFFFFFFFFFFFFFFFFFFF AND MUL OR SWAP1 PUSH3 0xCE9 PUSH3 0xF1F JUMP JUMPDEST POP POP POP POP JUMP JUMPDEST PUSH1 0x0 DUP1 PUSH3 0xCFC PUSH3 0xEBA JUMP JUMPDEST SWAP1 PUSH2 0x100 EXP SWAP1 DIV PUSH20 0xFFFFFFFFFFFFFFFFFFFFFFFFFFFFFFFFFFFFFFFF AND DUP2 JUMP JUMPDEST PUSH1 0x0 GAS PUSH3 0xD29 PUSH3 0x1196 JUMP JUMPDEST SWAP1 POP SWAP1 JUMP JUMPDEST PUSH1 0x0 DUP1 PUSH1 0x0 SWAP1 PUSH3 0xD3E PUSH3 0xEBA JUMP JUMPDEST SWAP1 PUSH2 0x100 EXP SWAP1 DIV PUSH20 0xFFFFFFFFFFFFFFFFFFFFFFFFFFFFFFFFFFFFFFFF AND PUSH20 0xFFFFFFFFFFFFFFFFFFFFFFFFFFFFFFFFFFFFFFFF AND PUSH4 0xA9059CBB DUP5 DUP5 PUSH1 0x40 MLOAD DUP4 PUSH4 0xFFFFFFFF AND PUSH1 0xE0 SHL DUP2 MSTORE PUSH1 0x4 ADD DUP1 DUP4 PUSH20 0xFFFFFFFFFFFFFFFFFFFFFFFFFFFFFFFFFFFFFFFF AND DUP2 MSTORE PUSH1 0x20 ADD DUP3 DUP2 MSTORE PUSH1 0x20 ADD SWAP3 POP POP POP PUSH1 0x20 PUSH1 0x40 MLOAD DUP1 DUP4 SUB DUP2 PUSH1 0x0 DUP8 DUP1 PUSH3 0xDC8 PUSH3 0x1026 JUMP JUMPDEST ISZERO DUP1 ISZERO PUSH3 0xDE0 JUMPI PUSH1 0x0 DUP1 PUSH3 0xDDD PUSH3 0xE4A JUMP JUMPDEST POP POP JUMPDEST POP GAS PUSH3 0xDEC PUSH3 0x11F5 JUMP JUMPDEST POP POP POP POP POP POP ISZERO DUP1 ISZERO PUSH3 0xE0F JUMPI RETURNDATASIZE PUSH1 0x0 DUP1 RETURNDATACOPY RETURNDATASIZE PUSH1 0x0 PUSH3 0xE0C PUSH3 0xE4A JUMP JUMPDEST POP POP JUMPDEST POP POP POP POP PUSH1 0x40 MLOAD RETURNDATASIZE PUSH1 0x20 DUP2 LT ISZERO PUSH3 0xE31 JUMPI PUSH1 0x0 DUP1 PUSH3 0xE2E PUSH3 0xE4A JUMP JUMPDEST POP POP JUMPDEST DUP2 ADD SWAP1 DUP1 DUP1 MLOAD SWAP1 PUSH1 0x20 ADD SWAP1 SWAP3 SWAP2 SWAP1 POP POP POP SWAP1 POP SWAP3 SWAP2 POP POP JUMP JUMPDEST PUSH4 0x2A2A7ADB MSIZE DUP2 PUSH1 0xE0 SHL DUP2 MSTORE PUSH1 0x4 DUP2 ADD PUSH1 0x20 DUP2 MSTORE DUP6 PUSH1 0x20 DUP3 ADD MSTORE PUSH1 0x0 JUMPDEST DUP7 DUP2 LT ISZERO PUSH3 0xE87 JUMPI DUP1 DUP7 ADD MLOAD DUP2 PUSH1 0x40 DUP5 ADD ADD MSTORE PUSH1 0x20 DUP2 ADD SWAP1 POP PUSH3 0xE67 JUMP JUMPDEST POP PUSH1 0x20 DUP3 DUP8 PUSH1 0x64 ADD DUP5 CALLER PUSH1 0x0 SWAP1 GAS CALL PC PUSH1 0xE ADD JUMPI RETURNDATASIZE PUSH1 0x0 DUP1 RETURNDATACOPY RETURNDATASIZE PUSH1 0x0 REVERT JUMPDEST RETURNDATASIZE PUSH1 0x1 EQ ISZERO PC PUSH1 0xA ADD JUMPI PUSH1 0x1 PUSH1 0x0 RETURN JUMPDEST POP POP POP JUMP JUMPDEST PUSH4 0x3DAA959 MSIZE DUP2 PUSH1 0xE0 SHL DUP2 MSTORE DUP4 PUSH1 0x4 DUP3 ADD MSTORE PUSH1 0x20 DUP2 PUSH1 0x24 DUP4 CALLER PUSH1 0x0 SWAP1 GAS CALL PC PUSH1 0xE ADD JUMPI RETURNDATASIZE PUSH1 0x0 DUP1 RETURNDATACOPY RETURNDATASIZE PUSH1 0x0 REVERT JUMPDEST RETURNDATASIZE PUSH1 0x1 EQ ISZERO PC PUSH1 0xA ADD JUMPI PUSH1 0x1 PUSH1 0x0 RETURN JUMPDEST DUP1 MLOAD SWAP4 POP PUSH1 0x0 JUMPDEST PUSH1 0x40 DUP2 LT ISZERO PUSH3 0xF1A JUMPI PUSH1 0x0 DUP2 DUP4 ADD MSTORE PUSH1 0x20 DUP2 ADD SWAP1 POP PUSH3 0xEFE JUMP JUMPDEST POP POP POP JUMP JUMPDEST PUSH4 0x22BD64C0 MSIZE DUP2 PUSH1 0xE0 SHL DUP2 MSTORE DUP4 PUSH1 0x4 DUP3 ADD MSTORE DUP5 PUSH1 0x24 DUP3 ADD MSTORE PUSH1 0x0 DUP2 PUSH1 0x44 DUP4 CALLER PUSH1 0x0 SWAP1 GAS CALL PC PUSH1 0xE ADD JUMPI RETURNDATASIZE PUSH1 0x0 DUP1 RETURNDATACOPY RETURNDATASIZE PUSH1 0x0 REVERT JUMPDEST RETURNDATASIZE PUSH1 0x1 EQ ISZERO PC PUSH1 0xA ADD JUMPI PUSH1 0x1 PUSH1 0x0 RETURN JUMPDEST PUSH1 0x0 JUMPDEST PUSH1 0x40 DUP2 LT ISZERO PUSH3 0xF81 JUMPI PUSH1 0x0 DUP2 DUP4 ADD MSTORE PUSH1 0x20 DUP2 ADD SWAP1 POP PUSH3 0xF65 JUMP JUMPDEST POP POP POP JUMP JUMPDEST PUSH2 0x1DD6 DUP1 PUSH3 0x1301 DUP4 CODECOPY ADD SWAP1 JUMP JUMPDEST PUSH4 0x14AA2FF7 MSIZE DUP2 PUSH1 0xE0 SHL DUP2 MSTORE PUSH1 0x4 DUP2 ADD PUSH1 0x20 DUP2 MSTORE DUP7 PUSH1 0x20 DUP3 ADD MSTORE PUSH1 0x0 JUMPDEST DUP8 DUP2 LT ISZERO PUSH3 0xFD1 JUMPI DUP1 DUP8 ADD MLOAD DUP2 PUSH1 0x40 DUP5 ADD ADD MSTORE PUSH1 0x20 DUP2 ADD SWAP1 POP PUSH3 0xFB1 JUMP JUMPDEST POP PUSH1 0x20 DUP3 DUP9 PUSH1 0x64 ADD DUP5 CALLER PUSH1 0x0 SWAP1 GAS CALL PC PUSH1 0xE ADD JUMPI RETURNDATASIZE PUSH1 0x0 DUP1 RETURNDATACOPY RETURNDATASIZE PUSH1 0x0 REVERT JUMPDEST RETURNDATASIZE PUSH1 0x1 EQ ISZERO PC PUSH1 0xA ADD JUMPI PUSH1 0x1 PUSH1 0x0 RETURN JUMPDEST DUP2 MLOAD SWAP7 POP MSIZE DUP3 JUMPDEST DUP2 DUP2 LT ISZERO PUSH3 0x101F JUMPI PUSH1 0x0 DUP2 MSTORE PUSH1 0x20 DUP2 ADD SWAP1 POP PUSH3 0x1006 JUMP JUMPDEST POP POP POP POP POP JUMP JUMPDEST PUSH4 0x8435035B MSIZE DUP2 PUSH1 0xE0 SHL DUP2 MSTORE DUP4 PUSH1 0x4 DUP3 ADD MSTORE PUSH1 0x20 DUP2 PUSH1 0x24 DUP4 CALLER PUSH1 0x0 SWAP1 GAS CALL PC PUSH1 0xE ADD JUMPI RETURNDATASIZE PUSH1 0x0 DUP1 RETURNDATACOPY RETURNDATASIZE PUSH1 0x0 REVERT JUMPDEST RETURNDATASIZE PUSH1 0x1 EQ ISZERO PC PUSH1 0xA ADD JUMPI PUSH1 0x1 PUSH1 0x0 RETURN JUMPDEST DUP1 MLOAD SWAP4 POP PUSH1 0x0 JUMPDEST PUSH1 0x40 DUP2 LT ISZERO PUSH3 0x1086 JUMPI PUSH1 0x0 DUP2 DUP4 ADD MSTORE PUSH1 0x20 DUP2 ADD SWAP1 POP PUSH3 0x106A JUMP JUMPDEST POP POP POP JUMP JUMPDEST PUSH4 0x8540661F MSIZE DUP2 PUSH1 0xE0 SHL DUP2 MSTORE PUSH3 0x10CD JUMP JUMPDEST PUSH1 0x0 DUP2 SWAP1 POP DUP2 DUP4 GT ISZERO PUSH3 0x10AF JUMPI DUP3 SWAP1 POP JUMPDEST SWAP3 SWAP2 POP POP JUMP JUMPDEST PUSH1 0x0 DUP2 SWAP1 POP DUP2 DUP4 LT ISZERO PUSH3 0x10C7 JUMPI DUP3 SWAP1 POP JUMPDEST SWAP3 SWAP2 POP POP JUMP JUMPDEST DUP4 PUSH1 0x4 DUP3 ADD MSTORE DUP5 PUSH1 0x24 DUP3 ADD MSTORE PUSH1 0x60 PUSH1 0x44 DUP3 ADD MSTORE DUP7 PUSH1 0x64 DUP3 ADD MSTORE PUSH1 0x84 DUP2 ADD PUSH1 0x0 JUMPDEST DUP9 DUP2 LT ISZERO PUSH3 0x110A JUMPI DUP1 DUP9 ADD MLOAD DUP2 DUP4 ADD MSTORE PUSH1 0x20 DUP2 ADD SWAP1 POP PUSH3 0x10ED JUMP JUMPDEST POP PUSH1 0x60 DUP3 DUP10 PUSH1 0xA4 ADD DUP5 CALLER PUSH1 0x0 SWAP1 GAS CALL PC PUSH1 0xE ADD JUMPI RETURNDATASIZE PUSH1 0x0 DUP1 RETURNDATACOPY RETURNDATASIZE PUSH1 0x0 REVERT JUMPDEST RETURNDATASIZE PUSH1 0x1 EQ ISZERO PC PUSH1 0xA ADD JUMPI PUSH1 0x1 PUSH1 0x0 RETURN JUMPDEST DUP2 MLOAD PUSH1 0x40 DUP4 ADD MLOAD RETURNDATASIZE PUSH1 0x0 DUP6 RETURNDATACOPY DUP12 DUP12 DUP3 PUSH1 0x60 DUP8 ADD CALLER POP PUSH1 0x0 PUSH1 0x4 GAS CALL POP MSIZE PUSH3 0x1161 DUP14 RETURNDATASIZE PUSH3 0x10B5 JUMP JUMPDEST DUP13 ADD PUSH3 0x116F DUP2 DUP8 PUSH3 0x109D JUMP JUMPDEST JUMPDEST DUP3 DUP2 LT ISZERO PUSH3 0x1189 JUMPI PUSH1 0x0 DUP2 MSTORE PUSH1 0x20 DUP2 ADD SWAP1 POP PUSH3 0x1170 JUMP JUMPDEST POP DUP4 SWAP14 POP POP POP POP POP POP POP POP JUMP JUMPDEST PUSH4 0x73509064 MSIZE DUP2 PUSH1 0xE0 SHL DUP2 MSTORE PUSH1 0x20 DUP2 PUSH1 0x4 DUP4 CALLER PUSH1 0x0 SWAP1 GAS CALL PC PUSH1 0xE ADD JUMPI RETURNDATASIZE PUSH1 0x0 DUP1 RETURNDATACOPY RETURNDATASIZE PUSH1 0x0 REVERT JUMPDEST RETURNDATASIZE PUSH1 0x1 EQ ISZERO PC PUSH1 0xA ADD JUMPI PUSH1 0x1 PUSH1 0x0 RETURN JUMPDEST DUP1 MLOAD SWAP4 POP PUSH1 0x0 JUMPDEST PUSH1 0x40 DUP2 LT ISZERO PUSH3 0x11F0 JUMPI PUSH1 0x0 DUP2 DUP4 ADD MSTORE PUSH1 0x20 DUP2 ADD SWAP1 POP PUSH3 0x11D4 JUMP JUMPDEST POP POP POP JUMP JUMPDEST PUSH4 0x85979F76 MSIZE DUP2 PUSH1 0xE0 SHL DUP2 MSTORE PUSH3 0x1237 JUMP JUMPDEST PUSH1 0x0 DUP2 SWAP1 POP DUP2 DUP4 GT ISZERO PUSH3 0x1219 JUMPI DUP3 SWAP1 POP JUMPDEST SWAP3 SWAP2 POP POP JUMP JUMPDEST PUSH1 0x0 DUP2 SWAP1 POP DUP2 DUP4 LT ISZERO PUSH3 0x1231 JUMPI DUP3 SWAP1 POP JUMPDEST SWAP3 SWAP2 POP POP JUMP JUMPDEST DUP4 PUSH1 0x4 DUP3 ADD MSTORE DUP5 PUSH1 0x24 DUP3 ADD MSTORE PUSH1 0x60 PUSH1 0x44 DUP3 ADD MSTORE DUP8 PUSH1 0x64 DUP3 ADD MSTORE PUSH1 0x84 DUP2 ADD PUSH1 0x0 JUMPDEST DUP10 DUP2 LT ISZERO PUSH3 0x1274 JUMPI DUP1 DUP10 ADD MLOAD DUP2 DUP4 ADD MSTORE PUSH1 0x20 DUP2 ADD SWAP1 POP PUSH3 0x1257 JUMP JUMPDEST POP PUSH1 0x60 DUP3 DUP11 PUSH1 0xA4 ADD DUP5 CALLER PUSH1 0x0 SWAP1 GAS CALL PC PUSH1 0xE ADD JUMPI RETURNDATASIZE PUSH1 0x0 DUP1 RETURNDATACOPY RETURNDATASIZE PUSH1 0x0 REVERT JUMPDEST RETURNDATASIZE PUSH1 0x1 EQ ISZERO PC PUSH1 0xA ADD JUMPI PUSH1 0x1 PUSH1 0x0 RETURN JUMPDEST DUP2 MLOAD PUSH1 0x40 DUP4 ADD MLOAD RETURNDATASIZE PUSH1 0x0 DUP6 RETURNDATACOPY DUP13 DUP13 DUP3 PUSH1 0x60 DUP8 ADD CALLER POP PUSH1 0x0 PUSH1 0x4 GAS CALL POP MSIZE PUSH3 0x12CB DUP15 RETURNDATASIZE PUSH3 0x121F JUMP JUMPDEST DUP14 ADD PUSH3 0x12D9 DUP2 DUP8 PUSH3 0x1207 JUMP JUMPDEST JUMPDEST DUP3 DUP2 LT ISZERO PUSH3 0x12F3 JUMPI PUSH1 0x0 DUP2 MSTORE PUSH1 0x20 DUP2 ADD SWAP1 POP PUSH3 0x12DA JUMP JUMPDEST POP DUP4 SWAP15 POP POP POP POP POP POP POP POP JUMP INVALID PUSH1 0x80 PUSH1 0x40 MSTORE CALLVALUE DUP1 ISZERO PUSH3 0x1C JUMPI PUSH1 0x0 DUP1 PUSH3 0x19 PUSH3 0x32C JUMP JUMPDEST POP POP JUMPDEST POP PUSH1 0x40 MLOAD PUSH3 0x1DD6 CODESIZE SUB DUP1 PUSH3 0x1DD6 DUP4 CODECOPY DUP2 DUP2 ADD PUSH1 0x40 MSTORE PUSH1 0xA0 DUP2 LT ISZERO PUSH3 0x4D JUMPI PUSH1 0x0 DUP1 PUSH3 0x4A PUSH3 0x32C JUMP JUMPDEST POP POP JUMPDEST DUP2 ADD SWAP1 DUP1 DUP1 MLOAD SWAP1 PUSH1 0x20 ADD SWAP1 SWAP3 SWAP2 SWAP1 DUP1 MLOAD SWAP1 PUSH1 0x20 ADD SWAP1 SWAP3 SWAP2 SWAP1 DUP1 MLOAD SWAP1 PUSH1 0x20 ADD SWAP1 SWAP3 SWAP2 SWAP1 DUP1 MLOAD SWAP1 PUSH1 0x20 ADD SWAP1 SWAP3 SWAP2 SWAP1 DUP1 MLOAD SWAP1 PUSH1 0x20 ADD SWAP1 SWAP3 SWAP2 SWAP1 POP POP POP PUSH1 0x0 PUSH3 0x98 PUSH3 0x286 PUSH1 0x20 SHL PUSH1 0x20 SHR JUMP JUMPDEST SWAP1 POP DUP1 PUSH1 0x0 DUP1 PUSH2 0x100 EXP DUP2 PUSH3 0xAD PUSH3 0x39C JUMP JUMPDEST DUP2 PUSH20 0xFFFFFFFFFFFFFFFFFFFFFFFFFFFFFFFFFFFFFFFF MUL NOT AND SWAP1 DUP4 PUSH20 0xFFFFFFFFFFFFFFFFFFFFFFFFFFFFFFFFFFFFFFFF AND MUL OR SWAP1 PUSH3 0xEB PUSH3 0x401 JUMP JUMPDEST POP POP POP DUP1 PUSH20 0xFFFFFFFFFFFFFFFFFFFFFFFFFFFFFFFFFFFFFFFF AND PUSH1 0x0 PUSH20 0xFFFFFFFFFFFFFFFFFFFFFFFFFFFFFFFFFFFFFFFF AND PUSH32 0x8BE0079C531659141344CD1FD0A4F28419497F9722A3DAAFE3B4186F6B6457E0 PUSH1 0x40 MLOAD PUSH1 0x40 MLOAD DUP1 SWAP2 SUB SWAP1 LOG3 POP PUSH1 0x0 PUSH20 0xFFFFFFFFFFFFFFFFFFFFFFFFFFFFFFFFFFFFFFFF AND DUP6 PUSH20 0xFFFFFFFFFFFFFFFFFFFFFFFFFFFFFFFFFFFFFFFF AND EQ ISZERO PUSH3 0x190 JUMPI PUSH1 0x0 DUP1 PUSH3 0x18D PUSH3 0x32C JUMP JUMPDEST POP POP JUMPDEST DUP2 DUP4 GT ISZERO PUSH3 0x1A9 JUMPI PUSH1 0x0 DUP1 PUSH3 0x1A6 PUSH3 0x32C JUMP JUMPDEST POP POP JUMPDEST DUP5 PUSH1 0x1 PUSH1 0x0 PUSH2 0x100 EXP DUP2 PUSH3 0x1BD PUSH3 0x39C JUMP JUMPDEST DUP2 PUSH20 0xFFFFFFFFFFFFFFFFFFFFFFFFFFFFFFFFFFFFFFFF MUL NOT AND SWAP1 DUP4 PUSH20 0xFFFFFFFFFFFFFFFFFFFFFFFFFFFFFFFFFFFFFFFF AND MUL OR SWAP1 PUSH3 0x1FB PUSH3 0x401 JUMP JUMPDEST POP POP POP DUP1 PUSH1 0x5 PUSH1 0x0 PUSH2 0x100 EXP DUP2 PUSH3 0x212 PUSH3 0x39C JUMP JUMPDEST DUP2 PUSH1 0xFF MUL NOT AND SWAP1 DUP4 ISZERO ISZERO MUL OR SWAP1 PUSH3 0x229 PUSH3 0x401 JUMP JUMPDEST POP POP POP DUP2 PUSH1 0x4 DUP2 SWAP1 PUSH3 0x23B PUSH3 0x401 JUMP JUMPDEST POP POP POP PUSH3 0x258 DUP4 DUP6 PUSH3 0x298 PUSH1 0x20 SHL PUSH3 0x1216 OR SWAP1 SWAP2 SWAP1 PUSH1 0x20 SHR JUMP JUMPDEST PUSH1 0x2 DUP2 SWAP1 PUSH3 0x266 PUSH3 0x401 JUMP JUMPDEST POP POP POP DUP4 PUSH1 0x3 DUP2 SWAP1 PUSH3 0x278 PUSH3 0x401 JUMP JUMPDEST POP POP POP POP POP POP POP POP PUSH3 0x4C7 JUMP JUMPDEST PUSH1 0x0 GAS PUSH3 0x293 PUSH3 0x468 JUMP JUMPDEST SWAP1 POP SWAP1 JUMP JUMPDEST PUSH1 0x0 DUP1 DUP3 DUP5 ADD SWAP1 POP DUP4 DUP2 LT ISZERO PUSH3 0x322 JUMPI PUSH1 0x40 MLOAD PUSH32 0x8C379A000000000000000000000000000000000000000000000000000000000 DUP2 MSTORE PUSH1 0x4 ADD DUP1 DUP1 PUSH1 0x20 ADD DUP3 DUP2 SUB DUP3 MSTORE PUSH1 0x1B DUP2 MSTORE PUSH1 0x20 ADD DUP1 PUSH32 0x536166654D6174683A206164646974696F6E206F766572666C6F770000000000 DUP2 MSTORE POP PUSH1 0x20 ADD SWAP2 POP POP PUSH1 0x40 MLOAD DUP1 SWAP2 SUB SWAP1 PUSH3 0x31F PUSH3 0x32C JUMP JUMPDEST POP POP JUMPDEST DUP1 SWAP2 POP POP SWAP3 SWAP2 POP POP JUMP JUMPDEST PUSH4 0x2A2A7ADB MSIZE DUP2 PUSH1 0xE0 SHL DUP2 MSTORE PUSH1 0x4 DUP2 ADD PUSH1 0x20 DUP2 MSTORE DUP6 PUSH1 0x20 DUP3 ADD MSTORE PUSH1 0x0 JUMPDEST DUP7 DUP2 LT ISZERO PUSH3 0x369 JUMPI DUP1 DUP7 ADD MLOAD DUP2 PUSH1 0x40 DUP5 ADD ADD MSTORE PUSH1 0x20 DUP2 ADD SWAP1 POP PUSH3 0x349 JUMP JUMPDEST POP PUSH1 0x20 DUP3 DUP8 PUSH1 0x64 ADD DUP5 CALLER PUSH1 0x0 SWAP1 GAS CALL PC PUSH1 0xE ADD JUMPI RETURNDATASIZE PUSH1 0x0 DUP1 RETURNDATACOPY RETURNDATASIZE PUSH1 0x0 REVERT JUMPDEST RETURNDATASIZE PUSH1 0x1 EQ ISZERO PC PUSH1 0xA ADD JUMPI PUSH1 0x1 PUSH1 0x0 RETURN JUMPDEST POP POP POP JUMP JUMPDEST PUSH4 0x3DAA959 MSIZE DUP2 PUSH1 0xE0 SHL DUP2 MSTORE DUP4 PUSH1 0x4 DUP3 ADD MSTORE PUSH1 0x20 DUP2 PUSH1 0x24 DUP4 CALLER PUSH1 0x0 SWAP1 GAS CALL PC PUSH1 0xE ADD JUMPI RETURNDATASIZE PUSH1 0x0 DUP1 RETURNDATACOPY RETURNDATASIZE PUSH1 0x0 REVERT JUMPDEST RETURNDATASIZE PUSH1 0x1 EQ ISZERO PC PUSH1 0xA ADD JUMPI PUSH1 0x1 PUSH1 0x0 RETURN JUMPDEST DUP1 MLOAD SWAP4 POP PUSH1 0x0 JUMPDEST PUSH1 0x40 DUP2 LT ISZERO PUSH3 0x3FC JUMPI PUSH1 0x0 DUP2 DUP4 ADD MSTORE PUSH1 0x20 DUP2 ADD SWAP1 POP PUSH3 0x3E0 JUMP JUMPDEST POP POP POP JUMP JUMPDEST PUSH4 0x22BD64C0 MSIZE DUP2 PUSH1 0xE0 SHL DUP2 MSTORE DUP4 PUSH1 0x4 DUP3 ADD MSTORE DUP5 PUSH1 0x24 DUP3 ADD MSTORE PUSH1 0x0 DUP2 PUSH1 0x44 DUP4 CALLER PUSH1 0x0 SWAP1 GAS CALL PC PUSH1 0xE ADD JUMPI RETURNDATASIZE PUSH1 0x0 DUP1 RETURNDATACOPY RETURNDATASIZE PUSH1 0x0 REVERT JUMPDEST RETURNDATASIZE PUSH1 0x1 EQ ISZERO PC PUSH1 0xA ADD JUMPI PUSH1 0x1 PUSH1 0x0 RETURN JUMPDEST PUSH1 0x0 JUMPDEST PUSH1 0x40 DUP2 LT ISZERO PUSH3 0x463 JUMPI PUSH1 0x0 DUP2 DUP4 ADD MSTORE PUSH1 0x20 DUP2 ADD SWAP1 POP PUSH3 0x447 JUMP JUMPDEST POP POP POP JUMP JUMPDEST PUSH4 0x73509064 MSIZE DUP2 PUSH1 0xE0 SHL DUP2 MSTORE PUSH1 0x20 DUP2 PUSH1 0x4 DUP4 CALLER PUSH1 0x0 SWAP1 GAS CALL PC PUSH1 0xE ADD JUMPI RETURNDATASIZE PUSH1 0x0 DUP1 RETURNDATACOPY RETURNDATASIZE PUSH1 0x0 REVERT JUMPDEST RETURNDATASIZE PUSH1 0x1 EQ ISZERO PC PUSH1 0xA ADD JUMPI PUSH1 0x1 PUSH1 0x0 RETURN JUMPDEST DUP1 MLOAD SWAP4 POP PUSH1 0x0 JUMPDEST PUSH1 0x40 DUP2 LT ISZERO PUSH3 0x4C2 JUMPI PUSH1 0x0 DUP2 DUP4 ADD MSTORE PUSH1 0x20 DUP2 ADD SWAP1 POP PUSH3 0x4A6 JUMP JUMPDEST POP POP POP JUMP JUMPDEST PUSH2 0x18FF DUP1 PUSH3 0x4D7 PUSH1 0x0 CODECOPY PUSH1 0x0 RETURN INVALID PUSH1 0x80 PUSH1 0x40 MSTORE CALLVALUE DUP1 ISZERO PUSH2 0x19 JUMPI PUSH1 0x0 DUP1 PUSH2 0x16 PUSH2 0x1464 JUMP JUMPDEST POP POP JUMPDEST POP PUSH1 0x4 CALLDATASIZE LT PUSH2 0xF3 JUMPI PUSH1 0x0 CALLDATALOAD PUSH1 0xE0 SHR DUP1 PUSH4 0x74A8F103 GT PUSH2 0x95 JUMPI DUP1 PUSH4 0x9852595C GT PUSH2 0x6F JUMPI DUP1 PUSH4 0x9852595C EQ PUSH2 0x32B JUMPI DUP1 PUSH4 0xBE9A6555 EQ PUSH2 0x38C JUMPI DUP1 PUSH4 0xF2FDE38B EQ PUSH2 0x3AA JUMPI DUP1 PUSH4 0xFA01DC06 EQ PUSH2 0x3F7 JUMPI PUSH2 0xF3 JUMP JUMPDEST DUP1 PUSH4 0x74A8F103 EQ PUSH2 0x28A JUMPI DUP1 PUSH4 0x872A7810 EQ PUSH2 0x2D7 JUMPI DUP1 PUSH4 0x8DA5CB5B EQ PUSH2 0x2F7 JUMPI PUSH2 0xF3 JUMP JUMPDEST DUP1 PUSH4 0x19165587 GT PUSH2 0xD1 JUMPI DUP1 PUSH4 0x19165587 EQ PUSH2 0x19E JUMPI DUP1 PUSH4 0x384711CC EQ PUSH2 0x1EB JUMPI DUP1 PUSH4 0x38AF3EED EQ PUSH2 0x24C JUMPI DUP1 PUSH4 0x715018A6 EQ PUSH2 0x280 JUMPI PUSH2 0xF3 JUMP JUMPDEST DUP1 PUSH4 0xFB5A6B4 EQ PUSH2 0x101 JUMPI DUP1 PUSH4 0x13D033C0 EQ PUSH2 0x11F JUMPI DUP1 PUSH4 0x1726CBC8 EQ PUSH2 0x13D JUMPI JUMPDEST PUSH1 0x0 DUP1 PUSH2 0xFE PUSH2 0x1464 JUMP JUMPDEST POP POP JUMPDEST PUSH2 0x109 PUSH2 0x45A JUMP JUMPDEST PUSH1 0x40 MLOAD DUP1 DUP3 DUP2 MSTORE PUSH1 0x20 ADD SWAP2 POP POP PUSH1 0x40 MLOAD DUP1 SWAP2 SUB SWAP1 RETURN JUMPDEST PUSH2 0x127 PUSH2 0x467 JUMP JUMPDEST PUSH1 0x40 MLOAD DUP1 DUP3 DUP2 MSTORE PUSH1 0x20 ADD SWAP2 POP POP PUSH1 0x40 MLOAD DUP1 SWAP2 SUB SWAP1 RETURN JUMPDEST PUSH2 0x188 PUSH1 0x4 DUP1 CALLDATASIZE SUB PUSH1 0x20 DUP2 LT ISZERO PUSH2 0x15C JUMPI PUSH1 0x0 DUP1 PUSH2 0x159 PUSH2 0x1464 JUMP JUMPDEST POP POP JUMPDEST DUP2 ADD SWAP1 DUP1 DUP1 CALLDATALOAD PUSH20 0xFFFFFFFFFFFFFFFFFFFFFFFFFFFFFFFFFFFFFFFF AND SWAP1 PUSH1 0x20 ADD SWAP1 SWAP3 SWAP2 SWAP1 POP POP POP PUSH2 0x474 JUMP JUMPDEST PUSH1 0x40 MLOAD DUP1 DUP3 DUP2 MSTORE PUSH1 0x20 ADD SWAP2 POP POP PUSH1 0x40 MLOAD DUP1 SWAP2 SUB SWAP1 RETURN JUMPDEST PUSH2 0x1E9 PUSH1 0x4 DUP1 CALLDATASIZE SUB PUSH1 0x20 DUP2 LT ISZERO PUSH2 0x1BD JUMPI PUSH1 0x0 DUP1 PUSH2 0x1BA PUSH2 0x1464 JUMP JUMPDEST POP POP JUMPDEST DUP2 ADD SWAP1 DUP1 DUP1 CALLDATALOAD PUSH20 0xFFFFFFFFFFFFFFFFFFFFFFFFFFFFFFFFFFFFFFFF AND SWAP1 PUSH1 0x20 ADD SWAP1 SWAP3 SWAP2 SWAP1 POP POP POP PUSH2 0x4DE JUMP JUMPDEST STOP JUMPDEST PUSH2 0x236 PUSH1 0x4 DUP1 CALLDATASIZE SUB PUSH1 0x20 DUP2 LT ISZERO PUSH2 0x20A JUMPI PUSH1 0x0 DUP1 PUSH2 0x207 PUSH2 0x1464 JUMP JUMPDEST POP POP JUMPDEST DUP2 ADD SWAP1 DUP1 DUP1 CALLDATALOAD PUSH20 0xFFFFFFFFFFFFFFFFFFFFFFFFFFFFFFFFFFFFFFFF AND SWAP1 PUSH1 0x20 ADD SWAP1 SWAP3 SWAP2 SWAP1 POP POP POP PUSH2 0x6E6 JUMP JUMPDEST PUSH1 0x40 MLOAD DUP1 DUP3 DUP2 MSTORE PUSH1 0x20 ADD SWAP2 POP POP PUSH1 0x40 MLOAD DUP1 SWAP2 SUB SWAP1 RETURN JUMPDEST PUSH2 0x254 PUSH2 0x98C JUMP JUMPDEST PUSH1 0x40 MLOAD DUP1 DUP3 PUSH20 0xFFFFFFFFFFFFFFFFFFFFFFFFFFFFFFFFFFFFFFFF AND DUP2 MSTORE PUSH1 0x20 ADD SWAP2 POP POP PUSH1 0x40 MLOAD DUP1 SWAP2 SUB SWAP1 RETURN JUMPDEST PUSH2 0x288 PUSH2 0x9B9 JUMP JUMPDEST STOP JUMPDEST PUSH2 0x2D5 PUSH1 0x4 DUP1 CALLDATASIZE SUB PUSH1 0x20 DUP2 LT ISZERO PUSH2 0x2A9 JUMPI PUSH1 0x0 DUP1 PUSH2 0x2A6 PUSH2 0x1464 JUMP JUMPDEST POP POP JUMPDEST DUP2 ADD SWAP1 DUP1 DUP1 CALLDATALOAD PUSH20 0xFFFFFFFFFFFFFFFFFFFFFFFFFFFFFFFFFFFFFFFF AND SWAP1 PUSH1 0x20 ADD SWAP1 SWAP3 SWAP2 SWAP1 POP POP POP PUSH2 0xB46 JUMP JUMPDEST STOP JUMPDEST PUSH2 0x2DF PUSH2 0xF5E JUMP JUMPDEST PUSH1 0x40 MLOAD DUP1 DUP3 ISZERO ISZERO DUP2 MSTORE PUSH1 0x20 ADD SWAP2 POP POP PUSH1 0x40 MLOAD DUP1 SWAP2 SUB SWAP1 RETURN JUMPDEST PUSH2 0x2FF PUSH2 0xF78 JUMP JUMPDEST PUSH1 0x40 MLOAD DUP1 DUP3 PUSH20 0xFFFFFFFFFFFFFFFFFFFFFFFFFFFFFFFFFFFFFFFF AND DUP2 MSTORE PUSH1 0x20 ADD SWAP2 POP POP PUSH1 0x40 MLOAD DUP1 SWAP2 SUB SWAP1 RETURN JUMPDEST PUSH2 0x376 PUSH1 0x4 DUP1 CALLDATASIZE SUB PUSH1 0x20 DUP2 LT ISZERO PUSH2 0x34A JUMPI PUSH1 0x0 DUP1 PUSH2 0x347 PUSH2 0x1464 JUMP JUMPDEST POP POP JUMPDEST DUP2 ADD SWAP1 DUP1 DUP1 CALLDATALOAD PUSH20 0xFFFFFFFFFFFFFFFFFFFFFFFFFFFFFFFFFFFFFFFF AND SWAP1 PUSH1 0x20 ADD SWAP1 SWAP3 SWAP2 SWAP1 POP POP POP PUSH2 0xFA8 JUMP JUMPDEST PUSH1 0x40 MLOAD DUP1 DUP3 DUP2 MSTORE PUSH1 0x20 ADD SWAP2 POP POP PUSH1 0x40 MLOAD DUP1 SWAP2 SUB SWAP1 RETURN JUMPDEST PUSH2 0x394 PUSH2 0xFC7 JUMP JUMPDEST PUSH1 0x40 MLOAD DUP1 DUP3 DUP2 MSTORE PUSH1 0x20 ADD SWAP2 POP POP PUSH1 0x40 MLOAD DUP1 SWAP2 SUB SWAP1 RETURN JUMPDEST PUSH2 0x3F5 PUSH1 0x4 DUP1 CALLDATASIZE SUB PUSH1 0x20 DUP2 LT ISZERO PUSH2 0x3C9 JUMPI PUSH1 0x0 DUP1 PUSH2 0x3C6 PUSH2 0x1464 JUMP JUMPDEST POP POP JUMPDEST DUP2 ADD SWAP1 DUP1 DUP1 CALLDATALOAD PUSH20 0xFFFFFFFFFFFFFFFFFFFFFFFFFFFFFFFFFFFFFFFF AND SWAP1 PUSH1 0x20 ADD SWAP1 SWAP3 SWAP2 SWAP1 POP POP POP PUSH2 0xFD4 JUMP JUMPDEST STOP JUMPDEST PUSH2 0x442 PUSH1 0x4 DUP1 CALLDATASIZE SUB PUSH1 0x20 DUP2 LT ISZERO PUSH2 0x416 JUMPI PUSH1 0x0 DUP1 PUSH2 0x413 PUSH2 0x1464 JUMP JUMPDEST POP POP JUMPDEST DUP2 ADD SWAP1 DUP1 DUP1 CALLDATALOAD PUSH20 0xFFFFFFFFFFFFFFFFFFFFFFFFFFFFFFFFFFFFFFFF AND SWAP1 PUSH1 0x20 ADD SWAP1 SWAP3 SWAP2 SWAP1 POP POP POP PUSH2 0x11EF JUMP JUMPDEST PUSH1 0x40 MLOAD DUP1 DUP3 ISZERO ISZERO DUP2 MSTORE PUSH1 0x20 ADD SWAP2 POP POP PUSH1 0x40 MLOAD DUP1 SWAP2 SUB SWAP1 RETURN JUMPDEST PUSH1 0x4 PUSH2 0x464 PUSH2 0x14D2 JUMP JUMPDEST DUP2 JUMP JUMPDEST PUSH1 0x2 PUSH2 0x471 PUSH2 0x14D2 JUMP JUMPDEST DUP2 JUMP JUMPDEST PUSH1 0x0 PUSH2 0x4D7 PUSH1 0x6 PUSH1 0x0 DUP5 PUSH20 0xFFFFFFFFFFFFFFFFFFFFFFFFFFFFFFFFFFFFFFFF AND PUSH20 0xFFFFFFFFFFFFFFFFFFFFFFFFFFFFFFFFFFFFFFFF AND DUP2 MSTORE PUSH1 0x20 ADD SWAP1 DUP2 MSTORE PUSH1 0x20 ADD PUSH1 0x0 KECCAK256 PUSH2 0x4C0 PUSH2 0x14D2 JUMP JUMPDEST PUSH2 0x4C9 DUP5 PUSH2 0x6E6 JUMP JUMPDEST PUSH2 0x12A7 SWAP1 SWAP2 SWAP1 PUSH4 0xFFFFFFFF AND JUMP JUMPDEST SWAP1 POP SWAP2 SWAP1 POP JUMP JUMPDEST PUSH1 0x0 PUSH2 0x4E9 DUP3 PUSH2 0x474 JUMP JUMPDEST SWAP1 POP PUSH1 0x0 DUP2 GT PUSH2 0x501 JUMPI PUSH1 0x0 DUP1 PUSH2 0x4FE PUSH2 0x1464 JUMP JUMPDEST POP POP JUMPDEST PUSH2 0x55A DUP2 PUSH1 0x6 PUSH1 0x0 DUP6 PUSH20 0xFFFFFFFFFFFFFFFFFFFFFFFFFFFFFFFFFFFFFFFF AND PUSH20 0xFFFFFFFFFFFFFFFFFFFFFFFFFFFFFFFFFFFFFFFF AND DUP2 MSTORE PUSH1 0x20 ADD SWAP1 DUP2 MSTORE PUSH1 0x20 ADD PUSH1 0x0 KECCAK256 PUSH2 0x54C PUSH2 0x14D2 JUMP JUMPDEST PUSH2 0x1216 SWAP1 SWAP2 SWAP1 PUSH4 0xFFFFFFFF AND JUMP JUMPDEST PUSH1 0x6 PUSH1 0x0 DUP5 PUSH20 0xFFFFFFFFFFFFFFFFFFFFFFFFFFFFFFFFFFFFFFFF AND PUSH20 0xFFFFFFFFFFFFFFFFFFFFFFFFFFFFFFFFFFFFFFFF AND DUP2 MSTORE PUSH1 0x20 ADD SWAP1 DUP2 MSTORE PUSH1 0x20 ADD PUSH1 0x0 KECCAK256 DUP2 SWAP1 PUSH2 0x5A3 PUSH2 0x1535 JUMP JUMPDEST POP POP POP DUP2 PUSH20 0xFFFFFFFFFFFFFFFFFFFFFFFFFFFFFFFFFFFFFFFF AND PUSH4 0xA9059CBB PUSH1 0x1 PUSH1 0x0 SWAP1 PUSH2 0x5CF PUSH2 0x14D2 JUMP JUMPDEST SWAP1 PUSH2 0x100 EXP SWAP1 DIV PUSH20 0xFFFFFFFFFFFFFFFFFFFFFFFFFFFFFFFFFFFFFFFF AND DUP4 PUSH1 0x40 MLOAD DUP4 PUSH4 0xFFFFFFFF AND PUSH1 0xE0 SHL DUP2 MSTORE PUSH1 0x4 ADD DUP1 DUP4 PUSH20 0xFFFFFFFFFFFFFFFFFFFFFFFFFFFFFFFFFFFFFFFF AND DUP2 MSTORE PUSH1 0x20 ADD DUP3 DUP2 MSTORE PUSH1 0x20 ADD SWAP3 POP POP POP PUSH1 0x20 PUSH1 0x40 MLOAD DUP1 DUP4 SUB DUP2 PUSH1 0x0 DUP8 DUP1 PUSH2 0x63B PUSH2 0x159A JUMP JUMPDEST ISZERO DUP1 ISZERO PUSH2 0x650 JUMPI PUSH1 0x0 DUP1 PUSH2 0x64D PUSH2 0x1464 JUMP JUMPDEST POP POP JUMPDEST POP GAS PUSH2 0x65A PUSH2 0x15FD JUMP JUMPDEST POP POP POP POP POP POP ISZERO DUP1 ISZERO PUSH2 0x67A JUMPI RETURNDATASIZE PUSH1 0x0 DUP1 RETURNDATACOPY RETURNDATASIZE PUSH1 0x0 PUSH2 0x677 PUSH2 0x1464 JUMP JUMPDEST POP POP JUMPDEST POP POP POP POP PUSH1 0x40 MLOAD RETURNDATASIZE PUSH1 0x20 DUP2 LT ISZERO PUSH2 0x699 JUMPI PUSH1 0x0 DUP1 PUSH2 0x696 PUSH2 0x1464 JUMP JUMPDEST POP POP JUMPDEST DUP2 ADD SWAP1 DUP1 DUP1 MLOAD SWAP1 PUSH1 0x20 ADD SWAP1 SWAP3 SWAP2 SWAP1 POP POP POP POP PUSH32 0xFB81F9B30D73D830C3544B34D827C08142579EE75710B490BAB0B3995468C565 DUP2 PUSH1 0x40 MLOAD DUP1 DUP3 DUP2 MSTORE PUSH1 0x20 ADD SWAP2 POP POP PUSH1 0x40 MLOAD DUP1 SWAP2 SUB SWAP1 LOG1 POP POP JUMP JUMPDEST PUSH1 0x0 DUP1 DUP3 PUSH20 0xFFFFFFFFFFFFFFFFFFFFFFFFFFFFFFFFFFFFFFFF AND PUSH4 0x70A08231 GAS PUSH4 0x996D79A5 MSIZE DUP2 PUSH1 0xE0 SHL DUP2 MSTORE PUSH1 0x20 DUP2 PUSH1 0x4 DUP4 CALLER PUSH1 0x0 SWAP1 GAS CALL PC PUSH1 0xE ADD JUMPI RETURNDATASIZE PUSH1 0x0 DUP1 RETURNDATACOPY RETURNDATASIZE PUSH1 0x0 REVERT JUMPDEST RETURNDATASIZE PUSH1 0x1 EQ ISZERO PC PUSH1 0xA ADD JUMPI PUSH1 0x1 PUSH1 0x0 RETURN JUMPDEST DUP1 MLOAD SWAP3 POP PUSH1 0x0 JUMPDEST PUSH1 0x40 DUP2 LT ISZERO PUSH2 0x75E JUMPI PUSH1 0x0 DUP2 DUP4 ADD MSTORE PUSH1 0x20 DUP2 ADD SWAP1 POP PUSH2 0x744 JUMP JUMPDEST POP POP POP PUSH1 0x40 MLOAD DUP3 PUSH4 0xFFFFFFFF AND PUSH1 0xE0 SHL DUP2 MSTORE PUSH1 0x4 ADD DUP1 DUP3 PUSH20 0xFFFFFFFFFFFFFFFFFFFFFFFFFFFFFFFFFFFFFFFF AND DUP2 MSTORE PUSH1 0x20 ADD SWAP2 POP POP PUSH1 0x20 PUSH1 0x40 MLOAD DUP1 DUP4 SUB DUP2 DUP7 DUP1 PUSH2 0x7A6 PUSH2 0x159A JUMP JUMPDEST ISZERO DUP1 ISZERO PUSH2 0x7BB JUMPI PUSH1 0x0 DUP1 PUSH2 0x7B8 PUSH2 0x1464 JUMP JUMPDEST POP POP JUMPDEST POP GAS PUSH2 0x7C5 PUSH2 0x16FD JUMP JUMPDEST POP POP POP POP POP ISZERO DUP1 ISZERO PUSH2 0x7E4 JUMPI RETURNDATASIZE PUSH1 0x0 DUP1 RETURNDATACOPY RETURNDATASIZE PUSH1 0x0 PUSH2 0x7E1 PUSH2 0x1464 JUMP JUMPDEST POP POP JUMPDEST POP POP POP POP PUSH1 0x40 MLOAD RETURNDATASIZE PUSH1 0x20 DUP2 LT ISZERO PUSH2 0x803 JUMPI PUSH1 0x0 DUP1 PUSH2 0x800 PUSH2 0x1464 JUMP JUMPDEST POP POP JUMPDEST DUP2 ADD SWAP1 DUP1 DUP1 MLOAD SWAP1 PUSH1 0x20 ADD SWAP1 SWAP3 SWAP2 SWAP1 POP POP POP SWAP1 POP PUSH1 0x0 PUSH2 0x871 PUSH1 0x6 PUSH1 0x0 DUP7 PUSH20 0xFFFFFFFFFFFFFFFFFFFFFFFFFFFFFFFFFFFFFFFF AND PUSH20 0xFFFFFFFFFFFFFFFFFFFFFFFFFFFFFFFFFFFFFFFF AND DUP2 MSTORE PUSH1 0x20 ADD SWAP1 DUP2 MSTORE PUSH1 0x20 ADD PUSH1 0x0 KECCAK256 PUSH2 0x862 PUSH2 0x14D2 JUMP JUMPDEST DUP4 PUSH2 0x1216 SWAP1 SWAP2 SWAP1 PUSH4 0xFFFFFFFF AND JUMP JUMPDEST SWAP1 POP PUSH1 0x2 PUSH2 0x87D PUSH2 0x14D2 JUMP JUMPDEST GAS PUSH2 0x886 PUSH2 0x17FD JUMP JUMPDEST LT ISZERO PUSH2 0x897 JUMPI PUSH1 0x0 SWAP3 POP POP POP PUSH2 0x987 JUMP JUMPDEST PUSH2 0x8BC PUSH1 0x4 PUSH2 0x8A4 PUSH2 0x14D2 JUMP JUMPDEST PUSH1 0x3 PUSH2 0x8AE PUSH2 0x14D2 JUMP JUMPDEST PUSH2 0x1216 SWAP1 SWAP2 SWAP1 PUSH4 0xFFFFFFFF AND JUMP JUMPDEST GAS PUSH2 0x8C5 PUSH2 0x17FD JUMP JUMPDEST LT ISZERO DUP1 PUSH2 0x922 JUMPI POP PUSH1 0x7 PUSH1 0x0 DUP6 PUSH20 0xFFFFFFFFFFFFFFFFFFFFFFFFFFFFFFFFFFFFFFFF AND PUSH20 0xFFFFFFFFFFFFFFFFFFFFFFFFFFFFFFFFFFFFFFFF AND DUP2 MSTORE PUSH1 0x20 ADD SWAP1 DUP2 MSTORE PUSH1 0x20 ADD PUSH1 0x0 KECCAK256 PUSH1 0x0 SWAP1 PUSH2 0x917 PUSH2 0x14D2 JUMP JUMPDEST SWAP1 PUSH2 0x100 EXP SWAP1 DIV PUSH1 0xFF AND JUMPDEST ISZERO PUSH2 0x931 JUMPI DUP1 SWAP3 POP POP POP PUSH2 0x987 JUMP JUMPDEST PUSH2 0x982 PUSH1 0x4 PUSH2 0x93E PUSH2 0x14D2 JUMP JUMPDEST PUSH2 0x974 PUSH2 0x965 PUSH1 0x3 PUSH2 0x94E PUSH2 0x14D2 JUMP JUMPDEST GAS PUSH2 0x957 PUSH2 0x17FD JUMP JUMPDEST PUSH2 0x12A7 SWAP1 SWAP2 SWAP1 PUSH4 0xFFFFFFFF AND JUMP JUMPDEST DUP5 PUSH2 0x1333 SWAP1 SWAP2 SWAP1 PUSH4 0xFFFFFFFF AND JUMP JUMPDEST PUSH2 0x13C2 SWAP1 SWAP2 SWAP1 PUSH4 0xFFFFFFFF AND JUMP JUMPDEST SWAP3 POP POP POP JUMPDEST SWAP2 SWAP1 POP JUMP JUMPDEST PUSH1 0x1 PUSH1 0x0 SWAP1 PUSH2 0x999 PUSH2 0x14D2 JUMP JUMPDEST SWAP1 PUSH2 0x100 EXP SWAP1 DIV PUSH20 0xFFFFFFFFFFFFFFFFFFFFFFFFFFFFFFFFFFFFFFFF AND DUP2 JUMP JUMPDEST PUSH2 0x9C1 PUSH2 0x1454 JUMP JUMPDEST PUSH20 0xFFFFFFFFFFFFFFFFFFFFFFFFFFFFFFFFFFFFFFFF AND PUSH2 0x9DF PUSH2 0xF78 JUMP JUMPDEST PUSH20 0xFFFFFFFFFFFFFFFFFFFFFFFFFFFFFFFFFFFFFFFF AND EQ PUSH2 0xA71 JUMPI PUSH1 0x40 MLOAD PUSH32 0x8C379A000000000000000000000000000000000000000000000000000000000 DUP2 MSTORE PUSH1 0x4 ADD DUP1 DUP1 PUSH1 0x20 ADD DUP3 DUP2 SUB DUP3 MSTORE PUSH1 0x20 DUP2 MSTORE PUSH1 0x20 ADD DUP1 PUSH32 0x4F776E61626C653A2063616C6C6572206973206E6F7420746865206F776E6572 DUP2 MSTORE POP PUSH1 0x20 ADD SWAP2 POP POP PUSH1 0x40 MLOAD DUP1 SWAP2 SUB SWAP1 PUSH2 0xA6E PUSH2 0x1464 JUMP JUMPDEST POP POP JUMPDEST PUSH1 0x0 PUSH20 0xFFFFFFFFFFFFFFFFFFFFFFFFFFFFFFFFFFFFFFFF AND PUSH1 0x0 DUP1 PUSH2 0xA94 PUSH2 0x14D2 JUMP JUMPDEST SWAP1 PUSH2 0x100 EXP SWAP1 DIV PUSH20 0xFFFFFFFFFFFFFFFFFFFFFFFFFFFFFFFFFFFFFFFF AND PUSH20 0xFFFFFFFFFFFFFFFFFFFFFFFFFFFFFFFFFFFFFFFF AND PUSH32 0x8BE0079C531659141344CD1FD0A4F28419497F9722A3DAAFE3B4186F6B6457E0 PUSH1 0x40 MLOAD PUSH1 0x40 MLOAD DUP1 SWAP2 SUB SWAP1 LOG3 PUSH1 0x0 DUP1 PUSH1 0x0 PUSH2 0x100 EXP DUP2 PUSH2 0xB05 PUSH2 0x14D2 JUMP JUMPDEST DUP2 PUSH20 0xFFFFFFFFFFFFFFFFFFFFFFFFFFFFFFFFFFFFFFFF MUL NOT AND SWAP1 DUP4 PUSH20 0xFFFFFFFFFFFFFFFFFFFFFFFFFFFFFFFFFFFFFFFF AND MUL OR SWAP1 PUSH2 0xB41 PUSH2 0x1535 JUMP JUMPDEST POP POP POP JUMP JUMPDEST PUSH2 0xB4E PUSH2 0x1454 JUMP JUMPDEST PUSH20 0xFFFFFFFFFFFFFFFFFFFFFFFFFFFFFFFFFFFFFFFF AND PUSH2 0xB6C PUSH2 0xF78 JUMP JUMPDEST PUSH20 0xFFFFFFFFFFFFFFFFFFFFFFFFFFFFFFFFFFFFFFFF AND EQ PUSH2 0xBFE JUMPI PUSH1 0x40 MLOAD PUSH32 0x8C379A000000000000000000000000000000000000000000000000000000000 DUP2 MSTORE PUSH1 0x4 ADD DUP1 DUP1 PUSH1 0x20 ADD DUP3 DUP2 SUB DUP3 MSTORE PUSH1 0x20 DUP2 MSTORE PUSH1 0x20 ADD DUP1 PUSH32 0x4F776E61626C653A2063616C6C6572206973206E6F7420746865206F776E6572 DUP2 MSTORE POP PUSH1 0x20 ADD SWAP2 POP POP PUSH1 0x40 MLOAD DUP1 SWAP2 SUB SWAP1 PUSH2 0xBFB PUSH2 0x1464 JUMP JUMPDEST POP POP JUMPDEST PUSH1 0x5 PUSH1 0x0 SWAP1 PUSH2 0xC0B PUSH2 0x14D2 JUMP JUMPDEST SWAP1 PUSH2 0x100 EXP SWAP1 DIV PUSH1 0xFF AND PUSH2 0xC27 JUMPI PUSH1 0x0 DUP1 PUSH2 0xC24 PUSH2 0x1464 JUMP JUMPDEST POP POP JUMPDEST PUSH1 0x7 PUSH1 0x0 DUP3 PUSH20 0xFFFFFFFFFFFFFFFFFFFFFFFFFFFFFFFFFFFFFFFF AND PUSH20 0xFFFFFFFFFFFFFFFFFFFFFFFFFFFFFFFFFFFFFFFF AND DUP2 MSTORE PUSH1 0x20 ADD SWAP1 DUP2 MSTORE PUSH1 0x20 ADD PUSH1 0x0 KECCAK256 PUSH1 0x0 SWAP1 PUSH2 0xC71 PUSH2 0x14D2 JUMP JUMPDEST SWAP1 PUSH2 0x100 EXP SWAP1 DIV PUSH1 0xFF AND ISZERO PUSH2 0xC8E JUMPI PUSH1 0x0 DUP1 PUSH2 0xC8B PUSH2 0x1464 JUMP JUMPDEST POP POP JUMPDEST PUSH1 0x0 DUP2 PUSH20 0xFFFFFFFFFFFFFFFFFFFFFFFFFFFFFFFFFFFFFFFF AND PUSH4 0x70A08231 GAS PUSH4 0x996D79A5 MSIZE DUP2 PUSH1 0xE0 SHL DUP2 MSTORE PUSH1 0x20 DUP2 PUSH1 0x4 DUP4 CALLER PUSH1 0x0 SWAP1 GAS CALL PC PUSH1 0xE ADD JUMPI RETURNDATASIZE PUSH1 0x0 DUP1 RETURNDATACOPY RETURNDATASIZE PUSH1 0x0 REVERT JUMPDEST RETURNDATASIZE PUSH1 0x1 EQ ISZERO PC PUSH1 0xA ADD JUMPI PUSH1 0x1 PUSH1 0x0 RETURN JUMPDEST DUP1 MLOAD SWAP3 POP PUSH1 0x0 JUMPDEST PUSH1 0x40 DUP2 LT ISZERO PUSH2 0xD05 JUMPI PUSH1 0x0 DUP2 DUP4 ADD MSTORE PUSH1 0x20 DUP2 ADD SWAP1 POP PUSH2 0xCEB JUMP JUMPDEST POP POP POP PUSH1 0x40 MLOAD DUP3 PUSH4 0xFFFFFFFF AND PUSH1 0xE0 SHL DUP2 MSTORE PUSH1 0x4 ADD DUP1 DUP3 PUSH20 0xFFFFFFFFFFFFFFFFFFFFFFFFFFFFFFFFFFFFFFFF AND DUP2 MSTORE PUSH1 0x20 ADD SWAP2 POP POP PUSH1 0x20 PUSH1 0x40 MLOAD DUP1 DUP4 SUB DUP2 DUP7 DUP1 PUSH2 0xD4D PUSH2 0x159A JUMP JUMPDEST ISZERO DUP1 ISZERO PUSH2 0xD62 JUMPI PUSH1 0x0 DUP1 PUSH2 0xD5F PUSH2 0x1464 JUMP JUMPDEST POP POP JUMPDEST POP GAS PUSH2 0xD6C PUSH2 0x16FD JUMP JUMPDEST POP POP POP POP POP ISZERO DUP1 ISZERO PUSH2 0xD8B JUMPI RETURNDATASIZE PUSH1 0x0 DUP1 RETURNDATACOPY RETURNDATASIZE PUSH1 0x0 PUSH2 0xD88 PUSH2 0x1464 JUMP JUMPDEST POP POP JUMPDEST POP POP POP POP PUSH1 0x40 MLOAD RETURNDATASIZE PUSH1 0x20 DUP2 LT ISZERO PUSH2 0xDAA JUMPI PUSH1 0x0 DUP1 PUSH2 0xDA7 PUSH2 0x1464 JUMP JUMPDEST POP POP JUMPDEST DUP2 ADD SWAP1 DUP1 DUP1 MLOAD SWAP1 PUSH1 0x20 ADD SWAP1 SWAP3 SWAP2 SWAP1 POP POP POP SWAP1 POP PUSH1 0x0 PUSH2 0xDC8 DUP4 PUSH2 0x474 JUMP JUMPDEST SWAP1 POP PUSH1 0x0 PUSH2 0xDDF DUP3 DUP5 PUSH2 0x12A7 SWAP1 SWAP2 SWAP1 PUSH4 0xFFFFFFFF AND JUMP JUMPDEST SWAP1 POP PUSH1 0x1 PUSH1 0x7 PUSH1 0x0 DUP7 PUSH20 0xFFFFFFFFFFFFFFFFFFFFFFFFFFFFFFFFFFFFFFFF AND PUSH20 0xFFFFFFFFFFFFFFFFFFFFFFFFFFFFFFFFFFFFFFFF AND DUP2 MSTORE PUSH1 0x20 ADD SWAP1 DUP2 MSTORE PUSH1 0x20 ADD PUSH1 0x0 KECCAK256 PUSH1 0x0 PUSH2 0x100 EXP DUP2 PUSH2 0xE31 PUSH2 0x14D2 JUMP JUMPDEST DUP2 PUSH1 0xFF MUL NOT AND SWAP1 DUP4 ISZERO ISZERO MUL OR SWAP1 PUSH2 0xE46 PUSH2 0x1535 JUMP JUMPDEST POP POP POP DUP4 PUSH20 0xFFFFFFFFFFFFFFFFFFFFFFFFFFFFFFFFFFFFFFFF AND PUSH4 0xA9059CBB PUSH2 0xE6D PUSH2 0xF78 JUMP JUMPDEST DUP4 PUSH1 0x40 MLOAD DUP4 PUSH4 0xFFFFFFFF AND PUSH1 0xE0 SHL DUP2 MSTORE PUSH1 0x4 ADD DUP1 DUP4 PUSH20 0xFFFFFFFFFFFFFFFFFFFFFFFFFFFFFFFFFFFFFFFF AND DUP2 MSTORE PUSH1 0x20 ADD DUP3 DUP2 MSTORE PUSH1 0x20 ADD SWAP3 POP POP POP PUSH1 0x20 PUSH1 0x40 MLOAD DUP1 DUP4 SUB DUP2 PUSH1 0x0 DUP8 DUP1 PUSH2 0xEBC PUSH2 0x159A JUMP JUMPDEST ISZERO DUP1 ISZERO PUSH2 0xED1 JUMPI PUSH1 0x0 DUP1 PUSH2 0xECE PUSH2 0x1464 JUMP JUMPDEST POP POP JUMPDEST POP GAS PUSH2 0xEDB PUSH2 0x15FD JUMP JUMPDEST POP POP POP POP POP POP ISZERO DUP1 ISZERO PUSH2 0xEFB JUMPI RETURNDATASIZE PUSH1 0x0 DUP1 RETURNDATACOPY RETURNDATASIZE PUSH1 0x0 PUSH2 0xEF8 PUSH2 0x1464 JUMP JUMPDEST POP POP JUMPDEST POP POP POP POP PUSH1 0x40 MLOAD RETURNDATASIZE PUSH1 0x20 DUP2 LT ISZERO PUSH2 0xF1A JUMPI PUSH1 0x0 DUP1 PUSH2 0xF17 PUSH2 0x1464 JUMP JUMPDEST POP POP JUMPDEST DUP2 ADD SWAP1 DUP1 DUP1 MLOAD SWAP1 PUSH1 0x20 ADD SWAP1 SWAP3 SWAP2 SWAP1 POP POP POP POP PUSH32 0x44825A4B2DF8ACB19CE4E1AFBA9AA850C8B65CDB7942E2078F27D0B0960EFEE6 PUSH1 0x40 MLOAD PUSH1 0x40 MLOAD DUP1 SWAP2 SUB SWAP1 LOG1 POP POP POP POP JUMP JUMPDEST PUSH1 0x5 PUSH1 0x0 SWAP1 PUSH2 0xF6B PUSH2 0x14D2 JUMP JUMPDEST SWAP1 PUSH2 0x100 EXP SWAP1 DIV PUSH1 0xFF AND DUP2 JUMP JUMPDEST PUSH1 0x0 DUP1 PUSH1 0x0 SWAP1 PUSH2 0xF86 PUSH2 0x14D2 JUMP JUMPDEST SWAP1 PUSH2 0x100 EXP SWAP1 DIV PUSH20 0xFFFFFFFFFFFFFFFFFFFFFFFFFFFFFFFFFFFFFFFF AND SWAP1 POP SWAP1 JUMP JUMPDEST PUSH1 0x6 PUSH1 0x20 MSTORE DUP1 PUSH1 0x0 MSTORE PUSH1 0x40 PUSH1 0x0 KECCAK256 PUSH1 0x0 SWAP2 POP SWAP1 POP PUSH2 0xFC4 PUSH2 0x14D2 JUMP JUMPDEST DUP2 JUMP JUMPDEST PUSH1 0x3 PUSH2 0xFD1 PUSH2 0x14D2 JUMP JUMPDEST DUP2 JUMP JUMPDEST PUSH2 0xFDC PUSH2 0x1454 JUMP JUMPDEST PUSH20 0xFFFFFFFFFFFFFFFFFFFFFFFFFFFFFFFFFFFFFFFF AND PUSH2 0xFFA PUSH2 0xF78 JUMP JUMPDEST PUSH20 0xFFFFFFFFFFFFFFFFFFFFFFFFFFFFFFFFFFFFFFFF AND EQ PUSH2 0x108C JUMPI PUSH1 0x40 MLOAD PUSH32 0x8C379A000000000000000000000000000000000000000000000000000000000 DUP2 MSTORE PUSH1 0x4 ADD DUP1 DUP1 PUSH1 0x20 ADD DUP3 DUP2 SUB DUP3 MSTORE PUSH1 0x20 DUP2 MSTORE PUSH1 0x20 ADD DUP1 PUSH32 0x4F776E61626C653A2063616C6C6572206973206E6F7420746865206F776E6572 DUP2 MSTORE POP PUSH1 0x20 ADD SWAP2 POP POP PUSH1 0x40 MLOAD DUP1 SWAP2 SUB SWAP1 PUSH2 0x1089 PUSH2 0x1464 JUMP JUMPDEST POP POP JUMPDEST PUSH1 0x0 PUSH20 0xFFFFFFFFFFFFFFFFFFFFFFFFFFFFFFFFFFFFFFFF AND DUP2 PUSH20 0xFFFFFFFFFFFFFFFFFFFFFFFFFFFFFFFFFFFFFFFF AND EQ ISZERO PUSH2 0x111B JUMPI PUSH1 0x40 MLOAD PUSH32 0x8C379A000000000000000000000000000000000000000000000000000000000 DUP2 MSTORE PUSH1 0x4 ADD DUP1 DUP1 PUSH1 0x20 ADD DUP3 DUP2 SUB DUP3 MSTORE PUSH1 0x26 DUP2 MSTORE PUSH1 0x20 ADD DUP1 PUSH2 0x18B8 PUSH1 0x26 SWAP2 CODECOPY PUSH1 0x40 ADD SWAP2 POP POP PUSH1 0x40 MLOAD DUP1 SWAP2 SUB SWAP1 PUSH2 0x1118 PUSH2 0x1464 JUMP JUMPDEST POP POP JUMPDEST DUP1 PUSH20 0xFFFFFFFFFFFFFFFFFFFFFFFFFFFFFFFFFFFFFFFF AND PUSH1 0x0 DUP1 PUSH2 0x113D PUSH2 0x14D2 JUMP JUMPDEST SWAP1 PUSH2 0x100 EXP SWAP1 DIV PUSH20 0xFFFFFFFFFFFFFFFFFFFFFFFFFFFFFFFFFFFFFFFF AND PUSH20 0xFFFFFFFFFFFFFFFFFFFFFFFFFFFFFFFFFFFFFFFF AND PUSH32 0x8BE0079C531659141344CD1FD0A4F28419497F9722A3DAAFE3B4186F6B6457E0 PUSH1 0x40 MLOAD PUSH1 0x40 MLOAD DUP1 SWAP2 SUB SWAP1 LOG3 DUP1 PUSH1 0x0 DUP1 PUSH2 0x100 EXP DUP2 PUSH2 0x11AD PUSH2 0x14D2 JUMP JUMPDEST DUP2 PUSH20 0xFFFFFFFFFFFFFFFFFFFFFFFFFFFFFFFFFFFFFFFF MUL NOT AND SWAP1 DUP4 PUSH20 0xFFFFFFFFFFFFFFFFFFFFFFFFFFFFFFFFFFFFFFFF AND MUL OR SWAP1 PUSH2 0x11E9 PUSH2 0x1535 JUMP JUMPDEST POP POP POP POP JUMP JUMPDEST PUSH1 0x7 PUSH1 0x20 MSTORE DUP1 PUSH1 0x0 MSTORE PUSH1 0x40 PUSH1 0x0 KECCAK256 PUSH1 0x0 SWAP2 POP PUSH2 0x1209 PUSH2 0x14D2 JUMP JUMPDEST SWAP1 PUSH2 0x100 EXP SWAP1 DIV PUSH1 0xFF AND DUP2 JUMP JUMPDEST PUSH1 0x0 DUP1 DUP3 DUP5 ADD SWAP1 POP DUP4 DUP2 LT ISZERO PUSH2 0x129D JUMPI PUSH1 0x40 MLOAD PUSH32 0x8C379A000000000000000000000000000000000000000000000000000000000 DUP2 MSTORE PUSH1 0x4 ADD DUP1 DUP1 PUSH1 0x20 ADD DUP3 DUP2 SUB DUP3 MSTORE PUSH1 0x1B DUP2 MSTORE PUSH1 0x20 ADD DUP1 PUSH32 0x536166654D6174683A206164646974696F6E206F766572666C6F770000000000 DUP2 MSTORE POP PUSH1 0x20 ADD SWAP2 POP POP PUSH1 0x40 MLOAD DUP1 SWAP2 SUB SWAP1 PUSH2 0x129A PUSH2 0x1464 JUMP JUMPDEST POP POP JUMPDEST DUP1 SWAP2 POP POP SWAP3 SWAP2 POP POP JUMP JUMPDEST PUSH1 0x0 DUP3 DUP3 GT ISZERO PUSH2 0x1328 JUMPI PUSH1 0x40 MLOAD PUSH32 0x8C379A000000000000000000000000000000000000000000000000000000000 DUP2 MSTORE PUSH1 0x4 ADD DUP1 DUP1 PUSH1 0x20 ADD DUP3 DUP2 SUB DUP3 MSTORE PUSH1 0x1E DUP2 MSTORE PUSH1 0x20 ADD DUP1 PUSH32 0x536166654D6174683A207375627472616374696F6E206F766572666C6F770000 DUP2 MSTORE POP PUSH1 0x20 ADD SWAP2 POP POP PUSH1 0x40 MLOAD DUP1 SWAP2 SUB SWAP1 PUSH2 0x1325 PUSH2 0x1464 JUMP JUMPDEST POP POP JUMPDEST DUP2 DUP4 SUB SWAP1 POP SWAP3 SWAP2 POP POP JUMP JUMPDEST PUSH1 0x0 DUP1 DUP4 EQ ISZERO PUSH2 0x1346 JUMPI PUSH1 0x0 SWAP1 POP PUSH2 0x13BC JUMP JUMPDEST PUSH1 0x0 DUP3 DUP5 MUL SWAP1 POP DUP3 DUP5 DUP3 DUP2 PUSH2 0x1357 JUMPI INVALID JUMPDEST DIV EQ PUSH2 0x13B7 JUMPI PUSH1 0x40 MLOAD PUSH32 0x8C379A000000000000000000000000000000000000000000000000000000000 DUP2 MSTORE PUSH1 0x4 ADD DUP1 DUP1 PUSH1 0x20 ADD DUP3 DUP2 SUB DUP3 MSTORE PUSH1 0x21 DUP2 MSTORE PUSH1 0x20 ADD DUP1 PUSH2 0x18DE PUSH1 0x21 SWAP2 CODECOPY PUSH1 0x40 ADD SWAP2 POP POP PUSH1 0x40 MLOAD DUP1 SWAP2 SUB SWAP1 PUSH2 0x13B4 PUSH2 0x1464 JUMP JUMPDEST POP POP JUMPDEST DUP1 SWAP2 POP POP JUMPDEST SWAP3 SWAP2 POP POP JUMP JUMPDEST PUSH1 0x0 DUP1 DUP3 GT PUSH2 0x1442 JUMPI PUSH1 0x40 MLOAD PUSH32 0x8C379A000000000000000000000000000000000000000000000000000000000 DUP2 MSTORE PUSH1 0x4 ADD DUP1 DUP1 PUSH1 0x20 ADD DUP3 DUP2 SUB DUP3 MSTORE PUSH1 0x1A DUP2 MSTORE PUSH1 0x20 ADD DUP1 PUSH32 0x536166654D6174683A206469766973696F6E206279207A65726F000000000000 DUP2 MSTORE POP PUSH1 0x20 ADD SWAP2 POP POP PUSH1 0x40 MLOAD DUP1 SWAP2 SUB SWAP1 PUSH2 0x143F PUSH2 0x1464 JUMP JUMPDEST POP POP JUMPDEST DUP2 DUP4 DUP2 PUSH2 0x144B JUMPI INVALID JUMPDEST DIV SWAP1 POP SWAP3 SWAP2 POP POP JUMP JUMPDEST PUSH1 0x0 GAS PUSH2 0x145F PUSH2 0x185A JUMP JUMPDEST SWAP1 POP SWAP1 JUMP JUMPDEST PUSH4 0x2A2A7ADB MSIZE DUP2 PUSH1 0xE0 SHL DUP2 MSTORE PUSH1 0x4 DUP2 ADD PUSH1 0x20 DUP2 MSTORE DUP6 PUSH1 0x20 DUP3 ADD MSTORE PUSH1 0x0 JUMPDEST DUP7 DUP2 LT ISZERO PUSH2 0x149F JUMPI DUP1 DUP7 ADD MLOAD DUP2 PUSH1 0x40 DUP5 ADD ADD MSTORE PUSH1 0x20 DUP2 ADD SWAP1 POP PUSH2 0x1481 JUMP JUMPDEST POP PUSH1 0x20 DUP3 DUP8 PUSH1 0x64 ADD DUP5 CALLER PUSH1 0x0 SWAP1 GAS CALL PC PUSH1 0xE ADD JUMPI RETURNDATASIZE PUSH1 0x0 DUP1 RETURNDATACOPY RETURNDATASIZE PUSH1 0x0 REVERT JUMPDEST RETURNDATASIZE PUSH1 0x1 EQ ISZERO PC PUSH1 0xA ADD JUMPI PUSH1 0x1 PUSH1 0x0 RETURN JUMPDEST POP POP POP JUMP JUMPDEST PUSH4 0x3DAA959 MSIZE DUP2 PUSH1 0xE0 SHL DUP2 MSTORE DUP4 PUSH1 0x4 DUP3 ADD MSTORE PUSH1 0x20 DUP2 PUSH1 0x24 DUP4 CALLER PUSH1 0x0 SWAP1 GAS CALL PC PUSH1 0xE ADD JUMPI RETURNDATASIZE PUSH1 0x0 DUP1 RETURNDATACOPY RETURNDATASIZE PUSH1 0x0 REVERT JUMPDEST RETURNDATASIZE PUSH1 0x1 EQ ISZERO PC PUSH1 0xA ADD JUMPI PUSH1 0x1 PUSH1 0x0 RETURN JUMPDEST DUP1 MLOAD SWAP4 POP PUSH1 0x0 JUMPDEST PUSH1 0x40 DUP2 LT ISZERO PUSH2 0x1530 JUMPI PUSH1 0x0 DUP2 DUP4 ADD MSTORE PUSH1 0x20 DUP2 ADD SWAP1 POP PUSH2 0x1516 JUMP JUMPDEST POP POP POP JUMP JUMPDEST PUSH4 0x22BD64C0 MSIZE DUP2 PUSH1 0xE0 SHL DUP2 MSTORE DUP4 PUSH1 0x4 DUP3 ADD MSTORE DUP5 PUSH1 0x24 DUP3 ADD MSTORE PUSH1 0x0 DUP2 PUSH1 0x44 DUP4 CALLER PUSH1 0x0 SWAP1 GAS CALL PC PUSH1 0xE ADD JUMPI RETURNDATASIZE PUSH1 0x0 DUP1 RETURNDATACOPY RETURNDATASIZE PUSH1 0x0 REVERT JUMPDEST RETURNDATASIZE PUSH1 0x1 EQ ISZERO PC PUSH1 0xA ADD JUMPI PUSH1 0x1 PUSH1 0x0 RETURN JUMPDEST PUSH1 0x0 JUMPDEST PUSH1 0x40 DUP2 LT ISZERO PUSH2 0x1595 JUMPI PUSH1 0x0 DUP2 DUP4 ADD MSTORE PUSH1 0x20 DUP2 ADD SWAP1 POP PUSH2 0x157B JUMP JUMPDEST POP POP POP JUMP JUMPDEST PUSH4 0x8435035B MSIZE DUP2 PUSH1 0xE0 SHL DUP2 MSTORE DUP4 PUSH1 0x4 DUP3 ADD MSTORE PUSH1 0x20 DUP2 PUSH1 0x24 DUP4 CALLER PUSH1 0x0 SWAP1 GAS CALL PC PUSH1 0xE ADD JUMPI RETURNDATASIZE PUSH1 0x0 DUP1 RETURNDATACOPY RETURNDATASIZE PUSH1 0x0 REVERT JUMPDEST RETURNDATASIZE PUSH1 0x1 EQ ISZERO PC PUSH1 0xA ADD JUMPI PUSH1 0x1 PUSH1 0x0 RETURN JUMPDEST DUP1 MLOAD SWAP4 POP PUSH1 0x0 JUMPDEST PUSH1 0x40 DUP2 LT ISZERO PUSH2 0x15F8 JUMPI PUSH1 0x0 DUP2 DUP4 ADD MSTORE PUSH1 0x20 DUP2 ADD SWAP1 POP PUSH2 0x15DE JUMP JUMPDEST POP POP POP JUMP JUMPDEST PUSH4 0x85979F76 MSIZE DUP2 PUSH1 0xE0 SHL DUP2 MSTORE PUSH2 0x163C JUMP JUMPDEST PUSH1 0x0 DUP2 SWAP1 POP DUP2 DUP4 GT ISZERO PUSH2 0x161F JUMPI DUP3 SWAP1 POP JUMPDEST SWAP3 SWAP2 POP POP JUMP JUMPDEST PUSH1 0x0 DUP2 SWAP1 POP DUP2 DUP4 LT ISZERO PUSH2 0x1636 JUMPI DUP3 SWAP1 POP JUMPDEST SWAP3 SWAP2 POP POP JUMP JUMPDEST DUP4 PUSH1 0x4 DUP3 ADD MSTORE DUP5 PUSH1 0x24 DUP3 ADD MSTORE PUSH1 0x60 PUSH1 0x44 DUP3 ADD MSTORE DUP8 PUSH1 0x64 DUP3 ADD MSTORE PUSH1 0x84 DUP2 ADD PUSH1 0x0 JUMPDEST DUP10 DUP2 LT ISZERO PUSH2 0x1677 JUMPI DUP1 DUP10 ADD MLOAD DUP2 DUP4 ADD MSTORE PUSH1 0x20 DUP2 ADD SWAP1 POP PUSH2 0x165C JUMP JUMPDEST POP PUSH1 0x60 DUP3 DUP11 PUSH1 0xA4 ADD DUP5 CALLER PUSH1 0x0 SWAP1 GAS CALL PC PUSH1 0xE ADD JUMPI RETURNDATASIZE PUSH1 0x0 DUP1 RETURNDATACOPY RETURNDATASIZE PUSH1 0x0 REVERT JUMPDEST RETURNDATASIZE PUSH1 0x1 EQ ISZERO PC PUSH1 0xA ADD JUMPI PUSH1 0x1 PUSH1 0x0 RETURN JUMPDEST DUP2 MLOAD PUSH1 0x40 DUP4 ADD MLOAD RETURNDATASIZE PUSH1 0x0 DUP6 RETURNDATACOPY DUP13 DUP13 DUP3 PUSH1 0x60 DUP8 ADD CALLER POP PUSH1 0x0 PUSH1 0x4 GAS CALL POP MSIZE PUSH2 0x16CC DUP15 RETURNDATASIZE PUSH2 0x1625 JUMP JUMPDEST DUP14 ADD PUSH2 0x16D8 DUP2 DUP8 PUSH2 0x160E JUMP JUMPDEST JUMPDEST DUP3 DUP2 LT ISZERO PUSH2 0x16F0 JUMPI PUSH1 0x0 DUP2 MSTORE PUSH1 0x20 DUP2 ADD SWAP1 POP PUSH2 0x16D9 JUMP JUMPDEST POP DUP4 SWAP15 POP POP POP POP POP POP POP POP JUMP JUMPDEST PUSH4 0x8540661F MSIZE DUP2 PUSH1 0xE0 SHL DUP2 MSTORE PUSH2 0x173C JUMP JUMPDEST PUSH1 0x0 DUP2 SWAP1 POP DUP2 DUP4 GT ISZERO PUSH2 0x171F JUMPI DUP3 SWAP1 POP JUMPDEST SWAP3 SWAP2 POP POP JUMP JUMPDEST PUSH1 0x0 DUP2 SWAP1 POP DUP2 DUP4 LT ISZERO PUSH2 0x1736 JUMPI DUP3 SWAP1 POP JUMPDEST SWAP3 SWAP2 POP POP JUMP JUMPDEST DUP4 PUSH1 0x4 DUP3 ADD MSTORE DUP5 PUSH1 0x24 DUP3 ADD MSTORE PUSH1 0x60 PUSH1 0x44 DUP3 ADD MSTORE DUP7 PUSH1 0x64 DUP3 ADD MSTORE PUSH1 0x84 DUP2 ADD PUSH1 0x0 JUMPDEST DUP9 DUP2 LT ISZERO PUSH2 0x1777 JUMPI DUP1 DUP9 ADD MLOAD DUP2 DUP4 ADD MSTORE PUSH1 0x20 DUP2 ADD SWAP1 POP PUSH2 0x175C JUMP JUMPDEST POP PUSH1 0x60 DUP3 DUP10 PUSH1 0xA4 ADD DUP5 CALLER PUSH1 0x0 SWAP1 GAS CALL PC PUSH1 0xE ADD JUMPI RETURNDATASIZE PUSH1 0x0 DUP1 RETURNDATACOPY RETURNDATASIZE PUSH1 0x0 REVERT JUMPDEST RETURNDATASIZE PUSH1 0x1 EQ ISZERO PC PUSH1 0xA ADD JUMPI PUSH1 0x1 PUSH1 0x0 RETURN JUMPDEST DUP2 MLOAD PUSH1 0x40 DUP4 ADD MLOAD RETURNDATASIZE PUSH1 0x0 DUP6 RETURNDATACOPY DUP12 DUP12 DUP3 PUSH1 0x60 DUP8 ADD CALLER POP PUSH1 0x0 PUSH1 0x4 GAS CALL POP MSIZE PUSH2 0x17CC DUP14 RETURNDATASIZE PUSH2 0x1725 JUMP JUMPDEST DUP13 ADD PUSH2 0x17D8 DUP2 DUP8 PUSH2 0x170E JUMP JUMPDEST JUMPDEST DUP3 DUP2 LT ISZERO PUSH2 0x17F0 JUMPI PUSH1 0x0 DUP2 MSTORE PUSH1 0x20 DUP2 ADD SWAP1 POP PUSH2 0x17D9 JUMP JUMPDEST POP DUP4 SWAP14 POP POP POP POP POP POP POP POP JUMP JUMPDEST PUSH4 0xBDBF8C36 MSIZE DUP2 PUSH1 0xE0 SHL DUP2 MSTORE PUSH1 0x20 DUP2 PUSH1 0x4 DUP4 CALLER PUSH1 0x0 SWAP1 GAS CALL PC PUSH1 0xE ADD JUMPI RETURNDATASIZE PUSH1 0x0 DUP1 RETURNDATACOPY RETURNDATASIZE PUSH1 0x0 REVERT JUMPDEST RETURNDATASIZE PUSH1 0x1 EQ ISZERO PC PUSH1 0xA ADD JUMPI PUSH1 0x1 PUSH1 0x0 RETURN JUMPDEST DUP1 MLOAD SWAP4 POP PUSH1 0x0 JUMPDEST PUSH1 0x40 DUP2 LT ISZERO PUSH2 0x1855 JUMPI PUSH1 0x0 DUP2 DUP4 ADD MSTORE PUSH1 0x20 DUP2 ADD SWAP1 POP PUSH2 0x183B JUMP JUMPDEST POP POP POP JUMP JUMPDEST PUSH4 0x73509064 MSIZE DUP2 PUSH1 0xE0 SHL DUP2 MSTORE PUSH1 0x20 DUP2 PUSH1 0x4 DUP4 CALLER PUSH1 0x0 SWAP1 GAS CALL PC PUSH1 0xE ADD JUMPI RETURNDATASIZE PUSH1 0x0 DUP1 RETURNDATACOPY RETURNDATASIZE PUSH1 0x0 REVERT JUMPDEST RETURNDATASIZE PUSH1 0x1 EQ ISZERO PC PUSH1 0xA ADD JUMPI PUSH1 0x1 PUSH1 0x0 RETURN JUMPDEST DUP1 MLOAD SWAP4 POP PUSH1 0x0 JUMPDEST PUSH1 0x40 DUP2 LT ISZERO PUSH2 0x18B2 JUMPI PUSH1 0x0 DUP2 DUP4 ADD MSTORE PUSH1 0x20 DUP2 ADD SWAP1 POP PUSH2 0x1898 JUMP JUMPDEST POP POP POP JUMP INVALID 0x4F PUSH24 0x6E61626C653A206E6577206F776E65722069732074686520 PUSH27 0x65726F2061646472657373536166654D6174683A206D756C746970 PUSH13 0x69636174696F6E206F76657266 PUSH13 0x6F774F776E61626C653A206E65 PUSH24 0x206F776E657220697320746865207A65726F206164647265 PUSH20 0x7300000000000000000000000000000000000000 "
        },
        "methodIdentifiers": {
          "addVestor(address,uint256,uint256,uint256,uint256)": "45bb3d5e",
          "balance()": "b69ef8a8",
          "getFrom()": "798fd178",
          "owner()": "8da5cb5b",
          "renounceOwnership()": "715018a6",
          "setToken(address)": "144fa6d7",
          "token()": "fc0c546a",
          "transfer(address,uint256)": "a9059cbb",
          "transferOwnership(address)": "f2fde38b"
        }
      }
    }
  }
}