{
  "_format": "hh-sol-artifact-1",
  "contractName": "TokenPool",
  "sourceName": "contracts/pools/TokenPool.sol",
  "abi": [
    {
      "inputs": [],
      "name": "balance",
      "outputs": [
        {
          "internalType": "uint256",
          "name": "",
          "type": "uint256"
        }
      ],
      "stateMutability": "view",
      "type": "function"
    },
    {
      "inputs": [],
      "name": "getFrom",
      "outputs": [
        {
          "internalType": "address",
          "name": "",
          "type": "address"
        }
      ],
      "stateMutability": "view",
      "type": "function"
    },
    {
      "inputs": [
        {
          "internalType": "contract IERC20",
          "name": "newToken",
          "type": "address"
        }
      ],
      "name": "setToken",
      "outputs": [],
      "stateMutability": "nonpayable",
      "type": "function"
    },
    {
      "inputs": [],
      "name": "token",
      "outputs": [
        {
          "internalType": "contract IERC20",
          "name": "",
          "type": "address"
        }
      ],
      "stateMutability": "view",
      "type": "function"
    }
  ],
  "bytecode": "0x608060405234801561001057600080fd5b50610449806100206000396000f3fe608060405234801561001057600080fd5b506004361061004c5760003560e01c8063144fa6d714610051578063798fd1781461006d578063b69ef8a81461008b578063fc0c546a146100a9575b600080fd5b61006b600480360381019061006691906102b5565b6100c7565b005b610075610163565b60405161008291906102f1565b60405180910390f35b61009361016b565b6040516100a09190610325565b60405180910390f35b6100b161021c565b6040516100be919061039f565b60405180910390f35b600073ffffffffffffffffffffffffffffffffffffffff1660008054906101000a900473ffffffffffffffffffffffffffffffffffffffff1673ffffffffffffffffffffffffffffffffffffffff161461012057600080fd5b806000806101000a81548173ffffffffffffffffffffffffffffffffffffffff021916908373ffffffffffffffffffffffffffffffffffffffff16021790555050565b600030905090565b60008060009054906101000a900473ffffffffffffffffffffffffffffffffffffffff1673ffffffffffffffffffffffffffffffffffffffff166370a08231306040518263ffffffff1660e01b81526004016101c791906102f1565b60206040518083038186803b1580156101df57600080fd5b505afa1580156101f3573d6000803e3d6000fd5b505050506040513d601f19601f8201168201806040525081019061021791906103e6565b905090565b60008054906101000a900473ffffffffffffffffffffffffffffffffffffffff1681565b600080fd5b600073ffffffffffffffffffffffffffffffffffffffff82169050919050565b600061027082610245565b9050919050565b600061028282610265565b9050919050565b61029281610277565b811461029d57600080fd5b50565b6000813590506102af81610289565b92915050565b6000602082840312156102cb576102ca610240565b5b60006102d9848285016102a0565b91505092915050565b6102eb81610265565b82525050565b600060208201905061030660008301846102e2565b92915050565b6000819050919050565b61031f8161030c565b82525050565b600060208201905061033a6000830184610316565b92915050565b6000819050919050565b600061036561036061035b84610245565b610340565b610245565b9050919050565b60006103778261034a565b9050919050565b60006103898261036c565b9050919050565b6103998161037e565b82525050565b60006020820190506103b46000830184610390565b92915050565b6103c38161030c565b81146103ce57600080fd5b50565b6000815190506103e0816103ba565b92915050565b6000602082840312156103fc576103fb610240565b5b600061040a848285016103d1565b9150509291505056fea2646970667358221220c5a0c3ace40f6cc352eceba731adea366bd6e6795f977accb4e6bd586767f4ea64736f6c63430008090033",
  "linkReferences": {},
  "deployedLinkReferences": {}
}