{
  "_format": "hh-sol-artifact-1",
  "contractName": "TokenPool",
  "sourceName": "contracts/pools/TokenPool.sol",
  "abi": [
    {
      "inputs": [],
      "name": "balance",
      "outputs": [
        {
          "internalType": "uint256",
          "name": "",
          "type": "uint256"
        }
      ],
      "stateMutability": "view",
      "type": "function"
    },
    {
      "inputs": [],
      "name": "getFrom",
      "outputs": [
        {
          "internalType": "address",
          "name": "",
          "type": "address"
        }
      ],
      "stateMutability": "view",
      "type": "function"
    },
    {
      "inputs": [
        {
          "internalType": "contract IERC20",
          "name": "newToken",
          "type": "address"
        }
      ],
      "name": "setToken",
      "outputs": [],
      "stateMutability": "nonpayable",
      "type": "function"
    },
    {
      "inputs": [],
      "name": "token",
      "outputs": [
        {
          "internalType": "contract IERC20",
          "name": "",
          "type": "address"
        }
      ],
      "stateMutability": "view",
      "type": "function"
    }
  ],
  "bytecode": "0x60806040523480156100195760008061001661001f565b50505b5061008d565b632a2a7adb598160e01b8152600481016020815285602082015260005b8681101561005a57808601518160408401015260208101905061003c565b506020828760640184336000905af158600e01573d6000803e3d6000fd5b3d6001141558600a015760016000f35b505050565b6106738061009c6000396000f3fe6080604052348015610019576000806100166103da565b50505b50600436106100555760003560e01c8063144fa6d714610063578063798fd178146100b0578063b69ef8a8146100e4578063fc0c546a14610102575b6000806100606103da565b50505b6100ae600480360360208110156100825760008061007f6103da565b50505b81019080803573ffffffffffffffffffffffffffffffffffffffff169060200190929190505050610136565b005b6100b86101f2565b604051808273ffffffffffffffffffffffffffffffffffffffff16815260200191505060405180910390f35b6100ec610255565b6040518082815260200191505060405180910390f35b61010a6103af565b604051808273ffffffffffffffffffffffffffffffffffffffff16815260200191505060405180910390f35b600073ffffffffffffffffffffffffffffffffffffffff16600080610159610448565b906101000a900473ffffffffffffffffffffffffffffffffffffffff1673ffffffffffffffffffffffffffffffffffffffff161461019f5760008061019c6103da565b50505b806000806101000a816101b0610448565b8173ffffffffffffffffffffffffffffffffffffffff021916908373ffffffffffffffffffffffffffffffffffffffff160217906101ec6104ab565b50505050565b60005a63996d79a5598160e01b8152602081600483336000905af158600e01573d6000803e3d6000fd5b3d6001141558600a015760016000f35b8051925060005b604081101561024d57600081830152602081019050610233565b505050905090565b600080600090610263610448565b906101000a900473ffffffffffffffffffffffffffffffffffffffff1673ffffffffffffffffffffffffffffffffffffffff166370a082315a63996d79a5598160e01b8152602081600483336000905af158600e01573d6000803e3d6000fd5b3d6001141558600a015760016000f35b8051925060005b60408110156102f4576000818301526020810190506102da565b5050506040518263ffffffff1660e01b8152600401808273ffffffffffffffffffffffffffffffffffffffff168152602001915050602060405180830381868061033c610510565b1580156103515760008061034e6103da565b50505b505a61035b610573565b505050505015801561037a573d6000803e3d60006103776103da565b50505b505050506040513d6020811015610399576000806103966103da565b50505b8101908080519060200190929190505050905090565b6000806103ba610448565b906101000a900473ffffffffffffffffffffffffffffffffffffffff1681565b632a2a7adb598160e01b8152600481016020815285602082015260005b868110156104155780860151816040840101526020810190506103f7565b506020828760640184336000905af158600e01573d6000803e3d6000fd5b3d6001141558600a015760016000f35b505050565b6303daa959598160e01b8152836004820152602081602483336000905af158600e01573d6000803e3d6000fd5b3d6001141558600a015760016000f35b8051935060005b60408110156104a65760008183015260208101905061048c565b505050565b6322bd64c0598160e01b8152836004820152846024820152600081604483336000905af158600e01573d6000803e3d6000fd5b3d6001141558600a015760016000f35b60005b604081101561050b576000818301526020810190506104f1565b505050565b638435035b598160e01b8152836004820152602081602483336000905af158600e01573d6000803e3d6000fd5b3d6001141558600a015760016000f35b8051935060005b604081101561056e57600081830152602081019050610554565b505050565b638540661f598160e01b81526105b2565b600081905081831115610595578290505b92915050565b6000819050818310156105ac578290505b92915050565b836004820152846024820152606060448201528660648201526084810160005b888110156105ed5780880151818301526020810190506105d2565b506060828960a40184336000905af158600e01573d6000803e3d6000fd5b3d6001141558600a015760016000f35b815160408301513d6000853e8b8b82606087013350600060045af150596106428d3d61059b565b8c0161064e8187610584565b5b82811015610666576000815260208101905061064f565b50839d505050505050505056",
  "linkReferences": {},
  "deployedLinkReferences": {}
}