{
  "_format": "hh-sol-artifact-1",
  "contractName": "MigratedBenzeneToken",
  "sourceName": "contracts/MigratedBenzeneToken.sol",
  "abi": [
    {
      "inputs": [
        {
          "internalType": "address",
          "name": "gamePool",
          "type": "address"
        },
        {
          "internalType": "address",
          "name": "teamPool",
          "type": "address"
        },
        {
          "internalType": "address",
          "name": "advisorPool",
          "type": "address"
        },
        {
          "internalType": "address",
          "name": "oldTeamPool",
          "type": "address"
        },
        {
          "internalType": "address",
          "name": "oldAdvisorPool",
          "type": "address"
        },
        {
          "internalType": "address[]",
          "name": "oldBzn",
          "type": "address[]"
        }
      ],
      "stateMutability": "nonpayable",
      "type": "constructor"
    },
    {
      "anonymous": false,
      "inputs": [
        {
          "indexed": true,
          "internalType": "address",
          "name": "owner",
          "type": "address"
        },
        {
          "indexed": true,
          "internalType": "address",
          "name": "spender",
          "type": "address"
        },
        {
          "indexed": false,
          "internalType": "uint256",
          "name": "value",
          "type": "uint256"
        }
      ],
      "name": "Approval",
      "type": "event"
    },
    {
      "anonymous": false,
      "inputs": [
        {
          "indexed": true,
          "internalType": "address",
          "name": "from",
          "type": "address"
        },
        {
          "indexed": true,
          "internalType": "address",
          "name": "to",
          "type": "address"
        },
        {
          "indexed": false,
          "internalType": "uint256",
          "name": "value",
          "type": "uint256"
        }
      ],
      "name": "Transfer",
      "type": "event"
    },
    {
      "inputs": [],
      "name": "AdvisorPoolAddress",
      "outputs": [
        {
          "internalType": "address",
          "name": "",
          "type": "address"
        }
      ],
      "stateMutability": "view",
      "type": "function"
    },
    {
      "inputs": [],
      "name": "GamePoolAddress",
      "outputs": [
        {
          "internalType": "address",
          "name": "",
          "type": "address"
        }
      ],
      "stateMutability": "view",
      "type": "function"
    },
    {
      "inputs": [],
      "name": "TeamPoolAddress",
      "outputs": [
        {
          "internalType": "address",
          "name": "",
          "type": "address"
        }
      ],
      "stateMutability": "view",
      "type": "function"
    },
    {
      "inputs": [],
      "name": "TokenName",
      "outputs": [
        {
          "internalType": "string",
          "name": "",
          "type": "string"
        }
      ],
      "stateMutability": "view",
      "type": "function"
    },
    {
      "inputs": [],
      "name": "TokenSymbol",
      "outputs": [
        {
          "internalType": "string",
          "name": "",
          "type": "string"
        }
      ],
      "stateMutability": "view",
      "type": "function"
    },
    {
      "inputs": [
        {
          "internalType": "address",
          "name": "owner",
          "type": "address"
        },
        {
          "internalType": "address",
          "name": "spender",
          "type": "address"
        }
      ],
      "name": "allowance",
      "outputs": [
        {
          "internalType": "uint256",
          "name": "",
          "type": "uint256"
        }
      ],
      "stateMutability": "view",
      "type": "function"
    },
    {
      "inputs": [
        {
          "internalType": "address",
          "name": "spender",
          "type": "address"
        },
        {
          "internalType": "uint256",
          "name": "amount",
          "type": "uint256"
        }
      ],
      "name": "approve",
      "outputs": [
        {
          "internalType": "bool",
          "name": "",
          "type": "bool"
        }
      ],
      "stateMutability": "nonpayable",
      "type": "function"
    },
    {
      "inputs": [
        {
          "internalType": "address",
          "name": "spender",
          "type": "address"
        },
        {
          "internalType": "uint256",
          "name": "tokens",
          "type": "uint256"
        },
        {
          "internalType": "bytes",
          "name": "data",
          "type": "bytes"
        }
      ],
      "name": "approveAndCall",
      "outputs": [
        {
          "internalType": "bool",
          "name": "success",
          "type": "bool"
        }
      ],
      "stateMutability": "payable",
      "type": "function"
    },
    {
      "inputs": [
        {
          "internalType": "address",
          "name": "account",
          "type": "address"
        }
      ],
      "name": "balanceOf",
      "outputs": [
        {
          "internalType": "uint256",
          "name": "",
          "type": "uint256"
        }
      ],
      "stateMutability": "view",
      "type": "function"
    },
    {
      "inputs": [
        {
          "internalType": "uint256",
          "name": "amount",
          "type": "uint256"
        }
      ],
      "name": "burn",
      "outputs": [],
      "stateMutability": "nonpayable",
      "type": "function"
    },
    {
      "inputs": [
        {
          "internalType": "address",
          "name": "account",
          "type": "address"
        },
        {
          "internalType": "uint256",
          "name": "amount",
          "type": "uint256"
        }
      ],
      "name": "burnFrom",
      "outputs": [],
      "stateMutability": "nonpayable",
      "type": "function"
    },
    {
      "inputs": [],
      "name": "decimals",
      "outputs": [
        {
          "internalType": "uint8",
          "name": "",
          "type": "uint8"
        }
      ],
      "stateMutability": "view",
      "type": "function"
    },
    {
      "inputs": [
        {
          "internalType": "address",
          "name": "spender",
          "type": "address"
        },
        {
          "internalType": "uint256",
          "name": "subtractedValue",
          "type": "uint256"
        }
      ],
      "name": "decreaseAllowance",
      "outputs": [
        {
          "internalType": "bool",
          "name": "",
          "type": "bool"
        }
      ],
      "stateMutability": "nonpayable",
      "type": "function"
    },
    {
      "inputs": [
        {
          "internalType": "address",
          "name": "spender",
          "type": "address"
        },
        {
          "internalType": "uint256",
          "name": "addedValue",
          "type": "uint256"
        }
      ],
      "name": "increaseAllowance",
      "outputs": [
        {
          "internalType": "bool",
          "name": "",
          "type": "bool"
        }
      ],
      "stateMutability": "nonpayable",
      "type": "function"
    },
    {
      "inputs": [
        {
          "internalType": "address",
          "name": "token",
          "type": "address"
        },
        {
          "internalType": "address",
          "name": "account",
          "type": "address"
        },
        {
          "internalType": "uint256",
          "name": "amount",
          "type": "uint256"
        }
      ],
      "name": "migrate",
      "outputs": [],
      "stateMutability": "nonpayable",
      "type": "function"
    },
    {
      "inputs": [
        {
          "internalType": "address",
          "name": "account",
          "type": "address"
        }
      ],
      "name": "migrateAll",
      "outputs": [],
      "stateMutability": "nonpayable",
      "type": "function"
    },
    {
      "inputs": [
        {
          "internalType": "address",
          "name": "token",
          "type": "address"
        },
        {
          "internalType": "address",
          "name": "account",
          "type": "address"
        }
      ],
      "name": "migrateAll",
      "outputs": [],
      "stateMutability": "nonpayable",
      "type": "function"
    },
    {
      "inputs": [],
      "name": "name",
      "outputs": [
        {
          "internalType": "string",
          "name": "",
          "type": "string"
        }
      ],
      "stateMutability": "view",
      "type": "function"
    },
    {
      "inputs": [
        {
          "internalType": "address",
          "name": "from",
          "type": "address"
        },
        {
          "internalType": "uint256",
          "name": "tokens",
          "type": "uint256"
        },
        {
          "internalType": "address",
          "name": "token",
          "type": "address"
        },
        {
          "internalType": "bytes",
          "name": "data",
          "type": "bytes"
        }
      ],
      "name": "receiveApproval",
      "outputs": [
        {
          "internalType": "bool",
          "name": "",
          "type": "bool"
        }
      ],
      "stateMutability": "payable",
      "type": "function"
    },
    {
      "inputs": [],
      "name": "symbol",
      "outputs": [
        {
          "internalType": "string",
          "name": "",
          "type": "string"
        }
      ],
      "stateMutability": "view",
      "type": "function"
    },
    {
      "inputs": [],
      "name": "totalSupply",
      "outputs": [
        {
          "internalType": "uint256",
          "name": "",
          "type": "uint256"
        }
      ],
      "stateMutability": "view",
      "type": "function"
    },
    {
      "inputs": [
        {
          "internalType": "address",
          "name": "recipient",
          "type": "address"
        },
        {
          "internalType": "uint256",
          "name": "amount",
          "type": "uint256"
        }
      ],
      "name": "transfer",
      "outputs": [
        {
          "internalType": "bool",
          "name": "",
          "type": "bool"
        }
      ],
      "stateMutability": "nonpayable",
      "type": "function"
    },
    {
      "inputs": [
        {
          "internalType": "address",
          "name": "sender",
          "type": "address"
        },
        {
          "internalType": "address",
          "name": "recipient",
          "type": "address"
        },
        {
          "internalType": "uint256",
          "name": "amount",
          "type": "uint256"
        }
      ],
      "name": "transferFrom",
      "outputs": [
        {
          "internalType": "bool",
          "name": "",
          "type": "bool"
        }
      ],
      "stateMutability": "nonpayable",
      "type": "function"
    }
  ],
  "bytecode": "0x60806040523480156200001157600080fd5b506040516200382638038062003826833981810160405281019062000037919062000be1565b8585856040518060400160405280600781526020017f42656e7a656e65000000000000000000000000000000000000000000000000008152506040518060400160405280600381526020017f425a4e00000000000000000000000000000000000000000000000000000000008152508160039080519060200190620000be92919062000943565b508060049080519060200190620000d792919062000943565b50505082600760006101000a81548173ffffffffffffffffffffffffffffffffffffffff021916908373ffffffffffffffffffffffffffffffffffffffff16021790555081600860006101000a81548173ffffffffffffffffffffffffffffffffffffffff021916908373ffffffffffffffffffffffffffffffffffffffff16021790555080600960006101000a81548173ffffffffffffffffffffffffffffffffffffffff021916908373ffffffffffffffffffffffffffffffffffffffff1602179055505050506000815111620001af57600080fd5b600080600090505b82518110156200026c57828181518110620001d757620001d662000c9c565b5b60200260200101519150600160056000858481518110620001fd57620001fc62000c9c565b5b602002602001015173ffffffffffffffffffffffffffffffffffffffff1673ffffffffffffffffffffffffffffffffffffffff16815260200190815260200160002060006101000a81548160ff0219169083151502179055508080620002639062000d04565b915050620001b7565b5080600660006101000a81548173ffffffffffffffffffffffffffffffffffffffff021916908373ffffffffffffffffffffffffffffffffffffffff16021790555060008173ffffffffffffffffffffffffffffffffffffffff166370a08231866040518263ffffffff1660e01b8152600401620002eb919062000d63565b60206040518083038186803b1580156200030457600080fd5b505afa15801562000319573d6000803e3d6000fd5b505050506040513d601f19601f820116820180604052508101906200033f919062000db1565b905060008273ffffffffffffffffffffffffffffffffffffffff166370a08231866040518263ffffffff1660e01b81526004016200037e919062000d63565b60206040518083038186803b1580156200039757600080fd5b505afa158015620003ac573d6000803e3d6000fd5b505050506040513d601f19601f82011682018060405250810190620003d2919062000db1565b905060008211620003e257600080fd5b60008111620003f057600080fd5b6200040f30828462000403919062000de3565b6200052260201b60201c565b620004223089846200069b60201b60201c565b620004353088836200069b60201b60201c565b8773ffffffffffffffffffffffffffffffffffffffff1663144fa6d7306040518263ffffffff1660e01b815260040162000470919062000eab565b600060405180830381600087803b1580156200048b57600080fd5b505af1158015620004a0573d6000803e3d6000fd5b505050508673ffffffffffffffffffffffffffffffffffffffff1663144fa6d7306040518263ffffffff1660e01b8152600401620004df919062000eab565b600060405180830381600087803b158015620004fa57600080fd5b505af11580156200050f573d6000803e3d6000fd5b50505050505050505050505050620011a6565b600073ffffffffffffffffffffffffffffffffffffffff168273ffffffffffffffffffffffffffffffffffffffff16141562000595576040517f08c379a00000000000000000000000000000000000000000000000000000000081526004016200058c9062000f29565b60405180910390fd5b620005a9600083836200093960201b60201c565b8060026000828254620005bd919062000de3565b92505081905550806000808473ffffffffffffffffffffffffffffffffffffffff1673ffffffffffffffffffffffffffffffffffffffff168152602001908152602001600020600082825462000614919062000de3565b925050819055508173ffffffffffffffffffffffffffffffffffffffff16600073ffffffffffffffffffffffffffffffffffffffff167fddf252ad1be2c89b69c2b068fc378daa952ba7f163c4a11628f55a4df523b3ef836040516200067b919062000f5c565b60405180910390a362000697600083836200093e60201b60201c565b5050565b600073ffffffffffffffffffffffffffffffffffffffff168373ffffffffffffffffffffffffffffffffffffffff1614156200070e576040517f08c379a0000000000000000000000000000000000000000000000000000000008152600401620007059062000fef565b60405180910390fd5b600073ffffffffffffffffffffffffffffffffffffffff168273ffffffffffffffffffffffffffffffffffffffff16141562000781576040517f08c379a0000000000000000000000000000000000000000000000000000000008152600401620007789062001087565b60405180910390fd5b620007948383836200093960201b60201c565b60008060008573ffffffffffffffffffffffffffffffffffffffff1673ffffffffffffffffffffffffffffffffffffffff168152602001908152602001600020549050818110156200081d576040517f08c379a000000000000000000000000000000000000000000000000000000000815260040162000814906200111f565b60405180910390fd5b8181036000808673ffffffffffffffffffffffffffffffffffffffff1673ffffffffffffffffffffffffffffffffffffffff16815260200190815260200160002081905550816000808573ffffffffffffffffffffffffffffffffffffffff1673ffffffffffffffffffffffffffffffffffffffff1681526020019081526020016000206000828254620008b2919062000de3565b925050819055508273ffffffffffffffffffffffffffffffffffffffff168473ffffffffffffffffffffffffffffffffffffffff167fddf252ad1be2c89b69c2b068fc378daa952ba7f163c4a11628f55a4df523b3ef8460405162000918919062000f5c565b60405180910390a3620009338484846200093e60201b60201c565b50505050565b505050565b505050565b828054620009519062001170565b90600052602060002090601f016020900481019282620009755760008555620009c1565b82601f106200099057805160ff1916838001178555620009c1565b82800160010185558215620009c1579182015b82811115620009c0578251825591602001919060010190620009a3565b5b509050620009d09190620009d4565b5090565b5b80821115620009ef576000816000905550600101620009d5565b5090565b6000604051905090565b600080fd5b600080fd5b600073ffffffffffffffffffffffffffffffffffffffff82169050919050565b600062000a348262000a07565b9050919050565b62000a468162000a27565b811462000a5257600080fd5b50565b60008151905062000a668162000a3b565b92915050565b600080fd5b6000601f19601f8301169050919050565b7f4e487b7100000000000000000000000000000000000000000000000000000000600052604160045260246000fd5b62000abc8262000a71565b810181811067ffffffffffffffff8211171562000ade5762000add62000a82565b5b80604052505050565b600062000af3620009f3565b905062000b01828262000ab1565b919050565b600067ffffffffffffffff82111562000b245762000b2362000a82565b5b602082029050602081019050919050565b600080fd5b600062000b5162000b4b8462000b06565b62000ae7565b9050808382526020820190506020840283018581111562000b775762000b7662000b35565b5b835b8181101562000ba4578062000b8f888262000a55565b84526020840193505060208101905062000b79565b5050509392505050565b600082601f83011262000bc65762000bc562000a6c565b5b815162000bd884826020860162000b3a565b91505092915050565b60008060008060008060c0878903121562000c015762000c00620009fd565b5b600062000c1189828a0162000a55565b965050602062000c2489828a0162000a55565b955050604062000c3789828a0162000a55565b945050606062000c4a89828a0162000a55565b935050608062000c5d89828a0162000a55565b92505060a087015167ffffffffffffffff81111562000c815762000c8062000a02565b5b62000c8f89828a0162000bae565b9150509295509295509295565b7f4e487b7100000000000000000000000000000000000000000000000000000000600052603260045260246000fd5b7f4e487b7100000000000000000000000000000000000000000000000000000000600052601160045260246000fd5b6000819050919050565b600062000d118262000cfa565b91507fffffffffffffffffffffffffffffffffffffffffffffffffffffffffffffffff82141562000d475762000d4662000ccb565b5b600182019050919050565b62000d5d8162000a27565b82525050565b600060208201905062000d7a600083018462000d52565b92915050565b62000d8b8162000cfa565b811462000d9757600080fd5b50565b60008151905062000dab8162000d80565b92915050565b60006020828403121562000dca5762000dc9620009fd565b5b600062000dda8482850162000d9a565b91505092915050565b600062000df08262000cfa565b915062000dfd8362000cfa565b9250827fffffffffffffffffffffffffffffffffffffffffffffffffffffffffffffffff0382111562000e355762000e3462000ccb565b5b828201905092915050565b6000819050919050565b600062000e6b62000e6562000e5f8462000a07565b62000e40565b62000a07565b9050919050565b600062000e7f8262000e4a565b9050919050565b600062000e938262000e72565b9050919050565b62000ea58162000e86565b82525050565b600060208201905062000ec2600083018462000e9a565b92915050565b600082825260208201905092915050565b7f45524332303a206d696e7420746f20746865207a65726f206164647265737300600082015250565b600062000f11601f8362000ec8565b915062000f1e8262000ed9565b602082019050919050565b6000602082019050818103600083015262000f448162000f02565b9050919050565b62000f568162000cfa565b82525050565b600060208201905062000f73600083018462000f4b565b92915050565b7f45524332303a207472616e736665722066726f6d20746865207a65726f20616460008201527f6472657373000000000000000000000000000000000000000000000000000000602082015250565b600062000fd760258362000ec8565b915062000fe48262000f79565b604082019050919050565b600060208201905081810360008301526200100a8162000fc8565b9050919050565b7f45524332303a207472616e7366657220746f20746865207a65726f206164647260008201527f6573730000000000000000000000000000000000000000000000000000000000602082015250565b60006200106f60238362000ec8565b91506200107c8262001011565b604082019050919050565b60006020820190508181036000830152620010a28162001060565b9050919050565b7f45524332303a207472616e7366657220616d6f756e742065786365656473206260008201527f616c616e63650000000000000000000000000000000000000000000000000000602082015250565b60006200110760268362000ec8565b91506200111482620010a9565b604082019050919050565b600060208201905081810360008301526200113a81620010f8565b9050919050565b7f4e487b7100000000000000000000000000000000000000000000000000000000600052602260045260246000fd5b600060028204905060018216806200118957607f821691505b60208210811415620011a0576200119f62001141565b5b50919050565b61267080620011b66000396000f3fe60806040526004361061013f5760003560e01c806379cc6790116100b6578063cae9ca511161006f578063cae9ca511461048a578063dbed3a30146104ba578063dd62ed3e146104e5578063f16565ee14610522578063f41567571461054b578063f64db050146105765761013f565b806379cc6790146103615780638f4ffcb11461038a57806395d89b41146103ba578063a457c2d7146103e5578063a9059cbb14610422578063b6d7855a1461045f5761013f565b8063313ce56711610108578063313ce5671461023f578063395093511461026a57806342966c68146102a75780635213cca8146102d05780635a8cadb1146102fb57806370a08231146103245761013f565b8062c8fbd41461014457806306fdde031461016f578063095ea7b31461019a57806318160ddd146101d757806323b872dd14610202575b600080fd5b34801561015057600080fd5b5061015961059f565b6040516101669190611801565b60405180910390f35b34801561017b57600080fd5b506101846105d8565b6040516101919190611801565b60405180910390f35b3480156101a657600080fd5b506101c160048036038101906101bc91906118cb565b61066a565b6040516101ce9190611926565b60405180910390f35b3480156101e357600080fd5b506101ec610688565b6040516101f99190611950565b60405180910390f35b34801561020e57600080fd5b506102296004803603810190610224919061196b565b610692565b6040516102369190611926565b60405180910390f35b34801561024b57600080fd5b5061025461078a565b60405161026191906119da565b60405180910390f35b34801561027657600080fd5b50610291600480360381019061028c91906118cb565b610793565b60405161029e9190611926565b60405180910390f35b3480156102b357600080fd5b506102ce60048036038101906102c991906119f5565b61083f565b005b3480156102dc57600080fd5b506102e5610853565b6040516102f29190611a31565b60405180910390f35b34801561030757600080fd5b50610322600480360381019061031d9190611a4c565b61087d565b005b34801561033057600080fd5b5061034b60048036038101906103469190611a4c565b6108ac565b6040516103589190611950565b60405180910390f35b34801561036d57600080fd5b50610388600480360381019061038391906118cb565b6108f4565b005b6103a4600480360381019061039f9190611bae565b61096f565b6040516103b19190611926565b60405180910390f35b3480156103c657600080fd5b506103cf610988565b6040516103dc9190611801565b60405180910390f35b3480156103f157600080fd5b5061040c600480360381019061040791906118cb565b610a1a565b6040516104199190611926565b60405180910390f35b34801561042e57600080fd5b50610449600480360381019061044491906118cb565b610b05565b6040516104569190611926565b60405180910390f35b34801561046b57600080fd5b50610474610b23565b6040516104819190611801565b60405180910390f35b6104a4600480360381019061049f9190611c31565b610b5c565b6040516104b19190611926565b60405180910390f35b3480156104c657600080fd5b506104cf610c51565b6040516104dc9190611a31565b60405180910390f35b3480156104f157600080fd5b5061050c60048036038101906105079190611ca0565b610c7b565b6040516105199190611950565b60405180910390f35b34801561052e57600080fd5b506105496004803603810190610544919061196b565b610d02565b005b34801561055757600080fd5b50610560610d12565b60405161056d9190611a31565b60405180910390f35b34801561058257600080fd5b5061059d60048036038101906105989190611ca0565b610d3c565b005b6040518060400160405280600381526020017f425a4e000000000000000000000000000000000000000000000000000000000081525081565b6060600380546105e790611d0f565b80601f016020809104026020016040519081016040528092919081815260200182805461061390611d0f565b80156106605780601f1061063557610100808354040283529160200191610660565b820191906000526020600020905b81548152906001019060200180831161064357829003601f168201915b5050505050905090565b600061067e610677610d4a565b8484610d52565b6001905092915050565b6000600254905090565b600061069f848484610f1d565b6000600160008673ffffffffffffffffffffffffffffffffffffffff1673ffffffffffffffffffffffffffffffffffffffff16815260200190815260200160002060006106ea610d4a565b73ffffffffffffffffffffffffffffffffffffffff1673ffffffffffffffffffffffffffffffffffffffff1681526020019081526020016000205490508281101561076a576040517f08c379a000000000000000000000000000000000000000000000000000000000815260040161076190611db3565b60405180910390fd5b61077e85610776610d4a565b858403610d52565b60019150509392505050565b60006012905090565b60006108356107a0610d4a565b8484600160006107ae610d4a565b73ffffffffffffffffffffffffffffffffffffffff1673ffffffffffffffffffffffffffffffffffffffff16815260200190815260200160002060008873ffffffffffffffffffffffffffffffffffffffff1673ffffffffffffffffffffffffffffffffffffffff168152602001908152602001600020546108309190611e02565b610d52565b6001905092915050565b61085061084a610d4a565b8261119e565b50565b6000600960009054906101000a900473ffffffffffffffffffffffffffffffffffffffff16905090565b6108a9600660009054906101000a900473ffffffffffffffffffffffffffffffffffffffff1682611375565b50565b60008060008373ffffffffffffffffffffffffffffffffffffffff1673ffffffffffffffffffffffffffffffffffffffff168152602001908152602001600020549050919050565b600061090783610902610d4a565b610c7b565b90508181101561094c576040517f08c379a000000000000000000000000000000000000000000000000000000000815260040161094390611eca565b60405180910390fd5b61096083610958610d4a565b848403610d52565b61096a838361119e565b505050565b600061097c83868661150d565b60019050949350505050565b60606004805461099790611d0f565b80601f01602080910402602001604051908101604052809291908181526020018280546109c390611d0f565b8015610a105780601f106109e557610100808354040283529160200191610a10565b820191906000526020600020905b8154815290600101906020018083116109f357829003601f168201915b5050505050905090565b60008060016000610a29610d4a565b73ffffffffffffffffffffffffffffffffffffffff1673ffffffffffffffffffffffffffffffffffffffff16815260200190815260200160002060008573ffffffffffffffffffffffffffffffffffffffff1673ffffffffffffffffffffffffffffffffffffffff16815260200190815260200160002054905082811015610ae6576040517f08c379a0000000000000000000000000000000000000000000000000000000008152600401610add90611f5c565b60405180910390fd5b610afa610af1610d4a565b85858403610d52565b600191505092915050565b6000610b19610b12610d4a565b8484610f1d565b6001905092915050565b6040518060400160405280600781526020017f42656e7a656e650000000000000000000000000000000000000000000000000081525081565b6000610b68848461066a565b50600084905060008173ffffffffffffffffffffffffffffffffffffffff16638f4ffcb134338830896040518663ffffffff1660e01b8152600401610bb09493929190611fd1565b6020604051808303818588803b158015610bc957600080fd5b505af1158015610bdd573d6000803e3d6000fd5b50505050506040513d601f19601f82011682018060405250810190610c029190612049565b905080610c44576040517f08c379a0000000000000000000000000000000000000000000000000000000008152600401610c3b906120e8565b60405180910390fd5b6001925050509392505050565b6000600760009054906101000a900473ffffffffffffffffffffffffffffffffffffffff16905090565b6000600160008473ffffffffffffffffffffffffffffffffffffffff1673ffffffffffffffffffffffffffffffffffffffff16815260200190815260200160002060008373ffffffffffffffffffffffffffffffffffffffff1673ffffffffffffffffffffffffffffffffffffffff16815260200190815260200160002054905092915050565b610d0d83838361150d565b505050565b6000600860009054906101000a900473ffffffffffffffffffffffffffffffffffffffff16905090565b610d468282611375565b5050565b600033905090565b600073ffffffffffffffffffffffffffffffffffffffff168373ffffffffffffffffffffffffffffffffffffffff161415610dc2576040517f08c379a0000000000000000000000000000000000000000000000000000000008152600401610db99061217a565b60405180910390fd5b600073ffffffffffffffffffffffffffffffffffffffff168273ffffffffffffffffffffffffffffffffffffffff161415610e32576040517f08c379a0000000000000000000000000000000000000000000000000000000008152600401610e299061220c565b60405180910390fd5b80600160008573ffffffffffffffffffffffffffffffffffffffff1673ffffffffffffffffffffffffffffffffffffffff16815260200190815260200160002060008473ffffffffffffffffffffffffffffffffffffffff1673ffffffffffffffffffffffffffffffffffffffff168152602001908152602001600020819055508173ffffffffffffffffffffffffffffffffffffffff168373ffffffffffffffffffffffffffffffffffffffff167f8c5be1e5ebec7d5bd14f71427d1e84f3dd0314c0f7b2291e5b200ac8c7c3b92583604051610f109190611950565b60405180910390a3505050565b600073ffffffffffffffffffffffffffffffffffffffff168373ffffffffffffffffffffffffffffffffffffffff161415610f8d576040517f08c379a0000000000000000000000000000000000000000000000000000000008152600401610f849061229e565b60405180910390fd5b600073ffffffffffffffffffffffffffffffffffffffff168273ffffffffffffffffffffffffffffffffffffffff161415610ffd576040517f08c379a0000000000000000000000000000000000000000000000000000000008152600401610ff490612330565b60405180910390fd5b6110088383836115e5565b60008060008573ffffffffffffffffffffffffffffffffffffffff1673ffffffffffffffffffffffffffffffffffffffff1681526020019081526020016000205490508181101561108e576040517f08c379a0000000000000000000000000000000000000000000000000000000008152600401611085906123c2565b60405180910390fd5b8181036000808673ffffffffffffffffffffffffffffffffffffffff1673ffffffffffffffffffffffffffffffffffffffff16815260200190815260200160002081905550816000808573ffffffffffffffffffffffffffffffffffffffff1673ffffffffffffffffffffffffffffffffffffffff16815260200190815260200160002060008282546111219190611e02565b925050819055508273ffffffffffffffffffffffffffffffffffffffff168473ffffffffffffffffffffffffffffffffffffffff167fddf252ad1be2c89b69c2b068fc378daa952ba7f163c4a11628f55a4df523b3ef846040516111859190611950565b60405180910390a36111988484846115ea565b50505050565b600073ffffffffffffffffffffffffffffffffffffffff168273ffffffffffffffffffffffffffffffffffffffff16141561120e576040517f08c379a000000000000000000000000000000000000000000000000000000000815260040161120590612454565b60405180910390fd5b61121a826000836115e5565b60008060008473ffffffffffffffffffffffffffffffffffffffff1673ffffffffffffffffffffffffffffffffffffffff168152602001908152602001600020549050818110156112a0576040517f08c379a0000000000000000000000000000000000000000000000000000000008152600401611297906124e6565b60405180910390fd5b8181036000808573ffffffffffffffffffffffffffffffffffffffff1673ffffffffffffffffffffffffffffffffffffffff1681526020019081526020016000208190555081600260008282546112f79190612506565b92505081905550600073ffffffffffffffffffffffffffffffffffffffff168373ffffffffffffffffffffffffffffffffffffffff167fddf252ad1be2c89b69c2b068fc378daa952ba7f163c4a11628f55a4df523b3ef8460405161135c9190611950565b60405180910390a3611370836000846115ea565b505050565b600560008373ffffffffffffffffffffffffffffffffffffffff1673ffffffffffffffffffffffffffffffffffffffff16815260200190815260200160002060009054906101000a900460ff166113cb57600080fd5b600082905060008173ffffffffffffffffffffffffffffffffffffffff166370a08231846040518263ffffffff1660e01b815260040161140b9190611a31565b60206040518083038186803b15801561142357600080fd5b505afa158015611437573d6000803e3d6000fd5b505050506040513d601f19601f8201168201806040525081019061145b919061254f565b905060008273ffffffffffffffffffffffffffffffffffffffff1663dd62ed3e85306040518363ffffffff1660e01b815260040161149a92919061257c565b60206040518083038186803b1580156114b257600080fd5b505afa1580156114c6573d6000803e3d6000fd5b505050506040513d601f19601f820116820180604052508101906114ea919061254f565b905060006114f883836115ef565b905061150586868361150d565b505050505050565b600560008473ffffffffffffffffffffffffffffffffffffffff1673ffffffffffffffffffffffffffffffffffffffff16815260200190815260200160002060009054906101000a900460ff1661156357600080fd5b60008390508073ffffffffffffffffffffffffffffffffffffffff166379cc679084846040518363ffffffff1660e01b81526004016115a39291906125a5565b600060405180830381600087803b1580156115bd57600080fd5b505af11580156115d1573d6000803e3d6000fd5b505050506115df8383611608565b50505050565b505050565b505050565b60008183106115fe5781611600565b825b905092915050565b600073ffffffffffffffffffffffffffffffffffffffff168273ffffffffffffffffffffffffffffffffffffffff161415611678576040517f08c379a000000000000000000000000000000000000000000000000000000000815260040161166f9061261a565b60405180910390fd5b611684600083836115e5565b80600260008282546116969190611e02565b92505081905550806000808473ffffffffffffffffffffffffffffffffffffffff1673ffffffffffffffffffffffffffffffffffffffff16815260200190815260200160002060008282546116eb9190611e02565b925050819055508173ffffffffffffffffffffffffffffffffffffffff16600073ffffffffffffffffffffffffffffffffffffffff167fddf252ad1be2c89b69c2b068fc378daa952ba7f163c4a11628f55a4df523b3ef836040516117509190611950565b60405180910390a3611764600083836115ea565b5050565b600081519050919050565b600082825260208201905092915050565b60005b838110156117a2578082015181840152602081019050611787565b838111156117b1576000848401525b50505050565b6000601f19601f8301169050919050565b60006117d382611768565b6117dd8185611773565b93506117ed818560208601611784565b6117f6816117b7565b840191505092915050565b6000602082019050818103600083015261181b81846117c8565b905092915050565b6000604051905090565b600080fd5b600080fd5b600073ffffffffffffffffffffffffffffffffffffffff82169050919050565b600061186282611837565b9050919050565b61187281611857565b811461187d57600080fd5b50565b60008135905061188f81611869565b92915050565b6000819050919050565b6118a881611895565b81146118b357600080fd5b50565b6000813590506118c58161189f565b92915050565b600080604083850312156118e2576118e161182d565b5b60006118f085828601611880565b9250506020611901858286016118b6565b9150509250929050565b60008115159050919050565b6119208161190b565b82525050565b600060208201905061193b6000830184611917565b92915050565b61194a81611895565b82525050565b60006020820190506119656000830184611941565b92915050565b6000806000606084860312156119845761198361182d565b5b600061199286828701611880565b93505060206119a386828701611880565b92505060406119b4868287016118b6565b9150509250925092565b600060ff82169050919050565b6119d4816119be565b82525050565b60006020820190506119ef60008301846119cb565b92915050565b600060208284031215611a0b57611a0a61182d565b5b6000611a19848285016118b6565b91505092915050565b611a2b81611857565b82525050565b6000602082019050611a466000830184611a22565b92915050565b600060208284031215611a6257611a6161182d565b5b6000611a7084828501611880565b91505092915050565b600080fd5b600080fd5b7f4e487b7100000000000000000000000000000000000000000000000000000000600052604160045260246000fd5b611abb826117b7565b810181811067ffffffffffffffff82111715611ada57611ad9611a83565b5b80604052505050565b6000611aed611823565b9050611af98282611ab2565b919050565b600067ffffffffffffffff821115611b1957611b18611a83565b5b611b22826117b7565b9050602081019050919050565b82818337600083830152505050565b6000611b51611b4c84611afe565b611ae3565b905082815260208101848484011115611b6d57611b6c611a7e565b5b611b78848285611b2f565b509392505050565b600082601f830112611b9557611b94611a79565b5b8135611ba5848260208601611b3e565b91505092915050565b60008060008060808587031215611bc857611bc761182d565b5b6000611bd687828801611880565b9450506020611be7878288016118b6565b9350506040611bf887828801611880565b925050606085013567ffffffffffffffff811115611c1957611c18611832565b5b611c2587828801611b80565b91505092959194509250565b600080600060608486031215611c4a57611c4961182d565b5b6000611c5886828701611880565b9350506020611c69868287016118b6565b925050604084013567ffffffffffffffff811115611c8a57611c89611832565b5b611c9686828701611b80565b9150509250925092565b60008060408385031215611cb757611cb661182d565b5b6000611cc585828601611880565b9250506020611cd685828601611880565b9150509250929050565b7f4e487b7100000000000000000000000000000000000000000000000000000000600052602260045260246000fd5b60006002820490506001821680611d2757607f821691505b60208210811415611d3b57611d3a611ce0565b5b50919050565b7f45524332303a207472616e7366657220616d6f756e742065786365656473206160008201527f6c6c6f77616e6365000000000000000000000000000000000000000000000000602082015250565b6000611d9d602883611773565b9150611da882611d41565b604082019050919050565b60006020820190508181036000830152611dcc81611d90565b9050919050565b7f4e487b7100000000000000000000000000000000000000000000000000000000600052601160045260246000fd5b6000611e0d82611895565b9150611e1883611895565b9250827fffffffffffffffffffffffffffffffffffffffffffffffffffffffffffffffff03821115611e4d57611e4c611dd3565b5b828201905092915050565b7f45524332303a206275726e20616d6f756e74206578636565647320616c6c6f7760008201527f616e636500000000000000000000000000000000000000000000000000000000602082015250565b6000611eb4602483611773565b9150611ebf82611e58565b604082019050919050565b60006020820190508181036000830152611ee381611ea7565b9050919050565b7f45524332303a2064656372656173656420616c6c6f77616e63652062656c6f7760008201527f207a65726f000000000000000000000000000000000000000000000000000000602082015250565b6000611f46602583611773565b9150611f5182611eea565b604082019050919050565b60006020820190508181036000830152611f7581611f39565b9050919050565b600081519050919050565b600082825260208201905092915050565b6000611fa382611f7c565b611fad8185611f87565b9350611fbd818560208601611784565b611fc6816117b7565b840191505092915050565b6000608082019050611fe66000830187611a22565b611ff36020830186611941565b6120006040830185611a22565b81810360608301526120128184611f98565b905095945050505050565b6120268161190b565b811461203157600080fd5b50565b6000815190506120438161201d565b92915050565b60006020828403121561205f5761205e61182d565b5b600061206d84828501612034565b91505092915050565b7f617070726f7665416e6443616c6c20726573706f6e736520776173206661696c60008201527f6564000000000000000000000000000000000000000000000000000000000000602082015250565b60006120d2602283611773565b91506120dd82612076565b604082019050919050565b60006020820190508181036000830152612101816120c5565b9050919050565b7f45524332303a20617070726f76652066726f6d20746865207a65726f2061646460008201527f7265737300000000000000000000000000000000000000000000000000000000602082015250565b6000612164602483611773565b915061216f82612108565b604082019050919050565b6000602082019050818103600083015261219381612157565b9050919050565b7f45524332303a20617070726f766520746f20746865207a65726f20616464726560008201527f7373000000000000000000000000000000000000000000000000000000000000602082015250565b60006121f6602283611773565b91506122018261219a565b604082019050919050565b60006020820190508181036000830152612225816121e9565b9050919050565b7f45524332303a207472616e736665722066726f6d20746865207a65726f20616460008201527f6472657373000000000000000000000000000000000000000000000000000000602082015250565b6000612288602583611773565b91506122938261222c565b604082019050919050565b600060208201905081810360008301526122b78161227b565b9050919050565b7f45524332303a207472616e7366657220746f20746865207a65726f206164647260008201527f6573730000000000000000000000000000000000000000000000000000000000602082015250565b600061231a602383611773565b9150612325826122be565b604082019050919050565b600060208201905081810360008301526123498161230d565b9050919050565b7f45524332303a207472616e7366657220616d6f756e742065786365656473206260008201527f616c616e63650000000000000000000000000000000000000000000000000000602082015250565b60006123ac602683611773565b91506123b782612350565b604082019050919050565b600060208201905081810360008301526123db8161239f565b9050919050565b7f45524332303a206275726e2066726f6d20746865207a65726f2061646472657360008201527f7300000000000000000000000000000000000000000000000000000000000000602082015250565b600061243e602183611773565b9150612449826123e2565b604082019050919050565b6000602082019050818103600083015261246d81612431565b9050919050565b7f45524332303a206275726e20616d6f756e7420657863656564732062616c616e60008201527f6365000000000000000000000000000000000000000000000000000000000000602082015250565b60006124d0602283611773565b91506124db82612474565b604082019050919050565b600060208201905081810360008301526124ff816124c3565b9050919050565b600061251182611895565b915061251c83611895565b92508282101561252f5761252e611dd3565b5b828203905092915050565b6000815190506125498161189f565b92915050565b6000602082840312156125655761256461182d565b5b60006125738482850161253a565b91505092915050565b60006040820190506125916000830185611a22565b61259e6020830184611a22565b9392505050565b60006040820190506125ba6000830185611a22565b6125c76020830184611941565b9392505050565b7f45524332303a206d696e7420746f20746865207a65726f206164647265737300600082015250565b6000612604601f83611773565b915061260f826125ce565b602082019050919050565b60006020820190508181036000830152612633816125f7565b905091905056fea2646970667358221220fde917047dcba53b122e6c0887435df825f0654df148dce38e9085f66519b4a764736f6c63430008090033",
  "linkReferences": {},
  "deployedLinkReferences": {}
}