{
  "_format": "hh-sol-artifact-1",
  "contractName": "StandbyGamePool",
  "sourceName": "contracts/pools/game/StandbyGamePool.sol",
  "abi": [
    {
      "anonymous": false,
      "inputs": [
        {
          "indexed": true,
          "internalType": "address",
          "name": "previousOwner",
          "type": "address"
        },
        {
          "indexed": true,
          "internalType": "address",
          "name": "newOwner",
          "type": "address"
        }
      ],
      "name": "OwnershipTransferred",
      "type": "event"
    },
    {
      "stateMutability": "payable",
      "type": "fallback"
    },
    {
      "inputs": [],
      "name": "balance",
      "outputs": [
        {
          "internalType": "uint256",
          "name": "",
          "type": "uint256"
        }
      ],
      "stateMutability": "view",
      "type": "function"
    },
    {
      "inputs": [],
      "name": "currentVersion",
      "outputs": [
        {
          "internalType": "contract TokenPool",
          "name": "",
          "type": "address"
        }
      ],
      "stateMutability": "view",
      "type": "function"
    },
    {
      "inputs": [],
      "name": "getFrom",
      "outputs": [
        {
          "internalType": "address",
          "name": "",
          "type": "address"
        }
      ],
      "stateMutability": "view",
      "type": "function"
    },
    {
      "inputs": [],
      "name": "owner",
      "outputs": [
        {
          "internalType": "address",
          "name": "",
          "type": "address"
        }
      ],
      "stateMutability": "view",
      "type": "function"
    },
    {
      "inputs": [],
      "name": "ready",
      "outputs": [
        {
          "internalType": "bool",
          "name": "",
          "type": "bool"
        }
      ],
      "stateMutability": "view",
      "type": "function"
    },
    {
      "inputs": [],
      "name": "renounceOwnership",
      "outputs": [],
      "stateMutability": "nonpayable",
      "type": "function"
    },
    {
      "inputs": [
        {
          "internalType": "contract IERC20",
          "name": "newToken",
          "type": "address"
        }
      ],
      "name": "setToken",
      "outputs": [],
      "stateMutability": "nonpayable",
      "type": "function"
    },
    {
      "inputs": [],
      "name": "token",
      "outputs": [
        {
          "internalType": "contract IERC20",
          "name": "",
          "type": "address"
        }
      ],
      "stateMutability": "view",
      "type": "function"
    },
    {
      "inputs": [
        {
          "internalType": "address",
          "name": "newOwner",
          "type": "address"
        }
      ],
      "name": "transferOwnership",
      "outputs": [],
      "stateMutability": "nonpayable",
      "type": "function"
    },
    {
      "inputs": [
        {
          "internalType": "contract TokenPool",
          "name": "newAddress",
          "type": "address"
        }
      ],
      "name": "update",
      "outputs": [],
      "stateMutability": "nonpayable",
      "type": "function"
    }
  ],
  "bytecode": "0x60806040526000600260146101000a81548160ff02191690831515021790555034801561002b57600080fd5b5061004861003d61004d60201b60201c565b61005560201b60201c565b61011b565b600033905090565b6000600160009054906101000a900473ffffffffffffffffffffffffffffffffffffffff16905081600160006101000a81548173ffffffffffffffffffffffffffffffffffffffff021916908373ffffffffffffffffffffffffffffffffffffffff1602179055508173ffffffffffffffffffffffffffffffffffffffff168173ffffffffffffffffffffffffffffffffffffffff167f8be0079c531659141344cd1fd0a4f28419497f9722a3daafe3b4186f6b6457e060405160405180910390a35050565b610df38061012a6000396000f3fe6080604052600436106100955760003560e01c80638da5cb5b116100595780638da5cb5b1461020d5780639d888e8614610238578063b69ef8a814610263578063f2fde38b1461028e578063fc0c546a146102b757610096565b8063144fa6d71461014e5780631c1b8772146101775780636defbf80146101a0578063715018a6146101cb578063798fd178146101e257610096565b5b600260149054906101000a900460ff166100af57600080fd5b6000600260009054906101000a900473ffffffffffffffffffffffffffffffffffffffff1673ffffffffffffffffffffffffffffffffffffffff166000366040516100fb92919061090a565b600060405180830381855af49150503d8060008114610136576040519150601f19603f3d011682016040523d82523d6000602084013e61013b565b606091505b5050809150508061014b57600080fd5b50005b34801561015a57600080fd5b5061017560048036038101906101709190610998565b6102e2565b005b34801561018357600080fd5b5061019e60048036038101906101999190610a03565b61037e565b005b3480156101ac57600080fd5b506101b5610485565b6040516101c29190610a4b565b60405180910390f35b3480156101d757600080fd5b506101e0610498565b005b3480156101ee57600080fd5b506101f7610520565b6040516102049190610a75565b60405180910390f35b34801561021957600080fd5b50610222610528565b60405161022f9190610a75565b60405180910390f35b34801561024457600080fd5b5061024d610552565b60405161025a9190610aef565b60405180910390f35b34801561026f57600080fd5b50610278610578565b6040516102859190610b23565b60405180910390f35b34801561029a57600080fd5b506102b560048036038101906102b09190610b6a565b610629565b005b3480156102c357600080fd5b506102cc610721565b6040516102d99190610bb8565b60405180910390f35b600073ffffffffffffffffffffffffffffffffffffffff1660008054906101000a900473ffffffffffffffffffffffffffffffffffffffff1673ffffffffffffffffffffffffffffffffffffffff161461033b57600080fd5b806000806101000a81548173ffffffffffffffffffffffffffffffffffffffff021916908373ffffffffffffffffffffffffffffffffffffffff16021790555050565b610386610745565b73ffffffffffffffffffffffffffffffffffffffff166103a4610528565b73ffffffffffffffffffffffffffffffffffffffff16146103fa576040517f08c379a00000000000000000000000000000000000000000000000000000000081526004016103f190610c30565b60405180910390fd5b600260149054906101000a900460ff161561041457600080fd5b6001600260146101000a81548160ff02191690831515021790555080600260006101000a81548173ffffffffffffffffffffffffffffffffffffffff021916908373ffffffffffffffffffffffffffffffffffffffff1602179055506104818161047c610578565b61074d565b5050565b600260149054906101000a900460ff1681565b6104a0610745565b73ffffffffffffffffffffffffffffffffffffffff166104be610528565b73ffffffffffffffffffffffffffffffffffffffff1614610514576040517f08c379a000000000000000000000000000000000000000000000000000000000815260040161050b90610c30565b60405180910390fd5b61051e6000610805565b565b600030905090565b6000600160009054906101000a900473ffffffffffffffffffffffffffffffffffffffff16905090565b600260009054906101000a900473ffffffffffffffffffffffffffffffffffffffff1681565b60008060009054906101000a900473ffffffffffffffffffffffffffffffffffffffff1673ffffffffffffffffffffffffffffffffffffffff166370a08231306040518263ffffffff1660e01b81526004016105d49190610a75565b60206040518083038186803b1580156105ec57600080fd5b505afa158015610600573d6000803e3d6000fd5b505050506040513d601f19601f820116820180604052508101906106249190610c7c565b905090565b610631610745565b73ffffffffffffffffffffffffffffffffffffffff1661064f610528565b73ffffffffffffffffffffffffffffffffffffffff16146106a5576040517f08c379a000000000000000000000000000000000000000000000000000000000815260040161069c90610c30565b60405180910390fd5b600073ffffffffffffffffffffffffffffffffffffffff168173ffffffffffffffffffffffffffffffffffffffff161415610715576040517f08c379a000000000000000000000000000000000000000000000000000000000815260040161070c90610d1b565b60405180910390fd5b61071e81610805565b50565b60008054906101000a900473ffffffffffffffffffffffffffffffffffffffff1681565b600033905090565b60008060009054906101000a900473ffffffffffffffffffffffffffffffffffffffff1673ffffffffffffffffffffffffffffffffffffffff1663a9059cbb84846040518363ffffffff1660e01b81526004016107ab929190610d3b565b602060405180830381600087803b1580156107c557600080fd5b505af11580156107d9573d6000803e3d6000fd5b505050506040513d601f19601f820116820180604052508101906107fd9190610d90565b905092915050565b6000600160009054906101000a900473ffffffffffffffffffffffffffffffffffffffff16905081600160006101000a81548173ffffffffffffffffffffffffffffffffffffffff021916908373ffffffffffffffffffffffffffffffffffffffff1602179055508173ffffffffffffffffffffffffffffffffffffffff168173ffffffffffffffffffffffffffffffffffffffff167f8be0079c531659141344cd1fd0a4f28419497f9722a3daafe3b4186f6b6457e060405160405180910390a35050565b600081905092915050565b82818337600083830152505050565b60006108f183856108cb565b93506108fe8385846108d6565b82840190509392505050565b60006109178284866108e5565b91508190509392505050565b600080fd5b600073ffffffffffffffffffffffffffffffffffffffff82169050919050565b600061095382610928565b9050919050565b600061096582610948565b9050919050565b6109758161095a565b811461098057600080fd5b50565b6000813590506109928161096c565b92915050565b6000602082840312156109ae576109ad610923565b5b60006109bc84828501610983565b91505092915050565b60006109d082610948565b9050919050565b6109e0816109c5565b81146109eb57600080fd5b50565b6000813590506109fd816109d7565b92915050565b600060208284031215610a1957610a18610923565b5b6000610a27848285016109ee565b91505092915050565b60008115159050919050565b610a4581610a30565b82525050565b6000602082019050610a606000830184610a3c565b92915050565b610a6f81610948565b82525050565b6000602082019050610a8a6000830184610a66565b92915050565b6000819050919050565b6000610ab5610ab0610aab84610928565b610a90565b610928565b9050919050565b6000610ac782610a9a565b9050919050565b6000610ad982610abc565b9050919050565b610ae981610ace565b82525050565b6000602082019050610b046000830184610ae0565b92915050565b6000819050919050565b610b1d81610b0a565b82525050565b6000602082019050610b386000830184610b14565b92915050565b610b4781610948565b8114610b5257600080fd5b50565b600081359050610b6481610b3e565b92915050565b600060208284031215610b8057610b7f610923565b5b6000610b8e84828501610b55565b91505092915050565b6000610ba282610abc565b9050919050565b610bb281610b97565b82525050565b6000602082019050610bcd6000830184610ba9565b92915050565b600082825260208201905092915050565b7f4f776e61626c653a2063616c6c6572206973206e6f7420746865206f776e6572600082015250565b6000610c1a602083610bd3565b9150610c2582610be4565b602082019050919050565b60006020820190508181036000830152610c4981610c0d565b9050919050565b610c5981610b0a565b8114610c6457600080fd5b50565b600081519050610c7681610c50565b92915050565b600060208284031215610c9257610c91610923565b5b6000610ca084828501610c67565b91505092915050565b7f4f776e61626c653a206e6577206f776e657220697320746865207a65726f206160008201527f6464726573730000000000000000000000000000000000000000000000000000602082015250565b6000610d05602683610bd3565b9150610d1082610ca9565b604082019050919050565b60006020820190508181036000830152610d3481610cf8565b9050919050565b6000604082019050610d506000830185610a66565b610d5d6020830184610b14565b9392505050565b610d6d81610a30565b8114610d7857600080fd5b50565b600081519050610d8a81610d64565b92915050565b600060208284031215610da657610da5610923565b5b6000610db484828501610d7b565b9150509291505056fea26469706673582212208b8aa33a3f37b71a89372f288df95056666e92ec84ba3ce7b9b804d201dc65f364736f6c63430008090033",
  "linkReferences": {},
  "deployedLinkReferences": {}
}