{
  "_format": "hh-sol-artifact-1",
  "contractName": "BenzeneToken",
  "sourceName": "contracts/BenzeneToken.sol",
  "abi": [
    {
      "inputs": [
        {
          "internalType": "address",
          "name": "gamePool",
          "type": "address"
        },
        {
          "internalType": "address",
          "name": "teamPool",
          "type": "address"
        },
        {
          "internalType": "address",
          "name": "advisorPool",
          "type": "address"
        }
      ],
      "stateMutability": "nonpayable",
      "type": "constructor"
    },
    {
      "anonymous": false,
      "inputs": [
        {
          "indexed": true,
          "internalType": "address",
          "name": "owner",
          "type": "address"
        },
        {
          "indexed": true,
          "internalType": "address",
          "name": "spender",
          "type": "address"
        },
        {
          "indexed": false,
          "internalType": "uint256",
          "name": "value",
          "type": "uint256"
        }
      ],
      "name": "Approval",
      "type": "event"
    },
    {
      "anonymous": false,
      "inputs": [
        {
          "indexed": true,
          "internalType": "address",
          "name": "from",
          "type": "address"
        },
        {
          "indexed": true,
          "internalType": "address",
          "name": "to",
          "type": "address"
        },
        {
          "indexed": false,
          "internalType": "uint256",
          "name": "value",
          "type": "uint256"
        }
      ],
      "name": "Transfer",
      "type": "event"
    },
    {
      "inputs": [],
      "name": "ADVISOR_POOL_INIT",
      "outputs": [
        {
          "internalType": "uint256",
          "name": "",
          "type": "uint256"
        }
      ],
      "stateMutability": "view",
      "type": "function"
    },
    {
      "inputs": [],
      "name": "AdvisorPoolAddress",
      "outputs": [
        {
          "internalType": "address",
          "name": "",
          "type": "address"
        }
      ],
      "stateMutability": "view",
      "type": "function"
    },
    {
      "inputs": [],
      "name": "GAME_POOL_INIT",
      "outputs": [
        {
          "internalType": "uint256",
          "name": "",
          "type": "uint256"
        }
      ],
      "stateMutability": "view",
      "type": "function"
    },
    {
      "inputs": [],
      "name": "GamePoolAddress",
      "outputs": [
        {
          "internalType": "address",
          "name": "",
          "type": "address"
        }
      ],
      "stateMutability": "view",
      "type": "function"
    },
    {
      "inputs": [],
      "name": "INITIAL_SUPPLY",
      "outputs": [
        {
          "internalType": "uint256",
          "name": "",
          "type": "uint256"
        }
      ],
      "stateMutability": "view",
      "type": "function"
    },
    {
      "inputs": [],
      "name": "TEAM_POOL_INIT",
      "outputs": [
        {
          "internalType": "uint256",
          "name": "",
          "type": "uint256"
        }
      ],
      "stateMutability": "view",
      "type": "function"
    },
    {
      "inputs": [],
      "name": "TeamPoolAddress",
      "outputs": [
        {
          "internalType": "address",
          "name": "",
          "type": "address"
        }
      ],
      "stateMutability": "view",
      "type": "function"
    },
    {
      "inputs": [],
      "name": "TokenName",
      "outputs": [
        {
          "internalType": "string",
          "name": "",
          "type": "string"
        }
      ],
      "stateMutability": "view",
      "type": "function"
    },
    {
      "inputs": [],
      "name": "TokenSymbol",
      "outputs": [
        {
          "internalType": "string",
          "name": "",
          "type": "string"
        }
      ],
      "stateMutability": "view",
      "type": "function"
    },
    {
      "inputs": [
        {
          "internalType": "address",
          "name": "owner",
          "type": "address"
        },
        {
          "internalType": "address",
          "name": "spender",
          "type": "address"
        }
      ],
      "name": "allowance",
      "outputs": [
        {
          "internalType": "uint256",
          "name": "",
          "type": "uint256"
        }
      ],
      "stateMutability": "view",
      "type": "function"
    },
    {
      "inputs": [
        {
          "internalType": "address",
          "name": "spender",
          "type": "address"
        },
        {
          "internalType": "uint256",
          "name": "amount",
          "type": "uint256"
        }
      ],
      "name": "approve",
      "outputs": [
        {
          "internalType": "bool",
          "name": "",
          "type": "bool"
        }
      ],
      "stateMutability": "nonpayable",
      "type": "function"
    },
    {
      "inputs": [
        {
          "internalType": "address",
          "name": "spender",
          "type": "address"
        },
        {
          "internalType": "uint256",
          "name": "tokens",
          "type": "uint256"
        },
        {
          "internalType": "bytes",
          "name": "data",
          "type": "bytes"
        }
      ],
      "name": "approveAndCall",
      "outputs": [
        {
          "internalType": "bool",
          "name": "success",
          "type": "bool"
        }
      ],
      "stateMutability": "payable",
      "type": "function"
    },
    {
      "inputs": [
        {
          "internalType": "address",
          "name": "account",
          "type": "address"
        }
      ],
      "name": "balanceOf",
      "outputs": [
        {
          "internalType": "uint256",
          "name": "",
          "type": "uint256"
        }
      ],
      "stateMutability": "view",
      "type": "function"
    },
    {
      "inputs": [
        {
          "internalType": "uint256",
          "name": "amount",
          "type": "uint256"
        }
      ],
      "name": "burn",
      "outputs": [],
      "stateMutability": "nonpayable",
      "type": "function"
    },
    {
      "inputs": [
        {
          "internalType": "address",
          "name": "account",
          "type": "address"
        },
        {
          "internalType": "uint256",
          "name": "amount",
          "type": "uint256"
        }
      ],
      "name": "burnFrom",
      "outputs": [],
      "stateMutability": "nonpayable",
      "type": "function"
    },
    {
      "inputs": [],
      "name": "decimals",
      "outputs": [
        {
          "internalType": "uint8",
          "name": "",
          "type": "uint8"
        }
      ],
      "stateMutability": "view",
      "type": "function"
    },
    {
      "inputs": [
        {
          "internalType": "address",
          "name": "spender",
          "type": "address"
        },
        {
          "internalType": "uint256",
          "name": "subtractedValue",
          "type": "uint256"
        }
      ],
      "name": "decreaseAllowance",
      "outputs": [
        {
          "internalType": "bool",
          "name": "",
          "type": "bool"
        }
      ],
      "stateMutability": "nonpayable",
      "type": "function"
    },
    {
      "inputs": [
        {
          "internalType": "address",
          "name": "spender",
          "type": "address"
        },
        {
          "internalType": "uint256",
          "name": "addedValue",
          "type": "uint256"
        }
      ],
      "name": "increaseAllowance",
      "outputs": [
        {
          "internalType": "bool",
          "name": "",
          "type": "bool"
        }
      ],
      "stateMutability": "nonpayable",
      "type": "function"
    },
    {
      "inputs": [
        {
          "internalType": "address",
          "name": "token",
          "type": "address"
        },
        {
          "internalType": "address",
          "name": "account",
          "type": "address"
        },
        {
          "internalType": "uint256",
          "name": "amount",
          "type": "uint256"
        }
      ],
      "name": "migrate",
      "outputs": [],
      "stateMutability": "nonpayable",
      "type": "function"
    },
    {
      "inputs": [
        {
          "internalType": "address",
          "name": "account",
          "type": "address"
        }
      ],
      "name": "migrateAll",
      "outputs": [],
      "stateMutability": "nonpayable",
      "type": "function"
    },
    {
      "inputs": [
        {
          "internalType": "address",
          "name": "token",
          "type": "address"
        },
        {
          "internalType": "address",
          "name": "account",
          "type": "address"
        }
      ],
      "name": "migrateAll",
      "outputs": [],
      "stateMutability": "nonpayable",
      "type": "function"
    },
    {
      "inputs": [],
      "name": "name",
      "outputs": [
        {
          "internalType": "string",
          "name": "",
          "type": "string"
        }
      ],
      "stateMutability": "view",
      "type": "function"
    },
    {
      "inputs": [
        {
          "internalType": "address",
          "name": "from",
          "type": "address"
        },
        {
          "internalType": "uint256",
          "name": "tokens",
          "type": "uint256"
        },
        {
          "internalType": "address",
          "name": "token",
          "type": "address"
        },
        {
          "internalType": "bytes",
          "name": "data",
          "type": "bytes"
        }
      ],
      "name": "receiveApproval",
      "outputs": [
        {
          "internalType": "bool",
          "name": "",
          "type": "bool"
        }
      ],
      "stateMutability": "payable",
      "type": "function"
    },
    {
      "inputs": [],
      "name": "symbol",
      "outputs": [
        {
          "internalType": "string",
          "name": "",
          "type": "string"
        }
      ],
      "stateMutability": "view",
      "type": "function"
    },
    {
      "inputs": [],
      "name": "totalSupply",
      "outputs": [
        {
          "internalType": "uint256",
          "name": "",
          "type": "uint256"
        }
      ],
      "stateMutability": "view",
      "type": "function"
    },
    {
      "inputs": [
        {
          "internalType": "address",
          "name": "recipient",
          "type": "address"
        },
        {
          "internalType": "uint256",
          "name": "amount",
          "type": "uint256"
        }
      ],
      "name": "transfer",
      "outputs": [
        {
          "internalType": "bool",
          "name": "",
          "type": "bool"
        }
      ],
      "stateMutability": "nonpayable",
      "type": "function"
    },
    {
      "inputs": [
        {
          "internalType": "address",
          "name": "sender",
          "type": "address"
        },
        {
          "internalType": "address",
          "name": "recipient",
          "type": "address"
        },
        {
          "internalType": "uint256",
          "name": "amount",
          "type": "uint256"
        }
      ],
      "name": "transferFrom",
      "outputs": [
        {
          "internalType": "bool",
          "name": "",
          "type": "bool"
        }
      ],
      "stateMutability": "nonpayable",
      "type": "function"
    }
  ],
  "bytecode": "0x60806040523480156200001157600080fd5b50604051620035863803806200358683398181016040528101906200003791906200093e565b8282826040518060400160405280600781526020017f42656e7a656e65000000000000000000000000000000000000000000000000008152506040518060400160405280600381526020017f425a4e00000000000000000000000000000000000000000000000000000000008152508160039080519060200190620000be92919062000824565b508060049080519060200190620000d792919062000824565b50505082600560006101000a81548173ffffffffffffffffffffffffffffffffffffffff021916908373ffffffffffffffffffffffffffffffffffffffff16021790555081600660006101000a81548173ffffffffffffffffffffffffffffffffffffffff021916908373ffffffffffffffffffffffffffffffffffffffff16021790555080600760006101000a81548173ffffffffffffffffffffffffffffffffffffffff021916908373ffffffffffffffffffffffffffffffffffffffff160217905550505050620001ed306a0422ca8b0a00a4250000006a108b2a2c280290940000006a3e09de2596099e2b000000620001d59190620009d3565b620001e19190620009d3565b6200040360201b60201c565b6200022d30600560009054906101000a900473ffffffffffffffffffffffffffffffffffffffff166a3e09de2596099e2b0000006200057c60201b60201c565b6200026d30600660009054906101000a900473ffffffffffffffffffffffffffffffffffffffff166a108b2a2c280290940000006200057c60201b60201c565b620002ad30600760009054906101000a900473ffffffffffffffffffffffffffffffffffffffff166a0422ca8b0a00a4250000006200057c60201b60201c565b8273ffffffffffffffffffffffffffffffffffffffff1663144fa6d7306040518263ffffffff1660e01b8152600401620002e8919062000a9b565b600060405180830381600087803b1580156200030357600080fd5b505af115801562000318573d6000803e3d6000fd5b505050508173ffffffffffffffffffffffffffffffffffffffff1663144fa6d7306040518263ffffffff1660e01b815260040162000357919062000a9b565b600060405180830381600087803b1580156200037257600080fd5b505af115801562000387573d6000803e3d6000fd5b505050508073ffffffffffffffffffffffffffffffffffffffff1663144fa6d7306040518263ffffffff1660e01b8152600401620003c6919062000a9b565b600060405180830381600087803b158015620003e157600080fd5b505af1158015620003f6573d6000803e3d6000fd5b5050505050505062000d96565b600073ffffffffffffffffffffffffffffffffffffffff168273ffffffffffffffffffffffffffffffffffffffff16141562000476576040517f08c379a00000000000000000000000000000000000000000000000000000000081526004016200046d9062000b19565b60405180910390fd5b6200048a600083836200081a60201b60201c565b80600260008282546200049e9190620009d3565b92505081905550806000808473ffffffffffffffffffffffffffffffffffffffff1673ffffffffffffffffffffffffffffffffffffffff1681526020019081526020016000206000828254620004f59190620009d3565b925050819055508173ffffffffffffffffffffffffffffffffffffffff16600073ffffffffffffffffffffffffffffffffffffffff167fddf252ad1be2c89b69c2b068fc378daa952ba7f163c4a11628f55a4df523b3ef836040516200055c919062000b4c565b60405180910390a362000578600083836200081f60201b60201c565b5050565b600073ffffffffffffffffffffffffffffffffffffffff168373ffffffffffffffffffffffffffffffffffffffff161415620005ef576040517f08c379a0000000000000000000000000000000000000000000000000000000008152600401620005e69062000bdf565b60405180910390fd5b600073ffffffffffffffffffffffffffffffffffffffff168273ffffffffffffffffffffffffffffffffffffffff16141562000662576040517f08c379a0000000000000000000000000000000000000000000000000000000008152600401620006599062000c77565b60405180910390fd5b620006758383836200081a60201b60201c565b60008060008573ffffffffffffffffffffffffffffffffffffffff1673ffffffffffffffffffffffffffffffffffffffff16815260200190815260200160002054905081811015620006fe576040517f08c379a0000000000000000000000000000000000000000000000000000000008152600401620006f59062000d0f565b60405180910390fd5b8181036000808673ffffffffffffffffffffffffffffffffffffffff1673ffffffffffffffffffffffffffffffffffffffff16815260200190815260200160002081905550816000808573ffffffffffffffffffffffffffffffffffffffff1673ffffffffffffffffffffffffffffffffffffffff1681526020019081526020016000206000828254620007939190620009d3565b925050819055508273ffffffffffffffffffffffffffffffffffffffff168473ffffffffffffffffffffffffffffffffffffffff167fddf252ad1be2c89b69c2b068fc378daa952ba7f163c4a11628f55a4df523b3ef84604051620007f9919062000b4c565b60405180910390a3620008148484846200081f60201b60201c565b50505050565b505050565b505050565b828054620008329062000d60565b90600052602060002090601f016020900481019282620008565760008555620008a2565b82601f106200087157805160ff1916838001178555620008a2565b82800160010185558215620008a2579182015b82811115620008a157825182559160200191906001019062000884565b5b509050620008b19190620008b5565b5090565b5b80821115620008d0576000816000905550600101620008b6565b5090565b600080fd5b600073ffffffffffffffffffffffffffffffffffffffff82169050919050565b60006200090682620008d9565b9050919050565b6200091881620008f9565b81146200092457600080fd5b50565b60008151905062000938816200090d565b92915050565b6000806000606084860312156200095a5762000959620008d4565b5b60006200096a8682870162000927565b93505060206200097d8682870162000927565b9250506040620009908682870162000927565b9150509250925092565b6000819050919050565b7f4e487b7100000000000000000000000000000000000000000000000000000000600052601160045260246000fd5b6000620009e0826200099a565b9150620009ed836200099a565b9250827fffffffffffffffffffffffffffffffffffffffffffffffffffffffffffffffff0382111562000a255762000a24620009a4565b5b828201905092915050565b6000819050919050565b600062000a5b62000a5562000a4f84620008d9565b62000a30565b620008d9565b9050919050565b600062000a6f8262000a3a565b9050919050565b600062000a838262000a62565b9050919050565b62000a958162000a76565b82525050565b600060208201905062000ab2600083018462000a8a565b92915050565b600082825260208201905092915050565b7f45524332303a206d696e7420746f20746865207a65726f206164647265737300600082015250565b600062000b01601f8362000ab8565b915062000b0e8262000ac9565b602082019050919050565b6000602082019050818103600083015262000b348162000af2565b9050919050565b62000b46816200099a565b82525050565b600060208201905062000b63600083018462000b3b565b92915050565b7f45524332303a207472616e736665722066726f6d20746865207a65726f20616460008201527f6472657373000000000000000000000000000000000000000000000000000000602082015250565b600062000bc760258362000ab8565b915062000bd48262000b69565b604082019050919050565b6000602082019050818103600083015262000bfa8162000bb8565b9050919050565b7f45524332303a207472616e7366657220746f20746865207a65726f206164647260008201527f6573730000000000000000000000000000000000000000000000000000000000602082015250565b600062000c5f60238362000ab8565b915062000c6c8262000c01565b604082019050919050565b6000602082019050818103600083015262000c928162000c50565b9050919050565b7f45524332303a207472616e7366657220616d6f756e742065786365656473206260008201527f616c616e63650000000000000000000000000000000000000000000000000000602082015250565b600062000cf760268362000ab8565b915062000d048262000c99565b604082019050919050565b6000602082019050818103600083015262000d2a8162000ce8565b9050919050565b7f4e487b7100000000000000000000000000000000000000000000000000000000600052602260045260246000fd5b6000600282049050600182168062000d7957607f821691505b6020821081141562000d905762000d8f62000d31565b5b50919050565b6127e08062000da66000396000f3fe60806040526004361061019b5760003560e01c806370a08231116100ec578063cae9ca511161008a578063f12b60f211610064578063f12b60f2146105ff578063f16565ee1461062a578063f415675714610653578063f64db0501461067e5761019b565b8063cae9ca5114610567578063dbed3a3014610597578063dd62ed3e146105c25761019b565b806395d89b41116100c657806395d89b4114610497578063a457c2d7146104c2578063a9059cbb146104ff578063b6d7855a1461053c5761019b565b806370a082311461040157806379cc67901461043e5780638f4ffcb1146104675761019b565b80632ff2e9dc1161015957806342966c681161013357806342966c68146103595780635213cca8146103825780635a8cadb1146103ad5780636ec40f9e146103d65761019b565b80632ff2e9dc146102c6578063313ce567146102f1578063395093511461031c5761019b565b8062c8fbd4146101a057806306fdde03146101cb578063095ea7b3146101f657806318160ddd1461023357806323b872dd1461025e57806329b498251461029b575b600080fd5b3480156101ac57600080fd5b506101b56106a7565b6040516101c29190611971565b60405180910390f35b3480156101d757600080fd5b506101e06106e0565b6040516101ed9190611971565b60405180910390f35b34801561020257600080fd5b5061021d60048036038101906102189190611a3b565b610772565b60405161022a9190611a96565b60405180910390f35b34801561023f57600080fd5b50610248610790565b6040516102559190611ac0565b60405180910390f35b34801561026a57600080fd5b5061028560048036038101906102809190611adb565b61079a565b6040516102929190611a96565b60405180910390f35b3480156102a757600080fd5b506102b0610892565b6040516102bd9190611ac0565b60405180910390f35b3480156102d257600080fd5b506102db6108a1565b6040516102e89190611ac0565b60405180910390f35b3480156102fd57600080fd5b506103066108dc565b6040516103139190611b4a565b60405180910390f35b34801561032857600080fd5b50610343600480360381019061033e9190611a3b565b6108e5565b6040516103509190611a96565b60405180910390f35b34801561036557600080fd5b50610380600480360381019061037b9190611b65565b610991565b005b34801561038e57600080fd5b506103976109a5565b6040516103a49190611ba1565b60405180910390f35b3480156103b957600080fd5b506103d460048036038101906103cf9190611bbc565b6109cf565b005b3480156103e257600080fd5b506103eb6109fe565b6040516103f89190611ac0565b60405180910390f35b34801561040d57600080fd5b5061042860048036038101906104239190611bbc565b610a0d565b6040516104359190611ac0565b60405180910390f35b34801561044a57600080fd5b5061046560048036038101906104609190611a3b565b610a55565b005b610481600480360381019061047c9190611d1e565b610ad0565b60405161048e9190611a96565b60405180910390f35b3480156104a357600080fd5b506104ac610ae9565b6040516104b99190611971565b60405180910390f35b3480156104ce57600080fd5b506104e960048036038101906104e49190611a3b565b610b7b565b6040516104f69190611a96565b60405180910390f35b34801561050b57600080fd5b5061052660048036038101906105219190611a3b565b610c66565b6040516105339190611a96565b60405180910390f35b34801561054857600080fd5b50610551610c84565b60405161055e9190611971565b60405180910390f35b610581600480360381019061057c9190611da1565b610cbd565b60405161058e9190611a96565b60405180910390f35b3480156105a357600080fd5b506105ac610db2565b6040516105b99190611ba1565b60405180910390f35b3480156105ce57600080fd5b506105e960048036038101906105e49190611e10565b610ddc565b6040516105f69190611ac0565b60405180910390f35b34801561060b57600080fd5b50610614610e63565b6040516106219190611ac0565b60405180910390f35b34801561063657600080fd5b50610651600480360381019061064c9190611adb565b610e72565b005b34801561065f57600080fd5b50610668610e82565b6040516106759190611ba1565b60405180910390f35b34801561068a57600080fd5b506106a560048036038101906106a09190611e10565b610eac565b005b6040518060400160405280600381526020017f425a4e000000000000000000000000000000000000000000000000000000000081525081565b6060600380546106ef90611e7f565b80601f016020809104026020016040519081016040528092919081815260200182805461071b90611e7f565b80156107685780601f1061073d57610100808354040283529160200191610768565b820191906000526020600020905b81548152906001019060200180831161074b57829003601f168201915b5050505050905090565b600061078661077f610eba565b8484610ec2565b6001905092915050565b6000600254905090565b60006107a784848461108d565b6000600160008673ffffffffffffffffffffffffffffffffffffffff1673ffffffffffffffffffffffffffffffffffffffff16815260200190815260200160002060006107f2610eba565b73ffffffffffffffffffffffffffffffffffffffff1673ffffffffffffffffffffffffffffffffffffffff16815260200190815260200160002054905082811015610872576040517f08c379a000000000000000000000000000000000000000000000000000000000815260040161086990611f23565b60405180910390fd5b6108868561087e610eba565b858403610ec2565b60019150509392505050565b6a0422ca8b0a00a42500000081565b6a0422ca8b0a00a4250000006a108b2a2c280290940000006a3e09de2596099e2b0000006108cf9190611f72565b6108d99190611f72565b81565b60006012905090565b60006109876108f2610eba565b848460016000610900610eba565b73ffffffffffffffffffffffffffffffffffffffff1673ffffffffffffffffffffffffffffffffffffffff16815260200190815260200160002060008873ffffffffffffffffffffffffffffffffffffffff1673ffffffffffffffffffffffffffffffffffffffff168152602001908152602001600020546109829190611f72565b610ec2565b6001905092915050565b6109a261099c610eba565b8261130e565b50565b6000600760009054906101000a900473ffffffffffffffffffffffffffffffffffffffff16905090565b6109fb600960009054906101000a900473ffffffffffffffffffffffffffffffffffffffff16826114e5565b50565b6a3e09de2596099e2b00000081565b60008060008373ffffffffffffffffffffffffffffffffffffffff1673ffffffffffffffffffffffffffffffffffffffff168152602001908152602001600020549050919050565b6000610a6883610a63610eba565b610ddc565b905081811015610aad576040517f08c379a0000000000000000000000000000000000000000000000000000000008152600401610aa49061203a565b60405180910390fd5b610ac183610ab9610eba565b848403610ec2565b610acb838361130e565b505050565b6000610add83868661167d565b60019050949350505050565b606060048054610af890611e7f565b80601f0160208091040260200160405190810160405280929190818152602001828054610b2490611e7f565b8015610b715780601f10610b4657610100808354040283529160200191610b71565b820191906000526020600020905b815481529060010190602001808311610b5457829003601f168201915b5050505050905090565b60008060016000610b8a610eba565b73ffffffffffffffffffffffffffffffffffffffff1673ffffffffffffffffffffffffffffffffffffffff16815260200190815260200160002060008573ffffffffffffffffffffffffffffffffffffffff1673ffffffffffffffffffffffffffffffffffffffff16815260200190815260200160002054905082811015610c47576040517f08c379a0000000000000000000000000000000000000000000000000000000008152600401610c3e906120cc565b60405180910390fd5b610c5b610c52610eba565b85858403610ec2565b600191505092915050565b6000610c7a610c73610eba565b848461108d565b6001905092915050565b6040518060400160405280600781526020017f42656e7a656e650000000000000000000000000000000000000000000000000081525081565b6000610cc98484610772565b50600084905060008173ffffffffffffffffffffffffffffffffffffffff16638f4ffcb134338830896040518663ffffffff1660e01b8152600401610d119493929190612141565b6020604051808303818588803b158015610d2a57600080fd5b505af1158015610d3e573d6000803e3d6000fd5b50505050506040513d601f19601f82011682018060405250810190610d6391906121b9565b905080610da5576040517f08c379a0000000000000000000000000000000000000000000000000000000008152600401610d9c90612258565b60405180910390fd5b6001925050509392505050565b6000600560009054906101000a900473ffffffffffffffffffffffffffffffffffffffff16905090565b6000600160008473ffffffffffffffffffffffffffffffffffffffff1673ffffffffffffffffffffffffffffffffffffffff16815260200190815260200160002060008373ffffffffffffffffffffffffffffffffffffffff1673ffffffffffffffffffffffffffffffffffffffff16815260200190815260200160002054905092915050565b6a108b2a2c2802909400000081565b610e7d83838361167d565b505050565b6000600660009054906101000a900473ffffffffffffffffffffffffffffffffffffffff16905090565b610eb682826114e5565b5050565b600033905090565b600073ffffffffffffffffffffffffffffffffffffffff168373ffffffffffffffffffffffffffffffffffffffff161415610f32576040517f08c379a0000000000000000000000000000000000000000000000000000000008152600401610f29906122ea565b60405180910390fd5b600073ffffffffffffffffffffffffffffffffffffffff168273ffffffffffffffffffffffffffffffffffffffff161415610fa2576040517f08c379a0000000000000000000000000000000000000000000000000000000008152600401610f999061237c565b60405180910390fd5b80600160008573ffffffffffffffffffffffffffffffffffffffff1673ffffffffffffffffffffffffffffffffffffffff16815260200190815260200160002060008473ffffffffffffffffffffffffffffffffffffffff1673ffffffffffffffffffffffffffffffffffffffff168152602001908152602001600020819055508173ffffffffffffffffffffffffffffffffffffffff168373ffffffffffffffffffffffffffffffffffffffff167f8c5be1e5ebec7d5bd14f71427d1e84f3dd0314c0f7b2291e5b200ac8c7c3b925836040516110809190611ac0565b60405180910390a3505050565b600073ffffffffffffffffffffffffffffffffffffffff168373ffffffffffffffffffffffffffffffffffffffff1614156110fd576040517f08c379a00000000000000000000000000000000000000000000000000000000081526004016110f49061240e565b60405180910390fd5b600073ffffffffffffffffffffffffffffffffffffffff168273ffffffffffffffffffffffffffffffffffffffff16141561116d576040517f08c379a0000000000000000000000000000000000000000000000000000000008152600401611164906124a0565b60405180910390fd5b611178838383611755565b60008060008573ffffffffffffffffffffffffffffffffffffffff1673ffffffffffffffffffffffffffffffffffffffff168152602001908152602001600020549050818110156111fe576040517f08c379a00000000000000000000000000000000000000000000000000000000081526004016111f590612532565b60405180910390fd5b8181036000808673ffffffffffffffffffffffffffffffffffffffff1673ffffffffffffffffffffffffffffffffffffffff16815260200190815260200160002081905550816000808573ffffffffffffffffffffffffffffffffffffffff1673ffffffffffffffffffffffffffffffffffffffff16815260200190815260200160002060008282546112919190611f72565b925050819055508273ffffffffffffffffffffffffffffffffffffffff168473ffffffffffffffffffffffffffffffffffffffff167fddf252ad1be2c89b69c2b068fc378daa952ba7f163c4a11628f55a4df523b3ef846040516112f59190611ac0565b60405180910390a361130884848461175a565b50505050565b600073ffffffffffffffffffffffffffffffffffffffff168273ffffffffffffffffffffffffffffffffffffffff16141561137e576040517f08c379a0000000000000000000000000000000000000000000000000000000008152600401611375906125c4565b60405180910390fd5b61138a82600083611755565b60008060008473ffffffffffffffffffffffffffffffffffffffff1673ffffffffffffffffffffffffffffffffffffffff16815260200190815260200160002054905081811015611410576040517f08c379a000000000000000000000000000000000000000000000000000000000815260040161140790612656565b60405180910390fd5b8181036000808573ffffffffffffffffffffffffffffffffffffffff1673ffffffffffffffffffffffffffffffffffffffff1681526020019081526020016000208190555081600260008282546114679190612676565b92505081905550600073ffffffffffffffffffffffffffffffffffffffff168373ffffffffffffffffffffffffffffffffffffffff167fddf252ad1be2c89b69c2b068fc378daa952ba7f163c4a11628f55a4df523b3ef846040516114cc9190611ac0565b60405180910390a36114e08360008461175a565b505050565b600860008373ffffffffffffffffffffffffffffffffffffffff1673ffffffffffffffffffffffffffffffffffffffff16815260200190815260200160002060009054906101000a900460ff1661153b57600080fd5b600082905060008173ffffffffffffffffffffffffffffffffffffffff166370a08231846040518263ffffffff1660e01b815260040161157b9190611ba1565b60206040518083038186803b15801561159357600080fd5b505afa1580156115a7573d6000803e3d6000fd5b505050506040513d601f19601f820116820180604052508101906115cb91906126bf565b905060008273ffffffffffffffffffffffffffffffffffffffff1663dd62ed3e85306040518363ffffffff1660e01b815260040161160a9291906126ec565b60206040518083038186803b15801561162257600080fd5b505afa158015611636573d6000803e3d6000fd5b505050506040513d601f19601f8201168201806040525081019061165a91906126bf565b90506000611668838361175f565b905061167586868361167d565b505050505050565b600860008473ffffffffffffffffffffffffffffffffffffffff1673ffffffffffffffffffffffffffffffffffffffff16815260200190815260200160002060009054906101000a900460ff166116d357600080fd5b60008390508073ffffffffffffffffffffffffffffffffffffffff166379cc679084846040518363ffffffff1660e01b8152600401611713929190612715565b600060405180830381600087803b15801561172d57600080fd5b505af1158015611741573d6000803e3d6000fd5b5050505061174f8383611778565b50505050565b505050565b505050565b600081831061176e5781611770565b825b905092915050565b600073ffffffffffffffffffffffffffffffffffffffff168273ffffffffffffffffffffffffffffffffffffffff1614156117e8576040517f08c379a00000000000000000000000000000000000000000000000000000000081526004016117df9061278a565b60405180910390fd5b6117f460008383611755565b80600260008282546118069190611f72565b92505081905550806000808473ffffffffffffffffffffffffffffffffffffffff1673ffffffffffffffffffffffffffffffffffffffff168152602001908152602001600020600082825461185b9190611f72565b925050819055508173ffffffffffffffffffffffffffffffffffffffff16600073ffffffffffffffffffffffffffffffffffffffff167fddf252ad1be2c89b69c2b068fc378daa952ba7f163c4a11628f55a4df523b3ef836040516118c09190611ac0565b60405180910390a36118d46000838361175a565b5050565b600081519050919050565b600082825260208201905092915050565b60005b838110156119125780820151818401526020810190506118f7565b83811115611921576000848401525b50505050565b6000601f19601f8301169050919050565b6000611943826118d8565b61194d81856118e3565b935061195d8185602086016118f4565b61196681611927565b840191505092915050565b6000602082019050818103600083015261198b8184611938565b905092915050565b6000604051905090565b600080fd5b600080fd5b600073ffffffffffffffffffffffffffffffffffffffff82169050919050565b60006119d2826119a7565b9050919050565b6119e2816119c7565b81146119ed57600080fd5b50565b6000813590506119ff816119d9565b92915050565b6000819050919050565b611a1881611a05565b8114611a2357600080fd5b50565b600081359050611a3581611a0f565b92915050565b60008060408385031215611a5257611a5161199d565b5b6000611a60858286016119f0565b9250506020611a7185828601611a26565b9150509250929050565b60008115159050919050565b611a9081611a7b565b82525050565b6000602082019050611aab6000830184611a87565b92915050565b611aba81611a05565b82525050565b6000602082019050611ad56000830184611ab1565b92915050565b600080600060608486031215611af457611af361199d565b5b6000611b02868287016119f0565b9350506020611b13868287016119f0565b9250506040611b2486828701611a26565b9150509250925092565b600060ff82169050919050565b611b4481611b2e565b82525050565b6000602082019050611b5f6000830184611b3b565b92915050565b600060208284031215611b7b57611b7a61199d565b5b6000611b8984828501611a26565b91505092915050565b611b9b816119c7565b82525050565b6000602082019050611bb66000830184611b92565b92915050565b600060208284031215611bd257611bd161199d565b5b6000611be0848285016119f0565b91505092915050565b600080fd5b600080fd5b7f4e487b7100000000000000000000000000000000000000000000000000000000600052604160045260246000fd5b611c2b82611927565b810181811067ffffffffffffffff82111715611c4a57611c49611bf3565b5b80604052505050565b6000611c5d611993565b9050611c698282611c22565b919050565b600067ffffffffffffffff821115611c8957611c88611bf3565b5b611c9282611927565b9050602081019050919050565b82818337600083830152505050565b6000611cc1611cbc84611c6e565b611c53565b905082815260208101848484011115611cdd57611cdc611bee565b5b611ce8848285611c9f565b509392505050565b600082601f830112611d0557611d04611be9565b5b8135611d15848260208601611cae565b91505092915050565b60008060008060808587031215611d3857611d3761199d565b5b6000611d46878288016119f0565b9450506020611d5787828801611a26565b9350506040611d68878288016119f0565b925050606085013567ffffffffffffffff811115611d8957611d886119a2565b5b611d9587828801611cf0565b91505092959194509250565b600080600060608486031215611dba57611db961199d565b5b6000611dc8868287016119f0565b9350506020611dd986828701611a26565b925050604084013567ffffffffffffffff811115611dfa57611df96119a2565b5b611e0686828701611cf0565b9150509250925092565b60008060408385031215611e2757611e2661199d565b5b6000611e35858286016119f0565b9250506020611e46858286016119f0565b9150509250929050565b7f4e487b7100000000000000000000000000000000000000000000000000000000600052602260045260246000fd5b60006002820490506001821680611e9757607f821691505b60208210811415611eab57611eaa611e50565b5b50919050565b7f45524332303a207472616e7366657220616d6f756e742065786365656473206160008201527f6c6c6f77616e6365000000000000000000000000000000000000000000000000602082015250565b6000611f0d6028836118e3565b9150611f1882611eb1565b604082019050919050565b60006020820190508181036000830152611f3c81611f00565b9050919050565b7f4e487b7100000000000000000000000000000000000000000000000000000000600052601160045260246000fd5b6000611f7d82611a05565b9150611f8883611a05565b9250827fffffffffffffffffffffffffffffffffffffffffffffffffffffffffffffffff03821115611fbd57611fbc611f43565b5b828201905092915050565b7f45524332303a206275726e20616d6f756e74206578636565647320616c6c6f7760008201527f616e636500000000000000000000000000000000000000000000000000000000602082015250565b60006120246024836118e3565b915061202f82611fc8565b604082019050919050565b6000602082019050818103600083015261205381612017565b9050919050565b7f45524332303a2064656372656173656420616c6c6f77616e63652062656c6f7760008201527f207a65726f000000000000000000000000000000000000000000000000000000602082015250565b60006120b66025836118e3565b91506120c18261205a565b604082019050919050565b600060208201905081810360008301526120e5816120a9565b9050919050565b600081519050919050565b600082825260208201905092915050565b6000612113826120ec565b61211d81856120f7565b935061212d8185602086016118f4565b61213681611927565b840191505092915050565b60006080820190506121566000830187611b92565b6121636020830186611ab1565b6121706040830185611b92565b81810360608301526121828184612108565b905095945050505050565b61219681611a7b565b81146121a157600080fd5b50565b6000815190506121b38161218d565b92915050565b6000602082840312156121cf576121ce61199d565b5b60006121dd848285016121a4565b91505092915050565b7f617070726f7665416e6443616c6c20726573706f6e736520776173206661696c60008201527f6564000000000000000000000000000000000000000000000000000000000000602082015250565b60006122426022836118e3565b915061224d826121e6565b604082019050919050565b6000602082019050818103600083015261227181612235565b9050919050565b7f45524332303a20617070726f76652066726f6d20746865207a65726f2061646460008201527f7265737300000000000000000000000000000000000000000000000000000000602082015250565b60006122d46024836118e3565b91506122df82612278565b604082019050919050565b60006020820190508181036000830152612303816122c7565b9050919050565b7f45524332303a20617070726f766520746f20746865207a65726f20616464726560008201527f7373000000000000000000000000000000000000000000000000000000000000602082015250565b60006123666022836118e3565b91506123718261230a565b604082019050919050565b6000602082019050818103600083015261239581612359565b9050919050565b7f45524332303a207472616e736665722066726f6d20746865207a65726f20616460008201527f6472657373000000000000000000000000000000000000000000000000000000602082015250565b60006123f86025836118e3565b91506124038261239c565b604082019050919050565b60006020820190508181036000830152612427816123eb565b9050919050565b7f45524332303a207472616e7366657220746f20746865207a65726f206164647260008201527f6573730000000000000000000000000000000000000000000000000000000000602082015250565b600061248a6023836118e3565b91506124958261242e565b604082019050919050565b600060208201905081810360008301526124b98161247d565b9050919050565b7f45524332303a207472616e7366657220616d6f756e742065786365656473206260008201527f616c616e63650000000000000000000000000000000000000000000000000000602082015250565b600061251c6026836118e3565b9150612527826124c0565b604082019050919050565b6000602082019050818103600083015261254b8161250f565b9050919050565b7f45524332303a206275726e2066726f6d20746865207a65726f2061646472657360008201527f7300000000000000000000000000000000000000000000000000000000000000602082015250565b60006125ae6021836118e3565b91506125b982612552565b604082019050919050565b600060208201905081810360008301526125dd816125a1565b9050919050565b7f45524332303a206275726e20616d6f756e7420657863656564732062616c616e60008201527f6365000000000000000000000000000000000000000000000000000000000000602082015250565b60006126406022836118e3565b915061264b826125e4565b604082019050919050565b6000602082019050818103600083015261266f81612633565b9050919050565b600061268182611a05565b915061268c83611a05565b92508282101561269f5761269e611f43565b5b828203905092915050565b6000815190506126b981611a0f565b92915050565b6000602082840312156126d5576126d461199d565b5b60006126e3848285016126aa565b91505092915050565b60006040820190506127016000830185611b92565b61270e6020830184611b92565b9392505050565b600060408201905061272a6000830185611b92565b6127376020830184611ab1565b9392505050565b7f45524332303a206d696e7420746f20746865207a65726f206164647265737300600082015250565b6000612774601f836118e3565b915061277f8261273e565b602082019050919050565b600060208201905081810360008301526127a381612767565b905091905056fea26469706673582212202108c82f28553863649c1a457ae906d682a7eeb86927a63b8b81ab67baaebbfa64736f6c63430008090033",
  "linkReferences": {},
  "deployedLinkReferences": {}
}