{
  "_format": "hh-sol-artifact-1",
  "contractName": "StandbyGamePool",
  "sourceName": "contracts/pools/game/StandbyGamePool.sol",
  "abi": [
    {
      "anonymous": false,
      "inputs": [
        {
          "indexed": true,
          "internalType": "address",
          "name": "previousOwner",
          "type": "address"
        },
        {
          "indexed": true,
          "internalType": "address",
          "name": "newOwner",
          "type": "address"
        }
      ],
      "name": "OwnershipTransferred",
      "type": "event"
    },
    {
      "stateMutability": "payable",
      "type": "fallback"
    },
    {
      "inputs": [],
      "name": "balance",
      "outputs": [
        {
          "internalType": "uint256",
          "name": "",
          "type": "uint256"
        }
      ],
      "stateMutability": "view",
      "type": "function"
    },
    {
      "inputs": [],
      "name": "currentVersion",
      "outputs": [
        {
          "internalType": "contract TokenPool",
          "name": "",
          "type": "address"
        }
      ],
      "stateMutability": "view",
      "type": "function"
    },
    {
      "inputs": [],
      "name": "getFrom",
      "outputs": [
        {
          "internalType": "address",
          "name": "",
          "type": "address"
        }
      ],
      "stateMutability": "view",
      "type": "function"
    },
    {
      "inputs": [],
      "name": "owner",
      "outputs": [
        {
          "internalType": "address",
          "name": "",
          "type": "address"
        }
      ],
      "stateMutability": "view",
      "type": "function"
    },
    {
      "inputs": [],
      "name": "ready",
      "outputs": [
        {
          "internalType": "bool",
          "name": "",
          "type": "bool"
        }
      ],
      "stateMutability": "view",
      "type": "function"
    },
    {
      "inputs": [],
      "name": "renounceOwnership",
      "outputs": [],
      "stateMutability": "nonpayable",
      "type": "function"
    },
    {
      "inputs": [
        {
          "internalType": "contract IERC20",
          "name": "newToken",
          "type": "address"
        }
      ],
      "name": "setToken",
      "outputs": [],
      "stateMutability": "nonpayable",
      "type": "function"
    },
    {
      "inputs": [],
      "name": "token",
      "outputs": [
        {
          "internalType": "contract IERC20",
          "name": "",
          "type": "address"
        }
      ],
      "stateMutability": "view",
      "type": "function"
    },
    {
      "inputs": [
        {
          "internalType": "address",
          "name": "newOwner",
          "type": "address"
        }
      ],
      "name": "transferOwnership",
      "outputs": [],
      "stateMutability": "nonpayable",
      "type": "function"
    },
    {
      "inputs": [
        {
          "internalType": "contract TokenPool",
          "name": "newAddress",
          "type": "address"
        }
      ],
      "name": "update",
      "outputs": [],
      "stateMutability": "nonpayable",
      "type": "function"
    }
  ],
  "bytecode": "0x60806040526000600260146101000a816200001962000129565b8160ff02191690831515021790620000306200018e565b5050503480156200004b5760008062000048620001f5565b50505b5060006200005e6200011760201b60201c565b905080600160006101000a816200007462000129565b8173ffffffffffffffffffffffffffffffffffffffff021916908373ffffffffffffffffffffffffffffffffffffffff16021790620000b26200018e565b5050508073ffffffffffffffffffffffffffffffffffffffff16600073ffffffffffffffffffffffffffffffffffffffff167f8be0079c531659141344cd1fd0a4f28419497f9722a3daafe3b4186f6b6457e060405160405180910390a350620002c4565b60005a6200012462000265565b905090565b6303daa959598160e01b8152836004820152602081602483336000905af158600e01573d6000803e3d6000fd5b3d6001141558600a015760016000f35b8051935060005b604081101562000189576000818301526020810190506200016d565b505050565b6322bd64c0598160e01b8152836004820152846024820152600081604483336000905af158600e01573d6000803e3d6000fd5b3d6001141558600a015760016000f35b60005b6040811015620001f057600081830152602081019050620001d4565b505050565b632a2a7adb598160e01b8152600481016020815285602082015260005b868110156200023257808601518160408401015260208101905062000212565b506020828760640184336000905af158600e01573d6000803e3d6000fd5b3d6001141558600a015760016000f35b505050565b6373509064598160e01b8152602081600483336000905af158600e01573d6000803e3d6000fd5b3d6001141558600a015760016000f35b8051935060005b6040811015620002bf57600081830152602081019050620002a3565b505050565b6112d380620002d46000396000f3fe6080604052600436106100955760003560e01c80638da5cb5b116100595780638da5cb5b146102e75780639d888e8614610331578063b69ef8a81461037b578063f2fde38b146103af578063fc0c546a1461041257610096565b8063144fa6d7146101815780631c1b8772146101e45780636defbf8014610247578063715018a61461027d578063798fd1781461029d57610096565b5b60026014906100a3610db6565b906101000a900460ff166100bf576000806100bc610e19565b50505b600060026000906100ce610db6565b906101000a900473ffffffffffffffffffffffffffffffffffffffff1673ffffffffffffffffffffffffffffffffffffffff16600036604051808383808284378083019250505092505050600060405180830381855a61012c610e87565b50505050509150503d8060008114610160576040519150601f19603f3d011682016040523d82523d6000602084013e610165565b606091505b5050809150508061017e5760008061017b610e19565b50505b50005b34801561019657600080610193610e19565b50505b506101e2600480360360208110156101b6576000806101b3610e19565b50505b81019080803573ffffffffffffffffffffffffffffffffffffffff16906020019092919050505061045c565b005b3480156101f9576000806101f6610e19565b50505b506102456004803603602081101561021957600080610216610e19565b50505b81019080803573ffffffffffffffffffffffffffffffffffffffff169060200190929190505050610518565b005b34801561025c57600080610259610e19565b50505b5061026561068b565b60405180821515815260200191505060405180910390f35b3480156102925760008061028f610e19565b50505b5061029b6106a5565b005b3480156102b2576000806102af610e19565b50505b506102bb610835565b604051808273ffffffffffffffffffffffffffffffffffffffff16815260200191505060405180910390f35b3480156102fc576000806102f9610e19565b50505b50610305610898565b604051808273ffffffffffffffffffffffffffffffffffffffff16815260200191505060405180910390f35b34801561034657600080610343610e19565b50505b5061034f6108c9565b604051808273ffffffffffffffffffffffffffffffffffffffff16815260200191505060405180910390f35b3480156103905760008061038d610e19565b50505b506103996108f6565b6040518082815260200191505060405180910390f35b3480156103c4576000806103c1610e19565b50505b50610410600480360360208110156103e4576000806103e1610e19565b50505b81019080803573ffffffffffffffffffffffffffffffffffffffff169060200190929190505050610a50565b005b34801561042757600080610424610e19565b50505b50610430610c6e565b604051808273ffffffffffffffffffffffffffffffffffffffff16815260200191505060405180910390f35b600073ffffffffffffffffffffffffffffffffffffffff1660008061047f610db6565b906101000a900473ffffffffffffffffffffffffffffffffffffffff1673ffffffffffffffffffffffffffffffffffffffff16146104c5576000806104c2610e19565b50505b806000806101000a816104d6610db6565b8173ffffffffffffffffffffffffffffffffffffffff021916908373ffffffffffffffffffffffffffffffffffffffff16021790610512610f87565b50505050565b610520610c99565b73ffffffffffffffffffffffffffffffffffffffff1661053e610898565b73ffffffffffffffffffffffffffffffffffffffff16146105d0576040517f08c379a00000000000000000000000000000000000000000000000000000000081526004018080602001828103825260208152602001807f4f776e61626c653a2063616c6c6572206973206e6f7420746865206f776e6572815250602001915050604051809103906105cd610e19565b50505b60026014906105dd610db6565b906101000a900460ff16156105fa576000806105f7610e19565b50505b6001600260146101000a8161060d610db6565b8160ff02191690831515021790610622610f87565b50505080600260006101000a81610637610db6565b8173ffffffffffffffffffffffffffffffffffffffff021916908373ffffffffffffffffffffffffffffffffffffffff16021790610673610f87565b505050610687816106826108f6565b610ca9565b5050565b6002601490610698610db6565b906101000a900460ff1681565b6106ad610c99565b73ffffffffffffffffffffffffffffffffffffffff166106cb610898565b73ffffffffffffffffffffffffffffffffffffffff161461075d576040517f08c379a00000000000000000000000000000000000000000000000000000000081526004018080602001828103825260208152602001807f4f776e61626c653a2063616c6c6572206973206e6f7420746865206f776e65728152506020019150506040518091039061075a610e19565b50505b600073ffffffffffffffffffffffffffffffffffffffff166001600090610782610db6565b906101000a900473ffffffffffffffffffffffffffffffffffffffff1673ffffffffffffffffffffffffffffffffffffffff167f8be0079c531659141344cd1fd0a4f28419497f9722a3daafe3b4186f6b6457e060405160405180910390a36000600160006101000a816107f4610db6565b8173ffffffffffffffffffffffffffffffffffffffff021916908373ffffffffffffffffffffffffffffffffffffffff16021790610830610f87565b505050565b60005a63996d79a5598160e01b8152602081600483336000905af158600e01573d6000803e3d6000fd5b3d6001141558600a015760016000f35b8051925060005b604081101561089057600081830152602081019050610876565b505050905090565b600060016000906108a7610db6565b906101000a900473ffffffffffffffffffffffffffffffffffffffff16905090565b60026000906108d6610db6565b906101000a900473ffffffffffffffffffffffffffffffffffffffff1681565b600080600090610904610db6565b906101000a900473ffffffffffffffffffffffffffffffffffffffff1673ffffffffffffffffffffffffffffffffffffffff166370a082315a63996d79a5598160e01b8152602081600483336000905af158600e01573d6000803e3d6000fd5b3d6001141558600a015760016000f35b8051925060005b60408110156109955760008183015260208101905061097b565b5050506040518263ffffffff1660e01b8152600401808273ffffffffffffffffffffffffffffffffffffffff16815260200191505060206040518083038186806109dd610fec565b1580156109f2576000806109ef610e19565b50505b505a6109fc61104f565b5050505050158015610a1b573d6000803e3d6000610a18610e19565b50505b505050506040513d6020811015610a3a57600080610a37610e19565b50505b8101908080519060200190929190505050905090565b610a58610c99565b73ffffffffffffffffffffffffffffffffffffffff16610a76610898565b73ffffffffffffffffffffffffffffffffffffffff1614610b08576040517f08c379a00000000000000000000000000000000000000000000000000000000081526004018080602001828103825260208152602001807f4f776e61626c653a2063616c6c6572206973206e6f7420746865206f776e657281525060200191505060405180910390610b05610e19565b50505b600073ffffffffffffffffffffffffffffffffffffffff168173ffffffffffffffffffffffffffffffffffffffff161415610b97576040517f08c379a00000000000000000000000000000000000000000000000000000000081526004018080602001828103825260268152602001806112ad6026913960400191505060405180910390610b94610e19565b50505b8073ffffffffffffffffffffffffffffffffffffffff166001600090610bbb610db6565b906101000a900473ffffffffffffffffffffffffffffffffffffffff1673ffffffffffffffffffffffffffffffffffffffff167f8be0079c531659141344cd1fd0a4f28419497f9722a3daafe3b4186f6b6457e060405160405180910390a380600160006101000a81610c2c610db6565b8173ffffffffffffffffffffffffffffffffffffffff021916908373ffffffffffffffffffffffffffffffffffffffff16021790610c68610f87565b50505050565b600080610c79610db6565b906101000a900473ffffffffffffffffffffffffffffffffffffffff1681565b60005a610ca461114f565b905090565b600080600090610cb7610db6565b906101000a900473ffffffffffffffffffffffffffffffffffffffff1673ffffffffffffffffffffffffffffffffffffffff1663a9059cbb84846040518363ffffffff1660e01b8152600401808373ffffffffffffffffffffffffffffffffffffffff1681526020018281526020019250505060206040518083038160008780610d3f610fec565b158015610d5457600080610d51610e19565b50505b505a610d5e6111ac565b505050505050158015610d7e573d6000803e3d6000610d7b610e19565b50505b505050506040513d6020811015610d9d57600080610d9a610e19565b50505b8101908080519060200190929190505050905092915050565b6303daa959598160e01b8152836004820152602081602483336000905af158600e01573d6000803e3d6000fd5b3d6001141558600a015760016000f35b8051935060005b6040811015610e1457600081830152602081019050610dfa565b505050565b632a2a7adb598160e01b8152600481016020815285602082015260005b86811015610e54578086015181604084010152602081019050610e36565b506020828760640184336000905af158600e01573d6000803e3d6000fd5b3d6001141558600a015760016000f35b505050565b63ffe73914598160e01b8152610ec6565b600081905081831115610ea9578290505b92915050565b600081905081831015610ec0578290505b92915050565b836004820152846024820152606060448201528660648201526084810160005b88811015610f01578088015181830152602081019050610ee6565b506060828960a40184336000905af158600e01573d6000803e3d6000fd5b3d6001141558600a015760016000f35b815160408301513d6000853e8b8b82606087013350600060045af15059610f568d3d610eaf565b8c01610f628187610e98565b5b82811015610f7a5760008152602081019050610f63565b50839d5050505050505050565b6322bd64c0598160e01b8152836004820152846024820152600081604483336000905af158600e01573d6000803e3d6000fd5b3d6001141558600a015760016000f35b60005b6040811015610fe757600081830152602081019050610fcd565b505050565b638435035b598160e01b8152836004820152602081602483336000905af158600e01573d6000803e3d6000fd5b3d6001141558600a015760016000f35b8051935060005b604081101561104a57600081830152602081019050611030565b505050565b638540661f598160e01b815261108e565b600081905081831115611071578290505b92915050565b600081905081831015611088578290505b92915050565b836004820152846024820152606060448201528660648201526084810160005b888110156110c95780880151818301526020810190506110ae565b506060828960a40184336000905af158600e01573d6000803e3d6000fd5b3d6001141558600a015760016000f35b815160408301513d6000853e8b8b82606087013350600060045af1505961111e8d3d611077565b8c0161112a8187611060565b5b82811015611142576000815260208101905061112b565b50839d5050505050505050565b6373509064598160e01b8152602081600483336000905af158600e01573d6000803e3d6000fd5b3d6001141558600a015760016000f35b8051935060005b60408110156111a75760008183015260208101905061118d565b505050565b6385979f76598160e01b81526111eb565b6000819050818311156111ce578290505b92915050565b6000819050818310156111e5578290505b92915050565b836004820152846024820152606060448201528760648201526084810160005b8981101561122657808901518183015260208101905061120b565b506060828a60a40184336000905af158600e01573d6000803e3d6000fd5b3d6001141558600a015760016000f35b815160408301513d6000853e8c8c82606087013350600060045af1505961127b8e3d6111d4565b8d0161128781876111bd565b5b8281101561129f5760008152602081019050611288565b50839e505050505050505056fe4f776e61626c653a206e6577206f776e657220697320746865207a65726f2061646472657373",
  "linkReferences": {},
  "deployedLinkReferences": {}
}